:020000040800F2
:100000009807002081020008BF2800083F2100084F
:10001000BD2800086F060008E13C00080000000051
:10002000000000000000000000000000732C000829
:1000300071060008000000005D290008752C00080A
:100040009B0200089B0200089B0200089B0200081C
:100050009B0200089B0200089B0200089B0200080C
:100060009B0200089B0200089B0200089B020008FC
:100070009B0200089B0200089B0200089B020008EC
:100080009B020008000000009B0200089B02000881
:100090009B0200089B0200089B0200089B020008CC
:1000A0009B0200089B0200089B0200089B020008BC
:1000B000F12C00089B0200089B0200089B0200082C
:1000C0009B0200089B0200089B0200089B0200089C
:1000D0009B020008D53C00089B0200089B02000818
:1000E0009B0200089B0200089B0200089B0200087C
:1000F0009B0200089B0200089B0200080000000011
:10010000000000009B020008000000009B020008A5
:100110009B020008000000009B0200089B020008F0
:100120009B0200089B0200089B0200089B0200083B
:100130009B02000800000000000000009B02000875
:100140009B0200089B020008000000000000000065
:10015000000000000000000000000000000000009F
:100160000000000000000000000000009B020008EA
:100170009B020008000000000000000000000000DA
:10018000000000009B0200080000000000000000CA
:10019000000000000000000000000000000000005F
:1001A00000000000000000009B0200089B02000805
:1001B0009B0200089B0200089B0200080000000050
:1001C000000000009B02000800000000000000008A
:1001D0009B0200089B02000800F002F800F041F8C2
:1001E0000AA090E8000C82448344AAF10107DA4592
:1001F00001D100F036F8AFF2090EBAE80F0013F0A3
:10020000010F18BFFB1A43F001031847984D000077
:10021000B84D0000103A24BF78C878C1FAD8520708
:1002200024BF30C830C144BF04680C607047000070
:100230000023002400250026103A28BF78C1FBD8EF
:10024000520728BF30C148BF0B607047642900F0D7
:10025000F780002070471FB503F096FD1FBD10B555
:1002600010BD00F0CAF91146FFF7F5FF03F04AFD93
:1002700000F0E8F903B4FFF7F2FF03BC00F0F0F977
:100280000948804709480047FEE7FEE7FEE7FEE72A
:10029000FEE7FEE7FEE7FEE7FEE7FEE70448054966
:1002A000054A064B70470000E12C0008D901000800
:1002B0009801002098070020980300209803002050
:1002C00053EA020C00F069802DE9F04B4FF0000674
:1002D000002B1FBFB3FA83F503FA05F424FA05F6E1
:1002E0005E4012BF1643B2FA82F502FA05F4C5F178
:1002F00020051EBF22FA05FC44EA0C04203556EA0C
:10030000044C4FEA144418BF641C4FF000084FF02F
:100310000009904271EB030C39D3002919BFB1FADF
:1003200081F701FA07F6B0FA80F700FA07F6C7F18D
:1003300020071EBF20FA07FC46EA0C062037B6FB52
:10034000F4FCA7EB0507103F07F01F0BCBF12006CD
:100350000CFA0BFB2CFA06F644BFB3460026202FFE
:10036000A4BF5E464FF0000B5BEA060C08BF4FF0DF
:10037000010B19EB0B09ABFB027C48EB0608C01B19
:1003800006FB02CC0BFB03CC71EB0C01C1E70B4667
:10039000024641464846BDE8F08B13B54FF00000D9
:1003A0004FF00001AFF30080BDE81C407047000033
:1003B0000FB41CB5074B06AA7B446946009005980C
:1003C00000F003F90020694600F012F91CBC5DF84A
:1003D00014FB0000350200002DE9F0410E460446F2
:1003E000002020622046E168884730B3252805D0E8
:1003F000D4E901219047206A401CF2E7E1682046D9
:1004000000278847050018D0A5F14100192802D817
:1004100020354FF400673246294620462760FFF713
:1004200015FF40B1012804D0F61D26F00706083656
:10043000D8E7361DD6E72846DAE7206ABDE8F0811E
:100440002DE9F0410646002410687529314616A5AD
:1004500010D0AFF30080002802DA404213A507E075
:1004600031688A0701D512A502E0490704D511A514
:10047000012401E0AFF3008000210A2206F12407E5
:1004800009E0B0FBF2FCB0FBF2F302FB1C003030E1
:1004900078541846491C0028F3D123462A46304692
:1004A000BDE8F04100F032B8000000002D0000006F
:1004B0002B000000200000004FF0000200B51346A2
:1004C00094469646203922BFA0E80C50A0E80C5074
:1004D000B1F12001BFF4F7AF090728BFA0E80C5025
:1004E00048BF0CC05DF804EB890028BF40F8042B1E
:1004F00008BF704748BF20F8022B11F0804F18BF8B
:1005000000F8012B70477047704770472DE9F0479E
:100510000D4699469246044600F124080168880673
:1005200004D5E06921F01001216000E00120A8421B
:1005300001DD471B00E00027A1697A1902EB0900E1
:10054000081AA0612078C00602D42046AFF30080CC
:10055000002608E0D4E901211AF806009047206A35
:10056000401C761C20624E45F4DB2078C0060AD57C
:100570002046AFF3008006E0D4E901213020904707
:10058000206A401C2062381EA7F10107F4DC07E056
:10059000D4E9012118F805009047206A401C206228
:1005A000281EA5F10105F3DC2046AFF3008020787A
:1005B000000602D50220BDE8F0870120FBE700001D
:1005C00001694A1C02610878704700B58FB0CDE917
:1005D00001310021059105497944CDE90310114607
:1005E0006846FFF7F9FE0FB000BD0000E5FFFFFF12
:1005F0000A6802F8010B0A607047754600F02CF893
:10060000AE4605006946534620F00700854618B0FF
:1006100020B5FFF743FEBDE820404FF000064FF045
:1006200000074FF000084FF0000B21F00701AC4627
:10063000ACE8C009ACE8C009ACE8C009ACE8C00946
:100640008D46704710B50446AFF300802046BDE8E4
:100650001040FFF70FBE0000004870473401002033
:1006600001491820ABBEFEE7260002007047FEE7F6
:100670007047002240F6B83306E00021491C89B2D9
:100680009942FBD3521C92B28242F6D3704772B6A3
:10069000FEE710B5002140B190F825300122022B71
:1006A00005D00421C163012124E0012010BD0368AD
:1006B0001C6824F001041C6003681C6824F00E040C
:1006C0001C60836C1C6824F480741C6090F84430B7
:1006D000046C03F01F0302FA03F36360D0E91334E0
:1006E0005C60436D33B11C6824F480741C60D0E9F5
:1006F00016345C6080F82520002280F8242008460B
:1007000010BD70B590F82520002401212346022A4F
:1007100007D00422C26380F8251080F82430012419
:1007200029E00268156825F0010515600268156862
:1007300025F00E051560826C156825F4807515602E
:1007400090F84420056C02F01F0201FA02F26A6080
:10075000D0E913255560426D32B1156825F48075D6
:100760001560D0E91625556080F8251080F82430F2
:10077000816B01B18847204670BD000070B504460A
:1007800000F032F90546601C02D004484068044479
:1007900000F02AF9401BA042FAD370BD30000020BF
:1007A0002DE9F04FDFF80C92002301260325A9F173
:1007B000040B85B00F2709F1040AABF1040EF1E038
:1007C00006FA03FC12EA0C027ED00C7904F0030452
:1007D000012C01D0022C20D1846800945C0005FA21
:1007E00004F80494009C24EA08040094D1F80C80D6
:1007F000049C08FA04F8009C48EA0408C0F8088041
:10080000446824EA0C0491F804C0CCF3001C0CFAF0
:1008100003FC4CEA040CC0F804C00C79E443A407C0
:1008200002D18C68012C0ED0C4684FEA430805FA47
:1008300008FC24EA0C04D1F808C00CFA08FC4CEAC5
:10084000040CC0F80CC00C7904F00304022C16D17F
:10085000DC0800EB840CCDF808C0DCF820C05C0795
:100860004FEAD46807FA08F42CEA040C0C6904FA7D
:1008700008F444EA0C04DDF808C0CCF82040046811
:100880004FEA430805FA08FC24EA0C0491F804C076
:100890000CF0030C0CFA08FC4CEA040CC0F800C085
:1008A0004C6814F4403F7CD0434CD4F860C04CF00A
:1008B000010CC4F860C0246E23F0030C04F00104A2
:1008C00000943E4C644400E06BE00294A4684FEA5C
:1008D000837C4FEA1C7807FA08FC24EA0C04B0F188
:1008E000904F06D0DFF8D8C0604505D14FF0010C1D
:1008F00020E04FF0000C1DE0DFF8C8C0604502D1D9
:100900004FF0020C16E0DFF8C0C0604502D14FF096
:10091000030C0FE0DFF8B4C0604502D14FF0040CC7
:1009200008E0DFF8ACC0604502D14FF0050C01E0F3
:100930004FF0060C0CFA08FC4CEA040C029CC4F8BC
:1009400008C0D9F80040CC46D1F8048094435FEA4F
:10095000C82800D51443CCF80040DAF80040D4464B
:10096000D1F8048094435FEA882800D51443CCF87A
:100970000040DBF80040DC46D1F8048094435FEA95
:10098000883800D51443CCF80040DEF80040F44627
:10099000D1F8048094435FEAC83800D51443CCF8FA
:1009A00000405B1C0C682246DC407FF409AF05B0B8
:1009B000BDE8F08F08040140001002400000014033
:1009C0000004004800080048000C004800100048DF
:1009D000001400480069084000D0012070470AB1A7
:1009E00081617047816270470148806870470000EC
:1009F00030000020024881684268114481607047DD
:100A00003000002010B50024032000F073F800200F
:100A100000F008F808B1012401E000F025F82046B4
:100A200010BD000070B50E4E05460024706898B1E8
:100A30004FF47A71B1FBF0F00A490968B1FBF0F0AC
:100A400000F060FD40B9102D06D200222946501E4C
:100A500000F030F8356000E00124204670BD000051
:100A6000300000203C0000200A4882B0016E41F0B6
:100A700001010166016E01F001010091816D41F0FB
:100A800080518165806D00F08050009002B000F0D0
:100A9000A1B8000000100240002809DB00F01F028E
:100AA000012191404009800000F1E020C0F80011D0
:100AB00070470000F0B40E4B1B680C46C3F30223D2
:100AC000C3F10705042D00D90425191D072901D2FA
:100AD000002300E0DB1E012606FA05F1491E214035
:100AE00099409E40761E16403143F0BC03F0F9B8A1
:100AF0000CED00E0064900F0070208684FF6FF031E
:100B0000184040EA0220034A104308607047000082
:100B10000CED00E00000FA052B492C4B0A6832214D
:100B20004A432B4940B1B0F5007F086829D020F432
:100B3000C06040F480602CE00868C0F341200228C7
:100B400004D051F8800F20F4807022E0D1F88000AA
:100B500020F48070C1F88000086820F4C06040F480
:100B600000700860B2FBF3F0401C00E0401E4A69D0
:100B7000520501D50028F9D1486940050AD503205E
:100B80007047C0F34120022806D051F8800F40F48E
:100B90008070086000207047D1F8800040F48070B9
:100BA000C1F88000086820F4C06040F4007008605C
:100BB000B2FBF3F0401C00E0401E4A695205DBD551
:100BC0000028F9D1D8E700003C00002040420F0087
:100BD000007000400248816841F4804181607047A4
:100BE000007000402DE9F8430446006800269D4D42
:100BF00000035ED5A86D0027C00008D4A86D40F0A2
:100C00008050A865A86D012700F080500090DFF8A3
:100C10005892D9F8001041F48071C9F80010FFF71C
:100C2000E3FE804606E000BFFFF7DEFEA0EB080013
:100C300002282BD8D9F80000C005F5D5D5F89000CA
:100C400010F4407014D0216C814211D0D5F890007E
:100C5000D5F8901020F4407041F48031C5F8901020
:100C6000D5F8901021F48031C5F89010C5F89000A7
:100C7000C00711D0FFF7B8FE804641F2883907E07F
:100C8000FFF7B2FEA0EB0801494501D903260BE0AE
:100C9000D5F890008007F3D5D5F89000216C20F4AA
:100CA00040700843C5F890001FB1A86D20F0805037
:100CB000A8652078C00707D0D5F88800616820F0C3
:100CC00003000843C5F888002078800707D5D5F8C9
:100CD0008800A16820F00C000843C5F8880020783F
:100CE000400707D5D5F88800E16820F030000843B8
:100CF000C5F888002078000707D5D5F88800216955
:100D000020F0C0000843C5F888002078800607D589
:100D1000D5F88800616920F440600843C5F8880070
:100D20002078400607D5D5F88800A16920F4405006
:100D30000843C5F888002078000607D5D5F8880054
:100D4000E16920F440400843C5F888002088C005C8
:100D500007D5D5F88800216A20F440300843C5F84B
:100D600088002088800507D5D5F88800616A20F4BE
:100D700040200843C5F88800208840050FD5D5F8E5
:100D80008800A16A20F440100843C5F88800A06AD2
:100D9000B0F5801F03D1E86840F48010E860208837
:100DA00000050FD5D5F88800E16A20F4400008431B
:100DB000C5F88800E06AB0F5800F03D1E86840F418
:100DC0008010E8602088C0040FD5D5F88800216B1A
:100DD00020F040700843C5F88800206BB0F1807F98
:100DE00003D1E86840F48010E86020884FF000618B
:100DF00080040ED5D5F88800626B20F04060104367
:100E0000C5F88800606B884203D1E86840F4801020
:100E1000E860208840040ED5D5F88800A26B20F049
:100E200040601043C5F88800A06B884203D1E86891
:100E300040F48010E860208800040FD5D5F88800C1
:100E4000E16B20F040500843C5F88800E06BB0F13A
:100E5000805F03D1E86840F48030E8603046BDE848
:100E6000F883000000100240007000402DE9F047B8
:100E70000E4605004FF0000725D0DFF8AC81D8F80A
:100E8000000000F00F00B0420CD2D8F8001021F0A2
:100E90000F013143C8F80010D8F8000000F00F002F
:100EA000B04210D12968614CC80741F2883A5AD043
:100EB0006868DFF87C91032808D0022820682DD0CC
:100EC000400500282CDB0120BDE8F0872068800168
:100ED000F9D5E06800F00302E068C0F30310401C9D
:100EE000032A19D0534A00BFB2FBF0F0E268C2F304
:100EF00006225043E268C2F34162521C5200B0FB2A
:100F0000F2F0484517D9A06810F0F00F0CD0880710
:100F100011D5A86840B10EE0474AE5E78003D0E765
:100F200000F0B6F8484506D9A06820F0F00040F07F
:100F30008000A0608027A068696820F00300084353
:100F4000A060FFF751FD814606E000BFFFF74CFDB2
:100F5000A0EB090151453AD8A068696800F00C007F
:100F6000B0EB810FF2D12868810714D5400703D573
:100F7000A06840F4E060A0602878000705D5A0686C
:100F800020F4605040F4E060A060A068A96820F000
:100F9000F000084304E0802F03D1A06820F0F000A7
:100FA000A060D8F80010404601F00F01B14216D9F8
:100FB000016821F00F0131430160FFF715FD07467D
:100FC00007E000BFFFF710FDC11B514501D9032009
:100FD0007AE7D8F8000000F00F00B042F2D128788C
:100FE000400705D5A068E96820F4E0600843A060E8
:100FF0002878000706D5A068296920F4605040EAE7
:10100000C100A06000F044F8A1680C4AC1F30311CC
:10101000515C01F01F01C840094908600948006897
:10102000BDE8F047FFF7FEBC002002400010024080
:1010300000B4C4040024F40000366E018A4F000896
:101040003C000020300000200548064900688968FF
:10105000054AC1F30221515C01F01F01C8407047ED
:101060003C000020001002409A4F00080548064945
:1010700000688968054AC1F3C221515C01F01F0173
:10108000C84070473C000020001002409A4F000802
:10109000184910B58868C0F381021748012A0BD09F
:1010A0008A68164BC2F38102022A06D08A68C2F30C
:1010B0008102032A03D0002010BD184610BDCA6863
:1010C00002F00304CA68C2F30312521C032C02D0BC
:1010D000B0FBF2F001E0B3FBF2F0CA68C968C2F3FA
:1010E00006225043C1F34161491C4900B0FBF1F0B5
:1010F00010BD0000001002400024F40000366E0114
:101100002DE9F84304007AD02078F84DC00747D085
:10111000A868E96800F00C0001F003010C2802D077
:10112000082817D001E0032914D06068B0F5803F8B
:1011300017D0B0F5A02F286817D020F48030286091
:10114000286820F4802028606068E0B1FFF74CFC3C
:10115000064614E02868800322D560680028D2D0B3
:101160001EE0286840F48030EDE740F480202860DD
:10117000F7E700BFFFF738FC801B642870D82868A9
:101180008003F7D50CE0FFF72FFC064605E000BF13
:10119000FFF72AFC801B6428F0D828688003F7D466
:1011A000207880074CD5A868E96800F00C0001F0B1
:1011B00003010C2802D004280DD001E002290AD036
:1011C000E068002828682BD040F480702860FFF782
:1011D0000BFC064619E02868400502D5E0680028A7
:1011E00091D06868217C20F0FE4040EA0160686090
:1011F000BF480068FFF716FC002800D120E072E12C
:10120000FFF7F2FB801B0228B8D828684005F7D505
:101210006868217C20F0FE4040EA016068600FE0D1
:1012200020F480702860FFF7DFFB064605E000BF72
:10123000FFF7DAFB801B0228A0D828684005F7D406
:101240002078000729D560690028D5F8940013D0CC
:1012500040F00100C5F89400FFF7C6FB064606E023
:1012600090E000BFFFF7C0FB801B022886D8D5F8AE
:1012700094008007F6D510E020F00100C5F8940036
:10128000FFF7B2FB064604E0FFF7AEFB801B022827
:1012900078D8D5F894008007F6D42078400761D537
:1012A000A86D0026C00008D4A86D40F08050A86545
:1012B000A86D012600F0805000908E480168C90595
:1012C00011D40168804641F480710160FFF78CFB06
:1012D000074604E0FFF788FBC01B022852D8D8F865
:1012E0000000C005F6D5A068012815D00528D5F85E
:1012F000900016D020F00100C5F89000D5F89000BD
:1013000020F00400C5F89000A06841F28838B8B118
:10131000FFF76AFB07460EE0D5F8900040F00100A9
:10132000F0E740F00400C5F89000F5E7FFF75CFB3C
:10133000C11B414526D8D5F890008007F6D50CE0B2
:10134000FFF752FB074604E0FFF74EFBC11B414588
:1013500018D8D5F890008007F6D41EB1A86D20F0FB
:101360008050A8652078800629D5A0690028D5F886
:10137000980013D040F00100C5F89800FFF734FB47
:10138000064606E075E000BFFFF72EFB801B022833
:101390006FD8D5F898008007F6D510E020F001004E
:1013A000C5F89800FFF720FB064604E0FFF71CFB9A
:1013B000801B02285DD8D5F898008007F6D4E06934
:1013C000F0B3A968C1F3810103295DD00228286820
:1013D00020F08070286003D0FFF706FB04464BE046
:1013E000FFF702FB064604E0FFF7FEFA801B022827
:1013F0003FD828688001F7D4F4E908016FF00F02A4
:1014000002EB01110843218A5204490802EB4151C1
:10141000A26841EA02210843217D4FF07E4249083B
:1014200002EB41610843217B40EAC160E968324A2E
:1014300011400843E860286840F08070286000E0B0
:101440005EE0E86840F08070E860FFF7CDFA04469F
:1014500005E000BFFFF7C8FA001B022809D828687A
:101460008001F7D54CE000BFFFF7BEFA001B022851
:1014700002D90320BDE8F88328688001F4D4E86825
:101480001E490840E8603BE00128F3D0E868226A82
:1014900000F00301914226D1616A00F0F0020901D7
:1014A000103991421FD1A26A00F4FE41B1EB022F24
:1014B00019D194F82C2000F07841B1EBC26F12D111
:1014C000218E00F4C00249084905A1F5001191429E
:1014D00009D194F8341000F0C06049084906A1F120
:1014E000007181420CD00120C4E7000000100240CE
:1014F00030000020007000400C809F01FCFFEEFED9
:101500000020B7E710B5401EB0F1807F01D3012065
:1015100010BD4FF0E02460610F21601702F0E1FB85
:101520000020A06107202061002010BD7047704797
:101530007047704770477047F0B590F83C20012A1B
:101540003AD0012580F83C50022280F83D20036803
:101550005A689C68194E1A4FB34201D0BB4204D15D
:1015600022F4700C4A6842EA0C02DFF858C002EA22
:101570000C02D1F800C04CEA020CC3F804C00268A7
:10158000B2420DD0B2F1804F0AD00F4B9A4207D031
:101590000E4B9A4204D0BA4202D00D4B9A4204D16B
:1015A000896824F080031943916080F83D50002140
:1015B00080F83C100846F0BD0220F0BD002C014030
:1015C000003401408FFFFFFD000400400008004090
:1015D00000400140704710B5040003D094F83D006E
:1015E00010B107E0012010BD002084F83C00204627
:1015F00000F022F8022084F83D00211D206801F04F
:101600007DFB012084F8480084F83E0084F83F0008
:1016100084F8400084F8410084F8420084F84300D4
:1016200084F8440084F8450084F8460084F84700B4
:1016300084F83D00002010BD08B50068B0F1804F6F
:1016400012D10A48816D41F001018165806D00224F
:1016500000F00100009002211C20FFF72BFABDE8EA
:1016600008401C20FFF718BA08BD00000010024017
:1016700070B5044690F83C000025012814D00126DE
:1016800084F83C60022084F83D0022689068364B64
:10169000184020F47F409060086870282ED010DC3D
:1016A00010F00F0F03D021E04FF0020070BD4FEAA1
:1016B0002012072A1AD2DFE802F0525252524A3858
:1016C00040002A4BC21A984249D009DCB0F5805F2D
:1016D0000DD0B0F5005F1CD0B0F1101F06D13EE078
:1016E000102A3CD0202A3AD0502A38D0012584F83C
:1016F0003D60002084F83C00284670BDCB68D1E9ED
:101700000121206801F063FB2068816841F07701C6
:1017100009E0CB68D1E90121206801F058FB20687D
:10172000816841F480418160E1E7CA6849682068C6
:1017300001F002FD5021206806E0CA68496820686F
:1017400001F028FD6021206801F04CFBCFE7CA685A
:101750004968206801F0F0FC40212068F4E7226825
:1017600001461046F0E7000088FFCEFF2000100081
:1017700070472DE9F04104460068C66805694FF0DE
:101780000007A90713D5B10711D5F91E0161012082
:101790002077206880698007204602D0FFF7E8FFA5
:1017A00004E000F0DDF8204600F09FF92777680795
:1017B00016D5700714D521686FF004000861022067
:1017C00020772068806910F4407F204602D0FFF720
:1017D000CFFF04E000F0C4F8204600F086F9277738
:1017E000280715D5300713D521686FF00800086168
:1017F000042020772068C0698007204602D0FFF7C8
:10180000B7FF04E000F0ACF8204600F06EF927774F
:10181000E80616D5F00614D521686FF010000861AF
:10182000082020772068C06910F4407F204602D04D
:10183000FFF79EFF04E000F093F8204600F055F912
:101840002777E80708D0F00706D021686FF001007D
:101850000861204600F0C8F9280601D4A80408D57C
:10186000300606D521686FF4025008612046FFF764
:101870005EFEE80508D5300606D521686FF4807055
:1018800008612046FFF752FE680608D5700606D5A7
:1018900021686FF040000861204600F0A6F9A80614
:1018A00008D5B00606D521686FF0200008612046F3
:1018B000FFF73EFEE80208D5F00206D521686FF476
:1018C000801008612046FFF735FEA80208D5B00257
:1018D00006D521686FF4001008612046FFF729FE45
:1018E000680208D5700206D521686FF4800008618F
:1018F0002046FFF720FE28020AD5300208D52168CD
:101900006FF4000008612046BDE8F041FFF762BEB9
:10191000BDE8F08110B586B0044614216846FEF794
:10192000CBFD2068B0F1804F15D10C48C16C41F05F
:101930000101C164C06C002100F00100059002208B
:101940000090CDE9010103900120049069464FF019
:101950009040FEF725FF06B010BD000000100240C9
:10196000704770B5044690F83C0000260D460128EB
:101970000BD0012084F83C000C2A4AD007DC82B14D
:10198000042A20D0082A06D131E0022070BD102A96
:1019900053D0142A63D00126002084F83C0030463E
:1019A00070BD206801F028FA2068816941F00801C3
:1019B00081612068816921F0040181612068816969
:1019C0002A69114311E0206801F068FA20688169F2
:1019D00041F4006181612068816921F48061816145
:1019E000206881692A6941EA02218161D4E720687F
:1019F00001F09EFA2068C16941F00801C1612068C8
:101A0000C16921F00401C1612068C1692A691143DB
:101A100011E0206801F0D6FA2068C16941F4006144
:101A2000C1612068C16921F48061C1612068C16918
:101A30002A6941EA0221C161AEE7206801F00CFB8E
:101A40002068016D41F0080101652068016D21F0F9
:101A5000040101652068016D2A69114311E02068C5
:101A600001F032FB2068016D41F4006101652068DE
:101A7000016D21F4806101652068016D2A6941EAE8
:101A80000221016588E710B5040003D094F83D00F9
:101A900010B107E0012010BD002084F83C00204672
:101AA00000F022F8022084F83D00211D206801F09A
:101AB00025F9012084F8480084F83E0084F83F00AE
:101AC00084F8400084F8410084F8420084F8430020
:101AD00084F8440084F8450084F8460084F8470000
:101AE00084F83D00002010BD7047704730B50446B3
:101AF000022269B1042912D0082917D00C291CD060
:101B0000102921D094F84300012824D0012030BDB1
:101B100094F83E000128F9D184F83E201DE094F8A5
:101B20003F000128F2D184F83F2016E094F84000ED
:101B30000128EBD184F840200FE094F841000128FF
:101B4000E4D184F8412008E094F842000128DDD176
:101B500084F8422001E084F843200122206801F04B
:101B600029F9194B20681949194A984209D0884225
:101B700007D0904205D0174DA84202D0164DA8427A
:101B800003D1456C45F400454564206898420CD06B
:101B9000B0F1804F09D0114B984206D0104B9842BB
:101BA00003D0884201D0904207D181680D4A11408C
:101BB000062906D0B1F5803F03D0016841F001014C
:101BC0000160002030BD0000002C014000340140C5
:101BD0000040014000440140004801400004004032
:101BE00000080040070001007047704790F884101B
:101BF000012918D0012180F884102421C0F8881010
:101C000001680A680B6823F001030B6022F00051A1
:101C100000224266036819602021C0F8881080F80D
:101C2000842010467047022070477047704770B597
:101C3000044690F8840001281DD0012084F8840017
:101C40002420C4F8880020680568026822F0010298
:101C500002602068826822F060620A438260204647
:101C600001F0B8FA206805602020C4F88800002040
:101C700084F8840070BD022070BD70B5044690F8F1
:101C8000840001281DD0012084F884002420C4F899
:101C9000880020680568026822F00102026020685E
:101CA000826822F060420A438260204601F092FA84
:101CB000206805602020C4F88800002084F8840093
:101CC00070BD022070BD7047704770472DE9F0412C
:101CD00003680446D86919689A6840F60F052842D7
:101CE0004FF000054FF002060AD187067ED501F0BD
:101CF000200702F0805C57EA0C0777D0616F42E161
:101D0000B64FDFF8DCC2174001EA0C0C57EA0C0CA6
:101D10006CD05FEAC07C0CD05FEAC15C09D54FF0A3
:101D2000010CC3F820C0D4F8903043F00103C4F88C
:101D30009030830709D5D30707D023681E62D4F8F3
:101D4000903043F00403C4F8903043070AD5D3071A
:101D500008D0266804233362D4F8903043F002039D
:101D6000C4F8903003070CD501F020033B4308D0A2
:101D7000266808233362D4F8903043F00803C4F88F
:101D8000903003050BD54B0109D526684FF400634D
:101D90003362D4F8903043F02003C4F89030D4F884
:101DA0009030002B3DD0800609D501F0200002F0D4
:101DB0008051084303D0616F09B120468847D4F8A9
:101DC000900021688968490602D410F0280F2AD0B3
:101DD000204601F0E1FA2068806840061ED52068A0
:101DE000083050E8001F21F0400100E021E040E809
:101DF0000012002AF3D1D4F8800078B179498163C8
:101E0000D4F88000FEF77DFC00280AD0D4F88000CA
:101E1000816B00E02046BDE8F04108472046FFF70F
:101E200054FFBDE8F0812046FFF74FFFC4F8905003
:101E3000F7E7D4F86CC02027BCF1010F7ED15FEA30
:101E4000C06C7BD55FEAC16C78D510201862206821
:101E50008068400651D5D4F880100A6850680004A4
:101E6000000C3ED0B4F85C3083423AD9A4F85E004E
:101E70000868006880062CD4216851E8000F20F41F
:101E8000807041E80002002AF6D12068083050E84E
:101E9000001F21F0010140E80012002AF5D120685E
:101EA000083050E8001F21F0400140E80012002AED
:101EB000F5D1C4F88C70E566216851E8000F20F078
:101EC000100041E80002002AF6D1D4F88000FEF7A5
:101ED000E0FB2667B4F85C00B4F85E10401A81B2EB
:101EE00007E0B4F85C1081429BD11068800698D559
:101EF00026672046FFF799FE93E7B4F85C00B4F834
:101F00005E10401A81B2B4F85E00002889D0002922
:101F100087D0226852E8000F20F4907042E8000356
:101F2000002BF6D12D4BDB432068083050E8002F02
:101F30001A4040E8002CBCF1000F00E00EE0F3D1A5
:101F4000C4F88C70E5666567206850E8002F22F0C1
:101F5000100240E80023002BF6D1C9E7C60209D5DC
:101F6000560207D54FF4801018622046BDE8F041B4
:101F7000FFF7AABE03060AD501F0800302F40002AF
:101F8000134304D0A16F00297FF444AF49E7420610
:101F900011D54A060FD52046016851E8002F22F0DE
:101FA000400241E80023002BF6D1C0F88870856715
:101FB00000F0C4F835E7020206D54A0004D52046F1
:101FC000BDE8F041FFF77FBEC00195D5002993DA47
:101FD0002046BDE8F041FFF729BE000001000010D7
:101FE000200100048D33000810B5040003D0D4F89C
:101FF000880010B107E0012010BD002084F88400A3
:10200000204600F027F82420C4F8880020680168E2
:1020100021F001010160A06A10B1204601F0FCF836
:10202000204601F04BFC0128E6D02068416821F4ED
:10203000904141602068816821F02A018160206818
:10204000016841F0010101602046BDE8104001F047
:1020500047B9000010B598B00446142111A8FEF746
:102060002BFA44216846FEF727FA1B49206888426C
:1020700030D101200024CDE900046846FEF7B2FD0E
:1020800008B1FEF704FB1548016E41F4804101667A
:10209000016E01F480411691C16C41F00101C164EF
:1020A000C06C11A900F0010016904FF4C0601190AF
:1020B0000220CDE912040720CDE914404FF09040F2
:1020C000FEF76EFB002201212520FEF7F3FC252000
:1020D000FEF7E2FC18B010BD0038014000100240CD
:1020E00030B4D0F88C30202B02D0022030BC7047A6
:1020F000A9B1A2B10023C3660A4C0368A3420BD066
:102100005B681B0208D5046854E8003F43F0806315
:1021100044E80035002DF6D130BC01F009BD0120A6
:10212000E4E7000000800040012202490248FFF776
:10213000D7BF000005000020A00000207047FEE788
:1021400070B52C4D28682C4CA169401A322835D91D
:102150002868A06100F054F82070E27820EA0201BB
:10216000424061708243A270E070607A002228B918
:10217000012924D002292AD0032930D004291DD1D5
:102180001D48A3790E300178994230D14178E37926
:1021900099422CD18078217A884228D1174840F280
:1021A000F3110268D162C1600068322181630020AE
:1021B00000F078F8012060722868606270BDA07934
:1021C000401CC0B2A0710928F8D9A27170BDE07995
:1021D000401CC0B2E0710928F8D9E27170BD207AC4
:1021E000401CC0B220720928F8D9227270BDA271B9
:1021F000E271FAE7380000200000002054000020BF
:1022000070B5104D01212846FEF7E4FB80B1022194
:102210002846FEF7DFFB68B104212846FEF7DAFB0B
:1022200050B101214FF09040FEF7D4FB30B106E0F1
:10223000012404E0022402E0032400E004242046F8
:1022400070BD00000004004800B585B01421684648
:10225000FEF732F94FF6FF70009000200321CDE920
:102260000201019069460248FEF79AFA05B000BDE6
:102270000008004800B585B014216846FEF71CF937
:102280004FF6FF7000900120019003200390002082
:10229000029069460248FEF783FA05B000BD0000CF
:1022A0000008004870B5002406462146204600F08C
:1022B00003F900F041F94FF49635304600F010F97B
:1022C000641CAC42F9D370BD30B587B014216846A8
:1022D000FEF7F2F81E48C16C41F00401C164C16C04
:1022E00001F004010591C16C41F00101C164C16CB0
:1022F00001F001010591C16C41F00201C164C06CA3
:10230000012500F0020005904FF44870CDE900056A
:1023100000240394694602940E48FEF741FA28020D
:1023200003940090CDE901544FF090446946204653
:10233000FEF736FAFFF79EFFA06940F48070A061B7
:1023400004481830016841F40871016007B030BDDD
:102350000010024000040048203AD2B2034B02EBC6
:10236000420203EB021200F019B80000923D00088F
:10237000F0B50E460746002540F23F1407E021461F
:102380003846FFF7E9FF103C6D1CA4B2761C32788A
:10239000002A01D0142DF2D3F0BD00002DE9F04742
:1023A00091468A460026044600F086F8DFF8408011
:1023B000012700BF00F0C0F85FF0000539F81600F3
:1023C00007FA05F10842404601D1408800E0008844
:1023D00000F086F86D1C102DF0D3641CE4B2514659
:1023E000204600F069F8761C182EE3D3BDE8F0878C
:1023F0002800002010B5FFF767FF002000F014F858
:10240000084CA080A088A0F50241303906D000F029
:102410002FFB002000F008F8A08010BD00F09FFA0C
:10242000F7E700002800002070B51D490A6842F453
:1024300000720A600A6842F480720A60184C103C0C
:10244000226842F020022260164A1060086840F0BC
:102450002000086000BF00BF00BF206840F02000DF
:102460002060206840F480702060FFF7EDFE4FF0A0
:102470009041886A40F48070886200BF00BF00BF4E
:102480000848001F006885B2886940F48070886140
:10249000FFF7F0FE206840F400702060284670BD11
:1024A000280400481408004801B5BDF8000001499F
:1024B000488008BD2800002010B50C4601462020A9
:1024C00000F068F82146BDE81040212000F062B815
:1024D00001B5BDF800000149088008BD28000020B2
:1024E000134A116841F400711160114910390B68E9
:1024F00043F480730B600B6843F020030B600D4BBB
:102500001860106840F02000106000BF00BF00BFDE
:10251000086840F020000860086840F48070086097
:1025200000BF00BF00BF086840F40070086070473B
:1025300028040048140800481449086840F4007052
:102540000860086840F4807008601048103802681D
:1025500042F0200202600E4B22221A600A6842F00A
:1025600020020A6000BF00BF00BF016841F02001E7
:102570000160016841F48071016000BF00BF00BFCD
:10258000016841F4007101607047000028040048B0
:1025900014080048184B10B51A6842F400721A600B
:1025A0001A6842F480721A60134A103A146844F0B0
:1025B00020041460114C2060186840F0200018605E
:1025C00000BF00BF00BF106840F02000106010681E
:1025D00040F4807010602160186840F0200018609E
:1025E00000BF00BF00BF106840F0200010601068FE
:1025F00040F48070106010BD2804004814080048A2
:1026000070B5314D2868314CE169401AC82833D97A
:102610002868E061607A80B32DA13048FDF7C8FEDC
:102620002E493020FFF7A4FEA2892DA12B48FDF7EB
:10263000BFFE2A496020FFF79BFEA27A2BA1274804
:10264000FDF7B6FE25497820FFF792FE2868616AFB
:10265000401A41F2883188420ED90020FFF722FE4D
:1026600000206072244840F2E7310268D162C16004
:1026700000684FF4FA71816370BDFFE71FA117482E
:10268000FDF796FE15493020FFF772FEA2791EA1D4
:102690001248FDF78DFE11496020FFF769FEE279CF
:1026A0001CA10E48FDF784FE0C497820FFF760FE60
:1026B000227A1BA10948FDF77BFEBDE8704007495F
:1026C0009020FFF755BE00003800002000000020D9
:1026D00020202020202020535441000040000020D2
:1026E00020202020463A25640000000020202020E1
:1026F000443A256425250000540000202020202095
:1027000020202050534400002020202042313A2530
:10271000640000002020202042323A25640000009E
:102720002020202042333A256400000070B5124D6D
:10273000044601224FF47F412846FEF750F90F4E20
:10274000012204213046FEF74AF9002204213046D6
:10275000FEF745F9210200222846FEF740F9012242
:1027600004213046FEF73BF93046BDE870400022B8
:102770000421FEF734B9000000080048000C0048AE
:10278000F0B587B014216846FDF796FE2D48C16C60
:1027900041F00401C164C16C01F004010591C16CF8
:1027A00041F02001C164C16C01F020010591C16CB0
:1027B00041F00101C164C16C01F001010591C16CDE
:1027C00041F00201C164C16C01F002010591C16CCC
:1027D00041F00801C164C06C1B4E00F008004FF4CA
:1027E0007F440590012221463046FEF7F8F8174F46
:1027F000002204213846FEF7F2F80125CDE9004514
:1028000000240294694630460394FDF7C9FFCDE9E0
:10281000005469464FF090400294FDF7C1FF072035
:10282000CDE9000469460A480294FDF7B9FF042087
:102830000090CDE90154694638460394FDF7B0FF96
:1028400007B0F0BD0010024000080048000C00482E
:1028500000040048184810B5164901604FF416519D
:102860004160002181600C22C160C0E904128161D5
:10287000C161016241628162FFF7B6FB08B1FDF7F9
:1028800006FF00210C48FFF7F8F908B1FDF7FFFE3D
:1028900000210948FFF7CBF908B1FDF7F8FE06481B
:1028A000FFF7A4F9002803D0BDE81040FDF7EFBE04
:1028B00010BD000000380140A0000020FEE7FEE748
:1028C00010B58EB000240794089409940A940B94D0
:1028D0000C941C2168460D94FDF7EEFD1E484FF048
:1028E000804101604F21C0E9011440F2E731C0E9A5
:1028F00003148461FEF76FFE08B1FDF7C8FE4FF4C4
:102900008050079007A91448FEF7B2FE08B1FDF702
:10291000BEFE1148FFF7B7F808B1FDF7B8FE0B94FB
:102920000BA90D480D94FEF707FE08B1FDF7AFFEA9
:10293000602000904FF4FA70CDE90104042269464A
:1029400005480494FFF70DF808B1FDF7A0FE024812
:10295000FEF7E0FF0EB010BD54000020704730B508
:1029600001210020FFF716FE4FF47A70FDF781FE7B
:1029700000210120FFF70EFE41F290711020FFF7B9
:1029800009FE4FF41C516020FFF704FE0121612075
:10299000FFF700FE02214620FFF7FCFD48F2100180
:1029A0001320FFF7F7FD48F2FE011220FFF7F2FDBA
:1029B0004FF4A0610220FFF7EDFD41F2300103204A
:1029C000FFF7E8FD40F2033421463020FFF7E2FD37
:1029D00021463120FFF7DEFD21463220FFF7DAFDE8
:1029E000E51E29463320FFF7D5FD03213420FFF7EC
:1029F000D1FD21463520FFF7CDFD14213620FFF70C
:102A0000C9FD21463720FFF7C5FD21463820FFF7D5
:102A1000C1FD21463920FFF7BDFD29463A20FFF7C9
:102A2000B9FD03213B20FFF7B5FD21463C20FFF710
:102A3000B1FD4FF4A0513D20FFF7ACFD4FF4007104
:102A40009220FFF7A7FD21469320FFF7A3FD40F654
:102A50000D019020FFF79EFD41F218010320FFF7C2
:102A600099FDBDE8304040F273110720FFF792BD99
:102A700010B543F20801E320FFF78CFD1221E72097
:102A8000FFF788FD41F23121EF20FFF783FD0021A0
:102A90000120FFF77FFD4FF4E0610220FFF77AFD90
:102AA00041F230010320FFF775FD00210420FFF7FC
:102AB00071FD40F207210820FFF76CFD002109207D
:102AC000FFF768FD00210A20FFF764FD00210C20BC
:102AD000FFF760FD00210D20FFF75CFD00210F20B6
:102AE000FFF758FD00211020FFF754FD07211120AA
:102AF000FFF750FD00211220FFF74CFD00211320AD
:102B0000FFF748FDC820FDF739FE41F29061102023
:102B1000FFF740FD40F227211120FFF73BFD322057
:102B2000FDF72CFE1D211220FFF734FD3220FDF7AA
:102B300025FE4FF400611320FFF72CFD14212920FE
:102B4000FFF728FD0B212B20FFF724FD3220FDF796
:102B500015FE00212020FFF71DFD00212120FFF799
:102B600019FD07213020FFF715FD40F207713120D4
:102B7000FFF710FD06213220FFF70CFD40F2047133
:102B80003520FFF707FD41F604713620FFF702FDFF
:102B900004213720FFF7FEFC00213820FFF7FAFC64
:102BA00040F206713920FFF7F5FC40F201713C203C
:102BB000FFF7F0FC0F213D20FFF7ECFC0021502037
:102BC000FFF7E8FCEF215120FFF7E4FC0021522041
:102BD000FFF7E0FC40F23F115320FFF7DBFC4FF41E
:102BE0001C516020FFF7D6FC01216120FFF7D2FCC9
:102BF00000216A20FFF7CEFC00218020FFF7CAFCED
:102C000000218120FFF7C6FC00218220FFF7C2FCD3
:102C100000218320FFF7BEFC00218420FFF7BAFCCF
:102C200000218520FFF7B6FC10219020FFF7B2FCB1
:102C300000219220FFF7AEFC03219320FFF7AAFCAE
:102C40004FF488719520FFF7A5FC00219720FFF72E
:102C5000A1FC00219820FFF79DFC41F21801032000
:102C6000FFF798FCBDE8104040F273110720FFF712
:102C700091BC7047FDF7BEBE10B594B038216846D0
:102C8000FDF71AFC14210EA8FDF716FC4FF4007096
:102C9000FDF742FF01200090000401900220032470
:102CA000CDE907041421CDE90A100C900D90099488
:102CB0006846FEF725FA08B1FDF7E9FC0F20CDE9DB
:102CC0000E04002010901190129002210EA8FEF721
:102CD000CDF8002801D0FDF7DAFC14B010BD0000DB
:102CE0000248016841F470010160704788ED00E01E
:102CF0000148FEF73EBD0000540000202DE9F043DE
:102D00000268254B254D264E264C4FF080499842AF
:102D100007D0484505D0A84203D0B04201D0A04218
:102D200003D122F070074A683A431F4FDFF87CC096
:102D3000DFF87C8098420DD048450BD0A84209D0DE
:102D4000B04207D0A04205D0B84203D0604501D0C0
:102D5000404503D122F44075CA682A434D6922F0E8
:102D600080022A438D68C5620D688562984207D04B
:102D7000A04205D0B84203D0604501D0404501D102
:102D800009690163016841F00401016001214161A9
:102D90000260BDE8F0830000002C01400004004008
:102DA0000008004000340140004001400044014060
:102DB0000048014010B501F01F030121046A994049
:102DC0008C430462016A9A401143016210BD10B540
:102DD000846842EA032224F47F440A432243826047
:102DE00010BD00008268034B1A400A4342F00701FD
:102DF000816070478FFFCFFF2DE9F043056A026ABB
:102E000022F001020262436882691E4C25F002052D
:102E100022400C6822F0030214438A681B4E2A43A6
:102E2000194D1B4FDFF86CC0DFF86C90A84207D03B
:102E3000B04205D0B84203D0604501D048450AD120
:102E4000D0F8208028F00408C0F8208022F008087C
:102E5000CA6842EA0802A84207D0B04205D0B84288
:102E600003D0604501D0484505D14D6923F4407336
:102E70001D438B692B43436084614968416302624F
:102E8000BDE8F0838FFFFEFF002C014000340140BD
:102E9000004001400044014000480140F0B5056A8F
:102EA000026A22F010020262426883691A4C1C4EC8
:102EB00023400C6823F4407343EA042425F02003E4
:102EC0008D6843EA0513154DA84201D0B04208D1E0
:102ED000076A27F040070762CF6823F0800343EAC0
:102EE0000713A8420AD0B04208D00E4DA84205D020
:102EF0000D4DA84202D00D4DA84207D14D6922F4D4
:102F0000406242EA85028D6942EA8502426084613C
:102F1000496881630362F0BDFF8FFFFE002C014012
:102F2000003401400040014000440140004801409D
:102F3000F0B5056A026A22F4807202624268C369CF
:102F40001A4C1C4E23400C6823F003031C4325F449
:102F500000738D6843EA0523154DA84201D0B042A5
:102F600008D1076A27F480670762CF6823F40063FB
:102F700043EA0723A8420AD0B04208D00E4DA84227
:102F800005D00E4DA84202D00D4DA84207D14D6983
:102F900022F4405242EA05128D6942EA051242606B
:102FA000C4614968C1630362F0BD00008FFFFEFF8A
:102FB000002C014000340140004001400044014029
:102FC00000480140F0B5056A026A22F480520262AC
:102FD0004268C3691A4C1C4E23400C6823F44073AA
:102FE00043EA042425F400538D6843EA0533154D64
:102FF000A84201D0B04208D1076A27F4804707628F
:10300000CF6823F4004343EA0733A8420AD0B04212
:1030100008D00E4DA84205D00D4DA84202D00D4D4E
:10302000A84207D14D6922F4404242EA85128D69D7
:1030300042EA85124260C461496801640362F0BDDE
:10304000FF8FFFFE002C0140003401400040014092
:10305000004401400048014030B5056A026A22F48C
:10306000803202624268036D114C23400C681C439D
:1030700025F400330D8943EA05430E4DA8420BD0D9
:103080000D4DA84208D00D4DA84205D00C4DA842C8
:1030900002D00C4DA84204D14D6922F4803242EA9C
:1030A00005224260046549688164036230BD000006
:1030B0008FFFFEFF002C0140003401400040014022
:1030C000004401400048014030B5046A026A22F41D
:1030D000801202624268036D114D24F400142B40EB
:1030E0000D6843EA05230D8944EA05540D4DA842B5
:1030F0000BD00D4DA84208D00C4DA84205D00C4D68
:10310000A84202D00B4DA84204D14D6922F480227E
:1031100042EA8522426003654968C164046230BDA9
:10312000FF8FFFFE002C01400034014000400140B1
:10313000004401400048014010B5036A046A24F0CD
:10314000010404620E4CA0420BD00E4CA04208D0E9
:103150000D4CA04205D00D4CA04202D00C4CA04218
:1031600003D1046A24F004040462846924F0F004A6
:1031700044EA021423F00A020A438461026210BD89
:10318000002C014000340140004001400044014057
:103190000048014010B5036A046A24F01004046278
:1031A0000A4CA04202D00A4CA04203D1046A24F087
:1031B00040040462846923F0A00324F4704444EAC8
:1031C000023243EA01118261016210BD002C01400C
:1031D0000034014030B5416EB9B10268916892681F
:1031E000C1F342610B4B520F9C5CE50003F10804F4
:1031F000A25CB5FBF2F2A0F86A205A5C615CD200D6
:10320000B2FBF1F1A0F8681030BD0121A0F86A10FE
:10321000F8E700007A4F000890F82810090706D553
:1032200001684A68836B22F400421A434A6090F8AE
:103230002810C90706D001684A68C36A22F4003220
:103240001A434A6090F82810890706D501684A6831
:10325000036B22F480321A434A6090F82810490721
:1032600006D501684A68436B22F480221A434A60FB
:1032700090F82810C90606D501688A68C36B22F445
:1032800080521A438A6090F82810890606D5016892
:103290008A68036C22F400521A438A6090F828105E
:1032A000490611D501684A68436C22F480121A431A
:1032B0004A60416CB1F5801F06D101684A68836C91
:1032C00022F4C0021A434A6090F82810090606D575
:1032D00001684A68C06C22F4002202434A607047C9
:1032E0002DE9F84300260446C0F89060FDF77CFB0A
:1032F0008046206800684FF0200500076FF07E4789
:1033000013D54346002229042046009700F098FC7C
:1033100058B1216851E8000F20F0800041E8000218
:10332000002AF6D1C4F8885021E0206800684007E0
:1033300022D5434600224FF480012046009700F03A
:103340007FFCC8B1216851E8000F20F4907041E87B
:103350000002002AF6D12068083050E8001F21F052
:10336000010140E80012002AF5D1C4F88C5084F81D
:1033700084600320BDE8F883C4F88850C4F88C50FA
:1033800044F86C6F666026760020F3E710B5806A1B
:10339000FEF79BFC10BD000010B5026852E8001F4C
:1033A00021F4907142E80013002BF6D10E4B026815
:1033B000083252E8001F194042E80014002CF6D1F0
:1033C000C16E012908D1016851E8002F22F01002D6
:1033D00041E80023002BF6D12021C0F88C100021F9
:1033E000C166416710BD0000FEFFFFEF10B5B0F8E9
:1033F0006020D0F88C300168222B04D0886940F01E
:103400000800886110BD496A836D11401980816D83
:10341000891C8165B0F85E10491EA0F85E10B0F8F6
:103420005E100029EED1026852E8001F21F490716D
:1034300042E80013002BF6D10168083151E8002F53
:1034400022F0010241E80023002BF5D12021C0F831
:103450008C10002141670167154B02689A420BD01E
:103460005268120208D5036853E8002F22F08062E8
:1034700043E80024002CF6D1C26E012A02D0FEF7E8
:1034800053FE10BDC166026852E8001F21F0100112
:1034900042E80013002BF6D10168CA69D243D20674
:1034A00001D410220A62B0F85C10FEF7BEFB10BD1A
:1034B000008000402DE9F0470446B0F860600068E5
:1034C000C569D0F800A0D0F80890D4F88C10222953
:1034D00005D0816941F008018161BDE8F087B4F849
:1034E00068704FF0000844E02068406AA16D3040E9
:1034F0000880A06D801CA065B4F85E00401EA4F892
:103500005E002068C569690730D0E9070AD05FEA24
:10351000CA5107D501210162D4F8900040F00100A2
:10352000C4F89000A8070BD55FEAC97008D02168DD
:1035300002200862D4F8900040F00400C4F8900023
:1035400068070BD55FEAC97008D0216804200862BB
:10355000D4F8900040F00200C4F89000D4F8900035
:1035600020B12046FEF7B1FBC4F89080B4F85E00AD
:1035700000B30FB1A806B7D4B4F85E000028ACD0F1
:10358000B4F868108142A8D92068083050E8001FBC
:1035900021F0805140E80012002AF5D12A486067E6
:1035A000206850E8001F41F0200140E80012002A86
:1035B000F6D192E7216851E8000F20F4807041E8CD
:1035C0000002002AF6D1214A2068083050E8001F86
:1035D000114040E80013002BF6D12020C4F88C00E5
:1035E000C4F874804046C4F87080194A216891423A
:1035F0000BD04968090208D5226852E8001F21F063
:10360000806142E80013002BF6D1E16E012903D05E
:103610002046FEF789FDAFE7E066216851E8000F1C
:1036200020F0100041E80002002AF6D12068C169AC
:10363000C943C90601D410210162B4F85C102046C8
:10364000FEF7F3FA98E70000ED330008FEFFFFEF06
:103650000080004010B5B0F86020D0F88C300168D0
:10366000222B04D0886940F00800886110BD496AA7
:103670001140826D1170816D491C8165B0F85E103A
:10368000491EA0F85E10B0F85E100029EED1016866
:1036900051E8002F22F4907241E80023002BF6D16C
:1036A0000168083151E8002F22F0010241E80023AF
:1036B000002BF5D12021C0F88C1000214167016753
:1036C000154B02689A420BD05268120208D5036863
:1036D00053E8002F22F0806243E80024002CF6D14A
:1036E000C26E012A02D0FEF71FFD10BDC16602683E
:1036F00052E8001F21F0100142E80013002BF6D120
:103700000168CA69D243D20601D410220A62B0F815
:103710005C10FEF78AFA10BD008000402DE9F047EA
:103720000446B0F860600068C569D0F800A0D0F821
:103730000890D4F88C10222905D0816941F0080145
:103740008161BDE8F087B4F868704FF0000844E08C
:103750002068406AA16D30400870A06D401CA065D3
:10376000B4F85E00401EA4F85E002068C5696907D1
:1037700030D0E9070AD05FEACA5107D501210162BA
:10378000D4F8900040F00100C4F89000A8070BD5D1
:103790005FEAC97008D0216802200862D4F890005E
:1037A00040F00400C4F8900068070BD55FEAC970C8
:1037B00008D0216804200862D4F8900040F002008C
:1037C000C4F89000D4F8900020B12046FEF77DFAAE
:1037D000C4F89080B4F85E0000B30FB1A806B7D467
:1037E000B4F85E000028ACD0B4F868108142A8D9C3
:1037F0002068083050E8001F21F0805140E8001296
:10380000002AF5D12A486067216851E8000F40F08E
:10381000200041E80002002AF6D192E7216851E831
:10382000000F20F4807041E80002002AF6D1214AFE
:103830002068083050E8001F114040E80013002BBA
:10384000F6D12020C4F88C00C4F874804046C4F837
:103850007080194A216891420BD04968090208D545
:10386000226852E8001F21F0806142E80013002B1B
:10387000F6D1E16E012903D02046FEF755FCAFE7F3
:10388000E066206850E8001F21F0100140E80012B7
:10389000002AF6D12068C169C943C90601D41021A4
:1038A0000162B4F85C102046FEF7BFF998E700000B
:1038B00055360008FEFFFFEF008000402DE9F04183
:1038C0000446016880682269E36910436269002543
:1038D0001A431043DFF82CC20A688B4B1A4002438C
:1038E0000A6020684168E26821F440511143416058
:1038F0002168A069614501D0226A10438A68834B20
:103900001A4002438A602068C16A626A21F00F018E
:103910001143C1627E4923687E488B420DD1D0F8A5
:10392000880010F0030006D0012855D0022842D0AC
:1039300003283FD152E001203DE077498B420BD173
:10394000D0F8880010F00C0035D0042833D00828B7
:1039500040D00C282ED141E070498B420BD1D0F8D9
:10396000880010F0300026D0102835D0202831D023
:1039700030281FD132E06A498B420BD1D0F8880041
:1039800010F0C00017D0402826D0802822D0C028B0
:1039900010D123E063450DD1D0F8880010F44060C9
:1039A00009D0B0F5806F17D0B0F5006F12D0B0F528
:1039B000406F13D010205B495B4F00264FF400424C
:1039C00063453BD160B1022813D004280BD00828EE
:1039D00072D10DE00220EEE70420ECE70820EAE7D0
:1039E000FDF732FB01E0FDF753FB010001D17CE064
:1039F0001146606A37F810206768B1FBF2F007EBF8
:103A00004703834270D8B0EB073F6DD800230846C8
:103A10001946FCF755FC090241EA106102027808D8
:103A2000101871413A460023FCF74AFC3F4AA0F5C2
:103A30004071914258D82168C86056E0E3694FF65A
:103A4000EF7893422CD109284ED2DFE800F0050828
:103A5000114D0D4D4D4D1000FDF7F6FA01E0FDF74B
:103A600005FB010004D140E0FDF712FBF9E7114628
:103A7000606A37F81000B1FBF0F04100606801EBBC
:103A80005001B1FBF0F0A0F1100141452CD84FF6E8
:103A9000F0710140C0F3420001432068C16024E09E
:103AA000092821D2DFE800F0050912200E2020208D
:103AB0001100FDF7C9FA02E016E0FDF7D7FA0100A0
:103AC00004D112E0FDF7E4FAF9E71146606A37F82D
:103AD0001000B1FBF0F1606801EB5001B1FBF0F0B8
:103AE000A0F1100141450AD901250120A4F86A007E
:103AF00024F8680F2846E6602661BDE8F08180B2B0
:103B000099E7000000800040F369FFCFFFF4FF1148
:103B100000380140001002400044004000480040CE
:103B2000004C00400024F400624F0008FFFC0F002E
:103B300070B58165A0F85C20A0F85E200023436783
:103B400081684FF48056FF24B14204D10169F9B96C
:103B500040F2FF1122E07F25C1B1B1F1805F1AD0A0
:103B6000A0F86030C0F890302221C0F88C100168B5
:103B7000083151E8003F43F0010341E80034002CD4
:103B8000F5D1416EB1F1005F0ED031E0016941B96C
:103B9000A0F86040E6E7016919B13F21A0F8601084
:103BA000E0E7A0F86050DDE7B0F8681091421FD858
:103BB0008168B14201D10169B9B11D49416701690B
:103BC00041B1026852E8001F41F4807142E80013DD
:103BD000002BF6D10168083151E8002F42F08052E5
:103BE00041E80023002BF5D120E012494167F1E7BD
:103BF0008168B14201D1016969B10F494167016929
:103C000059B1026852E8001F41F4907142E8001374
:103C1000002BF6D10AE009494167026852E8001F0B
:103C200041F0200142E80013002BF6D1002070BDC6
:103C30001D370008B534000855360008ED3300087C
:103C40002DE9F047994617460D4604464FF0000807
:103C5000089E33E0701C31D0FCF7C6FEA0EB0900D3
:103C6000B04218D8BEB120680168490726D5802D1A
:103C700024D0402D22D0C169C94309070DD408259D
:103C800005622046FFF788FBC4F8905084F88480D2
:103C90000120BDE8F0870320FBE7C069C0430005B1
:103CA0000CD421684FF4006008622046FFF774FBD3
:103CB0002020C4F8900084F88480ECE72068C06974
:103CC00035EA000004D00020B842C3D00020E0E76D
:103CD0000120F9E70148FDF7F9BF0000A00000202E
:103CE000FEE70907090E002804DB00F1E02080F858
:103CF0000014704700F00F0000F1E02080F8141D60
:103D000070470000FCF77EFEFEF7B6FFFEF738FDB9
:103D1000FEF770FB0020FEF7C5FA4FF6FF70FEF7C6
:103D2000D7FB0020FEF7C0FBFEF7CAFD04211248B6
:103D3000FDF7DCFEFEF78EFD012210491048FEF76C
:103D4000CFF90E4C0F4D4FF47A76641F28686169E5
:103D5000401AC82804D9286860612079FEF7E6FC7B
:103D6000FEF7EEF9FEF74CFC2868216A401AB042D3
:103D7000ECD928682062E9E7540000200500002003
:103D8000A0000020380000204FF04070E1EE100A43
:103D9000704700000000000000000000000000006C
:103DA0000000000000000000000000000000000013
:103DB0000000000000000000000000000000000003
:103DC00000000000800180018001800180018001ED
:103DD000800180018001800180018001800100005C
:103DE00000008001800100000000000000000000D1
:103DF000000000000000CC00CC00CC00CC00CC00C7
:103E0000CC000000000000000000000000000000E6
:103E100000000000000000000000000000000000A2
:103E20000000000000000000000000000000600C26
:103E3000600C600C30063006FE1FFE1F300638078F
:103E40001803FE1FFE1F180318038C018C018C0140
:103E5000000000008000E003F80F9C0E8C1C8C1802
:103E60008C009800F801E007800E801C8C188C18DC
:103E70009C18B80CF00FE0038000800000000000E8
:103E800000000000000000000E181B0C110C1106B1
:103E90001106110311039B018E01C038C06C6044F0
:103EA0006044304430441844186C0C380000000062
:103EB00000000000E001F003380718061806300380
:103EC000F001F000F8009C310E33061E061C061CA3
:103ED000063FFC73F021000000000000000000001D
:103EE0000000000000000C000C000C000C000C0096
:103EF0000C000000000000000000000000000000B6
:103F000000000000000000000000000000000000B1
:103F100000000000000200038001C000C00060003B
:103F200060003000300030003000300030003000E1
:103F3000300060006000C000C0008001000300028B
:103F40000000000020006000C0008001800100032C
:103F50000003000600060006000600060006000634
:103F600000060003000380018001C0006000200003
:103F70000000000000000000000000000000C00081
:103F8000C000D806F807E001300338070000000041
:103F90000000000000000000000000000000000021
:103FA0000000000000000000000000000000800190
:103FB0008001800180018001FC3FFC3F8001800185
:103FC000800180018001000000000000000000006E
:103FD00000000000000000000000000000000000E1
:103FE00000000000000000000000000000000000D1
:103FF000000000008001800100010001800000003D
:1040000000000000000000000000000000000000B0
:1040100000000000000000000000E007E0070000D2
:104020000000000000000000000000000000000090
:104030000000000000000000000000000000000080
:104040000000000000000000000000000000000070
:1040500000000000C000C0000000000000000000E0
:1040600000000000000C000C000600060006000323
:10407000000300038003800180018001C000C000B4
:10408000C0006000600000000000000000000000B0
:1040900000000000E003F007380E180C0C180C1894
:1040A0000C180C180C180C180C180C180C18180CF0
:1040B000380EF007E00300000000000000000000E0
:1040C0000000000000018001C001F001980188019A
:1040D00080018001800180018001800180018001D8
:1040E000800180018001000000000000000000004D
:1040F00000000000E003F80F180C0C180C18001852
:104100000018000C000600038001C00060003000B1
:104110001800FC1FFC1F0000000000000000000051
:1041200000000000E001F807180E0C0C0C0C000C4D
:104130000006C003C007000C001800180C180C186B
:10414000180CF807E0030000000000000000000069
:1041500000000000000C000E000F000F800DC00CCE
:10416000600C600C300C180C0C0CFC3FFC3F000C7D
:10417000000C000C000C000000000000000000001B
:1041800000000000F80FF80F180018000C00EC03F6
:10419000FC071C0E001C0018001800180C181C0C42
:1041A000180EF807E0030000000000000000000007
:1041B00000000000C007F00F381C181818000C0091
:1041C000CC03EC0F3C0E1C1C0C180C180C18181C03
:1041D000380EF007E00300000000000000000000BF
:1041E00000000000FC1FFC1F000C0006000600037E
:1041F00080038001C001C000E0006000600070002A
:10420000300030003000000000000000000000001E
:1042100000000000E003F007380E180C180C180C12
:104220003806F007F007180C0C180C180C180C18AE
:10423000380CF80FE0030000000000000000000050
:1042400000000000E003F007380E1C0C0C180C18DE
:104250000C181C1C381EF81BE0190018000C000C70
:104260001C0EF807F0010000000000000000000034
:1042700000000000000000000000000000008001BD
:1042800080010000000000000000000000000000AD
:10429000000080018001000000000000000000001C
:1042A000000000000000000000000000000080018D
:1042B000800100000000000000000000000000007D
:1042C000000080018001000100018000000000006A
:1042D00000000000000000000000000000000000DE
:1042E00000000010001C800FE003F8001800F80028
:1042F000E003800F001C0010000000000000000020
:1043000000000000000000000000000000000000AD
:104310000000F81F000000000000F81F000000006F
:10432000000000000000000000000000000000008D
:10433000000000000000000000000000000000007D
:10434000000008003800F001C007001F0018001F1F
:10435000C007F00138000800000000000000000065
:1043600000000000E003F80F180C0C180C180018DF
:10437000000C000600038001C000C000C000000067
:104380000000C000C00000000000000000000000AD
:10439000000000000000E00718180420C229224A8B
:1043A000114409440944094409221113E20C024052
:1043B00004201818E00700000000000000000000C2
:1043C0000000000080038003C006C006C006600C29
:1043D000600C301830183018F83FF83F1C700C6033
:1043E0000C6006C006C000000000000000000000D5
:1043F00000000000FC03FC0F0C0C0C180C180C182F
:104400000C0CFC07FC0F0C180C300C300C300C3072
:104410000C18FC1FFC07000000000000000000005A
:1044200000000000C007F01F38381C300C70066018
:1044300006000600060006000600060006600C7076
:104440001C30F01FE007000000000000000000002A
:1044500000000000FE03FE0F060E061806180630C8
:1044600006300630063006300630063006180618CC
:10447000060EFE0FFE03000000000000000000001A
:1044800000000000FC3FFC3F0C000C000C000C0086
:104490000C00FC1FFC1F0C000C000C000C000C009E
:1044A0000C00FC3FFC3F000000000000000000008A
:1044B00000000000F83FF83F18001800180018002E
:1044C0001800F81FF81F180018001800180018002E
:1044D0001800180018000000000000000000000094
:1044E00000000000E00FF83F3C780E6006E007C0D7
:1044F0000300030003FE03FE03C007C006C00EC096
:104500003CF0F83FE00F0000000000000000000059
:10451000000000000C300C300C300C300C300C3033
:104520000C30FC3FFC3F0C300C300C300C300C30AD
:104530000C300C300C3000000000000000000000C7
:104540000000000080018001800180018001800165
:104550008001800180018001800180018001800153
:1045600080018001800100000000000000000000C8
:104570000000000000060006000600060006000617
:1045800000060006000600060006000618061806CB
:104590003807F003E0010000000000000000000008
:1045A0000000000006300618060C06060603860109
:1045B000C60066007600DE008E0106030606060CC5
:1045C0000618063006600000000000000000000031
:1045D000000000001800180018001800180018004B
:1045E000180018001800180018001800180018000B
:1045F0001800F81FF81F0000000000000000000075
:10460000000000000EE01EF01EF01EF036D836D876
:1046100036D836D866CC66CC66CCC6C6C6C6C6C644
:10462000C6C686C386C3000000000000000000006C
:10463000000000000C301C303C303C306C306C30E2
:10464000CC30CC308C310C330C330C360C360C3C6B
:104650000C3C0C380C300000000000000000000092
:1046600000000000E007F81F1C380E70066003C051
:1046700003C003C003C003C003C003C006600E70C4
:104680001C38F81FE00700000000000000000000D8
:1046900000000000FC0FFC1F0C380C300C300C30FC
:1046A0000C300C18FC1FFC070C000C000C000C005C
:1046B0000C000C000C0000000000000000000000D6
:1046C00000000000E007F81F1C380E70066003E0D1
:1046D00003C003C003C003C003C007E006630E3F6E
:1046E0001C3CF83FE0F700C00000000000000000A4
:1046F00000000000FE0FFE1F0638063006300630B0
:104700000638FE1FFE0706030606060C06180618E6
:1047100006300630066000000000000000000000C7
:1047200000000000E003F80F1C0C0C180C180C0023
:104730001C00F803E00F001E0038063006300E3073
:104740001C1CF80FE0070000000000000000000043
:1047500000000000FE7FFE7F80018001800180015B
:104760008001800180018001800180018001800141
:1047700080018001800100000000000000000000B6
:10478000000000000C300C300C300C300C300C30C1
:104790000C300C300C300C300C300C300C300C3039
:1047A0001818F81FE00700000000000000000000DB
:1047B0000000000003600630063006300C180C18AC
:1047C0000C18180C180C380E3006300670076003F1
:1047D0006003C001C00100000000000000000000F4
:1047E000000000000360C361C361C36166336633C8
:1047F00066336633663366336C1B6C1B6C1B2C1A7A
:104800003C1E380E380E00000000000000000000C2
:10481000000000000FE00C7018303018700C600EB3
:10482000C00780038003C003E006700C301C18181A
:104830000C300E6007E000000000000000000000E7
:104840000000000003C006600C301C383818300C23
:104850006006E007C00380018001800180018001C3
:1048600080018001800100000000000000000000C5
:1048700000000000FC7FFC7F006000300018000C8E
:10488000000600038001C0006000300018000C002A
:104890000600FE7FFE7F0000000000000000000018
:1048A00000000000E003E0036000600060006000C2
:1048B00060006000600060006000600060006000F8
:1048C000600060006000600060006000E003E003E2
:1048D0000000000030003000600060006000C00098
:1048E000C000C000C00180018001800100030003FE
:1048F00000030006000600000000000000000000A9
:1049000000000000E003E0030003000300030003D5
:10491000000300030003000300030003000300037F
:10492000000300030003000300030003E003E003AF
:10493000000000000000C001C001600360036003CC
:1049400030063006180C180C0000000000000000B3
:104950000000000000000000000000000000000057
:104960000000000000000000000000000000000047
:104970000000000000000000000000000000000037
:1049800000000000FFFFFFFF00000000000000002B
:10499000000000000C000C000C000C000C000C00CF
:1049A0000000000000000000000000000000000007
:1049B00000000000000000000000000000000000F7
:1049C0000000000000000000000000000000F003F4
:1049D000F8071C0C0C0C000FF00FF80C0C0C0C0C56
:1049E0001C0FF80FF018000000000000000000008D
:1049F0000000000018001800180018001800D80364
:104A0000F80F380C1818181818181818181818183B
:104A1000380CF80FD8030000000000000000000070
:104A20000000000000000000000000000000C003C3
:104A3000F007300E180C1800180018001800180C99
:104A4000300EF007C003000000000000000000006E
:104A50000000000000180018001800180018C01B03
:104A6000F01F301C181818181818181818181818CB
:104A7000301CF01FC01B0000000000000000000000
:104A80000000000000000000000000000000C00363
:104A9000F00F300C1818F81FF81F180018003818FD
:104AA000301CF00FC00700000000000000000000F4
:104AB00000000000800FC00FC000C000C000F00761
:104AC000F007C000C000C000C000C000C000C000AF
:104AD000C000C000C0000000000000000000000096
:104AE0000000000000000000000000000000E00DD9
:104AF000F80F180E0C0C0C0C0C0C0C0C0C0C0C0CF9
:104B0000180EF80FE00D000C0C0C1C06F807F00155
:104B10000000000018001800180018001800D8073E
:104B2000F80F381C1818181818181818181818180A
:104B300018181818181800000000000000000000E5
:104B400000000000C000C000000000000000C00025
:104B5000C000C000C000C000C000C000C000C00055
:104B6000C000C000C0000000000000000000000005
:104B700000000000C000C000000000000000C000F5
:104B8000C000C000C000C000C000C000C000C00025
:104B9000C000C000C000C000C000C000F800780025
:104BA000000000000C000C000C000C000C000C0CB1
:104BB0000C060C038C01CC006C00FC009C018C03E7
:104BC0000C030C060C0C00000000000000000000AC
:104BD00000000000C000C000C000C000C000C00055
:104BE000C000C000C000C000C000C000C000C000C5
:104BF000C000C000C0000000000000000000000075
:104C000000000000000000000000000000007C3CEC
:104C1000FF7EC7E383C183C183C183C183C183C1D5
:104C200083C183C183C100000000000000000000B8
:104C300000000000000000000000000000009807D5
:104C4000F80F381C181818181818181818181818E9
:104C500018181818181800000000000000000000C4
:104C60000000000000000000000000000000C00381
:104C7000F00F300C181818181818181818181818D9
:104C8000300CF00FC0030000000000000000000026
:104C90000000000000000000000000000000D80339
:104CA000F80F380C18181818181818181818181899
:104CB000380CF80FD8031800180018001800180056
:104CC0000000000000000000000000000000C01B09
:104CD000F01F301C18181818181818181818181859
:104CE000301CF01FC01B0018001800180018001816
:104CF0000000000000000000000000000000B007FD
:104D0000F003700030003000300030003000300020
:104D10003000300030000000000000000000000003
:104D20000000000000000000000000000000E003A0
:104D3000F003380E180C3800F003C007000C180CF4
:104D4000380EF007E0030000000000000000000043
:104D50000000000000008000C000C000C000F0079C
:104D6000F007C000C000C000C000C000C000C0000C
:104D7000C000C00780070000000000000000000025
:104D800000000000000000000000000000001818F3
:104D90001818181818181818181818181818181893
:104DA000381CF01FE01900000000000000000000A7
:104DB00000000000000000000000000000000C18CF
:104DC000180C180C180C300630063006600360030F
:104DD0006003C001C00100000000000000000000EE
:104DE0000000000000000000000000000000C141C1
:104DF000C141C361636363636363363636363636F7
:104E00001C1C1C1C1C1C00000000000000000000FA
:104E100000000000000000000000000000001C383E
:104E2000381C300C6006600360036003600360069A
:104E3000300C381C1C38000000000000000000008E
:104E4000000000000000000000000000000018301A
:104E5000301830187018600C600CE00CC006C006EA
:104E600080038003800380018001C001F000700096
:104E70000000000000000000000000000000FC1F17
:104E8000FC1F000C000600038001C0006000300021
:104E90001800FC1FFC1F00000000000000000000C4
:104EA0000000000000038001C000C000C000C0007E
:104EB000C000C00060006000300060004000C00022
:104EC000C000C000C000C000C0008001000300009E
:104ED00000000000800180018001800180018001CC
:104EE00080018001800180018001800180018001BA
:104EF00080018001800180018001800180018001AA
:104F0000000000006000C000C0018001800180013D
:104F100080018001000300030006000300018001FE
:104F200080018001800180018001C00060000000DC
:104F30000000000000000000000000000000000071
:104F40000000F010F81F080F000000000000000033
:104F50000000000000000000000000000000000051
:104F60000000010002000400060008000A000C0016
:104F70001000200040008000000101010103070132
:104F80000000080402040801010100000000000004
:104F900000000102030406070809000000000102E6
:104FA00003040000C44F000800000020400000007F
:104FB00014020008045000084000002058070000B8
:104FC00030020008000000000000000000000A009D
:104FD000D0070102030000000000000000000000F4
:104FE0000000000000000000000000000000FFFFC3
:104FF00000000000100000000100000000000000A0
:045000000024F40094
:04000005080001D915
:00000001FF
