:020000040800F2
:10000000C007002081020008FF240008F91C000836
:10001000FD240008FF050008ED2F00080000000087
:10002000000000000000000000000000B3280008ED
:100030006D060008000000009D250008B528000896
:100040009B0200089B0200089B0200089B0200081C
:100050009B0200089B0200089B0200089B0200080C
:100060009B0200089B0200089B0200089B020008FC
:100070009B0200089B0200089B0200089B020008EC
:100080009B020008000000009B0200089B02000881
:100090009B0200089B0200089B0200089B020008CC
:1000A0009B0200089B0200089B0200089B020008BC
:1000B000312900089B0200089B0200089B020008EF
:1000C0009B0200089B0200089B0200089B0200089C
:1000D0009B020008092F00089B0200089B020008F1
:1000E0009B0200089B0200089B0200089B0200087C
:1000F0009B0200089B0200089B0200080000000011
:10010000000000009B020008000000009B020008A5
:100110009B020008000000009B0200089B020008F0
:100120009B0200089B0200089B0200089B0200083B
:100130009B02000800000000000000009B02000875
:100140009B0200089B020008000000000000000065
:10015000000000000000000000000000000000009F
:100160000000000000000000000000009B020008EA
:100170009B020008000000000000000000000000DA
:10018000000000009B0200080000000000000000CA
:10019000000000000000000000000000000000005F
:1001A00000000000000000009B0200089B02000805
:1001B0009B0200089B0200089B0200080000000050
:1001C000000000009B02000800000000000000008A
:1001D0009B0200089B02000800F002F800F041F8C2
:1001E0000AA090E8000C82448344AAF10107DA4592
:1001F00001D100F036F8AFF2090EBAE80F0013F0A3
:10020000010F18BFFB1A43F00103184738400000E4
:1002100058400000103A24BF78C878C1FAD8520775
:1002200024BF30C830C144BF04680C607047000070
:100230000023002400250026103A28BF78C1FBD8EF
:10024000520728BF30C148BF0B607047642900F0D7
:100250007F80002070471FB502F0FEFE1FBD10B565
:1002600010BD00F092F91146FFF7F5FF02F0D0FE45
:1002700000F0B0F903B4FFF7F2FF03BC00F0B8F9E7
:100280000948804709480047FEE7FEE7FEE7FEE72A
:10029000FEE7FEE7FEE7FEE7FEE7FEE70448054966
:1002A000054A064B7047000021290008D9010008C3
:1002B000C0010020C0070020C0030020C0030020B0
:1002C0000FB41CB5074B06AA7B44694600900598FD
:1002D00000F043F90020694600F052F91CBC5DF8BB
:1002E00014FB0000B50200002DE9F0410E46044663
:1002F000002020622046E168884730B3252805D0D9
:10030000D4E901219047206A401CF2E7E1682046C9
:1003100000278847050018D0A5F14100192802D808
:1003200020354FF400673246294620462760FFF704
:100330008DFF40B1012804D0F61D26F007060836CF
:10034000D8E7361DD6E72846DAE7206ABDE8F0810F
:100350002DE9F0410646002410687529314616A59E
:1003600010D0AFF30080002802DA404213A507E066
:1003700031688A0701D512A502E0490704D511A505
:10038000012401E0AFF3008000210A2206F12407D6
:1003900009E0B0FBF2FCB0FBF2F302FB1C003030D2
:1003A00078541846491C0028F3D123462A46304683
:1003B000BDE8F04100F073B8000000002D0000001F
:1003C0002B0000002000000010B5431C02E010F8D4
:1003D000011B71B18107FAD14FF0013202C88C1AAA
:1003E0008C4314EAC211F9D0C01A0A0603D0C01E09
:1003F00010BDC01A10BD0A0401D0801E10BD090234
:10040000FCD0401E10BD4FF000020429C0F0128045
:1004100010F0030C00F01B80CCF1040CBCF1020FB7
:1004200018BF00F8012BA8BF20F8022BA1EB0C018C
:1004300000F00DB85FEAC17C24BF00F8012B00F882
:10044000012B48BF00F8012B70474FF0000200B5A8
:10045000134694469646203922BFA0E80C50A0E8E7
:100460000C50B1F12001BFF4F7AF090728BFA0E895
:100470000C5048BF0CC05DF804EB890028BF40F861
:10048000042B08BF704748BF20F8022B11F0804FA3
:1004900018BF00F8012B70477047704770472DE96F
:1004A000F0470D4699469246044600F1240801683B
:1004B000880604D5E06921F01001216000E00120E8
:1004C000A84201DD471B00E00027A1697A1902EB71
:1004D0000900081AA0612078C00602D42046AFF3B4
:1004E0000080002608E0D4E901211AF806009047B0
:1004F000206A401C761C20624E45F4DB2078C00642
:100500000AD52046AFF3008006E0D4E9012130206F
:100510009047206A401C2062381EA7F10107F4DCD6
:1005200007E0D4E9012118F805009047206A401C33
:100530002062281EA5F10105F3DC2046AFF3008000
:100540002078000602D50220BDE8F0870120FBE7F5
:1005500001694A1C02610878704700B58FB0CDE987
:1005600001310021059105497944CDE90310114677
:100570006846FFF7B9FE0FB000BD0000E5FFFFFFC2
:100580000A6802F8010B0A607047754600F02CF803
:10059000AE4605006946534620F00700854618B070
:1005A00020B5FFF77BFEBDE820404FF000064FF07E
:1005B00000074FF000084FF0000B21F00701AC4698
:1005C000ACE8C009ACE8C009ACE8C009ACE8C009B7
:1005D0008D46704710B50446AFF300802046BDE855
:1005E0001040FFF747BE0000004870475C01002044
:1005F00001491820ABBEFEE7260002007047FEE767
:1006000030B5184C0025E07A072827D1164904F1A7
:100610002C0002780B78303293421FD142784B780D
:10062000303293421AD182788B783032934215D18E
:10063000CA78C3789A4211D10A79303A092A0DD87A
:100640004B79303B092B09D889793039092905D8EC
:10065000027043708170E572012030BDE5720020A8
:1006600030BD0000000000205C0000207047002228
:1006700040F6B83306E00021491C89B29942FBD309
:10068000521C92B28242F6D3704772B6FEE710B5A2
:10069000002140B190F825300122022B05D0042121
:1006A000C163012124E0012010BD03681C6824F00F
:1006B00001041C6003681C6824F00E041C60836C39
:1006C0001C6824F480741C6090F84430046C03F0BF
:1006D0001F0302FA03F36360D0E913345C60436DD7
:1006E00033B11C6824F480741C60D0E916345C605B
:1006F00080F82520002280F82420084610BD70B51F
:1007000090F82520002401212346022A07D0042244
:10071000C26380F8251080F82430012429E00268A3
:10072000156825F0010515600268156825F00E05AD
:100730001560826C156825F48075156090F844206A
:10074000056C02F01F0201FA02F26A60D0E913257B
:100750005560426D32B1156825F480751560D0E999
:100760001625556080F8251080F82430816B01B182
:100770008847204670BD000070B5044600F032F98D
:100780000546601C02D004484068044400F02AF981
:10079000401BA042FAD370BD380000202DE9F04F75
:1007A000DFF80C92002301260325A9F1040B85B084
:1007B0000F2709F1040AABF1040EF1E006FA03FC7D
:1007C00012EA0C027ED00C7904F00304012C01D053
:1007D000022C20D1846800945C0005FA04F804948B
:1007E000009C24EA08040094D1F80C80049C08FAC8
:1007F00004F8009C48EA0408C0F80880446824EA29
:100800000C0491F804C0CCF3001C0CFA03FC4CEA75
:10081000040CC0F804C00C79E443A40702D18C682E
:10082000012C0ED0C4684FEA430805FA08FC24EAFC
:100830000C04D1F808C00CFA08FC4CEA040CC0F80F
:100840000CC00C7904F00304022C16D1DC0800EB78
:10085000840CCDF808C0DCF820C05C074FEAD468EF
:1008600007FA08F42CEA040C0C6904FA08F444EAC8
:100870000C04DDF808C0CCF8204004684FEA4308B7
:1008800005FA08FC24EA0C0491F804C00CF0030CEF
:100890000CFA08FC4CEA040CC0F800C04C6814F4D4
:1008A000403F7CD0434CD4F860C04CF0010CC4F8FD
:1008B00060C0246E23F0030C04F0010400943E4C4D
:1008C000644400E06BE00294A4684FEA837C4FEA42
:1008D0001C7807FA08FC24EA0C04B0F1904F06D00B
:1008E000DFF8D8C0604505D14FF0010C20E04FF093
:1008F000000C1DE0DFF8C8C0604502D14FF0020CCB
:1009000016E0DFF8C0C0604502D14FF0030C0FE0E5
:10091000DFF8B4C0604502D14FF0040C08E0DFF806
:10092000ACC0604502D14FF0050C01E04FF0060C61
:100930000CFA08FC4CEA040C029CC4F808C0D9F874
:100940000040CC46D1F8048094435FEAC82800D523
:100950001443CCF80040DAF80040D446D1F80480C3
:1009600094435FEA882800D51443CCF80040DBF8B4
:100970000040DC46D1F8048094435FEA883800D513
:100980001443CCF80040DEF80040F446D1F804806F
:1009900094435FEAC83800D51443CCF800405B1C90
:1009A0000C682246DC407FF409AF05B0BDE8F08F4B
:1009B000080401400010024000000140000400480B
:1009C00000080048000C00480010004800140048CF
:1009D0000069084000D0012070470AB1816170476A
:1009E000816270470148806870470000380000202D
:1009F00002488168426811448160704738000020D5
:100A000010B50024032000F073F8002000F008F86F
:100A100008B1012401E000F025F8204610BD0000D7
:100A200070B50E4E05460024706898B14FF47A7187
:100A3000B1FBF0F00A490968B1FBF0F000F0F8FBF7
:100A400040B9102D06D200222946501E00F030F881
:100A5000356000E00124204670BD00003800002011
:100A6000440000200A4882B0016E41F00101016695
:100A7000016E01F001010091816D41F080518165AD
:100A8000806D00F08050009002B000F0A1B800002E
:100A900000100240002809DB00F01F0201219140F4
:100AA0004009800000F1E020C0F80011704700000C
:100AB000F0B40E4B1B680C46C3F30223C3F10705C9
:100AC000042D00D90425191D072901D2002300E0B7
:100AD000DB1E012606FA05F1491E214099409E4081
:100AE000761E16403143F0BC02F081BA0CED00E0F6
:100AF000064900F0070208684FF6FF03184040EA75
:100B00000220034A10430860704700000CED00E02B
:100B10000000FA052B492C4B0A6832214A432B4925
:100B200040B1B0F5007F086829D020F4C06040F4DF
:100B300080602CE00868C0F34120022804D051F8FE
:100B4000800F20F4807022E0D1F8800020F48070C3
:100B5000C1F88000086820F4C06040F400700860AC
:100B6000B2FBF3F0401C00E0401E4A69520501D57B
:100B70000028F9D1486940050AD503207047C0F321
:100B80004120022806D051F8800F40F480700860A0
:100B900000207047D1F8800040F48070C1F88000D8
:100BA000086820F4C06040F400700860B2FBF3F005
:100BB000401C00E0401E4A695205DBD50028F9D1EF
:100BC000D8E700004400002040420F0000700040C1
:100BD0000248816841F480418160704700700040A4
:100BE0002DE9F0470E4605004FF0000725D0DFF84D
:100BF000AC81D8F8000000F00F00B0420CD2D8F859
:100C0000001021F00F013143C8F80010D8F800009F
:100C100000F00F00B04210D12968614CC80741F2C2
:100C2000883A5AD06868DFF87C91032808D00228F7
:100C300020682DD0400500282CDB0120BDE8F0877E
:100C400020688001F9D5E06800F00302E068C0F395
:100C50000310401C032A19D0534A00BFB2FBF0F026
:100C6000E268C2F306225043E268C2F34162521CBA
:100C70005200B0FBF2F0484517D9A06810F0F00F11
:100C80000CD0880711D5A86840B10EE0474AE5E7C7
:100C90008003D0E700F092F8484506D9A06820F01C
:100CA000F00040F08000A0608027A068696820F014
:100CB00003000843A060FFF795FE814606E000BFF1
:100CC000FFF790FEA0EB090151453AD8A06869688A
:100CD00000F00C00B0EB810FF2D12868810714D529
:100CE000400703D5A06840F4E060A06028780007C2
:100CF00005D5A06820F4605040F4E060A060A068D2
:100D0000A96820F0F000084304E0802F03D1A06818
:100D100020F0F000A060D8F80010404601F00F016C
:100D2000B14216D9016821F00F0131430160FFF78C
:100D300059FE074607E000BFFFF754FEC11B5145AF
:100D400001D903207AE7D8F8000000F00F00B04284
:100D5000F2D12878400705D5A068E96820F4E06062
:100D60000843A0602878000706D5A068296920F408
:100D7000605040EAC100A06000F020F8A1680C4A71
:100D8000C1F30311515C01F01F01C840094908601B
:100D900009480068BDE8F047FFF742BE0020024066
:100DA0000010024000B4C4040024F40000366E01B8
:100DB000324200084400002038000020184910B5D5
:100DC0008868C0F381021748012A0BD08A68164B45
:100DD000C2F38102022A06D08A68C2F38102032A82
:100DE00003D0002010BD184610BDCA6802F00304ED
:100DF000CA68C2F30312521C032C02D0B0FBF2F0FB
:100E000001E0B3FBF2F0CA68C968C2F3062250439E
:100E1000C1F34161491C4900B0FBF1F010BD000075
:100E2000001002400024F40000366E012DE9F84362
:100E300004007AD02078F84DC00747D0A868E96848
:100E400000F00C0001F003010C2802D0082817D094
:100E500001E0032914D06068B0F5803F17D0B0F5E9
:100E6000A02F286817D020F480302860286820F44C
:100E7000802028606068E0B1FFF7B4FD064614E00A
:100E80002868800322D560680028D2D01EE0286838
:100E900040F48030EDE740F480202860F7E700BFA1
:100EA000FFF7A0FD801B642870D828688003F7D561
:100EB0000CE0FFF797FD064605E000BFFFF792FD47
:100EC000801B6428F0D828688003F7D42078800736
:100ED0004CD5A868E96800F00C0001F003010C286B
:100EE00002D004280DD001E002290AD0E0680028D1
:100EF00028682BD040F480702860FFF773FD064609
:100F000019E02868400502D5E068002891D068689B
:100F1000217C20F0FE4040EA01606860BF48006824
:100F2000FFF77EFD002800D120E072E1FFF75AFDB7
:100F3000801B0228B8D828684005F7D56868217C4E
:100F400020F0FE4040EA016068600FE020F480700D
:100F50002860FFF747FD064605E000BFFFF742FDAA
:100F6000801B0228A0D828684005F7D42078000705
:100F700029D560690028D5F8940013D040F001000D
:100F8000C5F89400FFF72EFD064606E090E000BF8E
:100F9000FFF728FD801B022886D8D5F8940080072B
:100FA000F6D510E020F00100C5F89400FFF71AFD17
:100FB000064604E0FFF716FD801B022878D8D5F816
:100FC00094008007F6D42078400761D5A86D0026EC
:100FD000C00008D4A86D40F08050A865A86D012617
:100FE00000F0805000908E480168C90511D4016856
:100FF000804641F480710160FFF7F4FC074604E08D
:10100000FFF7F0FCC01B022852D8D8F80000C0053A
:10101000F6D5A068012815D00528D5F8900016D07F
:1010200020F00100C5F89000D5F8900020F00400F1
:10103000C5F89000A06841F28838B8B1FFF7D2FC3B
:1010400007460EE0D5F8900040F00100F0E740F0D0
:101050000400C5F89000F5E7FFF7C4FCC11B41454B
:1010600026D8D5F890008007F6D50CE0FFF7BAFC3B
:10107000074604E0FFF7B6FCC11B414518D8D5F878
:1010800090008007F6D41EB1A86D20F08050A865AE
:101090002078800629D5A0690028D5F8980013D0BB
:1010A00040F00100C5F89800FFF79CFC064606E0FA
:1010B00075E000BFFFF796FC801B02286FD8D5F8BB
:1010C00098008007F6D510E020F00100C5F89800E0
:1010D000FFF788FC064604E0FFF784FC801B02282B
:1010E0005DD8D5F898008007F6D4E069F0B3A96818
:1010F000C1F3810103295DD00228286820F08070A7
:10110000286003D0FFF76EFC04464BE0FFF76AFC53
:10111000064604E0FFF766FC801B02283FD82868DB
:101120008001F7D4F4E908016FF00F0202EB01111E
:101130000843218A5204490802EB4151A26841EA5E
:1011400002210843217D4FF07E42490802EB4161B4
:101150000843217B40EAC160E968324A11400843F4
:10116000E860286840F08070286000E05EE0E86891
:1011700040F08070E860FFF735FC044605E000BFF2
:10118000FFF730FC001B022809D828688001F7D53A
:101190004CE000BFFFF726FC001B022802D9032009
:1011A000BDE8F88328688001F4D4E8681E49084047
:1011B000E8603BE00128F3D0E868226A00F0030110
:1011C000914226D1616A00F0F00209011039914282
:1011D0001FD1A26A00F4FE41B1EB022F19D194F89D
:1011E0002C2000F07841B1EBC26F12D1218E00F4B7
:1011F000C00249084905A1F50011914209D194F8AE
:10120000341000F0C06049084906A1F10071814224
:101210000CD00120C4E7000000100240380000207C
:10122000007000400C809F01FCFFEEFE0020B7E73D
:1012300010B5401EB0F1807F01D3012010BD4FF0EA
:10124000E02460610F21601701F0D1FE0020A06151
:1012500007202061002010BD70477047704770471D
:1012600070477047F0B590F83C20012A3AD001252C
:1012700080F83C50022280F83D2003685A689C6840
:10128000194E1A4FB34201D0BB4204D122F4700C64
:101290004A6842EA0C02DFF858C002EA0C02D1F8B0
:1012A00000C04CEA020CC3F804C00268B2420DD080
:1012B000B2F1804F0AD00F4B9A4207D00E4B9A42A0
:1012C00004D0BA4202D00D4B9A4204D1896824F06E
:1012D00080031943916080F83D50002180F83C1054
:1012E0000846F0BD0220F0BD002C01400034014052
:1012F0008FFFFFFD00040040000800400040014057
:10130000704710B5040003D094F83D0010B107E019
:10131000012010BD002084F83C00204600F022F897
:10132000022084F83D00211D206801F007FB012008
:1013300084F8480084F83E0084F83F0084F84000B8
:1013400084F8410084F8420084F8430084F84400A3
:1013500084F8450084F8460084F8470084F83D008E
:10136000002010BD08B50068B0F1804F12D10A48C6
:10137000816D41F001018165806D002200F0010066
:10138000009002211C20FFF793FBBDE808401C20C1
:10139000FFF780BB08BD00000010024070B5044696
:1013A00090F83C000025012814D0012684F83C6008
:1013B000022084F83D0022689068364B184020F4E3
:1013C0007F409060086870282ED010DC10F00F0F5E
:1013D00003D021E04FF0020070BD4FEA2012072A2F
:1013E0001AD2DFE802F0525252524A3840002A4BD9
:1013F000C21A984249D009DCB0F5805F0DD0B0F533
:10140000005F1CD0B0F1101F06D13EE0102A3CD086
:10141000202A3AD0502A38D0012584F83D60002097
:1014200084F83C00284670BDCB68D1E901212068D2
:1014300001F0EDFA2068816841F0770109E0CB689E
:10144000D1E90121206801F0E2FA2068816841F4C5
:1014500080418160E1E7CA684968206801F08CFC3E
:101460005021206806E0CA684968206801F0B2FC93
:101470006021206801F0D6FACFE7CA684968206881
:1014800001F07AFC40212068F4E72268014610460A
:10149000F0E7000088FFCEFF2000100070472DE924
:1014A000F04104460068C66805694FF00007A907C7
:1014B00013D5B10711D5F91E0161012020772068ED
:1014C00080698007204602D0FFF7E8FF04E000F0C3
:1014D000DDF8204600F09FF92777680716D57007DA
:1014E00014D521686FF0040008610220207720687D
:1014F000806910F4407F204602D0FFF7CFFF04E060
:1015000000F0C4F8204600F086F92777280715D5A3
:10151000300713D521686FF0080008610420207798
:101520002068C0698007204602D0FFF7B7FF04E0BB
:1015300000F0ACF8204600F06EF92777E80616D5E3
:10154000F00614D521686FF010000861082020779C
:101550002068C06910F4407F204602D0FFF79EFF4C
:1015600004E000F093F8204600F055F92777E807EB
:1015700008D0F00706D021686FF00100086120460E
:1015800000F0C8F9280601D4A80408D5300606D50D
:1015900021686FF4025008612046FFF75EFEE805FF
:1015A00008D5300606D521686FF4807008612046A2
:1015B000FFF752FE680608D5700606D521686FF061
:1015C00040000861204600F0A6F9A80608D5B0063C
:1015D00006D521686FF0200008612046FFF73EFE27
:1015E000E80208D5F00206D521686FF48010086182
:1015F0002046FFF735FEA80208D5B00206D52168BF
:101600006FF4001008612046FFF729FE680208D534
:10161000700206D521686FF4800008612046FFF74C
:1016200020FE28020AD5300208D521686FF4000098
:1016300008612046BDE8F041FFF762BEBDE8F081D9
:1016400010B586B0044614216846FEF7FEFE2068F9
:10165000B0F1804F15D10C48C16C41F00101C1645B
:10166000C06C002100F00100059002200090CDE93F
:10167000010103900120049069464FF09040FFF76C
:101680008DF806B010BD000000100240704770B524
:10169000044690F83C0000260D4601280BD001209E
:1016A00084F83C000C2A4AD007DC82B1042A20D0FE
:1016B000082A06D131E0022070BD102A53D0142A26
:1016C00063D00126002084F83C00304670BD2068BD
:1016D00001F0B2F92068816941F008018161206858
:1016E000816921F004018161206881692A691143BF
:1016F00011E0206801F0F2F92068816941F400618D
:1017000081612068816921F480618161206881693B
:101710002A6941EA02218161D4E7206801F028FAB0
:101720002068C16941F00801C1612068C16921F0E8
:101730000401C1612068C1692A69114311E0206870
:1017400001F060FA2068C16941F40061C16120685C
:10175000C16921F48061C1612068C1692A6941EAD7
:101760000221C161AEE7206801F096FA2068016DA0
:1017700041F0080101652068016D21F00401016557
:101780002068016D2A69114311E0206801F0BCFA5C
:101790002068016D41F4006101652068016D21F44C
:1017A000806101652068016D2A6941EA02210165B5
:1017B00088E710B5040003D094F83D0010B107E0AD
:1017C000012010BD002084F83C00204600F022F8E3
:1017D000022084F83D00211D206801F0AFF80120AF
:1017E00084F8480084F83E0084F83F0084F8400004
:1017F00084F8410084F8420084F8430084F84400EF
:1018000084F8450084F8460084F8470084F83D00D9
:10181000002010BD7047704730B50446022269B100
:10182000042912D0082917D00C291CD0102921D046
:1018300094F84300012824D0012030BD94F83E00E4
:101840000128F9D184F83E201DE094F83F000128DA
:10185000F2D184F83F2016E094F840000128EBD143
:1018600084F840200FE094F841000128E4D184F886
:10187000412008E094F842000128DDD184F842209C
:1018800001E084F843200122206801F0B3F8194BED
:1018900020681949194A984209D0884207D09042D5
:1018A00005D0174DA84202D0164DA84203D1456C71
:1018B00045F400454564206898420CD0B0F1804F53
:1018C00009D0114B984206D0104B984203D0884261
:1018D00001D0904207D181680D4A1140062906D0F7
:1018E000B1F5803F03D0016841F0010101600020A3
:1018F00030BD0000002C0140003401400040014098
:10190000004401400048014000040040000800403D
:101910000700010070477047704770477047704775
:10192000704700002DE9F04103680446D869196842
:101930009A6840F60F0528424FF000054FF0020666
:101940000AD187067ED501F0200702F0805C57EAB5
:101950000C0777D0616F42E1B64FDFF8DCC2174069
:1019600001EA0C0C57EA0C0C6CD05FEAC07C0CD07E
:101970005FEAC15C09D54FF0010CC3F820C0D4F870
:10198000903043F00103C4F89030830709D5D307A2
:1019900007D023681E62D4F8903043F00403C4F8E3
:1019A000903043070AD5D30708D026680423336252
:1019B000D4F8903043F00203C4F8903003070CD5FC
:1019C00001F020033B4308D0266808233362D4F893
:1019D000903043F00803C4F8903003050BD54B0159
:1019E00009D526684FF400633362D4F8903043F091
:1019F0002003C4F89030D4F89030002B3DD08006FE
:101A000009D501F0200002F08051084303D0616F36
:101A100009B120468847D4F89000216889684906B2
:101A200002D410F0280F2AD0204601F0F9F92068DE
:101A3000806840061ED52068083050E8001F21F05D
:101A4000400100E021E040E80012002AF3D1D4F880
:101A5000800078B179498163D4F88000FEF74FFEA9
:101A600000280AD0D4F88000816B00E02046BDE851
:101A7000F04108472046FFF753FFBDE8F0812046BC
:101A8000FFF74EFFC4F89050F7E7D4F86CC020275A
:101A9000BCF1010F7ED15FEAC06C7BD55FEAC16CFF
:101AA00078D51020186220688068400651D5D4F897
:101AB00080100A6850680004000C3ED0B4F85C3016
:101AC00083423AD9A4F85E000868006880062CD4E6
:101AD000216851E8000F20F4807041E80002002ADC
:101AE000F6D12068083050E8001F21F0010140E8DD
:101AF0000012002AF5D12068083050E8001F21F0BC
:101B0000400140E80012002AF5D1C4F88C70E56667
:101B1000216851E8000F20F0100041E80002002A7F
:101B2000F6D1D4F88000FEF7B2FD2667B4F85C0069
:101B3000B4F85E10401A81B207E0B4F85C1081423C
:101B40009BD11068800698D526672046FFF7E4FEF3
:101B500093E7B4F85C00B4F85E10401A81B2B4F8B0
:101B60005E00002889D0002987D0226852E8000F43
:101B700020F4907042E80003002BF6D12D4BDB439C
:101B80002068083050E8002F1A4040E8002CBCF1D3
:101B9000000F00E00EE0F3D1C4F88C70E5666567D5
:101BA000206850E8002F22F0100240E80023002BAC
:101BB000F6D1C9E7C60209D5560207D54FF4801001
:101BC00018622046BDE8F041FFF7A9BE03060AD51A
:101BD00001F0800302F40002134304D0A16F002936
:101BE0007FF444AF49E7420611D54A060FD5204697
:101BF000016851E8002F22F0400241E80023002B49
:101C0000F6D1C0F88870856700F075F835E70202F4
:101C100006D54A0004D52046BDE8F041FFF77EBE58
:101C2000C00195D5002993DA2046BDE8F041FFF7C1
:101C300074BE00000100001020010004152E0008F1
:101C40002DE9F84F0446D0F88800984615460E4610
:101C5000202802D00220BDE8F88F96B38DB3002073
:101C6000C4F890004FF02109C4F888901834FEF7AA
:101C7000B9FEA5878246E58754F8100C183CB0F5EC
:101C8000805F01D1206910B13546002600E00025B3
:101C90005FF02007B4F8560053464FF00002CDF82D
:101CA0000080D8B18021204601F0E4F8D8B955B1C0
:101CB00015F8010B21688862D4F8881039EA010010
:101CC00006D00120C7E736F8020BC0F30800F1E7A1
:101CD000B4F85600401EA4F85600DBE74021204629
:101CE00001F0C8F818B1C4F888700320B3E7C4F84D
:101CF00088700020AFE77047FEE700002DE9F04153
:101D00003B4F38683B4CA169401A32283CD93868AF
:101D1000A06100F073F82070E278002520EA02014B
:101D2000424061708243A270E070607A012628B957
:101D300001292BD0022934D003293DD0042923D1F5
:101D4000002000F0ADF82B48A2792C3001789142A8
:101D50003DD14178E279914239D18078217A884227
:101D600035D1254840F2F3110268D162C1600268A2
:101D7000322191630068456266723046267100F038
:101D800003FB257338686062BDE8F081E07B30B109
:101D9000A079401CC0B2A071092800D9A571E673D2
:101DA000F2E7207C30B1E079401CC0B2E071092834
:101DB00000D9E5712674E7E7607C30B1207A401CD9
:101DC000C0B22072092800D925726674DCE7207B36
:101DD000401CC0B22073032802D366733868A06227
:101DE000A571E5712572E57325746574CCE7000073
:101DF00040000020000000207C00002070B5104D45
:101E000001212846FEF7E4FD80B102212846FEF7B5
:101E1000DFFD68B104212846FEF7DAFD50B101214B
:101E20004FF09040FEF7D4FD30B106E0012404E00D
:101E3000022402E0032400E00424204670BD0000D8
:101E40000004004800B585B014216846FEF7FDFA8D
:101E50004FF6FF70009000200321CDE902010190B0
:101E600069460248FEF79AFC05B000BD000800482C
:101E700000B585B014216846FEF7E7FA4FF6FF700B
:101E800000900120019003200390002002906946F9
:101E90000248FEF783FC05B000BD000000080048C2
:101EA00070B5002406462146204600F003F900F0F4
:101EB00041F94FF49635304600F010F9641CAC42FD
:101EC000F9D370BD30B587B014216846FEF7BDFA6E
:101ED0001E48C16C41F00401C164C16C01F00401F1
:101EE0000591C16C41F00101C164C16C01F00101B7
:101EF0000591C16C41F00201C164C06C012500F084
:101F0000020005904FF44870CDE9000500240394C9
:101F1000694602940E48FEF741FC280203940090A3
:101F2000CDE901544FF0904469462046FEF736FC57
:101F3000FFF79EFFA06940F48070A061044818304C
:101F4000016841F40871016007B030BD0010024023
:101F500000040048203AD2B2034B02EB420203EBEA
:101F6000021200F019B8000062300008F0B50E4609
:101F70000746002540F23F1407E021463846FFF7A8
:101F8000E9FF103C6D1CA4B2761C3278002A01D007
:101F9000142DF2D3F0BD00002DE9F04791468A469A
:101FA0000026044600F086F8DFF84080012700BFD5
:101FB00000F0C0F85FF0000539F8160007FA05F1E7
:101FC0000842404601D1408800E0008800F086F8D1
:101FD0006D1C102DF0D3641CE4B25146204600F075
:101FE00069F8761C182EE3D3BDE8F0873200002094
:101FF00010B5FFF767FF002000F014F8084CA08030
:10200000A088A0F50241303906D000F051FB002035
:1020100000F008F8A08010BD00F0C1FAF7E700005A
:102020003200002070B51D490A6842F400720A604F
:102030000A6842F480720A60184C103C226842F030
:1020400020022260164A1060086840F020000860F4
:1020500000BF00BF00BF206840F020002060206863
:1020600040F480702060FFF7EDFE4FF09041886AE9
:1020700040F48070886200BF00BF00BF0848001FA6
:10208000006885B2886940F480708861FFF7F0FECF
:10209000206840F400702060284670BD2804004885
:1020A0001408004801B5BDF800000149488008BD8A
:1020B0003200002010B50C460146202000F068F8E0
:1020C0002146BDE81040212000F062B801B5BDF8FE
:1020D00000000149088008BD32000020134A116841
:1020E00041F400711160114910390B6843F4807399
:1020F0000B600B6843F020030B600D4B18601068F9
:1021000040F02000106000BF00BF00BF086840F032
:1021100020000860086840F48070086000BF00BFBD
:1021200000BF086840F40070086070472804004849
:10213000140800481449086840F4007008600868F2
:1021400040F48070086010481038026842F02002A5
:1021500002600E4B22221A600A6842F020020A60D6
:1021600000BF00BF00BF016841F0200101600168AD
:1021700041F48071016000BF00BF00BF016841F4FD
:1021800000710160704700002804004814080048EE
:10219000184B10B51A6842F400721A601A6842F4BB
:1021A00080721A60134A103A146844F020041460D4
:1021B000114C2060186840F02000186000BF00BF7C
:1021C00000BF106840F020001060106840F480707C
:1021D00010602160186840F02000186000BF00BF48
:1021E00000BF106840F020001060106840F480705C
:1021F000106010BD280400481408004870B5404D18
:102200002868404CE169401AC8283DD92868E06137
:10221000607A002839D03CA13E48FEF751F83D498C
:102220001820FFF7A3FE628A3BA13A48FEF748F860
:1022300038494820FFF79AFEA27A3AA13548FEF7BE
:102240003FF834496020FFF791FE2868616A401A20
:1022500041F28831884217D9354840F2E7310268A7
:10226000D162C16002684FF4FA7191630068002581
:1022700045622846FFF714FE65722571284600F076
:1022800083F8E5732574657470BD2AA12148FEF7B3
:1022900017F820491820FFF769FEE07B28B1A279E2
:1022A00027A11C48FEF70CF803E028A11948FEF707
:1022B00007F818494820FFF759FE207C28B1E27939
:1022C00025A11448FDF7FCFF03E026A11148FDF706
:1022D000F7FF10496020FFF749FE607C28B1227AA1
:1022E00023A10C48FDF7ECFF03E024A10948FDF70A
:1022F000E7FFBDE8704007497820FFF737BE0000D0
:10230000400000200000002020202020202020531A
:10231000544100004800002020202020463A256437
:10232000487A000020202020443A2564252500001A
:102330007C0000202020202020202050534400003A
:102340002020202042313A25640000002020202057
:1023500042313A40000000002020202042323A253D
:10236000640000002020202042323A40000000009B
:102370002020202042333A25640000002020202025
:1023800042333A400000000070B5124D044601226D
:102390004FF47F412846FEF720FB0F4E0122042117
:1023A0003046FEF71AFB002204213046FEF715FBEB
:1023B000210200222846FEF710FB012204213046AC
:1023C000FEF70BFB3046BDE8704000220421FEF70B
:1023D00004BB000000080048000C0048F0B587B0BE
:1023E00014216846FEF731F82D48C16C41F0040114
:1023F000C164C16C01F004010591C16C41F0200180
:10240000C164C16C01F020010591C16C41F0010172
:10241000C164C16C01F001010591C16C41F0020180
:10242000C164C16C01F002010591C16C41F0080169
:10243000C164C06C1B4E00F008004FF47F4405904F
:10244000012221463046FEF7C8FA174F0022042128
:102450003846FEF7C2FA0125CDE900450024029472
:10246000694630460394FEF799F9CDE90054694670
:102470004FF090400294FEF791F90720CDE9000457
:1024800069460A480294FEF789F904200090CDE9D4
:102490000154694638460394FEF780F907B0F0BD51
:1024A0000010024000080048000C004800040048EA
:1024B00070B5104C2068104D6969401A642816D90F
:1024C000206868612879FFF75FFF687B00280ED0DD
:1024D0002068A96A41F28832411A0020914207D847
:1024E000A97B91F00101A97300D00220287170BD71
:1024F000687370BD4000002000000020FEE7FEE78A
:1025000010B58EB000240794089409940A940B9493
:102510000C941C2168460D94FDF797FF1E484FF060
:10252000804101604F21C0E9011440F2E731C0E968
:1025300003148461FEF7E5FE08B1FEF7A6F84FF438
:102540008050079007A91448FEF728FF08B1FEF74E
:102550009CF81148FFF72DF908B1FEF796F80B9497
:102560000BA90D480D94FEF77DFE08B1FEF78DF81E
:10257000602000904FF4FA70CDE90104042269460E
:1025800005480494FFF783F808B1FEF77EF8024887
:10259000FFF756F80EB010BD7C000020704730B534
:1025A00001210020FFF7F4FD4FF47A70FEF75FF889
:1025B00000210120FFF7ECFD41F290711020FFF7A0
:1025C000E7FD4FF41C516020FFF7E2FD012161207F
:1025D000FFF7DEFD02214620FFF7DAFD48F2100189
:1025E0001320FFF7D5FD48F2FE011220FFF7D0FDC2
:1025F0004FF4A0610220FFF7CBFD41F23001032030
:10260000FFF7C6FD40F2033421463020FFF7C0FD3E
:1026100021463120FFF7BCFD21463220FFF7B8FDEF
:10262000E51E29463320FFF7B3FD03213420FFF7D1
:10263000AFFD21463520FFF7ABFD14213620FFF713
:10264000A7FD21463720FFF7A3FD21463820FFF7DD
:102650009FFD21463920FFF79BFD29463A20FFF7D1
:1026600097FD03213B20FFF793FD21463C20FFF718
:102670008FFD4FF4A0513D20FFF78AFD4FF400710C
:102680009220FFF785FD21469320FFF781FD40F65C
:102690000D019020FFF77CFD41F218010320FFF7A8
:1026A00077FDBDE8304040F273110720FFF770BDA1
:1026B00010B543F20801E320FFF76AFD1221E7207D
:1026C000FFF766FD41F23121EF20FFF761FD0021A8
:1026D0000120FFF75DFD4FF4E0610220FFF758FD98
:1026E00041F230010320FFF753FD00210420FFF7E2
:1026F0004FFD40F207210820FFF74AFD0021092085
:10270000FFF746FD00210A20FFF742FD00210C20C3
:10271000FFF73EFD00210D20FFF73AFD00210F20BD
:10272000FFF736FD00211020FFF732FD07211120B1
:10273000FFF72EFD00211220FFF72AFD00211320B4
:10274000FFF726FDC820FEF717F841F29061102030
:10275000FFF71EFD40F227211120FFF719FD32205F
:10276000FEF70AF81D211220FFF712FD3220FEF7B6
:1027700003F84FF400611320FFF70AFD142129200C
:10278000FFF706FD0B212B20FFF702FD3220FDF79E
:10279000F3FF00212020FFF7FBFC00212120FFF7A1
:1027A000F7FC07213020FFF7F3FC40F207713120DE
:1027B000FFF7EEFC06213220FFF7EAFC40F204713D
:1027C0003520FFF7E5FC41F604713620FFF7E0FC09
:1027D00004213720FFF7DCFC00213820FFF7D8FC6C
:1027E00040F206713920FFF7D3FC40F201713C2022
:1027F000FFF7CEFC0F213D20FFF7CAFC002150203F
:10280000FFF7C6FCEF215120FFF7C2FC0021522048
:10281000FFF7BEFC40F23F115320FFF7B9FC4FF425
:102820001C516020FFF7B4FC01216120FFF7B0FCD0
:1028300000216A20FFF7ACFC00218020FFF7A8FCF4
:1028400000218120FFF7A4FC00218220FFF7A0FCDB
:1028500000218320FFF79CFC00218420FFF798FCD7
:1028600000218520FFF794FC10219020FFF790FCB9
:1028700000219220FFF78CFC03219320FFF788FCB6
:102880004FF488719520FFF783FC00219720FFF714
:102890007FFC00219820FFF77BFC41F21801032008
:1028A000FFF776FCBDE8104040F273110720FFF7F8
:1028B0006FBC7047FEF79CB810B594B038216846DD
:1028C000FDF7C3FD14210EA8FDF7BFFD4FF4007006
:1028D000FEF720F90120009000040190022003245B
:1028E000CDE907041421CDE90A100C900D9009944C
:1028F0006846FEF79BFA08B1FDF7C7FE0F20CDE949
:102900000E04002010901190129002210EA8FEF7E4
:1029100067F9002801D0FDF7B8FE14B010BD000023
:102920000248016841F470010160704788ED00E0E1
:102930000148FEF7B4BD00007C0000202DE9F04303
:102940000268254B254D264E264C4FF08049984273
:1029500007D0484505D0A84203D0B04201D0A042DC
:1029600003D122F070074A683A431F4FDFF87CC05A
:10297000DFF87C8098420DD048450BD0A84209D0A2
:10298000B04207D0A04205D0B84203D0604501D084
:10299000404503D122F44075CA682A434D6922F0AC
:1029A00080022A438D68C5620D688562984207D00F
:1029B000A04205D0B84203D0604501D0404501D1C6
:1029C00009690163016841F004010160012141616D
:1029D0000260BDE8F0830000002C014000040040CC
:1029E0000008004000340140004001400044014024
:1029F0000048014010B501F01F030121046A99400D
:102A00008C430462016A9A401143016210BD10B503
:102A1000846842EA032224F47F440A43224382600A
:102A200010BD00008268034B1A400A4342F00701C0
:102A3000816070478FFFCFFF2DE9F043056A026A7E
:102A400022F001020262436882691E4C25F00205F1
:102A500022400C6822F0030214438A681B4E2A436A
:102A6000194D1B4FDFF86CC0DFF86C90A84207D0FF
:102A7000B04205D0B84203D0604501D048450AD1E4
:102A8000D0F8208028F00408C0F8208022F0080840
:102A9000CA6842EA0802A84207D0B04205D0B8424C
:102AA00003D0604501D0484505D14D6923F44073FA
:102AB0001D438B692B434360846149684163026213
:102AC000BDE8F0838FFFFEFF002C01400034014081
:102AD000004001400044014000480140F0B5056A53
:102AE000026A22F010020262426883691A4C1C4E8C
:102AF00023400C6823F4407343EA042425F02003A8
:102B00008D6843EA0513154DA84201D0B04208D1A3
:102B1000076A27F040070762CF6823F0800343EA83
:102B20000713A8420AD0B04208D00E4DA84205D0E3
:102B30000D4DA84202D00D4DA84207D14D6922F497
:102B4000406242EA85028D6942EA85024260846100
:102B5000496881630362F0BDFF8FFFFE002C0140D6
:102B60000034014000400140004401400048014061
:102B7000F0B5056A026A22F4807202624268C36993
:102B80001A4C1C4E23400C6823F003031C4325F40D
:102B900000738D6843EA0523154DA84201D0B04269
:102BA00008D1076A27F480670762CF6823F40063BF
:102BB00043EA0723A8420AD0B04208D00E4DA842EB
:102BC00005D00E4DA84202D00D4DA84207D14D6947
:102BD00022F4405242EA05128D6942EA051242602F
:102BE000C4614968C1630362F0BD00008FFFFEFF4E
:102BF000002C0140003401400040014000440140ED
:102C000000480140F0B5056A026A22F4805202626F
:102C10004268C3691A4C1C4E23400C6823F440736D
:102C200043EA042425F400538D6843EA0533154D27
:102C3000A84201D0B04208D1076A27F48047076252
:102C4000CF6823F4004343EA0733A8420AD0B042D6
:102C500008D00E4DA84205D00D4DA84202D00D4D12
:102C6000A84207D14D6922F4404242EA85128D699B
:102C700042EA85124260C461496801640362F0BDA2
:102C8000FF8FFFFE002C0140003401400040014056
:102C9000004401400048014030B5056A026A22F450
:102CA000803202624268036D114C23400C681C4361
:102CB00025F400330D8943EA05430E4DA8420BD09D
:102CC0000D4DA84208D00D4DA84205D00C4DA8428C
:102CD00002D00C4DA84204D14D6922F4803242EA60
:102CE00005224260046549688164036230BD0000CA
:102CF0008FFFFEFF002C01400034014000400140E6
:102D0000004401400048014030B5046A026A22F4E0
:102D1000801202624268036D114D24F400142B40AE
:102D20000D6843EA05230D8944EA05540D4DA84278
:102D30000BD00D4DA84208D00C4DA84205D00C4D2B
:102D4000A84202D00B4DA84204D14D6922F4802242
:102D500042EA8522426003654968C164046230BD6D
:102D6000FF8FFFFE002C0140003401400040014075
:102D7000004401400048014010B5036A046A24F091
:102D8000010404620E4CA0420BD00E4CA04208D0AD
:102D90000D4CA04205D00D4CA04202D00C4CA042DC
:102DA00003D1046A24F004040462846924F0F0046A
:102DB00044EA021423F00A020A438461026210BD4D
:102DC000002C01400034014000400140004401401B
:102DD0000048014010B5036A046A24F0100404623C
:102DE0000A4CA04202D00A4CA04203D1046A24F04B
:102DF00040040462846923F0A00324F4704444EA8C
:102E0000023243EA01118261016210BD002C0140CF
:102E10000034014010B5806AFEF782FD10BD00004D
:102E200010B5026852E8001F21F4907142E80013C7
:102E3000002BF6D10E4B0268083252E8001F1940F1
:102E400042E80014002CF6D1C16E012908D10168B6
:102E500051E8002F22F0100241E80023002BF6D1A8
:102E60002021C0F88C100021C166416710BD000010
:102E7000FEFFFFEF2DE9F047994617460D46044641
:102E80004FF00008089E33E0701C31D0FDF7AAFD1A
:102E9000A0EB0900B04218D8BEB12068016849070C
:102EA00026D5802D24D0402D22D0C169C9430907E1
:102EB0000DD4082505622046FFF7B2FFC4F89050F4
:102EC00084F884800120BDE8F0870320FBE7C06917
:102ED000C04300050CD421684FF40060086220460E
:102EE000FFF79EFF2020C4F8900084F88480ECE770
:102EF0002068C06935EA000004D00020B842C3D081
:102F00000020E0E70120F9E70148FEF70BBD0000D3
:102F1000C80000201C4910B50A681C48036AD21A70
:102F2000C82A30D909680162C07A00282BD0184815
:102F3000FDF766FB88B1164816A11438FDF7C0F9F5
:102F400013481438FDF740FA114982B23223BDE824
:102F5000104014391A48FEF773BE0D4819A11438F1
:102F6000FDF7AEF90A481438FDF72EFA084982B287
:102F7000322314391248FEF763FEBDE810401E21CB
:102F80000348FDF740BA10BD4000002000000020BB
:102F90005C000020505357442069732052696768D1
:102FA00074202C50617373776F7264206368616E54
:102FB000676520737563636573730D0A0000000015
:102FC000C800002050535744206973204572726F27
:102FD00072202C50617373776F7264206368616E26
:102FE0006765206661696C65640D0A00FEE7090784
:102FF000090E002804DB00F1E02080F8001470477F
:1030000000F00F0000F1E02080F8141D7047000070
:10301000FDF7F6FCFFF750FCFFF7E0F9FEF7E8FFDD
:103020000020FEF73DFF4FF6FF70FFF74FF800203E
:10303000FFF738F8FFF764FA04210648FEF7ECFBC7
:10304000FFF736FAFEF75AFEFFF7D8F8FFF762FFF0
:10305000F6E700007C0000204FF04070E1EE100A1F
:1030600070470000000000000000000000000000A9
:103070000000000000000000000000000000000050
:103080000000000000000000000000000000000040
:10309000000000008001800180018001800180012A
:1030A0008001800180018001800180018001000099
:1030B000000080018001000000000000000000000E
:1030C000000000000000CC00CC00CC00CC00CC0004
:1030D000CC00000000000000000000000000000024
:1030E00000000000000000000000000000000000E0
:1030F0000000000000000000000000000000600C64
:10310000600C600C30063006FE1FFE1F30063807CC
:103110001803FE1FFE1F180318038C018C018C017D
:10312000000000008000E003F80F9C0E8C1C8C183F
:103130008C009800F801E007800E801C8C188C1819
:103140009C18B80CF00FE003800080000000000025
:1031500000000000000000000E181B0C110C1106EE
:103160001106110311039B018E01C038C06C60442D
:103170006044304430441844186C0C38000000009F
:1031800000000000E001F0033807180618063003BD
:10319000F001F000F8009C310E33061E061C061CE0
:1031A000063FFC73F021000000000000000000005A
:1031B0000000000000000C000C000C000C000C00D3
:1031C0000C000000000000000000000000000000F3
:1031D00000000000000000000000000000000000EF
:1031E00000000000000200038001C000C000600079
:1031F000600030003000300030003000300030001F
:10320000300060006000C000C000800100030002C8
:103210000000000020006000C00080018001000369
:103220000003000600060006000600060006000671
:1032300000060003000380018001C0006000200040
:103240000000000000000000000000000000C000BE
:10325000C000D806F807E00130033807000000007E
:10326000000000000000000000000000000000005E
:1032700000000000000000000000000000008001CD
:103280008001800180018001FC3FFC3F80018001C2
:1032900080018001800100000000000000000000AB
:1032A000000000000000000000000000000000001E
:1032B000000000000000000000000000000000000E
:1032C000000000008001800100010001800000007A
:1032D00000000000000000000000000000000000EE
:1032E00000000000000000000000E007E007000010
:1032F00000000000000000000000000000000000CE
:1033000000000000000000000000000000000000BD
:1033100000000000000000000000000000000000AD
:1033200000000000C000C00000000000000000001D
:1033300000000000000C000C000600060006000360
:10334000000300038003800180018001C000C000F1
:10335000C0006000600000000000000000000000ED
:1033600000000000E003F007380E180C0C180C18D1
:103370000C180C180C180C180C180C180C18180C2D
:10338000380EF007E003000000000000000000001D
:103390000000000000018001C001F00198018801D7
:1033A0008001800180018001800180018001800115
:1033B000800180018001000000000000000000008A
:1033C00000000000E003F80F180C0C180C1800188F
:1033D0000018000C000600038001C00060003000EF
:1033E0001800FC1FFC1F000000000000000000008F
:1033F00000000000E001F807180E0C0C0C0C000C8B
:103400000006C003C007000C001800180C180C18A8
:10341000180CF807E00300000000000000000000A6
:1034200000000000000C000E000F000F800DC00C0B
:10343000600C600C300C180C0C0CFC3FFC3F000CBA
:10344000000C000C000C0000000000000000000058
:1034500000000000F80FF80F180018000C00EC0333
:10346000FC071C0E001C0018001800180C181C0C7F
:10347000180EF807E0030000000000000000000044
:1034800000000000C007F00F381C181818000C00CE
:10349000CC03EC0F3C0E1C1C0C180C180C18181C40
:1034A000380EF007E00300000000000000000000FC
:1034B00000000000FC1FFC1F000C000600060003BB
:1034C00080038001C001C000E00060006000700067
:1034D000300030003000000000000000000000005C
:1034E00000000000E003F007380E180C180C180C50
:1034F0003806F007F007180C0C180C180C180C18EC
:10350000380CF80FE003000000000000000000008D
:1035100000000000E003F007380E1C0C0C180C181B
:103520000C181C1C381EF81BE0190018000C000CAD
:103530001C0EF807F0010000000000000000000071
:1035400000000000000000000000000000008001FA
:1035500080010000000000000000000000000000EA
:103560000000800180010000000000000000000059
:1035700000000000000000000000000000008001CA
:1035800080010000000000000000000000000000BA
:1035900000008001800100010001800000000000A7
:1035A000000000000000000000000000000000001B
:1035B00000000010001C800FE003F8001800F80065
:1035C000E003800F001C001000000000000000005D
:1035D00000000000000000000000000000000000EB
:1035E0000000F81F000000000000F81F00000000AD
:1035F00000000000000000000000000000000000CB
:1036000000000000000000000000000000000000BA
:10361000000008003800F001C007001F0018001F5C
:10362000C007F001380008000000000000000000A2
:1036300000000000E003F80F180C0C180C1800181C
:10364000000C000600038001C000C000C0000000A4
:103650000000C000C00000000000000000000000EA
:10366000000000000000E00718180420C229224AC8
:10367000114409440944094409221113E20C02408F
:1036800004201818E00700000000000000000000FF
:103690000000000080038003C006C006C006600C66
:1036A000600C301830183018F83FF83F1C700C6070
:1036B0000C6006C006C00000000000000000000012
:1036C00000000000FC03FC0F0C0C0C180C180C186C
:1036D0000C0CFC07FC0F0C180C300C300C300C30B0
:1036E0000C18FC1FFC070000000000000000000098
:1036F00000000000C007F01F38381C300C70066056
:1037000006000600060006000600060006600C70B3
:103710001C30F01FE0070000000000000000000067
:1037200000000000FE03FE0F060E06180618063005
:103730000630063006300630063006300618061809
:10374000060EFE0FFE030000000000000000000057
:1037500000000000FC3FFC3F0C000C000C000C00C3
:103760000C00FC1FFC1F0C000C000C000C000C00DB
:103770000C00FC3FFC3F00000000000000000000C7
:1037800000000000F83FF83F18001800180018006B
:103790001800F81FF81F180018001800180018006B
:1037A00018001800180000000000000000000000D1
:1037B00000000000E00FF83F3C780E6006E007C014
:1037C0000300030003FE03FE03C007C006C00EC0D3
:1037D0003CF0F83FE00F0000000000000000000097
:1037E000000000000C300C300C300C300C300C3071
:1037F0000C30FC3FFC3F0C300C300C300C300C30EB
:103800000C300C300C300000000000000000000004
:1038100000000000800180018001800180018001A2
:103820008001800180018001800180018001800190
:103830008001800180010000000000000000000005
:103840000000000000060006000600060006000654
:103850000006000600060006000600061806180608
:103860003807F003E0010000000000000000000045
:103870000000000006300618060C06060603860146
:10388000C60066007600DE008E0106030606060C02
:10389000061806300660000000000000000000006E
:1038A0000000000018001800180018001800180088
:1038B0001800180018001800180018001800180048
:1038C0001800F81FF81F00000000000000000000B2
:1038D000000000000EE01EF01EF01EF036D836D8B4
:1038E00036D836D866CC66CC66CCC6C6C6C6C6C682
:1038F000C6C686C386C300000000000000000000AA
:10390000000000000C301C303C303C306C306C301F
:10391000CC30CC308C310C330C330C360C360C3CA8
:103920000C3C0C380C3000000000000000000000CF
:1039300000000000E007F81F1C380E70066003C08E
:1039400003C003C003C003C003C003C006600E7001
:103950001C38F81FE0070000000000000000000015
:1039600000000000FC0FFC1F0C380C300C300C3039
:103970000C300C18FC1FFC070C000C000C000C0099
:103980000C000C000C000000000000000000000013
:1039900000000000E007F81F1C380E70066003E00E
:1039A00003C003C003C003C003C007E006630E3FAB
:1039B0001C3CF83FE0F700C00000000000000000E1
:1039C00000000000FE0FFE1F0638063006300630ED
:1039D0000638FE1FFE0706030606060C0618061824
:1039E0000630063006600000000000000000000005
:1039F00000000000E003F80F1C0C0C180C180C0061
:103A00001C00F803E00F001E0038063006300E30B0
:103A10001C1CF80FE0070000000000000000000080
:103A200000000000FE7FFE7F800180018001800198
:103A3000800180018001800180018001800180017E
:103A400080018001800100000000000000000000F3
:103A5000000000000C300C300C300C300C300C30FE
:103A60000C300C300C300C300C300C300C300C3076
:103A70001818F81FE0070000000000000000000018
:103A80000000000003600630063006300C180C18E9
:103A90000C18180C180C380E30063006700760032E
:103AA0006003C001C0010000000000000000000031
:103AB000000000000360C361C361C3616633663305
:103AC00066336633663366336C1B6C1B6C1B2C1AB7
:103AD0003C1E380E380E0000000000000000000000
:103AE000000000000FE00C7018303018700C600EF1
:103AF000C00780038003C003E006700C301C181858
:103B00000C300E6007E00000000000000000000024
:103B10000000000003C006600C301C383818300C60
:103B20006006E007C0038001800180018001800100
:103B30008001800180010000000000000000000002
:103B400000000000FC7FFC7F006000300018000CCB
:103B5000000600038001C0006000300018000C0067
:103B60000600FE7FFE7F0000000000000000000055
:103B700000000000E003E0036000600060006000FF
:103B80006000600060006000600060006000600035
:103B9000600060006000600060006000E003E0031F
:103BA0000000000030003000600060006000C000D5
:103BB000C000C000C001800180018001000300033B
:103BC00000030006000600000000000000000000E6
:103BD00000000000E003E003000300030003000313
:103BE00000030003000300030003000300030003BD
:103BF000000300030003000300030003E003E003ED
:103C0000000000000000C001C00160036003600309
:103C100030063006180C180C0000000000000000F0
:103C20000000000000000000000000000000000094
:103C30000000000000000000000000000000000084
:103C40000000000000000000000000000000000074
:103C500000000000FFFFFFFF000000000000000068
:103C6000000000000C000C000C000C000C000C000C
:103C70000000000000000000000000000000000044
:103C80000000000000000000000000000000000034
:103C90000000000000000000000000000000F00331
:103CA000F8071C0C0C0C000FF00FF80C0C0C0C0C93
:103CB0001C0FF80FF01800000000000000000000CA
:103CC0000000000018001800180018001800D803A1
:103CD000F80F380C18181818181818181818181879
:103CE000380CF80FD80300000000000000000000AE
:103CF0000000000000000000000000000000C00301
:103D0000F007300E180C1800180018001800180CD6
:103D1000300EF007C00300000000000000000000AB
:103D20000000000000180018001800180018C01B40
:103D3000F01F301C18181818181818181818181808
:103D4000301CF01FC01B000000000000000000003D
:103D50000000000000000000000000000000C003A0
:103D6000F00F300C1818F81FF81F1800180038183A
:103D7000301CF00FC0070000000000000000000031
:103D800000000000800FC00FC000C000C000F0079E
:103D9000F007C000C000C000C000C000C000C000EC
:103DA000C000C000C00000000000000000000000D3
:103DB0000000000000000000000000000000E00D16
:103DC000F80F180E0C0C0C0C0C0C0C0C0C0C0C0C36
:103DD000180EF80FE00D000C0C0C1C06F807F00193
:103DE0000000000018001800180018001800D8077C
:103DF000F80F381C18181818181818181818181848
:103E00001818181818180000000000000000000022
:103E100000000000C000C000000000000000C00062
:103E2000C000C000C000C000C000C000C000C00092
:103E3000C000C000C0000000000000000000000042
:103E400000000000C000C000000000000000C00032
:103E5000C000C000C000C000C000C000C000C00062
:103E6000C000C000C000C000C000C000F800780062
:103E7000000000000C000C000C000C000C000C0CEE
:103E80000C060C038C01CC006C00FC009C018C0324
:103E90000C030C060C0C00000000000000000000E9
:103EA00000000000C000C000C000C000C000C00092
:103EB000C000C000C000C000C000C000C000C00002
:103EC000C000C000C00000000000000000000000B2
:103ED00000000000000000000000000000007C3C2A
:103EE000FF7EC7E383C183C183C183C183C183C113
:103EF00083C183C183C100000000000000000000F6
:103F00000000000000000000000000000000980712
:103F1000F80F381C18181818181818181818181826
:103F20001818181818180000000000000000000001
:103F30000000000000000000000000000000C003BE
:103F4000F00F300C18181818181818181818181816
:103F5000300CF00FC0030000000000000000000063
:103F60000000000000000000000000000000D80376
:103F7000F80F380C181818181818181818181818D6
:103F8000380CF80FD8031800180018001800180093
:103F90000000000000000000000000000000C01B46
:103FA000F01F301C18181818181818181818181896
:103FB000301CF01FC01B0018001800180018001853
:103FC0000000000000000000000000000000B0073A
:103FD000F00370003000300030003000300030005E
:103FE0003000300030000000000000000000000041
:103FF0000000000000000000000000000000E003DE
:10400000F003380E180C3800F003C007000C180C31
:10401000380EF007E0030000000000000000000080
:104020000000000000008000C000C000C000F007D9
:10403000F007C000C000C000C000C000C000C00049
:10404000C000C00780070000000000000000000062
:104050000000000000000000000000000000181830
:1040600018181818181818181818181818181818D0
:10407000381CF01FE01900000000000000000000E4
:1040800000000000000000000000000000000C180C
:10409000180C180C180C300630063006600360034C
:1040A0006003C001C001000000000000000000002B
:1040B0000000000000000000000000000000C141FE
:1040C000C141C36163636363636336363636363634
:1040D0001C1C1C1C1C1C0000000000000000000038
:1040E00000000000000000000000000000001C387C
:1040F000381C300C600660036003600360036006D8
:10410000300C381C1C3800000000000000000000CB
:104110000000000000000000000000000000183057
:10412000301830187018600C600CE00CC006C00627
:1041300080038003800380018001C001F0007000D3
:104140000000000000000000000000000000FC1F54
:10415000FC1F000C000600038001C000600030005E
:104160001800FC1FFC1F0000000000000000000001
:104170000000000000038001C000C000C000C000BB
:10418000C000C00060006000300060004000C0005F
:10419000C000C000C000C000C000800100030000DB
:1041A0000000000080018001800180018001800109
:1041B00080018001800180018001800180018001F7
:1041C00080018001800180018001800180018001E7
:1041D000000000006000C000C0018001800180017B
:1041E000800180010003000300060003000180013C
:1041F00080018001800180018001C000600000001A
:1042000000000000000000000000000000000000AE
:104210000000F010F81F080F000000000000000070
:10422000000000000000000000000000000000008E
:104230000000000000000000000001020304060767
:104240000809000064420008000000204800000047
:1042500014020008AC420008480000207807000063
:1042600030020008000000000000000000000A000A
:10427000000000000000D007000000000000000067
:10428000000000000000000000000000000000002E
:104290000102032D00000000FFFF000010000000DD
:0C42A00001000000000000000024F400F9
:04000005080001D915
:00000001FF
