:020000040800F2
:10000000A0060020790200087B140008F50E000805
:10001000791400080B040008111800080000000003
:10002000000000000000000000000000931700081E
:100030000D040008000000007D140008951700085A
:10004000930200089302000893020008930200083C
:10005000930200089302000893020008930200082C
:10006000930200089302000893020008930200081C
:10007000930200089302000893020008930200080C
:100080009302000800000000930200089302000899
:1000900093020008930200089302000893020008EC
:1000A00093020008930200089302000893020008DC
:1000B00093020008930200089302000893020008CC
:1000C00093020008930200089302000893020008BC
:1000D00093020008930200089302000893020008AC
:1000E000930200089302000893020008930200089C
:1000F0009302000893020008930200080000000029
:1001000000000000930200080000000093020008B5
:100110009302000800000000930200089302000808
:10012000930200089302000893020008930200085B
:100130009302000800000000000000009302000885
:100140009302000893020008000000000000000075
:10015000000000000000000000000000000000009F
:1001600000000000000000000000000093020008F2
:1001700093020008000000000000000000000000E2
:1001800000000000930200080000000000000000D2
:10019000000000000000000000000000000000005F
:1001A0000000000000000000930200089302000815
:1001B0009302000893020008930200080000000068
:1001C0000000000093020008000000000000000092
:1001D000930200089302000800F002F800F03CF8D7
:1001E0000AA090E8000C82448344AAF10107DA4592
:1001F00001D100F031F8AFF2090EBAE80F0013F0A8
:10020000010F18BFFB1A43F00103184794280000A0
:10021000B4280000103A24BF78C878C1FAD8520731
:1002200024BF30C830C144BF04680C607047000070
:100230000023002400250026103A28BF78C1FBD8EF
:10024000520728BF30C148BF0B6070471FB501F08F
:1002500031FB1FBD10B510BD00F09DF81146FFF732
:10026000F5FF01F0E7FA00F0BBF803B4FFF7F2FF87
:1002700003BC00F0C3F80000094880470948004764
:10028000FEE7FEE7FEE7FEE7FEE7FEE7FEE7FEE746
:10029000FEE7FEE704480549054A064B70470000A3
:1002A00001180008D9010008A0000020A0060020C5
:1002B000A0020020A00200200FB41CB5074B06AA24
:1002C0007B4469460090059800F039F800206946A3
:1002D00000F048F81CBC5DF814FB0000A100000011
:1002E0004FF0000200B5134694469646203922BFCF
:1002F000A0E80C50A0E80C50B1F12001BFF4F7AF1A
:10030000090728BFA0E80C5048BF0CC05DF804EBFB
:10031000890028BF40F8042B08BF704748BF20F869
:10032000022B11F0804F18BF00F8012B7047704767
:100330007047704701694A1C02610878704700B530
:100340008FB0CDE901310021059105497944CDE90E
:1003500003101146684600F00AF80FB000BD000017
:10036000E5FFFFFF0A6802F8010B0A6070472DE9FC
:10037000F04106460024D6E90170F5688046304613
:1003800003E04146B847641C3046A8470028F8D12E
:100390002046BDE8F081754600F02CF8AE46050019
:1003A0006946534620F00700854618B020B5FFF790
:1003B00071FFBDE820404FF000064FF000074FF0FE
:1003C00000084FF0000B21F00701AC46ACE8C00973
:1003D000ACE8C009ACE8C009ACE8C0098D4670477C
:1003E00010B50446AFF300802046BDE81040FFF78B
:1003F0003CBF000000487047400000200149182021
:10040000ABBEFEE7260002007047FEE77047002201
:1004100040F6B83306E00021491C89B29942FBD36B
:10042000521C92B28242F6D3704772B6FEE70000C9
:1004300070B5044600F032F90546601C02D004484D
:100440004068044400F02AF9401BA042FAD370BD72
:100450001C0000202DE9F04FDFF80C92002301264C
:100460000325A9F1040B85B00F2709F1040AABF1AC
:10047000040EF1E006FA03FC12EA0C027ED00C79BD
:1004800004F00304012C01D0022C20D184680094D4
:100490005C0005FA04F80494009C24EA0804009423
:1004A000D1F80C80049C08FA04F8009C48EA04087F
:1004B000C0F80880446824EA0C0491F804C0CCF326
:1004C000001C0CFA03FC4CEA040CC0F804C00C79C4
:1004D000E443A40702D18C68012C0ED0C4684FEA13
:1004E000430805FA08FC24EA0C04D1F808C00CFA09
:1004F00008FC4CEA040CC0F80CC00C7904F00304AE
:10050000022C16D1DC0800EB840CCDF808C0DCF816
:1005100020C05C074FEAD46807FA08F42CEA040C00
:100520000C6904FA08F444EA0C04DDF808C0CCF8BD
:10053000204004684FEA430805FA08FC24EA0C044A
:1005400091F804C00CF0030C0CFA08FC4CEA040C03
:10055000C0F800C04C6814F4403F7CD0434CD4F841
:1005600060C04CF0010CC4F860C0246E23F0030C92
:1005700004F0010400943E4C644400E06BE00294FB
:10058000A4684FEA837C4FEA1C7807FA08FC24EA47
:100590000C04B0F1904F06D0DFF8D8C0604505D10B
:1005A0004FF0010C20E04FF0000C1DE0DFF8C8C058
:1005B000604502D14FF0020C16E0DFF8C0C0604584
:1005C00002D14FF0030C0FE0DFF8B4C0604502D158
:1005D0004FF0040C08E0DFF8ACC0604502D14FF0EA
:1005E000050C01E04FF0060C0CFA08FC4CEA040C78
:1005F000029CC4F808C0D9F80040CC46D1F8048069
:1006000094435FEAC82800D51443CCF80040DAF8D8
:100610000040D446D1F8048094435FEA882800D58E
:100620001443CCF80040DBF80040DC46D1F80480ED
:1006300094435FEA883800D51443CCF80040DEF8D4
:100640000040F446D1F8048094435FEAC83800D5EE
:100650001443CCF800405B1C0C682246DC407FF45D
:1006600009AF05B0BDE8F08F08040140001002405A
:10067000000001400004004800080048000C004849
:1006800000100048001400480069084000D0012014
:1006900070470AB181617047816270470148806884
:1006A000704700001C000020024881684268114425
:1006B000816070471C00002010B50024032000F06A
:1006C00065F8002000F008F808B1012401E000F00E
:1006D00025F8204610BD000070B50E4E05460024DA
:1006E000706898B14FF47A71B1FBF0F00A4909686B
:1006F000B1FBF0F000F0EAFB40B9102D06D2002269
:100700002946501E00F022F8356000E00124204602
:1007100070BD00001C000020280000200A4882B0A4
:10072000016E41F001010166016E01F001010091CD
:10073000816D41F080518165806D00F080500090A6
:1007400002B000F093B8000000100240F0B40E4B6D
:100750001B680C46C3F30223C3F10705042D00D91F
:100760000425191D072901D2002300E0DB1E012604
:1007700006FA05F1491E214099409E40761E16401A
:100780003143F0BC01F045B80CED00E0064900F043
:10079000070208684FF6FF03184040EA0220034AA8
:1007A00010430860704700000CED00E00000FA05FF
:1007B0002B492C4B0A6832214A432B4940B1B0F5F2
:1007C000007F086829D020F4C06040F480602CE0ED
:1007D0000868C0F34120022804D051F8800F20F4AB
:1007E000807022E0D1F8800020F48070C1F8800091
:1007F000086820F4C06040F400700860B2FBF3F0B9
:10080000401C00E0401E4A69520501D50028F9D17C
:10081000486940050AD503207047C0F341200228EB
:1008200006D051F8800F40F48070086000207047B7
:10083000D1F8800040F48070C1F88000086820F48E
:10084000C06040F400700860B2FBF3F0401C00E0B0
:10085000401E4A695205DBD50028F9D1D8E70000CF
:100860002800002040420F000070004002488168CC
:1008700041F4804181607047007000402DE9F047ED
:100880000E4605004FF0000725D0DFF8AC81D8F800
:10089000000000F00F00B0420CD2D8F8001021F098
:1008A0000F013143C8F80010D8F8000000F00F0025
:1008B000B04210D12968614CC80741F2883A5AD039
:1008C0006868DFF87C91032808D0022820682DD0C2
:1008D000400500282CDB0120BDE8F087206880015E
:1008E000F9D5E06800F00302E068C0F30310401C93
:1008F000032A19D0534A00BFB2FBF0F0E268C2F3FA
:1009000006225043E268C2F34162521C5200B0FB1F
:10091000F2F0484517D9A06810F0F00F0CD0880706
:1009200011D5A86840B10EE0474AE5E78003D0E75B
:1009300000F092F8484506D9A06820F0F00040F099
:100940008000A0608027A068696820F00300084349
:10095000A060FFF7A3FE814606E000BFFFF79EFE02
:10096000A0EB090151453AD8A068696800F00C0075
:10097000B0EB810FF2D12868810714D5400703D569
:10098000A06840F4E060A0602878000705D5A06862
:1009900020F4605040F4E060A060A068A96820F0F6
:1009A000F000084304E0802F03D1A06820F0F0009D
:1009B000A060D8F80010404601F00F01B14216D9EE
:1009C000016821F00F0131430160FFF767FE074620
:1009D00007E000BFFFF762FEC11B514501D90320AC
:1009E0007AE7D8F8000000F00F00B042F2D1287882
:1009F000400705D5A068E96820F4E0600843A060DE
:100A00002878000706D5A068296920F4605040EADC
:100A1000C100A06000F020F8A1680C4AC1F30311E6
:100A2000515C01F01F01C84009490860094800688D
:100A3000BDE8F047FFF750BE002002400010024022
:100A400000B4C4040024F40000366E018E2A0008AD
:100A5000280000201C000020184910B58868C0F349
:100A600081021748012A0BD08A68164BC2F3810213
:100A7000022A06D08A68C2F38102032A03D000202A
:100A800010BD184610BDCA6802F00304CA68C2F35C
:100A90000312521C032C02D0B0FBF2F001E0B3FBB6
:100AA000F2F0CA68C968C2F306225043C1F341613B
:100AB000491C4900B0FBF1F010BD000000100240DD
:100AC0000024F40000366E012DE9F84304007AD0CA
:100AD0002078F84DC00747D0A868E96800F00C00FE
:100AE00001F003010C2802D0082817D001E00329E7
:100AF00014D06068B0F5803F17D0B0F5A02F2868FB
:100B000017D020F480302860286820F480202860E6
:100B10006068E0B1FFF7C2FD064614E02868800374
:100B200022D560680028D2D01EE0286840F48030CA
:100B3000EDE740F480202860F7E700BFFFF7AEFD47
:100B4000801B642870D828688003F7D50CE0FFF775
:100B5000A5FD064605E000BFFFF7A0FD801B642849
:100B6000F0D828688003F7D4207880074CD5A8688F
:100B7000E96800F00C0001F003010C2802D0042801
:100B80000DD001E002290AD0E068002828682BD0A7
:100B900040F480702860FFF781FD064619E0286860
:100BA000400502D5E068002891D06868217C20F0DB
:100BB000FE4040EA01606860BF480068FFF78CFDB6
:100BC000002800D120E072E1FFF768FD801B0228B9
:100BD000B8D828684005F7D56868217C20F0FE4029
:100BE00040EA016068600FE020F480702860FFF741
:100BF00055FD064605E000BFFFF750FD801B0228AB
:100C0000A0D828684005F7D42078000729D5606966
:100C10000028D5F8940013D040F00100C5F89400E6
:100C2000FFF73CFD064606E090E000BFFFF736FD0B
:100C3000801B022886D8D5F894008007F6D510E0EE
:100C400020F00100C5F89400FFF728FD064604E0F7
:100C5000FFF724FD801B022878D8D5F89400800780
:100C6000F6D42078400761D5A86D0026C00008D4CE
:100C7000A86D40F08050A865A86D012600F0805056
:100C800000908E480168C90511D40168804641F47E
:100C900080710160FFF702FD074604E0FFF7FEFCEC
:100CA000C01B022852D8D8F80000C005F6D5A068AD
:100CB000012815D00528D5F8900016D020F00100A5
:100CC000C5F89000D5F8900020F00400C5F8900019
:100CD000A06841F28838B8B1FFF7E0FC07460EE0A3
:100CE000D5F8900040F00100F0E740F00400C5F8AE
:100CF0009000F5E7FFF7D2FCC11B414526D8D5F897
:100D000090008007F6D50CE0FFF7C8FC074604E02A
:100D1000FFF7C4FCC11B414518D8D5F890008007E7
:100D2000F6D41EB1A86D20F08050A865207880060A
:100D300029D5A0690028D5F8980013D040F001000B
:100D4000C5F89800FFF7AAFC064606E075E000BF6C
:100D5000FFF7A4FC801B02286FD8D5F89800800705
:100D6000F6D510E020F00100C5F89800FFF796FCDA
:100D7000064604E0FFF792FC801B02285DD8D5F8F8
:100D800098008007F6D4E069F0B3A968C1F3810147
:100D900003295DD00228286820F08070286003D0E5
:100DA000FFF77CFC04464BE0FFF778FC064604E0C6
:100DB000FFF774FC801B02283FD828688001F7D415
:100DC000F4E908016FF00F0202EB01110843218AD8
:100DD0005204490802EB4151A26841EA022108434A
:100DE000217D4FF07E42490802EB41610843217B9F
:100DF00040EAC160E968324A11400843E860286867
:100E000040F08070286000E05EE0E86840F08070AC
:100E1000E860FFF743FC044605E000BFFFF73EFC37
:100E2000001B022809D828688001F7D54CE000BFD4
:100E3000FFF734FC001B022802D90320BDE8F88329
:100E400028688001F4D4E8681E490840E8603BE067
:100E50000128F3D0E868226A00F00301914226D10C
:100E6000616A00F0F0020901103991421FD1A26AB3
:100E700000F4FE41B1EB022F19D194F82C2000F0C0
:100E80007841B1EBC26F12D1218E00F4C002490843
:100E90004905A1F50011914209D194F8341000F0F0
:100EA000C06049084906A1F1007181420CD00120BF
:100EB000C4E70000001002401C0000200070004049
:100EC0000C809F01FCFFEEFE0020B7E710B5401E2E
:100ED000B0F1807F01D3012010BD4FF0E0246061AC
:100EE0000F21601700F095FC0020A0610720206111
:100EF000002010BDFEE70000134810B50168134C38
:100F0000E268891A322917D90068E06000F020F8F9
:100F10002070E17802460840607020EA0203A37066
:100F20000146E270012808D0022908D0032908D020
:100F3000042901D10020207110BDFF20FBE7F02023
:100F4000F9E70F20F7E70000240000200000002050
:100F500070B5104D01212846FFF796FB80B10221A4
:100F60002846FFF791FB68B104212846FFF78CFB68
:100F700050B101214FF09040FFF786FB30B106E001
:100F8000012404E0022402E0032400E004242046BB
:100F900070BD00000004004800B585B0142168460B
:100FA000FFF79EF94FF6FF70009000200321CDE976
:100FB0000201019069460248FFF74CFA05B000BDF6
:100FC0000008004800B585B014216846FFF788F98D
:100FD0004FF6FF7000900120019003200390002045
:100FE000029069460248FFF735FA05B000BD0000DF
:100FF0000008004870B5002406462146204600F04F
:1010000003F900F041F94FF49635304600F010F93D
:10101000641CAC42F9D370BD30B587B0142168466A
:10102000FFF75EF91E48C16C41F00401C164C16C58
:1010300001F004010591C16C41F00101C164C16C72
:1010400001F001010591C16C41F00201C164C06C65
:10105000012500F0020005904FF44870CDE900052D
:1010600000240394694602940E48FFF7F3F928021E
:1010700003940090CDE901544FF090446946204616
:10108000FFF7E8F9FFF79EFFA06940F48070A061C8
:1010900004481830016841F40871016007B030BDA0
:1010A0000010024000040048203AD2B2034B02EB89
:1010B000420203EB021200F019B80000BE1800084B
:1010C000F0B50E460746002540F23F1407E02146E2
:1010D0003846FFF7E9FF103C6D1CA4B2761C32784D
:1010E000002A01D0142DF2D3F0BD00002DE9F04705
:1010F00091468A460026044600F086F8DFF84080D4
:10110000012700BF00F0C0F85FF0000539F81600B5
:1011100007FA05F10842404601D1408800E0008806
:1011200000F086F86D1C102DF0D3641CE4B251461B
:10113000204600F069F8761C182EE3D3BDE8F0874E
:101140001400002010B5FFF767FF002000F014F82E
:10115000084CA080A088A0F50241303906D000F0EC
:1011600017FA002000F008F8A08010BD00F087F901
:10117000F7E700001400002070B51D490A6842F42A
:1011800000720A600A6842F480720A60184C103CCF
:10119000226842F020022260164A1060086840F07F
:1011A0002000086000BF00BF00BF206840F02000A2
:1011B0002060206840F480702060FFF7EDFE4FF063
:1011C0009041886A40F48070886200BF00BF00BF11
:1011D0000848001F006885B2886940F48070886103
:1011E000FFF7F0FE206840F400702060284670BDD4
:1011F000280400481408004801B5BDF80000014962
:10120000488008BD1400002010B50C46014620207F
:1012100000F068F82146BDE81040212000F062B8D7
:1012200001B5BDF800000149088008BD1400002088
:10123000134A116841F400711160114910390B68AB
:1012400043F480730B600B6843F020030B600D4B7D
:101250001860106840F02000106000BF00BF00BFA1
:10126000086840F020000860086840F4807008605A
:1012700000BF00BF00BF086840F4007008607047FE
:1012800028040048140800481449086840F4007015
:101290000860086840F480700860104810380268E0
:1012A00042F0200202600E4B22221A600A6842F0CD
:1012B00020020A6000BF00BF00BF016841F02001AA
:1012C0000160016841F48071016000BF00BF00BF90
:1012D000016841F400710160704700002804004873
:1012E00014080048184B10B51A6842F400721A60CE
:1012F0001A6842F480721A60134A103A146844F073
:1013000020041460114C2060186840F02000186020
:1013100000BF00BF00BF106840F0200010601068E0
:1013200040F4807010602160186840F02000186060
:1013300000BF00BF00BF106840F0200010601068C0
:1013400040F48070106010BD280400481408004864
:1013500070B5124D044601224FF47F412846FFF735
:1013600098F90F4E012204213046FFF792F900222E
:1013700004213046FFF78DF9210200222846FFF7AD
:1013800088F9012204213046FFF783F93046BDE891
:10139000704000220421FFF77CB9000000080048DB
:1013A000000C0048F0B587B014216846FEF798FF9E
:1013B0002D48C16C41F00401C164C16C01F004010D
:1013C0000591C16C41F02001C164C16C01F02001A4
:1013D0000591C16C41F00101C164C16C01F00101D2
:1013E0000591C16C41F00201C164C16C01F00201C0
:1013F0000591C16C41F00801C164C06C1B4E00F046
:1014000008004FF47F440590012221463046FFF743
:1014100040F9174F002204213846FFF73AF9012519
:10142000CDE9004500240294694630460394FFF755
:1014300011F8CDE9005469464FF090400294FFF74F
:1014400009F80720CDE9000469460A480294FFF72D
:1014500001F804200090CDE9015469463846039410
:10146000FEF7F8FF07B0F0BD00100240000800488A
:10147000000C004800040048FEE7FEE7704730B566
:1014800001210020FFF72EFF4FF47A70FEF7BFFF17
:1014900000210120FFF726FF41F290711020FFF795
:1014A00021FF4FF41C516020FFF71CFF0121612038
:1014B000FFF718FF02214620FFF714FF48F2100142
:1014C0001320FFF70FFF48F2FE011220FFF70AFF7B
:1014D0004FF4A0610220FFF705FF41F23001032025
:1014E000FFF700FF40F2033421463020FFF7FAFEF9
:1014F00021463120FFF7F6FE21463220FFF7F2FEAB
:10150000E51E29463320FFF7EDFE03213420FFF7C7
:10151000E9FE21463520FFF7E5FE14213620FFF7CE
:10152000E1FE21463720FFF7DDFE21463820FFF798
:10153000D9FE21463920FFF7D5FE29463A20FFF78C
:10154000D1FE03213B20FFF7CDFE21463C20FFF7D3
:10155000C9FE4FF4A0513D20FFF7C4FE4FF40071C7
:101560009220FFF7BFFE21469320FFF7BBFE40F617
:101570000D019020FFF7B6FE41F218010320FFF79E
:10158000B1FEBDE8304040F273110720FFF7AABE5C
:1015900010B543F20801E320FFF7A4FE1221E72073
:1015A000FFF7A0FE41F23121EF20FFF79BFE002163
:1015B0000120FFF797FE4FF4E0610220FFF792FE53
:1015C00041F230010320FFF78DFE00210420FFF7D8
:1015D00089FE40F207210820FFF784FE0021092040
:1015E000FFF780FE00210A20FFF77CFE00210C207F
:1015F000FFF778FE00210D20FFF774FE00210F2079
:10160000FFF770FE00211020FFF76CFE072111206C
:10161000FFF768FE00211220FFF764FE002113206F
:10162000FFF760FEC820FEF703FF41F29061102033
:10163000FFF758FE40F227211120FFF753FE32201A
:10164000FEF7F6FE1D211220FFF74CFE3220FEF7BA
:10165000EFFE4FF400611320FFF744FE1421292010
:10166000FFF740FE0B212B20FFF73CFE3220FEF758
:10167000DFFE00212020FFF735FE00212120FFF7AB
:1016800031FE07213020FFF72DFE40F20771312097
:10169000FFF728FE06213220FFF724FE40F20471F6
:1016A0003520FFF71FFE41F604713620FFF71AFEC2
:1016B00004213720FFF716FE00213820FFF712FE25
:1016C00040F206713920FFF70DFE40F201713C2017
:1016D000FFF708FE0F213D20FFF704FE00215020F8
:1016E000FFF700FEEF215120FFF7FCFD0021522003
:1016F000FFF7F8FD40F23F115320FFF7F3FD4FF4E1
:101700001C516020FFF7EEFD01216120FFF7EAFD8B
:1017100000216A20FFF7E6FD00218020FFF7E2FDAF
:1017200000218120FFF7DEFD00218220FFF7DAFD96
:1017300000218320FFF7D6FD00218420FFF7D2FD92
:1017400000218520FFF7CEFD10219020FFF7CAFD74
:1017500000219220FFF7C6FD03219320FFF7C2FD71
:101760004FF488719520FFF7BDFD00219720FFF70A
:10177000B9FD00219820FFF7B5FD41F218010320C3
:10178000FFF7B0FDBDE8104040F273110720FFF7EE
:10179000A9BD7047FEF788BF10B594B038216846E0
:1017A000FEF79EFD14210EA8FEF79AFD4FF400707F
:1017B000FEF7FEFF012000900004019002200324A8
:1017C000CDE907041421CDE90A100C900D9009947D
:1017D0006846FFF779F908B1FEF727FE0F20CDE93B
:1017E0000E04002010901190129002210EA8FFF715
:1017F00045F8002801D0FEF718FE14B010BD000017
:101800000248016841F470010160704788ED00E012
:10181000FEE70907090E002804DB00F1E02080F84C
:101820000014704700F00F0000F1E02080F8141D54
:1018300070470000FEF740FFFFF7AEFFFFF7B2FD75
:10184000FFF780FC4FF6FF742046FFF7D3FB002024
:10185000FFF7E6FC2046FFF7CFFC0F4D0F4C286842
:10186000A168401AC82804D92868A0602079FFF729
:101870006FFDFFF741FB28682169401AC828EED99F
:101880002868206106A10A48FEF716FD08491820BD
:10189000FFF716FCE3E70000240000200000002012
:1018A00048656C6C6F20426C756520437570000054
:1018B0002C0000204FF04070E1EE100A704700004D
:1018C0000000000000000000000000000000000018
:1018D0000000000000000000000000000000000008
:1018E00000000000000000000000000000000000F8
:1018F00080018001800180018001800180018001E0
:1019000080018001800180018001000000008001D1
:101910008001000000000000000000000000000046
:101920000000CC00CC00CC00CC00CC00CC000000EF
:1019300000000000000000000000000000000000A7
:101940000000000000000000000000000000000097
:1019500000000000000000000000600C600C600C43
:1019600030063006FE1FFE1F300638071803FE1F24
:10197000FE1F180318038C018C018C01000000006D
:101980008000E003F80F9C0E8C1C8C188C009800D3
:10199000F801E007800E801C8C188C189C18B80C7D
:1019A000F00FE00380008000000000000000000055
:1019B000000000000E181B0C110C1106110611037B
:1019C00011039B018E01C038C06C604460443044F8
:1019D00030441844186C0C3800000000000000006F
:1019E000E001F0033807180618063003F001F00094
:1019F000F8009C310E33061E061C061C063FFC73C5
:101A0000F0210000000000000000000000000000C5
:101A100000000C000C000C000C000C000C0000007E
:101A200000000000000000000000000000000000B6
:101A300000000000000000000000000000000000A6
:101A4000000200038001C000C000600060003000A0
:101A500030003000300030003000300030006000D6
:101A60006000C000C0008001000300020000000010
:101A700020006000C0008001800100030003000618
:101A80000006000600060006000600060006000329
:101A9000000380018001C000600020000000000001
:101AA00000000000000000000000C000C000D806D8
:101AB000F807E001300338070000000000000000D4
:101AC0000000000000000000000000000000000016
:101AD0000000000000000000000080018001800183
:101AE00080018001FC3FFC3F80018001800180017A
:101AF0008001000000000000000000000000000065
:101B000000000000000000000000000000000000D5
:101B100000000000000000000000000000000000C5
:101B20008001800100010001800000000000000031
:101B300000000000000000000000000000000000A5
:101B4000000000000000E007E007000000000000C7
:101B50000000000000000000000000000000000085
:101B60000000000000000000000000000000000075
:101B70000000000000000000000000000000000065
:101B8000C000C000000000000000000000000000D5
:101B9000000C000C00060006000600030003000312
:101BA0008003800180018001C000C000C00060008F
:101BB00060000000000000000000000000000000C5
:101BC000E003F007380E180C0C180C180C180C1841
:101BD0000C180C180C180C180C18180C380EF007F0
:101BE000E003000000000000000000000000000012
:101BF00000018001C001F00198018801800180018D
:101C000080018001800180018001800180018001CC
:101C10008001000000000000000000000000000043
:101C2000E003F80F180C0C180C1800180018000C22
:101C3000000600038001C000600030001800FC1F97
:101C4000FC1F000000000000000000000000000079
:101C5000E001F807180E0C0C0C0C000C0006C00379
:101C6000C007000C001800180C180C18180CF80706
:101C7000E003000000000000000000000000000081
:101C8000000C000E000F000F800DC00C600C600CEB
:101C9000300C180C0C0CFC3FFC3F000C000C000C32
:101CA000000C000000000000000000000000000028
:101CB000F80FF80F180018000C00EC03FC071C0EBE
:101CC000001C0018001800180C181C0C180EF8073F
:101CD000E003000000000000000000000000000021
:101CE000C007F00F381C181818000C00CC03EC0FBC
:101CF0003C0E1C1C0C180C180C18181C380EF00785
:101D0000E0030000000000000000000000000000F0
:101D1000FC1FFC1F000C000600060003800380016E
:101D2000C001C000E00060006000700030003000C2
:101D30003000000000000000000000000000000073
:101D4000E003F007380E180C180C180C3806F007D2
:101D5000F007180C0C180C180C180C18380CF80F8D
:101D6000E003000000000000000000000000000090
:101D7000E003F007380E1C0C0C180C180C181C1C77
:101D8000381EF81BE0190018000C000C1C0EF80798
:101D9000F001000000000000000000000000000052
:101DA0000000000000000000000080018001000031
:101DB00000000000000000000000000000008001A2
:101DC0008001000000000000000000000000000092
:101DD0000000000000000000000080018001000001
:101DE0000000000000000000000000000000800172
:101DF00080010001000180000000000000000000E0
:101E000000000000000000000000000000000010C2
:101E1000001C800FE003F8001800F800E003800FBA
:101E2000001C001000000000000000000000000086
:101E30000000000000000000000000000000F81F8B
:101E4000000000000000F81F00000000000000007B
:101E50000000000000000000000000000000000082
:101E6000000000000000000000000000000008006A
:101E70003800F001C007001F0018001FC007F00164
:101E80003800080000000000000000000000000012
:101E9000E003F80F180C0C180C180018000C0006C2
:101EA00000038001C000C000C00000000000C000AE
:101EB000C000000000000000000000000000000062
:101EC0000000E00718180420C229224A11440944DE
:101ED0000944094409221113E20C02400420181895
:101EE000E00700000000000000000000000000000B
:101EF00080038003C006C006C006600C600C30186A
:101F000030183018F83FF83F1C700C600C6006C0A9
:101F100006C00000000000000000000000000000FB
:101F2000FC03FC0F0C0C0C180C180C180C0CFC0708
:101F3000FC0F0C180C300C300C300C300C18FC1F43
:101F4000FC0700000000000000000000000000008E
:101F5000C007F01F38381C300C7006600600060001
:101F6000060006000600060006600C701C30F01F1C
:101F7000E00700000000000000000000000000007A
:101F8000FE03FE0F060E0618061806300630063051
:101F9000063006300630063006180618060EFE0F0C
:101FA000FE03000000000000000000000000000030
:101FB000FC3FFC3F0C000C000C000C000C00FC1F54
:101FC000FC1F0C000C000C000C000C000C00FC3F73
:101FD000FC3F0000000000000000000000000000C6
:101FE000F83FF83F18001800180018001800F81FF4
:101FF000F81F180018001800180018001800180022
:1020000018000000000000000000000000000000B8
:10201000E00FF83F3C780E6006E007C003000300C5
:1020200003FE03FE03C007C006C00EC03CF0F83F2D
:10203000E00F0000000000000000000000000000B1
:102040000C300C300C300C300C300C300C30FC3FB1
:10205000FC3F0C300C300C300C300C300C300C30A1
:102060000C30000000000000000000000000000034
:102070008001800180018001800180018001800158
:102080008001800180018001800180018001800148
:1020900080010000000000000000000000000000BF
:1020A0000006000600060006000600060006000600
:1020B0000006000600060006180618063807F0039A
:1020C000E00100000000000000000000000000002F
:1020D00006300618060C060606038601C6006600D2
:1020E0007600DE008E0106030606060C0618063092
:1020F000066000000000000000000000000000007A
:10210000180018001800180018001800180018000F
:102110001800180018001800180018001800F81F00
:10212000F81F000000000000000000000000000098
:102130000EE01EF01EF01EF036D836D836D836D84F
:1021400066CC66CC66CCC6C6C6C6C6C6C6C686C380
:1021500086C3000000000000000000000000000036
:102160000C301C303C303C306C306C30CC30CC30DF
:102170008C310C330C330C360C360C3C0C3C0C38CC
:102180000C30000000000000000000000000000013
:10219000E007F81F1C380E70066003C003C003C0C0
:1021A00003C003C003C003C006600E701C38F81FD4
:1021B000E007000000000000000000000000000038
:1021C000FC0FFC1F0C380C300C300C300C300C1891
:1021D000FC1FFC070C000C000C000C000C000C0099
:1021E0000C000000000000000000000000000000E3
:1021F000E007F81F1C380E70066003E003C003C040
:1022000003C003C003C007E006630E3F1C3CF83F59
:10221000E0F700C000000000000000000000000027
:10222000FE0FFE1F06380630063006300638FE1F49
:10223000FE0706030606060C0618061806300630CA
:102240000660000000000000000000000000000028
:10225000E003F80F1C0C0C180C180C001C00F80301
:10226000E00F001E0038063006300E301C1CF80F40
:10227000E007000000000000000000000000000077
:10228000FE7FFE7F8001800180018001800180014E
:102290008001800180018001800180018001800136
:1022A00080010000000000000000000000000000AD
:1022B0000C300C300C300C300C300C300C300C303E
:1022C0000C300C300C300C300C300C301818F81F5F
:1022D000E007000000000000000000000000000017
:1022E00003600630063006300C180C180C18180C59
:1022F000180C380E30063006700760036003C0010A
:10230000C00100000000000000000000000000000C
:102310000360C361C361C36166336633663366338A
:10232000663366336C1B6C1B6C1B2C1A3C1E380E00
:10233000380E000000000000000000000000000057
:102340000FE00C7018303018700C600EC00780035E
:102350008003C003E006700C301C18180C300E60AF
:1023600007E0000000000000000000000000000086
:1023700003C006600C301C383818300C6006E007CB
:10238000C003800180018001800180018001800103
:1023900080010000000000000000000000000000BC
:1023A000FC7FFC7F006000300018000C000600037A
:1023B0008001C0006000300018000C000600FE7FA5
:1023C000FE7F000000000000000000000000000090
:1023D000E003E003600060006000600060006000F7
:1023E00060006000600060006000600060006000ED
:1023F0006000600060006000E003E0030000000097
:1024000030003000600060006000C000C000C0000C
:10241000C001800180018001000300030003000669
:1024200000060000000000000000000000000000A6
:10243000E003E003000300030003000300030003C4
:102440000003000300030003000300030003000374
:102450000003000300030003E003E00300000000AA
:102460000000C001C0016003600360033006300655
:10247000180C180C00000000000000000000000014
:10248000000000000000000000000000000000004C
:10249000000000000000000000000000000000003C
:1024A000000000000000000000000000000000002C
:1024B000FFFFFFFF00000000000000000000000020
:1024C0000C000C000C000C000C000C0000000000C4
:1024D00000000000000000000000000000000000FC
:1024E00000000000000000000000000000000000EC
:1024F00000000000000000000000F003F8071C0CC2
:102500000C0C000FF00FF80C0C0C0C0C1C0FF80F3F
:10251000F0180000000000000000000000000000B3
:1025200018001800180018001800D803F80F380C0D
:10253000181818181818181818181818380CF80F30
:10254000D8030000000000000000000000000000B0
:1025500000000000000000000000C003F007300E83
:10256000180C1800180018001800180C300EF0078E
:10257000C003000000000000000000000000000098
:1025800000180018001800180018C01BF01F301C9D
:10259000181818181818181818181818301CF01FC0
:1025A000C01B000000000000000000000000000050
:1025B00000000000000000000000C003F00F300C1D
:1025C0001818F81FF81F180018003818301CF00FE2
:1025D000C007000000000000000000000000000034
:1025E000800FC00FC000C000C000F007F007C0009F
:1025F000C000C000C000C000C000C000C000C000DB
:10260000C00000000000000000000000000000000A
:1026100000000000000000000000E00DF80F180EA0
:102620000C0C0C0C0C0C0C0C0C0C0C0C180EF80FED
:10263000E00D000C0C0C1C06F807F0010000000077
:1026400018001800180018001800D807F80F381CD8
:1026500018181818181818181818181818181818FA
:10266000181800000000000000000000000000003A
:10267000C000C000000000000000C000C000C0009A
:10268000C000C000C000C000C000C000C000C0004A
:10269000C00000000000000000000000000000007A
:1026A000C000C000000000000000C000C000C0006A
:1026B000C000C000C000C000C000C000C000C0001A
:1026C000C000C000C000C000F8007800000000009A
:1026D0000C000C000C000C000C000C0C0C060C0385
:1026E0008C01CC006C00FC009C018C030C030C06DC
:1026F0000C0C0000000000000000000000000000C2
:10270000C000C000C000C000C000C000C000C000C9
:10271000C000C000C000C000C000C000C000C000B9
:10272000C0000000000000000000000000000000E9
:10273000000000000000000000007C3CFF7EC7E3BA
:1027400083C183C183C183C183C183C183C183C169
:1027500083C1000000000000000000000000000035
:10276000000000000000000000009807F80F381C6F
:1027700018181818181818181818181818181818D9
:102780001818000000000000000000000000000019
:1027900000000000000000000000C003F00F300C3B
:1027A000181818181818181818181818300CF00FCE
:1027B000C003000000000000000000000000000056
:1027C00000000000000000000000D803F80F380CE3
:1027D000181818181818181818181818380CF80F8E
:1027E000D803180018001800180018000000000096
:1027F00000000000000000000000C01BF01F301CA3
:10280000181818181818181818181818301CF01F4D
:10281000C01B001800180018001800180000000065
:1028200000000000000000000000B007F00370008E
:102830003000300030003000300030003000300018
:102840003000000000000000000000000000000058
:1028500000000000000000000000E003F003380E5C
:10286000180C3800F003C007000C180C380EF007E5
:10287000E003000000000000000000000000000075
:1028800000008000C000C000C000F007F007C000DA
:10289000C000C000C000C000C000C000C000C00731
:1028A00080070000000000000000000000000000A1
:1028B0000000000000000000000018181818181888
:1028C000181818181818181818181818381CF01F85
:1028D000E0190000000000000000000000000000FF
:1028E000000000000000000000000C18180C180C7C
:1028F000180C300630063006600360036003C00128
:10290000C001000000000000000000000000000006
:1029100000000000000000000000C141C141C3618F
:102920006363636363633636363636361C1C1C1CA1
:102930001C1C00000000000000000000000000005F
:10294000000000000000000000001C38381C300CA3
:10295000600660036003600360036006300C381C8F
:102960001C38000000000000000000000000000013
:10297000000000000000000000001830301830187F
:102980007018600C600CE00CC006C0068003800369
:10299000800380018001C001F00070000000000091
:1029A00000000000000000000000FC1FFC1F000CE5
:1029B000000600038001C000600030001800FC1F0A
:1029C000FC1F0000000000000000000000000000EC
:1029D00000038001C000C000C000C000C000C000F3
:1029E00060006000300060004000C000C000C00017
:1029F000C000C000C0008001000300000000000013
:102A000080018001800180018001800180018001BE
:102A100080018001800180018001800180018001AE
:102A200080018001800180018001800100000000A0
:102A30006000C000C0018001800180018001800130
:102A400000030003000600030001800180018001F3
:102A5000800180018001C0006000000000000000D3
:102A60000000000000000000000000000000F01066
:102A7000F81F080F00000000000000000000000028
:102A80000000000000000000000000000000000046
:102A9000000000000000010203040607080900000E
:102AA000C02A0008000000202C00000014020008CA
:102AB000EC2A00082C0000207406000030020008F8
:102AC0000000000000000000000000000000000006
:102AD000000000000000FFFF0000000010000000E8
:0C2AE00001000000000000000024F400D1
:04000005080001D915
:00000001FF
