:020000040800F2
:10000000F007002091020008E73D0008E9330008EE
:10001000E53D0008511500086D4D00080000000086
:10002000000000000000000000000000E5410008A2
:100030007117000800000000E93D0008E7410008D2
:10004000AB020008AB020008AB020008AB020008DC
:10005000AB020008AB020008AB020008AB020008CC
:10006000AB020008AB020008AB020008AB020008BC
:10007000AB020008AB020008AB020008AB020008AC
:10008000AB02000800000000AB020008AB02000851
:10009000AB020008AB020008AB020008AB0200088C
:1000A000AB020008AB020008AB020008AB0200087C
:1000B000AB020008AB020008AB020008AB0200086C
:1000C000AB020008AB020008AB020008AB0200085C
:1000D000AB020008614D0008AB020008AB0200084B
:1000E000AB020008AB020008AB020008AB0200083C
:1000F000AB020008AB020008AB02000800000000E1
:1001000000000000AB02000800000000AB02000885
:10011000AB02000800000000AB020008AB020008C0
:10012000AB020008AB020008AB020008AB020008FB
:10013000AB0200080000000000000000AB02000855
:10014000AB020008AB020008000000000000000045
:10015000000000000000000000000000000000009F
:10016000000000000000000000000000AB020008DA
:10017000AB020008000000000000000000000000CA
:1001800000000000AB0200080000000000000000BA
:10019000000000000000000000000000000000005F
:1001A0000000000000000000AB020008AB020008E5
:1001B000AB020008AB020008AB0200080000000020
:1001C00000000000AB02000800000000000000007A
:1001D000AB020008AB02000800F002F800F049F89A
:1001E0000AA090E8000C82448344AAF10107DA4592
:1001F00001D100F03EF8AFF2090EBAE80F0013F09B
:10020000010F18BFFB1A43F001031847FC670000F9
:100210001C680000103A24BF78C878C1FAD8520789
:1002200024BF30C830C144BF04680C607047000070
:100230000023002400250026103A28BF78C1FBD8EF
:10024000520728BF30C148BF0B607047662905F0D0
:100250008682002070471FB505F07CFA00F0E4FBB1
:1002600004000020002104F0E5FDE0601FBD10B592
:1002700010BD00F0D9FC1146FFF7EDFF04F0A6FD1C
:1002800000F0F7FC03B4FFF7F2FF03BC00F03AFD07
:100290000948804709480047FEE7FEE7FEE7FEE71A
:1002A000FEE7FEE7FEE7FEE7FEE7FEE70448054956
:1002B000054A064B7047000051420008D90100086A
:1002C000F0010020F0070020F0030020F0030020E0
:1002D00053EA020C00F069802DE9F04B4FF0000664
:1002E000002B1FBFB3FA83F503FA05F424FA05F6D1
:1002F0005E4012BF1643B2FA82F502FA05F4C5F168
:1003000020051EBF22FA05FC44EA0C04203556EAFB
:10031000044C4FEA144418BF641C4FF000084FF01F
:100320000009904271EB030C39D3002919BFB1FACF
:1003300081F701FA07F6B0FA80F700FA07F6C7F17D
:1003400020071EBF20FA07FC46EA0C062037B6FB42
:10035000F4FCA7EB0507103F07F01F0BCBF12006BD
:100360000CFA0BFB2CFA06F644BFB3460026202FEE
:10037000A4BF5E464FF0000B5BEA060C08BF4FF0CF
:10038000010B19EB0B09ABFB027C48EB0608C01B09
:1003900006FB02CC0BFB03CC71EB0C01C1E70B4657
:1003A000024641464846BDE8F08B13B54FF00000C9
:1003B0004FF00001AFF30080BDE81C407047000023
:1003C0000FB41CB5074B06AA7B44694600900598FC
:1003D00000F011FB0020694600F020FB1CBC5DF81A
:1003E00014FB0000510600002DE9F0474FF0000A11
:1003F00089460446C0F820A02046E16888470028C6
:1004000076D0252806D0D4E901219047206A401CE7
:100410002062F1E7E168204600258847C4F81CA067
:1004200006460027C4F818A02A2E09D0304604F04A
:10043000C6FC38B304EB8708303EC8F8186019E0F2
:1004400059F8041B204604EB87029161E168884754
:10045000012F064618D1E069002820DA25F0200592
:100460001DE0D8F8180000EB800006EB40003038A3
:10047000C8F818002046E1688847064604F09FFC4B
:100480000028EED1012F0AD02E2E08D12046E16897
:1004900088477F1C0646022F45F02005C4DBA06973
:1004A000002803DA404245F00105A061E80701D0C9
:1004B00025F01005B6B1A6F14100192802D8203662
:1004C00045F400654A463146204625604D46FFF713
:1004D000BDFE58B1012806D0ED1D25F0070000F142
:1004E000080989E704E005F1040985E730468AE751
:1004F000206ABDE8F08710B5431C02E010F8011B2C
:1005000071B18107FAD14FF0013202C88C1A8C43C5
:1005100014EAC211F9D0C01A0A0603D0C01E10BDD9
:10052000C01A10BD0A0401D0801E10BD0902FCD003
:10053000401E10BD4FF000020429C0F0128010F0E0
:10054000030C00F01B80CCF1040CBCF1020F18BFAF
:1005500000F8012BA8BF20F8022BA1EB0C0100F042
:100560000DB85FEAC17C24BF00F8012B00F8012B15
:1005700048BF00F8012B70474FF0000200B513464A
:1005800094469646203922BFA0E80C50A0E80C50B3
:10059000B1F12001BFF4F7AF090728BFA0E80C5064
:1005A00048BF0CC05DF804EB890028BF40F8042B5D
:1005B00008BF704748BF20F8022B11F0804F18BFCA
:1005C00000F8012B704770477047704770472DE95E
:1005D000FF4F0C461E464FF0FF378BB0D2E90001AB
:1005E000DDF860800A908A46C1F30A5505B93D4698
:1005F000002108464FF00000BAF1000F00F440005F
:1006000005DA00EB80004FF4400101EA50004FEAA8
:100610009059B9F1010F00DDB9460A9850EA4A0035
:100620000ED044F61050A5F2FF3545432F14B8F113
:10063000000F1ED07542291E1EDDC9F100021CE00C
:10064000B8F1010F4FF0000001D0302103E0F24378
:1006500005E02154401CB042FBDB30460022002163
:1006600021540B99C1F80880C1E900200FB0BDE802
:10067000F08FBD1B6D1CDEE74A4600DA694206A812
:1006800000F05CFA06AB93E8070003AB83E80700D1
:1006900050460A9900F03DFB8DE80700A0F5005098
:1006A0001F3800900398002D0ADD42F21F014A46D0
:1006B0000844002303A90390684600F0A6FD09E062
:1006C000A0F500504A461F38002303A9039068464E
:1006D00000F0B0FD8DE807000004000C03D04FF0DF
:1006E000FF30410800E01046B8F1000F03D00022AF
:1006F000009215461EE0751E05D400F099F93032BF
:1007000062556D1EF9D5B3460122084302D000227E
:100710007F1C04E02078302801D100227F1E002AAF
:10072000099784D01DE0112D07DA00F081F93032ED
:1007300062556D1C50EA0102F5D1084302D00098C1
:10074000C8B10EE00021681E05E0235C625C6354C2
:100750002254401E491C8142F7DBAB46A81B401EB9
:100760000990002004F80B000B98099AC0F8088043
:10077000C0E9002B7AE711264FF0000857E72DE972
:10078000F04F88460446D21D22F0070191B0D1E90E
:100790000001CDE90A0104F0EAFA02460B98C00F05
:1007A00001D02D2007E02068810701D52B2002E031
:1007B000202101EAC000032A099001D0072A05DBA5
:1007C00003464146204600F079F90BE12078800687
:1007D00001D5E06900E00620B8F1650F814606D03A
:1007E000B8F1660F18D0B8F1670F70D131E0002072
:1007F000B9F1110F009001DB112301E009F10103B0
:100800000AAA01A90CA8FFF7E2FEDDE90C70002698
:1008100009F10105834647E001204B4600904FF067
:1008200000470AAA01A90CA8FFF7D1FEDDE90DB027
:100830000C995D46002610B909F101000D18B9EBBD
:10084000050003D4C0F1FF3609F10105A5EB09004D
:100850002BE0B9F1010F01DA4FF001090020B9F1E5
:10086000110F0090484601DD112300E003460AAA5B
:1008700001A90CA8FFF7ABFEDDE90C704D46002680
:100880008346207800070AD4AB4500DA5D4601A80C
:10089000012D04DD411911F8011C302907D04F4505
:1008A00002DA17F1040F04DA012082460FE06D1E10
:1008B000EEE7002F02DCED1B3E4403E0781CA8426B
:1008C00000DD7D1CB81B00F1010A4FF000472078C5
:1008D000000703D4AA4501DB4FF0FF3A0021B7F12E
:1008E000004F0DF143088DF8431024D002202B2334
:1008F000002F01DA7F422D230A21021EA0F1010000
:1009000000DC5FB197FBF1FC97FBF1F201FB1C7C73
:1009100017460CF1300C08F801CDEEE7A8F1010004
:1009200003702188090501D5452100E06521A0F16A
:10093000010800F8011C09980FA9A1EB0807FF1D89
:1009400000B10120411901EBEA70A1693844081A8D
:10095000401EA0612078C00602D42046AFF300807C
:10096000099828B1D4E901219047206A401C2062EF
:100970002078C00622D52046AFF300801EE0002E6E
:1009800004DBB34502DD01A8805D00E03020D4E93E
:1009900001219047206A401C2062761CAAF10100C8
:1009A0005FEA000A0AD100F03FF8C0680168405CC5
:1009B000D4E901219047206A401C2062281EA5F13D
:1009C0000105DCDC07E0D4E9012118F8010B9047B0
:1009D000206A401C2062381EA7F10107F3DC204684
:1009E000AFF30080032011B041E6000001694A1C0A
:1009F00002610878704700B58FB0CDE90131002160
:100A0000059105497944CDE9031011466846FFF781
:100A1000EBFC0FB000BD0000E5FFFFFF0A6802F825
:100A2000010B0A607047000000487047B0010020C9
:100A300030B5B0F10A024FEA900E71F100034EEAB0
:100A4000817EB0EB0E0061EB91014FEA101E4EEA81
:100A5000017E10EB0E0041EB11114FEA102E4EEA11
:100A6000016E10EB0E0041EB11214FEA104E4EEAE1
:100A7000014E10EB0E0041EB1141401841F1000115
:100A80004FEAD00040EA41704FEAD10110EB8005F7
:100A90004FEA810444EA907444EB01046D1944EB7D
:100AA0000404521BA3414FF0000348BF0A3200D593
:100AB00030BD401C41F1000130BD00002DE9F04186
:100AC0001F46044603260168072A01F4006004DB80
:100AD00008B116A505E016A503E008B115A500E0CC
:100AE00015A521F010002060A069C01EA0610FB103
:100AF000401EA0612046AFF300804FB1D4E9012130
:100B000038469047206A401C2062C01C206206E0E4
:100B1000206AFAE7D4E9012115F8010B9047761E07
:100B2000F8D22046AFF30080BDE8F0814E414E0080
:100B30006E616E00494E4600696E66002DE9F04711
:100B4000814616468AB0354878440DC88DE80D00B8
:100B500032487844801C03AC0DC884E80D0041F68F
:100B60009B300844372190FBF1F290FBF1F5A5F1A1
:100B7000800501FB12041B3C02D56442012000E009
:100B80000020DFF898A080460027FA44AAF1BE0AA8
:100B90000EE0E0070AD03246684607EB4701012322
:100BA0000AEB810100F046FB8DE8070064107F1C12
:100BB000002CEED1194F7F44AE3F19E0E80715D065
:100BC00007EB04100DF1180A90E80E008AE80E00F9
:100BD000C068F04201D1981908903246012306A955
:100BE00003A800F027FB03AB83E807006D10641C2B
:100BF000002DE3D14FF0010332466946B8F1000FF2
:100C000003A802D000F001FB01E000F013FBC9E9EA
:100C10000001C9F808200AB0BDE8F087A45E000012
:100C200000487047900100207546FFF7F9FFAE4677
:100C300005006946534620F00700854618B020B5E8
:100C4000FFF734FBBDE820404FF000064FF00007EF
:100C50004FF000084FF0000B21F00701AC46ACE864
:100C6000C009ACE8C009ACE8C009ACE8C0098D46D1
:100C7000704710B50446AFF300802046BDE8104031
:100C8000FFF700BB4FF0013C50F8042B51F8043B38
:100C90009A4221D1A2EB0C03934313EACC1317D150
:100CA00050F8042B51F8043B9A4215D1A2EB0C03E7
:100CB000934313EACC130BD150F8042B51F8043BA7
:100CC0009A4209D1A2EB0C03934313EACC13DBD075
:100CD0004FF00000704700BFD01A01BAB1FA81F19D
:100CE00001F0180122FA01F0CB40C1F12001DBB282
:100CF000C0B2C01A2CFA01F3D11A914311EAC31100
:100D0000E6D1704701491820ABBEFEE7260002007D
:100D100070475FEA400C08BF91F0000F4FEA8C2348
:100D20004FEAC12243EA51514FEA1C5018BF00F567
:100D3000F0404FEA300018BF41F000415FEA6C5CC0
:100D400000F02980BCF1FF3F08BF40F080407047B1
:100D5000130C06BF12044FF0100C4FF0000C130ED2
:100D600004BF12020CF1080C130F04BF12010CF1A6
:100D7000040C930F04BF92000CF1020CD30F04BFBC
:100D800052000CF1010C11464FF00002A0F11F00BF
:100D9000A0EB0C00704711F0004F08BF704731F016
:100DA00000413FF4D5AF0B0C06BF09044FF0100C07
:100DB0004FF0000C0B0E04BF09020CF1080C0B0FD6
:100DC00004BF09010CF1040C8B0F04BF89000CF166
:100DD000020CCB0F04BF49000CF1010CCCF1200335
:100DE000A0EB0C0022FA03F302FA0CF241EA030131
:100DF00000F10100704720F07F4C80EA030023F0EF
:100E00007F47ACEB070303F57C5300F0004003F190
:100E1000FF032DE980494FEA154B09B44FEA14430B
:100E200025EA0B4E24EA03480FF2042606EB1327AB
:100E300049083E785FEA320203FB0667C7F5000700
:100E400007FB06F64FEA54374FEAD64606F102068C
:100E500007FB066CCCF1005C4FEA1C472CEA074C00
:100E600007FB06F40CFB06F504EB15464FEA961655
:100E700034BF00204FF000404FEAD13706FB07FC9B
:100E80004FEA1C4C0CFB0BF7D21B03FB0CF761EB7E
:100E900007010CFB0EF7B0EB074072EB17420CFB9F
:100EA00008F734BFA2EB0742B2EB074261EB1741F0
:100EB0004FEA0C444FEA910706FB07FC4FEA1C4C33
:100EC0000CFB0BF7B0EBC74072EB573203FB0CF790
:100ED00034BFA2EBC742B2EBC74261EB57310CFB08
:100EE0000EF7B0EBC70072EB57720CFB08F734BF7C
:100EF000A2EBC702B2EBC70261EB5771039F4FEA47
:100F0000816141EA921104EBCC044FEAD1374FEAF8
:100F1000826206FB07FC42EA90124FEA80604FEAC9
:100F20001C4C0CFB0BF7D21B03FB0CF761EB07010E
:100F30000CFB0EF7B0EB074072EB17420CFB08F707
:100F400034BFA2EB0742B2EB074261EB17414FEA15
:100F50008C554FEA910704EB9C2406FB07FC4FEAF3
:100F60001C4C0CFB0BF7B0EBC74072EB573203FB8A
:100F70000CF734BFA2EBC742B2EBC74261EB57316B
:100F80000CFB0EF7B0EBC70072EB57720CFB08F7C7
:100F900034BFA2EBC702B2EBC70261EB577115EB8E
:100FA0004C254FEA816141EA92114FEA82624FEA91
:100FB000D13742EA901206FB07FC44F100044FEAE5
:100FC00080604FEA1C4C0CFB0BF7D21B03FB0CF7A9
:100FD00061EB07010CFB0EF7B0EB074072EB174219
:100FE0000CFB08F734BFA2EB0742B2EB074261EB00
:100FF000174115EB1C154FEA813141EA92414FEA46
:10100000823242EA90424FEA80304FEA0C7644F155
:10101000000448EA03434EEA0B484FF0000EB2EBDF
:10102000080C71EB030724BF624639464EEB0E0EE7
:101030004FF0000B0018524149414BEB0B0BB2EB48
:10104000080C71EB03077BF1000B24BF62463946A5
:101050004EEB0E0E4FF0000B0018524149414BEB86
:101060000B0BB2EB080C71EB03077BF1000B24BFF9
:10107000624639464EEB0E0E51EA020718BF46F0A3
:10108000010616EB0E7655F1000254F1000103D56E
:10109000BDE88901BDE80088BDE88901BDE80048D8
:1010A000B619524141EB0101A3F101037047808061
:1010B0007F7E7D7C7B7A79787776767574737271B2
:1010C00071706F6E6E6D6C6C6B6A6A69686867666A
:1010D00066656464636362616160605F5F5E5E5DFC
:1010E0005D5C5C5B5B5A5A59595858575756565570
:1010F00055555454535352525251515050504F4FD2
:101100004F4E4E4D4D4D4C4C4C4B4B4B4A4A4A4921
:101110004949484848474747474646464545454464
:101120004444444343434342424242414141002BF1
:101130009C4630D477002BD01CB54FEA370703B458
:101140004FF010004FF01001BAF1000F06D0BCF1C3
:10115000000FDCBF40F0080040F008014FF0000035
:101160000FBCBDE810400BF1010BBBF1010F08BF34
:101170005FEA170722BF12F1010211F101014FF0DE
:10118000004143F1000300F0004043EA00007047D3
:10119000F9D35708D0E746EA064613F1400F4FEA65
:1011A00016461FDD13F1200FDFBF16430A4600214C
:1011B00020335B42BED0C3F1200746EA064602FA5E
:1011C00007F74FEA164646EA0706C3F1200722FA58
:1011D00003F201FA07F721FA03F14FF0000342EAA4
:1011E0000702A7E746EA020646EA06464FEA16461F
:1011F00046EA0106BCBF46EA0646360C4FF000033D
:101200004FF000024FF0000194E72DE9804C9A4620
:10121000934670B491E8380007C831EA400C48BFE3
:1012200034EA430C03D5FFF7E6FDFFF780FFF0BC7F
:10123000BDE8008C2DE9804C9A46934670B491E845
:10124000380007C810F0804F08BF13F0804F03D15B
:1012500000F005F8FFF76BFFF0BCBDE8008C20F054
:101260007F4780EA030023F07F4C07EB0C03A3F5D4
:101270007C5300F00040A3F1FE0392F0000F00F059
:10128000B38095F0000F00F077802DE901494FEA17
:1012900011404FEA144621EA004800FB06FC24EA0C
:1012A000064708FB06F607FB08F800FB07F718EBF4
:1012B00006484CEB164C4FEA124B18EB07484FEA26
:1012C00015464CEB174022EA0B4E0BFB06FC25EAB9
:1012D00006470EFB06F607FB0EFE0BFB07F71EEBA1
:1012E000064E4CEB164C4FF000061EEB074E4CEB37
:1012F000174B18EB0B0840F1000018EB0E0B58EBE6
:10130000000840F100008F1A4FF000013CBFC943B4
:10131000661B14BFB5EB040C00213CBFC943F61B90
:101320004FEA17444EEA8E0E27EA04454FEA1C475F
:1013300004FB07622CEA074C05FB07F70CFB05F6DC
:1013400004FB0CFC16EB074642EB174216EB0C466F
:1013500042EB1C421BEB060658EB0202414146EAF7
:101360009E0601D5BDE80189B619524141EB010144
:10137000A3F10103BDE801894FEA14454FEA114783
:1013800024EA054621EA074C05FB07F406FB07F7AC
:101390000CFB06F105FB0CFC11EB074144EB174479
:1013A0004FEA124711EB0C4144EB1C4422EA074C74
:1013B00005FB07F206FB07F70CFB06F605FB0CFC2A
:1013C00016EB074642EB174216EB0C4642EB1C4568
:1013D0006A1854F1000148BF7047B619524141EBF9
:1013E0000101A3F10103704795F0000F37D04FEAD8
:1013F00011424FEA144721EA024624EA074C02FB55
:1014000007F106FB07F70CFB06F402FB0CFC14EBE0
:10141000074441EB17414FEA154714EB0C4441EBED
:101420001C4125EA074C02FB07F506FB07F70CFBFE
:1014300006F602FB0CFC16EB074645EB174516EBD0
:101440000C4645EB1C42121951F1000148BF704790
:10145000B619524141EB0101A3F1010370474FEA74
:1014600014454FEA114724EA054621EA074C05FBDB
:1014700007F106FB07F70CFB06F24FF0000605FB31
:101480000CFC12EB074241EB174112EB0C4251EB03
:101490001C4148BF7047921841EB0101A3F10103C1
:1014A00070470000F8B5044600200090206881686D
:1014B00011F0010F41D18168214A11422ED181687A
:1014C000D5432940491C81601E48806800F0E070C7
:1014D00000020DD51C481D490068B0FBF1F0401C0E
:1014E00000EB4000800000E0401E00900028FBD18F
:1014F00000F0CCFE06461BE0816811F0010F03D11D
:1015000081682940491C816000F0C0FE801B0228D0
:101510000ED920680068C043C00709D0E06D40F0D4
:101520001000E065206E40F0010020660120F8BD4B
:1015300020680168C943C907DED10020F8BD00005A
:101540003F0000800003005064000020400D0300B5
:10155000FEE7000010B50D4C94ED120B53EC102B70
:1015600094ED080B51EC100B03F09AFE0CD294EDA5
:101570000A0B53EC102B94ED120B51EC100B03F0F3
:101580008FFE01D2012010BD002010BD0000002000
:101590002DE9F05F6548664D002490F801C005F123
:1015A0001400BCF10A0F077890F8019090F802B08F
:1015B00090F803E090F804A046798379C27990F816
:1015C0000880417A20D0BCF10B0F64D0574DBCF19C
:1015D000000F47D057A1FEF7F3FE55481430FEF731
:1015E0008AFF534982B232231431544801F0A0FEDD
:1015F0004F486C701430FEF77EFFBDE8F05F014687
:101600004B481430FEF796BF432F16D1B9F1680F3F
:1016100013D1BBF1650F10D1BEF1630F0DD1BAF13B
:101620006B0F0AD15F2E08D1562B06D14F2A04D159
:10163000B8F14C0F01D1542916D03D483DA11430CA
:10164000FEF7BEFE3A481430FEF755FF384982B225
:1016500032231431394801F06BFE344844706C6118
:10166000AC61AC83BDE8F09F304E314834A196EDBB
:10167000120B143053EC102BFEF7A2FE2C48143042
:10168000FEF739FF2A4982B2322314312B4801F088
:101690004FFE7470E3E7432F19D1B9F1680F16D1EB
:1016A000BBF1650F13D1BEF1630F10D1BAF16B0F0F
:1016B0000DD15F2E0BD1532B09D1542A07D1B8F18C
:1016C000410F04D1522902D1807A542812D01848EF
:1016D00018A11430FEF774FE15481430FEF70BFF06
:1016E000134982B232231431144801F021FE0F480D
:1016F000447015E00D4EF07808B115A100E018A176
:101700000B481430FEF75CFE09481430FEF7F3FE78
:10171000074982B232231431084801F009FE74707F
:101720006C61AC61AC83AC779CE7000000000020EA
:10173000680000206572726F720D0A00FC000020C4
:10174000424154544552593A252E31660D0A000043
:1017500053544152543A49444C450D0A000000008C
:1017600053544152543A4348415247450D0A0000F0
:101770007047002240F6B83306E00021491C89B2C8
:101780009942FBD3521C92B28242F6D3704772B692
:10179000FEE7000010B5044800F054FB024800F0DA
:1017A00017FA80B210BD0000900000202DE9F84F1C
:1017B00000270446009790F85800DFF8E0930D46A4
:1017C000B846012811D0012684F85860206802F03C
:1017D00069F960B1E06D40F02000E0655FF001075D
:1017E00084F858803846BDE8F88F0220FBE7D5E939
:1017F00000210C23206803EA91131844036B01F0C5
:101800001F014FF01F0C0CFA01FCC2F3846223EAA3
:101810000C038A4013430363206802F043F98246B5
:10182000206802F03BF95AEA00003CD1AA68296816
:101830002068B2F1004F37D002F038F920684169D2
:1018400021F00041416120686969C268C2F3C102A8
:10185000520091402A69042A31D000EB82002B68A3
:10186000026EDFF83CC303F0F84302EA0C020B43BC
:101870001A4342F00041016620682A69A96900EB19
:101880008200026E22F080720A430266297F22687B
:101890002869012910D0002102EB8000026E22F09D
:1018A00000720A4302667DE0002202F0FFF8206821
:1018B000416941F00041C5E74FF00071ECE70021BC
:1018C00002F0E6F8400320684FF0000172D002F009
:1018D000DFF890FAA0F0B0FA80F1286842036ED0E9
:1018E00090FAA0F0B0FA80F0814204D100221146B3
:1018F000206802F0EAF80121206802F0C9F84003EC
:1019000020684FF001015DD002F0C2F890FAA0F01B
:10191000B0FA80F12868420359D090FAA0F0B0FAEA
:1019200080F0814204D100220121206802F0CDF82C
:101930000221206802F0ACF8400320684FF0020159
:1019400048D002F0A5F890FAA0F0B0FA80F128682B
:10195000420344D090FAA0F0B0FA80F0814204D162
:1019600000220221206802F0B0F80321206802F072
:101970008FF8400320684FF0030133D002F088F85D
:1019800090FAA0F0B0FA80F1286842032FD090FAC4
:10199000A0F0B0FA80F0814204D100220321206837
:1019A00002F093F82068816811F0010F22D0ACE0BA
:1019B00000E004E002F06CF8C0F384618DE7C0F34E
:1019C000846091E702F064F8C0F38461A2E7C0F399
:1019D0008460A6E702F05CF8C0F38461B7E7C0F367
:1019E0008460BBE702F054F8C0F38461CCE7C0F335
:1019F0008460D0E72A7B296850F8B03FC1F3120C0D
:101A000023EA0C0302F0180C664A22FA0CF20A4090
:101A100013430360E968494577D1286841031CD026
:101A200090FAA0F1B1FA81F1491C01F01F010929D6
:101A30004FEA403132D8002912D000BF90FAA0F10D
:101A4000B1FA81F101F1010101F01F0106FA01F67D
:101A500009D100BFC0F3846109E0C0F38461E3E70A
:101A6000C0F38461EEE790FAA0F1B1FA81F101F1DF
:101A7000010101F01F0146EA816102D1C0F38460D7
:101A800003E090FAA0F0B0FA80F000F1010000F05D
:101A90001F0000EB400041EA005132E000290ED067
:101AA00090FAA0F1B1FA81F101F1010101F01F01F9
:101AB00006FA01F606D100BFC0F3846106E0C0F368
:101AC0008461F1E790FAA0F1B1FA81F101F101012D
:101AD00001F01F0146EA816102D1C0F3846003E096
:101AE00090FAA0F0B0FA80F000F1010000F01F00C1
:101AF0002D4A00EB400002EB005041EA000141F0AA
:101B00000071AA68206801F0D1FF28482A680242C3
:101B10003FF466AE26488168264B01F0E0719A4298
:101B200002D0254B9A421CD10B021AD42268B2F182
:101B3000A04F7FF455AE826841F4000122F0E072BC
:101B40000A4382601D481E490068B0FBF1F0401C4A
:101B500000EB4000800000E0401E00900028FBD118
:101B60003EE6184D184BAA4207D1CD0105D4226894
:101B70009A42F5D041F0807109E0144DAA42EFD1AC
:101B80004A02EDD422689A42EAD041F48001826888
:101B900022F0E0720A43826022E6000000007F40EB
:101BA00000F0FF03FFFF0700000020FE0000088098
:101BB00000030050000021C31000C090640000200A
:101BC000400D0300000052C700010050000084CB0C
:101BD0000068006C70470000F8B54FF00005040085
:101BE0002E46009502D0E06D10B107E00120F8BD4F
:101BF000204600F0EBF8266684F85860206881687B
:101C0000C1F3407119B18168684A11408160206850
:101C10008168C1F3007189B98168654A114041F05A
:101C200080518160634864490068B0FBF1F0400076
:101C3000801C00E0401E00900028FBD120688168D5
:101C4000C1F3007141B9E16D41F01001E165216E10
:101C500041F001012166012501F024FFE16DC90673
:101C600000D430B1E06D40F01000E0650125284659
:101C7000F8BDE06D20F4807040F00200E06520685F
:101C8000806810F0010F11D14FF0A04080684B49DF
:101C900000F00100896801F00101084306D14848BD
:101CA0006168826822F47C120A438260E168E06B1A
:101CB000627F0843A16841EA4231084394F8241046
:101CC00040EA0140012904D1218D3E4A02EB414105
:101CD0000843E16A29B101F47871226B014342EAB9
:101CE00001002268D168384B19400143D160206857
:101CF0000169626B21F0406111430161206801F0CC
:101D0000CDFE70BB207F94F83810800340EA41027A
:101D10002168C86844F2020398431043C8602069F0
:101D20000028206801690AD041F4803101612068EF
:101D300050F8C01F22696FF30D01114307E021F431
:101D400080310161206850F8C01F6FF30D01016000
:101D500094F8400001280CD02068016921F00101AD
:101D60000161606901282068016B21F00F0111D029
:101D700013E0D4E911010843D4E9131211430843D5
:101D800021680A6940F2FC739A43104340F0010055
:101D90000861E6E7226A521E11430163E06D20F0FC
:101DA000020040F00100E06561E70000C0FFFF5F56
:101DB000C0FFFF7F64000020400D030000010050C1
:101DC000000300500000FEFF0740F0FF10B598B080
:101DD0000446142111A8FEF7CFFB44216846FEF704
:101DE000CBFB15492068884223D1C40140050094EB
:101DF0000F90684600F048FB08B1FFF7C8FC0F4899
:101E0000C16C41F40051C164C16C01F400511691E0
:101E1000C16C41F00201C164C06C11A900F0020064
:101E200016900320CDE9114000201390044800F0E3
:101E300009F918B010BD0000000100500010024068
:101E4000000400482DE9F04104463848806800F05D
:101E50001F05206801F026FE18B102210846BDE8E2
:101E6000F08194F8580001280CD0012084F8580023
:101E70002046FFF717FB01004FF0000304D084F861
:101E80005830EBE70220EAE7E06D40F6016290434C
:101E900040F48070E065264A20684FF0A0469042EA
:101EA00001D1374600E00746874200D01DB9E76DF3
:101EB00027F48017E765E76DFF0404D5276E27F048
:101EC0000607276600E023661C27076084F8583061
:101ED0002068904201D1334600E00346834215D08A
:101EE000A5B1052D12D0092D10D0E36D43F4801358
:101EF000E365904200D13046C0688001AED5E06D08
:101F000020F4005040F48050E065A7E7C2689201D9
:101F100005D5E26D22F4005242F48052E2658268F7
:101F2000044B1A40121D826098E700000003005025
:101F300000010050C0FFFF7F10B5002140B190F8B4
:101F400025300122022B05D00421C163012124E0A8
:101F5000012010BD03681C6824F001041C600368A4
:101F60001C6824F00E041C60836C1C6824F48074CC
:101F70001C6090F84430046C03F01F0302FA03F372
:101F80006360D0E913345C60436D33B11C6824F4A2
:101F900080741C60D0E916345C6080F82520002233
:101FA00080F82420084610BD70B590F82520002444
:101FB00001212346022A07D00422C26380F825109B
:101FC00080F82430012429E00268156825F0010515
:101FD00015600268156825F00E051560826C15689D
:101FE00025F48075156090F84420056C02F01F02FE
:101FF00001FA02F26A60D0E913255560426D32B1F0
:10200000156825F480751560D0E91625556080F8AF
:10201000251080F82430816B01B18847204670BDBF
:1020200070B5044600F032F90546601C02D0044841
:102030004068044400F02AF9401BA042FAD370BD66
:10204000580000202DE9F04FDFF80C920023012604
:102050000325A9F1040B85B00F2709F1040AABF1A0
:10206000040EF1E006FA03FC12EA0C027ED00C79B1
:1020700004F00304012C01D0022C20D184680094C8
:102080005C0005FA04F80494009C24EA0804009417
:10209000D1F80C80049C08FA04F8009C48EA040873
:1020A000C0F80880446824EA0C0491F804C0CCF31A
:1020B000001C0CFA03FC4CEA040CC0F804C00C79B8
:1020C000E443A40702D18C68012C0ED0C4684FEA07
:1020D000430805FA08FC24EA0C04D1F808C00CFAFD
:1020E00008FC4CEA040CC0F80CC00C7904F00304A2
:1020F000022C16D1DC0800EB840CCDF808C0DCF80B
:1021000020C05C074FEAD46807FA08F42CEA040CF4
:102110000C6904FA08F444EA0C04DDF808C0CCF8B1
:10212000204004684FEA430805FA08FC24EA0C043E
:1021300091F804C00CF0030C0CFA08FC4CEA040CF7
:10214000C0F800C04C6814F4403F7CD0434CD4F835
:1021500060C04CF0010CC4F860C0246E23F0030C86
:1021600004F0010400943E4C644400E06BE00294EF
:10217000A4684FEA837C4FEA1C7807FA08FC24EA3B
:102180000C04B0F1904F06D0DFF8D8C0604505D1FF
:102190004FF0010C20E04FF0000C1DE0DFF8C8C04C
:1021A000604502D14FF0020C16E0DFF8C0C0604578
:1021B00002D14FF0030C0FE0DFF8B4C0604502D14C
:1021C0004FF0040C08E0DFF8ACC0604502D14FF0DE
:1021D000050C01E04FF0060C0CFA08FC4CEA040C6C
:1021E000029CC4F808C0D9F80040CC46D1F804805D
:1021F00094435FEAC82800D51443CCF80040DAF8CD
:102200000040D446D1F8048094435FEA882800D582
:102210001443CCF80040DBF80040DC46D1F80480E1
:1022200094435FEA883800D51443CCF80040DEF8C8
:102230000040F446D1F8048094435FEAC83800D5E2
:102240001443CCF800405B1C0C682246DC407FF451
:1022500009AF05B0BDE8F08F08040140001002404E
:10226000000001400004004800080048000C00483D
:1022700000100048001400480069084000D0012008
:1022800070470AB181617047816270470148806878
:1022900070470000580000200248816842681144DD
:1022A000816070475800002010B50024032000F022
:1022B00073F8002000F008F808B1012401E000F0F4
:1022C00025F8204610BD000070B50E4E05460024CE
:1022D000706898B14FF47A71B1FBF0F00A4909685F
:1022E000B1FBF0F000F060FD40B9102D06D20022E5
:1022F0002946501E00F030F8356000E001242046E9
:1023000070BD000058000020640000200A4882B020
:10231000016E41F001010166016E01F001010091C1
:10232000816D41F080518165806D00F0805000909A
:1023300002B000F0A1B8000000100240002809DB44
:1023400000F01F02012191404009800000F1E020CF
:10235000C0F8001170470000F0B40E4B1B680C462B
:10236000C3F30223C3F10705042D00D90425191D69
:10237000072901D2002300E0DB1E012606FA05F141
:10238000491E214099409E40761E16403143F0BCC4
:1023900002F005BD0CED00E0064900F007020868F8
:1023A0004FF6FF03184040EA0220034A104308603A
:1023B000704700000CED00E00000FA052B492C4BA3
:1023C0000A6832214A432B4940B1B0F5007F0868C2
:1023D00029D020F4C06040F480602CE00868C0F38D
:1023E0004120022804D051F8800F20F4807022E0B0
:1023F000D1F8800020F48070C1F88000086820F4D3
:10240000C06040F400700860B2FBF3F0401C00E0D4
:10241000401E4A69520501D50028F9D14869400596
:102420000AD503207047C0F34120022806D051F896
:10243000800F40F48070086000207047D1F8800061
:1024400040F48070C1F88000086820F4C06040F457
:1024500000700860B2FBF3F0401C00E0401E4A69C7
:102460005205DBD50028F9D1D8E700006400002030
:1024700040420F00007000400248816841F48041F2
:1024800081607047007000402DE9F8430446006801
:1024900000269D4D00035ED5A86D0027C00008D41E
:1024A000A86D40F08050A865A86D012700F080500D
:1024B0000090DFF85892D9F8001041F48071C9F803
:1024C0000010FFF7E3FE804606E000BFFFF7DEFEE8
:1024D000A0EB080002282BD8D9F80000C005F5D5DC
:1024E000D5F8900010F4407014D0216C814211D0C6
:1024F000D5F89000D5F8901020F4407041F4803168
:10250000C5F89010D5F8901021F48031C5F89010DE
:10251000C5F89000C00711D0FFF7B8FE804641F221
:10252000883907E0FFF7B2FEA0EB0801494501D961
:1025300003260BE0D5F890008007F3D5D5F890007E
:10254000216C20F440700843C5F890001FB1A86DBD
:1025500020F08050A8652078C00707D0D5F8880003
:10256000616820F003000843C5F8880020788007E0
:1025700007D5D5F88800A16820F00C000843C5F8FD
:1025800088002078400707D5D5F88800E16820F05A
:1025900030000843C5F888002078000707D5D5F833
:1025A0008800216920F0C0000843C5F88800207821
:1025B000800607D5D5F88800616920F4406008439B
:1025C000C5F888002078400607D5D5F88800A169AD
:1025D00020F440500843C5F888002078000607D54D
:1025E000D5F88800E16920F440400843C5F8880028
:1025F0002088C00507D5D5F88800216A20F440302E
:102600000843C5F888002088800507D5D5F88800DC
:10261000616A20F440200843C5F8880020884005FE
:102620000FD5D5F88800A16A20F440100843C5F8FA
:102630008800A06AB0F5801F03D1E86840F48010DC
:10264000E860208800050FD5D5F88800E16A20F4FD
:1026500040000843C5F88800E06AB0F5800F03D158
:10266000E86840F48010E8602088C0040FD5D5F8F1
:102670008800216B20F040700843C5F88800206B6B
:10268000B0F1807F03D1E86840F48010E8602088D2
:102690004FF0006180040ED5D5F88800626B20F001
:1026A00040601043C5F88800606B884203D1E86839
:1026B00040F48010E860208840040ED5D5F88800EA
:1026C000A26B20F040601043C5F88800A06B8842E0
:1026D00003D1E86840F48010E860208800040FD53A
:1026E000D5F88800E16B20F040500843C5F8880019
:1026F000E06BB0F1805F03D1E86840F48030E860BF
:102700003046BDE8F8830000001002400070004031
:102710002DE9F0470E4605004FF0000725D0DFF801
:10272000AC81D8F8000000F00F00B0420CD2D8F80D
:10273000001021F00F013143C8F80010D8F8000054
:1027400000F00F00B04210D12968614CC80741F277
:10275000883A5AD06868DFF87C91032808D00228AC
:1027600020682DD0400500282CDB0120BDE8F08733
:1027700020688001F9D5E06800F00302E068C0F34A
:102780000310401C032A19D0534A00BFB2FBF0F0DB
:10279000E268C2F306225043E268C2F34162521C6F
:1027A0005200B0FBF2F0484517D9A06810F0F00FC6
:1027B0000CD0880711D5A86840B10EE0474AE5E77C
:1027C0008003D0E700F0B6F8484506D9A06820F0AD
:1027D000F00040F08000A0608027A068696820F0C9
:1027E00003000843A060FFF751FD814606E000BFEB
:1027F000FFF74CFDA0EB090151453AD8A068696884
:1028000000F00C00B0EB810FF2D12868810714D5DD
:10281000400703D5A06840F4E060A0602878000776
:1028200005D5A06820F4605040F4E060A060A06886
:10283000A96820F0F000084304E0802F03D1A068CD
:1028400020F0F000A060D8F80010404601F00F0121
:10285000B14216D9016821F00F0131430160FFF741
:1028600015FD074607E000BFFFF710FDC11B5145EE
:1028700001D903207AE7D8F8000000F00F00B04239
:10288000F2D12878400705D5A068E96820F4E06017
:102890000843A0602878000706D5A068296920F4BD
:1028A000605040EAC100A06000F044F8A1680C4A02
:1028B000C1F30311515C01F01F01C84009490860D0
:1028C00009480068BDE8F047FFF7FEBC0020024061
:1028D0000010024000B4C4040024F40000366E016D
:1028E0005A69000864000020580000200548064985
:1028F00000688968054AC1F30221515C01F01F019B
:10290000C840704764000020001002406A69000857
:102910000548064900688968054AC1F3C221515C2F
:1029200001F01F01C8407047640000200010024001
:102930006A690008184910B58868C0F38102174811
:10294000012A0BD08A68164BC2F38102022A06D0F4
:102950008A68C2F38102032A03D0002010BD184602
:1029600010BDCA6802F00304CA68C2F30312521C05
:10297000032C02D0B0FBF2F001E0B3FBF2F0CA6826
:10298000C968C2F306225043C1F34161491C4900A2
:10299000B0FBF1F010BD0000001002400024F40074
:1029A00000366E012DE9F84304007AD02078F84D06
:1029B000C00747D0A868E96800F00C0001F00301E7
:1029C0000C2802D0082817D001E0032914D0606831
:1029D000B0F5803F17D0B0F5A02F286817D020F4AD
:1029E00080302860286820F4802028606068E0B18A
:1029F000FFF74CFC064614E02868800322D5606887
:102A00000028D2D01EE0286840F48030EDE740F482
:102A100080202860F7E700BFFFF738FC801B6428A0
:102A200070D828688003F7D50CE0FFF72FFC064626
:102A300005E000BFFFF72AFC801B6428F0D8286857
:102A40008003F7D4207880074CD5A868E96800F0A7
:102A50000C0001F003010C2802D004280DD001E085
:102A600002290AD0E068002828682BD040F4807042
:102A70002860FFF70BFC064619E02868400502D5E0
:102A8000E068002891D06868217C20F0FE4040EA90
:102A900001606860BF480068FFF716FC002800D19D
:102AA00020E072E1FFF7F2FB801B0228B8D828680B
:102AB0004005F7D56868217C20F0FE4040EA0160BF
:102AC00068600FE020F480702860FFF7DFFB0646A7
:102AD00005E000BFFFF7DAFB801B0228A0D82868BA
:102AE0004005F7D42078000729D560690028D5F87B
:102AF000940013D040F00100C5F89400FFF7C6FB26
:102B0000064606E090E000BFFFF7C0FB801B0228EE
:102B100086D8D5F894008007F6D510E020F00100A3
:102B2000C5F89400FFF7B2FB064604E0FFF7AEFBE2
:102B3000801B022878D8D5F894008007F6D4207836
:102B4000400761D5A86D0026C00008D4A86D40F0EC
:102B50008050A865A86D012600F0805000908E4836
:102B60000168C90511D40168804641F48071016093
:102B7000FFF78CFB074604E0FFF788FBC01B022829
:102B800052D8D8F80000C005F6D5A068012815D0A5
:102B90000528D5F8900016D020F00100C5F8900067
:102BA000D5F8900020F00400C5F89000A06841F22C
:102BB0008838B8B1FFF76AFB07460EE0D5F89000F9
:102BC00040F00100F0E740F00400C5F89000F5E7A0
:102BD000FFF75CFBC11B414526D8D5F89000800764
:102BE000F6D50CE0FFF752FB074604E0FFF74EFB7B
:102BF000C11B414518D8D5F890008007F6D41EB106
:102C0000A86D20F08050A8652078800629D5A0699D
:102C10000028D5F8980013D040F00100C5F89800BE
:102C2000FFF734FB064606E075E000BFFFF72EFB1A
:102C3000801B02286FD8D5F898008007F6D510E0E1
:102C400020F00100C5F89800FFF720FB064604E0DD
:102C5000FFF71CFB801B02285DD8D5F89800800781
:102C6000F6D4E069F0B3A968C1F3810103295DD00E
:102C70000228286820F08070286003D0FFF706FB48
:102C800004464BE0FFF702FB064604E0FFF7FEFABE
:102C9000801B02283FD828688001F7D4F4E9080196
:102CA0006FF00F0202EB01110843218A5204490818
:102CB00002EB4151A26841EA02210843217D4FF015
:102CC0007E42490802EB41610843217B40EAC16032
:102CD000E968324A11400843E860286840F0807093
:102CE000286000E05EE0E86840F08070E860FFF790
:102CF000CDFA044605E000BFFFF7C8FA001B022822
:102D000009D828688001F7D54CE000BFFFF7BEFA6C
:102D1000001B022802D90320BDE8F883286880013F
:102D2000F4D4E8681E490840E8603BE00128F3D08D
:102D3000E868226A00F00301914226D1616A00F03E
:102D4000F0020901103991421FD1A26A00F4FE413C
:102D5000B1EB022F19D194F82C2000F07841B1EB9F
:102D6000C26F12D1218E00F4C00249084905A1F5B5
:102D70000011914209D194F8341000F0C060490864
:102D80004906A1F1007181420CD00120C4E7000086
:102D90000010024058000020007000400C809F018D
:102DA000FCFFEEFE0020B7E710B5401EB0F1807FBB
:102DB00001D3012010BD4FF0E02460610F216017A6
:102DC00001F0EDFF0020A06107202061002010BD70
:102DD00090F88410012918D0012180F88410242152
:102DE000C0F8881001680A680B6823F001030B60C3
:102DF00022F0005100224266036819602021C0F8C9
:102E0000881080F884201046704702207047704771
:102E1000704770B5044690F8840001281DD0012049
:102E200084F884002420C4F88800206805680268BB
:102E300022F0010202602068826822F060620A4388
:102E40008260204601F00CFA206805602020C4F85A
:102E50008800002084F8840070BD022070BD70B529
:102E6000044690F8840001281DD0012084F88400D5
:102E70002420C4F8880020680568026822F0010256
:102E800002602068826822F060420A438260204625
:102E900001F0E6F9206805602020C4F888000020D1
:102EA00084F8840070BD022070BD70477047704781
:102EB0002DE9F04103680446D86919689A6840F61C
:102EC0000F0528424FF000054FF002060AD1870691
:102ED0007ED501F0200702F0805C57EA0C0777D01E
:102EE000616F42E1B64FDFF8DCC2174001EA0C0C1B
:102EF00057EA0C0C6CD05FEAC07C0CD05FEAC15C76
:102F000009D54FF0010CC3F820C0D4F8903043F03D
:102F10000103C4F89030830709D5D30707D023688D
:102F20001E62D4F8903043F00403C4F89030430795
:102F30000AD5D30708D0266804233362D4F890302A
:102F400043F00203C4F8903003070CD501F02003CE
:102F50003B4308D0266808233362D4F8903043F00E
:102F60000803C4F8903003050BD54B0109D526683A
:102F70004FF400633362D4F8903043F02003C4F878
:102F80009030D4F89030002B3DD0800609D501F068
:102F9000200002F08051084303D0616F09B1204640
:102FA0008847D4F8900021688968490602D410F057
:102FB000280F2AD0204601F035FA206880684006A4
:102FC0001ED52068083050E8001F21F0400100E0C5
:102FD00021E040E80012002AF3D1D4F8800078B153
:102FE00079498163D4F88000FEF7DEFF00280AD01B
:102FF000D4F88000816B00E02046BDE8F04108472E
:103000002046FFF754FFBDE8F0812046FFF74FFF51
:10301000C4F89050F7E7D4F86CC02027BCF1010F3A
:103020007ED15FEAC06C7BD55FEAC16C78D5102099
:10303000186220688068400651D5D4F880100A686C
:1030400050680004000C3ED0B4F85C3083423AD99A
:10305000A4F85E000868006880062CD4216851E856
:10306000000F20F4807041E80002002AF6D12068A9
:10307000083050E8001F21F0010140E80012002A4A
:10308000F5D12068083050E8001F21F0400140E8E9
:103090000012002AF5D1C4F88C70E566216851E869
:1030A000000F20F0100041E80002002AF6D1D4F809
:1030B0008000FEF741FF2667B4F85C00B4F85E10AC
:1030C000401A81B207E0B4F85C1081429BD11068CD
:1030D000800698D526672046FFF799FE93E7B4F857
:1030E0005C00B4F85E10401A81B2B4F85E000028AB
:1030F00089D0002987D0226852E8000F20F4907010
:1031000042E80003002BF6D12D4BDB43206808304A
:1031100050E8002F1A4040E8002CBCF1000F00E0FE
:103120000EE0F3D1C4F88C70E5666567206850E85E
:10313000002F22F0100240E80023002BF6D1C9E74F
:10314000C60209D5560207D54FF4801018622046F2
:10315000BDE8F041FFF7AABE03060AD501F08003DF
:1031600002F40002134304D0A16F00297FF444AF9E
:1031700049E7420611D54A060FD52046016851E8B5
:10318000002F22F0400241E80023002BF6D1C0F8C6
:103190008870856700F027F935E7020206D54A00F6
:1031A00004D52046BDE8F041FFF77FBEC00195D5AC
:1031B000002993DA2046BDE8F041FFF729BE000060
:1031C00001000010200100041944000810B504009B
:1031D00003D0D4F8880010B107E0012010BD002012
:1031E00084F88400204600F027F82420C4F88800E2
:1031F0002068016821F001010160A06A10B1204639
:1032000001F050F8204601F09FFB0128E6D020682D
:10321000416821F4904141602068816821F02A01D1
:1032200081602068016841F0010101602046BDE82D
:10323000104001F09BB8000010B598B0044614216E
:1032400011A8FDF799F944216846FDF795F91B4946
:103250002068884230D101200024CDE9000468466E
:10326000FFF712F908B1FEF792FA1548016E41F422
:1032700080410166016E01F480411691C16C41F0FC
:103280000101C164C06C11A900F0010016904FF457
:10329000C06011900220CDE912040720CDE914404E
:1032A0004FF09040FEF7CEFE002201212520FFF7CF
:1032B00053F82520FFF742F818B010BD0038014040
:1032C0000010024030B4D0F88C30202B02D0022005
:1032D00030BC7047A9B1A2B10023C3660A4C036891
:1032E000A3420BD05B681B0208D5046854E8003F7A
:1032F00043F0806344E80035002DF6D130BC01F086
:103300005DBC0120E4E70000008000400549064B59
:1033100048784A7B1A54401C487001220D310348FA
:10332000FFF7D0BF000000207C000020FC00002040
:103330002DE9F84F0446D0F88800984615460E4609
:10334000202802D00220BDE8F88F96B38DB300206C
:10335000C4F890004FF02109C4F888901834FEF7A3
:1033600095FFA5878246E58754F8100C183CB0F508
:10337000805F01D1206910B13546002600E00025AC
:103380005FF02007B4F8560053464FF00002CDF826
:103390000080D8B18021204601F098FCD8B955B101
:1033A00015F8010B21688862D4F8881039EA010009
:1033B00006D00120C7E736F8020BC0F30800F1E79A
:1033C000B4F85600401EA4F85600DBE74021204622
:1033D00001F07CFC18B1C4F888700320B3E7C4F88E
:1033E00088700020AFE77047FEE70000F0B587B0B7
:1033F00014216846FDF7C0F82D48C16C41F0040166
:10340000C164C16C01F004010591C16C41F020015F
:10341000C164C16C01F020010591C16C41F0010152
:10342000C164C16C01F001010591C16C41F0020160
:10343000C164C16C01F002010591C16C41F0080149
:10344000C164C06C1B4E00F008004FF47F4405902F
:10345000012221463046FEF714FF174F00220421B7
:103460003846FEF70EFF0125CDE900450024029401
:10347000694630460394FEF7E5FDCDE90054694600
:103480004FF090400294FEF7DDFD0720CDE90004E7
:1034900069460A480294FEF7D5FD04200090CDE964
:1034A0000154694638460394FEF7CCFD07B0F0BDE1
:1034B0000010024000080048000C004800040048CA
:1034C00070B56B482DED048B01686A4C2269891A2E
:1034D00032297DD90068206100F0DAF86072227B21
:1034E000102520EA020142408243E172A2720126C5
:1034F0002073012912D1002000F01CF9A0780109E5
:1035000010D0B6EB101F09D194ED0E0B002084ED06
:103510000A0B94ED0C0B84ED080BA070E07A0228E6
:1035200002D00EE0A570F9E7002000F003F9A078C2
:10353000B6EB101F05D1401CC0B2A070122800D1FC
:10354000A570E07A9FED4C8B032845D1002000F058
:10355000F1F8A078102804D09FED499B112826D0BF
:103560003AE094ED0C0B53EC182B51EC100B01F0DE
:1035700077FC41EC100B53EC182B84ED0C0B01F095
:103580006FFC94ED0E1B53EC112B01F0C3FF23D8FD
:10359000B0EE480AF0EE680A53EC102B94ED0E0BD7
:1035A00051EC100B01F0ECFFC4E90C0114E094EDB8
:1035B0000E0B53EC182B51EC100B01F051FC41ECAD
:1035C000100B53EC192B84ED0E0B01F0A3FF00E060
:1035D00036E001D884ED0E9BE07A042830D100203B
:1035E00000F0A8F8A078010903D1E17881F0010189
:1035F000E1709FED259B102825D0112820D194ED56
:103600000E0B53EC182B51EC100B01F0B9FF41ECF1
:10361000100B53EC182B84ED0E0B01F0B1FF94ED61
:103620000C1B53EC112B01F03BFE09D894ED0C0B55
:1036300053EC182B51EC100B01F012FCC4E90E01F5
:10364000BDEC048B70BD94ED0C0B53EC182B51ECBE
:10365000100B01F095FF41EC100B53EC192B84ED8E
:103660000C0B01F01DFEEBD884ED0C9BE8E700008D
:1036700060000020000000209A9999999999B93F1B
:10368000CDCCCCCCCCCC20409A99999999990D402D
:1036900070B5104D002401212846FEF7EDFD80B1E4
:1036A00002212846FEF7E8FD68B104212846FEF70E
:1036B000E3FD50B101214FF09040FEF7DDFD30B148
:1036C00006E0012404E0022402E0032400E00424D4
:1036D000204670BD0004004800B585B0142168463E
:1036E000FCF74AFF4FF6FF70009000200321CDE960
:1036F0000201019069460248FEF7A4FC05B000BD36
:103700000008004800B585B014216846FCF734FF76
:103710004FF6FF70009001200190032003900020DD
:10372000029069460248FEF78DFC05B000BD00001E
:103730000008004870B5002406462146204600F0E7
:1037400003F900F041F94FF49635304600F010F9D6
:10375000641CAC42F9D370BD70B586B014216846C4
:10376000FCF70AFF1E48C16C41F00401C164C16C42
:1037700001F004010591C16C41F00101C164C16C0B
:1037800001F001010591C16C41F00201C164C06CFE
:10379000032500F0020005904FF448700124002634
:1037A00003958DE8510069460E48FEF74BFC200258
:1037B00003958DE851004FF0904469462046FEF78E
:1037C00041FCFFF79FFFA06940F48070A0610548AD
:1037D0001830016841F40871016006B070BD000046
:1037E0000010024000040048203AD2B2034B02EB22
:1037F000420203EB021200F019B800006257000801
:10380000F0B50E460746002540F23F1407E021467A
:103810003846FFF7E9FF103C6D1CA4B2761C3278E5
:10382000002A01D0142DF2D3F0BD00002DE9F0479D
:1038300091468A460026044600F086F8DFF840806C
:10384000012700BF00F0C0F85FF0000539F816004E
:1038500007FA05F10842404601D1408800E000889F
:1038600000F086F86D1C102DF0D3641CE4B25146B4
:10387000204600F069F8761C182EE3D3BDE8F087E7
:103880005000002010B5FFF767FF002000F014F88B
:10389000084CA080A088A0F50241303906D000F085
:1038A0006CFB002000F008F8A08010BD00F0DCFAEE
:1038B000F7E700005000002070B51D490A6842F487
:1038C00000720A600A6842F480720A60184C103C68
:1038D000226842F020022260164A1060086840F018
:1038E0002000086000BF00BF00BF206840F020003B
:1038F0002060206840F480702060FFF7EDFE4FF0FC
:103900009041886A40F48070886200BF00BF00BFA9
:103910000848001F006885B2886940F4807088619B
:10392000FFF7F0FE206840F400702060284670BD6C
:10393000280400481408004801B5BDF800000149FA
:10394000488008BD5000002010B50C4601462020DC
:1039500000F068F82146BDE81040212000F062B870
:1039600001B5BDF800000149088008BD50000020E5
:10397000134A116841F400711160114910390B6844
:1039800043F480730B600B6843F020030B600D4B16
:103990001860106840F02000106000BF00BF00BF3A
:1039A000086840F020000860086840F480700860F3
:1039B00000BF00BF00BF086840F400700860704797
:1039C00028040048140800481449086840F40070AE
:1039D0000860086840F48070086010481038026879
:1039E00042F0200202600E4B22221A600A6842F066
:1039F00020020A6000BF00BF00BF016841F0200143
:103A00000160016841F48071016000BF00BF00BF28
:103A1000016841F40071016070470000280400480B
:103A200014080048184B10B51A6842F400721A6066
:103A30001A6842F480721A60134A103A146844F00B
:103A400020041460114C2060186840F020001860B9
:103A500000BF00BF00BF106840F020001060106879
:103A600040F4807010602160186840F020001860F9
:103A700000BF00BF00BF106840F020001060106859
:103A800040F48070106010BD2804004814080048FD
:103A900000EB8100006E00F0F84070478068C0F3D2
:103AA000C00070478068C0F380007047042303EAB9
:103AB000D15310B518444369C1F3045107248C4015
:103AC000A3438A401343436110BD00EB8100016EA4
:103AD00021F00041114301667047000010B53648DF
:103AE0000168364C6269891AC82963D90068606127
:103AF000FDF750FE01F0C0FB9FED311B53EC112B85
:103B000001F00AFC9FED301B53EC112B01F05CFA25
:103B100041EC100B9FED2E1B84ED100B53EC112B81
:103B200001F0FAFBC4E91201A078010925D00121B6
:103B3000B1EB101F3ED128A12B48FCF741FC2A49CC
:103B40001820FFF75DFE94ED0C0B28A153EC102B11
:103B50002548FCF735FC24494820FFF751FE94ED39
:103B60000E0B27A153EC102B1F48FCF729FCBDE8D6
:103B700010401D496020FFF743BE26A11A48FCF7FC
:103B80001FFC19491820FFF73BFE94ED120B25A1ED
:103B900053EC102B1448FCF713FC13494820FFF793
:103BA0002FFEE07808B124A100E028A10E48FCF720
:103BB00007FCDCE710BD00006000002000000020D2
:103BC0006666666666660A400000000000FEAF405A
:103BD000000000000000084020202020202020209D
:103BE0005345542020202000680000202020202061
:103BF00020204D494E3A252E3166562020200000C7
:103C00002020202020204D41583A252E3166562074
:103C100020200000202020202020424154544552E2
:103C2000592020002020202020564F4C543A252E89
:103C3000316656202000000020202020535441549B
:103C4000453A49444C4520202020000020202020D7
:103C500053544154453A43484152474520200000BF
:103C600070B5134D044601224FF47F412846FEF7FC
:103C700008FB104E012204213046FEF702FB002211
:103C800004213046FEF7FDFA4FF6FF7000EA0421EA
:103C900000222846FEF7F5FA012204213046FEF7FD
:103CA000F0FA3046BDE8704000220421FEF7E9BA80
:103CB00000080048000C00482DE9F0414748016821
:103CC000474CA269891A642974D90068A061E07917
:103CD000012580F00100E071207A002680F00100CB
:103CE0002072E07888B12671FDF734FC78B16671F6
:103CF00094ED0A0B53EC102B94ED120B51EC100BBE
:103D000001F008FC05D2A57104E02571ECE76571AE
:103D1000EEE7A671207902218022012801D010B39C
:103D200027E067798123012F01D0C7B121E094F802
:103D300006C00327BCF1010F03D0BCF1000F0AD06D
:103D400017E0E07918B1207A38B183201BE0207A9F
:103D500088B323703AE0E07968B3277036E0A7793A
:103D6000012FF4D005E06379012B02D1A379012B57
:103D700004D0677950EA07030BD00FE0E07920B157
:103D8000207AA8B18220207020E0207AE8B1227049
:103D90001CE094F806C0BCF1010FF6D010B1012868
:103DA0000AD00CE0012F0AD1A07940B9E07960B1C6
:103DB00021700BE00FE006E00FB9A07918B1A079EF
:103DC000034302D002E0257000E026702078BDE8B1
:103DD000F041FFF745BFBDE8F08100006000002022
:103DE00000000020FEE7FEE77047000030B589B014
:103DF00020216846FCF7C0FB1948184900240160DF
:103E00008902C0E90114C46004250461C0E90545C4
:103E1000047744770121016280F82440C46204637E
:103E200080F83840C46380F84040FDF7D5FE08B103
:103E3000FDF7ADFC0B480090062001900720029092
:103E40007F200594CDE9030569460548FDF7AEFCE2
:103E5000002801D0FDF79BFC09B030BD00010050E7
:103E6000900000200080F03E30B501210020FFF7D7
:103E7000D9FD4FF47A70FDF77CFC00210120FFF79B
:103E8000D1FD41F290711020FFF7CCFD4FF41C5191
:103E90006020FFF7C7FD01216120FFF7C3FD02216C
:103EA0004620FFF7BFFD48F210011320FFF7BAFDCF
:103EB00048F2FE011220FFF7B5FD4FF4A061022089
:103EC000FFF7B0FD41F230010320FFF7ABFD40F2F8
:103ED000033421463020FFF7A5FD21463120FFF7AE
:103EE000A1FD21463220FFF79DFDE51E2946332026
:103EF000FFF798FD03213420FFF794FD214635207C
:103F0000FFF790FD14213620FFF78CFD2146372066
:103F1000FFF788FD21463820FFF784FD2146392030
:103F2000FFF780FD29463A20FFF77CFD03213B2067
:103F3000FFF778FD21463C20FFF774FD4FF4A051B8
:103F40003D20FFF76FFD4FF400719220FFF76AFDEF
:103F500021469320FFF766FD40F60D019020FFF704
:103F600061FD41F218010320FFF75CFDBDE8304020
:103F700040F273110720FFF755BD10B543F2080159
:103F8000E320FFF74FFD1221E720FFF74BFD41F241
:103F90003121EF20FFF746FD00210120FFF742FD10
:103FA0004FF4E0610220FFF73DFD41F230010320B4
:103FB000FFF738FD00210420FFF734FD40F2072110
:103FC0000820FFF72FFD00210920FFF72BFD00211E
:103FD0000A20FFF727FD00210C20FFF723FD002119
:103FE0000D20FFF71FFD00210F20FFF71BFD002113
:103FF0001020FFF717FD07211120FFF713FD002107
:104000001220FFF70FFD00211320FFF70BFDC82042
:10401000FEF706F841F290611020FFF703FD40F231
:1040200027211120FFF7FEFC3220FDF7F9FF1D21AB
:104030001220FFF7F7FC3220FDF7F2FF4FF400618A
:104040001320FFF7EFFC14212920FFF7EBFC0B21D5
:104050002B20FFF7E7FC3220FDF7E2FF00212020B4
:10406000FFF7E0FC00212120FFF7DCFC07213020D6
:10407000FFF7D8FC40F207713120FFF7D3FC06218F
:104080003220FFF7CFFC40F204713520FFF7CAFC65
:1040900041F604713620FFF7C5FC04213720FFF7F5
:1040A000C1FC00213820FFF7BDFC40F20671392029
:1040B000FFF7B8FC40F201713C20FFF7B3FC0F2181
:1040C0003D20FFF7AFFC00215020FFF7ABFCEF21B4
:1040D0005120FFF7A7FC00215220FFF7A3FC40F27C
:1040E0003F115320FFF79EFC4FF41C516020FFF757
:1040F00099FC01216120FFF795FC00216A20FFF760
:1041000091FC00218020FFF78DFC00218120FFF72A
:1041100089FC00218220FFF785FC00218320FFF726
:1041200081FC00218420FFF77DFC00218520FFF722
:1041300079FC10219020FFF775FC00219220FFF7F9
:1041400071FC03219320FFF76DFC4FF488719520DB
:10415000FFF768FC00219720FFF764FC00219820FE
:10416000FFF760FC41F218010320FFF75BFCBDE89C
:10417000104040F273110720FFF754BC184810B5E7
:10418000164901604FF416514160002181600C22F4
:10419000C160C0E904128161C16101624162816252
:1041A000FFF714F808B1FDF7F2FA00210C48FEF70A
:1041B00056FE08B1FDF7EBFA00210948FEF729FE8B
:1041C00008B1FDF7E4FA0648FEF702FE002803D026
:1041D000BDE81040FDF7DBBA10BD0000003801401B
:1041E000FC0000207047FEF757B810B594B0382196
:1041F0006846FCF7C1F914210EA8FCF7BDF94FF48D
:104200000070FEF7DBF8012000900004019002200E
:104210000324CDE907041421CDE90A100C900D9078
:1042200009946846FEF7BEFB08B1FDF7B0FA0F200F
:10423000CDE90E04002010901190129002210EA8DA
:10424000FEF766FA002801D0FDF7A1FA14B010BD00
:104250000248016841F470010160704788ED00E098
:1042600030B5416EB9B1026891689268C1F342619C
:104270000B4B520F9C5CE50003F10804A25CB5FBFC
:10428000F2F2A0F86A205A5C615CD200B2FBF1F154
:10429000A0F8681030BD0121A0F86A10F8E700000E
:1042A0004A69000890F82810090706D501684A688D
:1042B000836B22F400421A434A6090F82810C90721
:1042C00006D001684A68C36A22F400321A434A6081
:1042D00090F82810890706D501684A68036B22F414
:1042E00080321A434A6090F82810490706D50168C1
:1042F0004A68436B22F480221A434A6090F82810DF
:10430000C90606D501688A68C36B22F480521A4335
:104310008A6090F82810890606D501688A68036CBF
:1043200022F400521A438A6090F82810490611D5E9
:1043300001684A68436C22F480121A434A60416C57
:10434000B1F5801F06D101684A68836C22F4C0026F
:104350001A434A6090F82810090606D501684A6891
:10436000C06C22F4002202434A6070472DE9F843F2
:1043700000260446C0F89060FDF788FF804620685C
:1043800000684FF0200500076FF07E4713D54346C5
:10439000002229042046009700F098FC58B12168BB
:1043A00051E8000F20F0800041E80002002AF6D119
:1043B000C4F8885021E020680068400722D54346B1
:1043C00000224FF480012046009700F07FFCC8B126
:1043D000216851E8000F20F4907041E80002002AA3
:1043E000F6D12068083050E8001F21F0010140E8B4
:1043F0000012002AF5D1C4F88C5084F884600320A0
:10440000BDE8F883C4F88850C4F88C5044F86C6F49
:10441000666026760020F3E710B5806AFEF747FD58
:1044200010BD000010B5026852E8001F21F4907121
:1044300042E80013002BF6D10E4B0268083252E816
:10444000001F194042E80014002CF6D1C16E01296A
:1044500008D1016851E8002F22F0100241E8002342
:10446000002BF6D12021C0F88C100021C1664167D5
:1044700010BD0000FEFFFFEF10B5B0F86020D0F8CF
:104480008C300168222B04D0886940F008008861D4
:1044900010BD496A836D11401980816D891C816549
:1044A000B0F85E10491EA0F85E10B0F85E1000294A
:1044B000EED1026852E8001F21F4907142E8001327
:1044C000002BF6D10168083151E8002F22F00102DB
:1044D00041E80023002BF5D12021C0F88C100021E9
:1044E00041670167154B02689A420BD0526812026D
:1044F00008D5036853E8002F22F0806243E80024C7
:10450000002CF6D1C26E012A02D0FEF7FFFE10BDCC
:10451000C166026852E8001F21F0100142E8001352
:10452000002BF6D10168CA69D243D20601D4102209
:104530000A62B0F85C10FEF76AFC10BD0080004013
:104540002DE9F0470446B0F860600068C569D0F80E
:1045500000A0D0F80890D4F88C10222905D08169E9
:1045600041F008018161BDE8F087B4F868704FF050
:10457000000844E02068406AA16D30400880A06DCA
:10458000801CA065B4F85E00401EA4F85E002068A0
:10459000C569690730D0E9070AD05FEACA5107D573
:1045A00001210162D4F8900040F00100C4F89000AD
:1045B000A8070BD55FEAC97008D0216802200862FD
:1045C000D4F8900040F00400C4F8900068070BD5C0
:1045D0005FEAC97008D0216804200862D4F890000E
:1045E00040F00200C4F89000D4F8900020B12046BA
:1045F000FEF75DFCC4F89080B4F85E0000B30FB124
:10460000A806B7D4B4F85E000028ACD0B4F868109F
:104610008142A8D92068083050E8001F21F080515D
:1046200040E80012002AF5D12A486067206850E867
:10463000001F41F0200140E80012002AF6D192E765
:10464000216851E8000F20F4807041E80002002A40
:10465000F6D1214A2068083050E8001F114040E898
:104660000013002BF6D12020C4F88C00C4F874800D
:104670004046C4F87080194A216891420BD04968BD
:10468000090208D5226852E8001F21F0806142E843
:104690000013002BF6D1E16E012903D02046FEF76E
:1046A00035FEAFE7E066216851E8000F20F010000A
:1046B00041E80002002AF6D12068C169C943C90651
:1046C00001D410210162B4F85C102046FEF79FFB74
:1046D00098E7000079440008FEFFFFEF00800040EB
:1046E00010B5B0F86020D0F88C300168222B04D0CF
:1046F000886940F00800886110BD496A1140826DE8
:104700001170816D491C8165B0F85E10491EA0F8DA
:104710005E10B0F85E100029EED1016851E8002F5C
:1047200022F4907241E80023002BF6D10168083191
:1047300051E8002F22F0010241E80023002BF5D1BF
:104740002021C0F88C10002141670167154B0268D9
:104750009A420BD05268120208D5036853E8002F22
:1047600022F0806243E80024002CF6D1C26E012AB8
:1047700002D0FEF7CBFD10BDC166026852E8001FF3
:1047800021F0100142E80013002BF6D10168CA693C
:10479000D243D20601D410220A62B0F85C10FEF7B0
:1047A00036FB10BD008000402DE9F0470446B0F80C
:1047B00060600068C569D0F800A0D0F80890D4F80F
:1047C0008C10222905D0816941F008018161BDE882
:1047D000F087B4F868704FF0000844E02068406A41
:1047E000A16D30400870A06D401CA065B4F85E005B
:1047F000401EA4F85E002068C569690730D0E9074B
:104800000AD05FEACA5107D501210162D4F89000AD
:1048100040F00100C4F89000A8070BD55FEAC9700A
:1048200008D0216802200862D4F8900040F004000B
:10483000C4F8900068070BD55FEAC97008D02168FA
:1048400004200862D4F8900040F00200C4F8900000
:10485000D4F8900020B12046FEF729FBC4F89080E0
:10486000B4F85E0000B30FB1A806B7D4B4F85E0088
:104870000028ACD0B4F868108142A8D9206808306C
:1048800050E8001F21F0805140E80012002AF5D1C5
:104890002A486067216851E8000F40F0200041E895
:1048A0000002002AF6D192E7216851E8000F20F4B7
:1048B000807041E80002002AF6D1214A20680830C1
:1048C00050E8001F114040E80013002BF6D12020D3
:1048D000C4F88C00C4F874804046C4F87080194A4B
:1048E000216891420BD04968090208D5226852E834
:1048F000001F21F0806142E80013002BF6D1E16E29
:10490000012903D02046FEF701FDAFE7E0662068ED
:1049100050E8001F21F0100140E80012002AF6D1F3
:104920002068C169C943C90601D410210162B4F8E5
:104930005C102046FEF76BFA98E70000E14600089D
:10494000FEFFFFEF008000402DE9F04104460168C2
:1049500080682269E3691043626900251A431043A5
:10496000DFF82CC20A688B4B1A4002430A602068A9
:104970004168E26821F44051114341602168A06917
:10498000614501D0226A10438A68834B1A40024372
:104990008A602068C16A626A21F00F011143C16216
:1049A0007E4923687E488B420DD1D0F8880010F0F4
:1049B000030006D0012855D0022842D003283FD159
:1049C00052E001203DE077498B420BD1D0F88800BE
:1049D00010F00C0035D0042833D0082840D00C2823
:1049E0002ED141E070498B420BD1D0F8880010F0F5
:1049F000300026D0102835D0202831D030281FD1C3
:104A000032E06A498B420BD1D0F8880010F0C00028
:104A100017D0402826D0802822D0C02810D123E0EB
:104A200063450DD1D0F8880010F4406009D0B0F58E
:104A3000806F17D0B0F5006F12D0B0F5406F13D073
:104A400010205B495B4F00264FF4004263453BD189
:104A500060B1022813D004280BD0082872D10DE0D1
:104A60000220EEE70420ECE70820EAE7FDF73EFF2E
:104A700001E0FDF75FFF010001D17CE01146606AB3
:104A800037F810206768B1FBF2F007EB4703834269
:104A900070D8B0EB073F6DD8002308461946FBF7E6
:104AA00017FC090241EA10610202780810187141EE
:104AB0003A460023FBF70CFC3F4AA0F540719142B7
:104AC00058D82168C86056E0E3694FF6EF78934202
:104AD0002CD109284ED2DFE800F00508114D0D4D0C
:104AE0004D4D1000FDF702FF01E0FDF711FF010041
:104AF00004D140E0FDF71EFFF9E71146606A37F880
:104B00001000B1FBF0F04100606801EB5001B1FB17
:104B1000F0F0A0F1100141452CD84FF6F0710140A2
:104B2000C0F3420001432068C16024E0092821D27B
:104B3000DFE800F0050912200E2020201100FDF70B
:104B4000D5FE02E016E0FDF7E3FE010004D112E01D
:104B5000FDF7F0FEF9E71146606A37F81000B1FB87
:104B6000F0F1606801EB5001B1FBF0F0A0F1100131
:104B700041450AD901250120A4F86A0024F8680FEC
:104B80002846E6602661BDE8F08180B299E7000022
:104B900000800040F369FFCFFFF4FF1100380140AF
:104BA000001002400044004000480040004C00401B
:104BB0000024F40032690008FFFC0F0070B5816525
:104BC000A0F85C20A0F85E200023436781684FF4C2
:104BD0008056FF24B14204D10169F9B940F2FF11B6
:104BE00022E07F25C1B1B1F1805F1AD0A0F860301A
:104BF000C0F890302221C0F88C100168083151E8CB
:104C0000003F43F0010341E80034002CF5D1416E30
:104C1000B1F1005F0ED031E0016941B9A0F8604008
:104C2000E6E7016919B13F21A0F86010E0E7A0F8BC
:104C30006050DDE7B0F8681091421FD88168B1423A
:104C400001D10169B9B11D494167016941B10268EA
:104C500052E8001F41F4807142E80013002BF6D1A6
:104C60000168083151E8002F42F0805241E80023EA
:104C7000002BF5D120E012494167F1E78168B1428C
:104C800001D1016969B10F494167016959B10268F0
:104C900052E8001F41F4907142E80013002BF6D156
:104CA0000AE009494167026852E8001F41F020010B
:104CB00042E80013002BF6D1002070BDA947000880
:104CC00041450008E1460008794400082DE9F04715
:104CD000994617460D4604464FF00008089E33E0FB
:104CE000701C31D0FDF7D2FAA0EB0900B04218D801
:104CF000BEB120680168490726D5802D24D0402DFB
:104D000022D0C169C94309070DD408250562204690
:104D1000FFF788FBC4F8905084F884800120BDE838
:104D2000F0870320FBE7C069C04300050CD421686D
:104D30004FF4006008622046FFF774FB2020C4F89F
:104D4000900084F88480ECE72068C06935EA0000B0
:104D500004D00020B842C3D00020E0E70120F9E7EA
:104D60000148FEF7A5B80000FC000020FEE703B4F0
:104D700001984100009850EAC12018BF04204A0D54
:104D800018BF40F0010040F2FF72B2EB515F08BF64
:104D900040F00200012808BF052002B07047090753
:104DA000090E002804DB00F1E02080F800147047B1
:104DB00000F00F0000F1E02080F8141D704730383B
:104DC0000A2801D20120704700207047FDF76CFAD5
:104DD000FFF70BFAFEF70AFBFEF754FD4FF6FF70E4
:104DE000FEF7BEFD0020FEF7A7FD0020FEF7A2FCA7
:104DF000FEF7FCFFFFF7C2F901220B490B48FEF753
:104E000061FA094C0A4D0D3CFEF75AFBFEF766FEAF
:104E1000FEF752FF2868E169401A6428F4D928682F
:104E2000E061FCF7B5FBEFE70D000020FC0000207F
:104E30006000002010B500290AD00878002807D0AB
:104E400005487844FBF71EFF002801D0002010BD64
:104E50000248784410BD0000E61B0000DE1B000085
:104E600010B591EA030F48BF83F0004300F190832F
:104E7000841A71EB030C05D2121943EB0C03001BCF
:104E800061EB0C01DFF824E14FEA1154A4EB135C51
:104E90001EEA430F18BF9EEA445F73D023EA0E0355
:104EA000DCF1200E21EA045143F4801332D322FABC
:104EB0000CFE10EB0E0023FA0CFE41EB0E01CCF1C0
:104EC000200E03FA0EFE10EB0E0051F10001B1F5B9
:104ED000801FCCF1200E32D201EB045112FA0EF2F7
:104EE000BDE8104058BF7047401C38BF5FEA42021F
:104EF00018BF7047002814BF20F0010041F10001E5
:104F00004FEA410313F5001F38BF7047A1F1C041BC
:104F100000F0FABA012A43EB0302ACF1200CDCF1F9
:104F20001F0E32BF4FF0000E23FA0CF310EB0300FC
:104F300041EB0451B4EB115FD0D0A1EB045101F56A
:104F4000801149085FEA300001EB04510ED350F1A3
:104F5000000038BF12FA0EFE08D1BDE81040C9E7C4
:104F6000401C38BF5FEA4202CAD1C3E7BDE8104027
:104F70004FEA410313F5001F38BF7047A1F1C0414C
:104F800000F0C2BA9EEA445F08D011EA5E0FBDE8A5
:104F9000104004BF01F0004100207047BDE8104000
:104FA00070B500F063FA00BF64FBBE3E0000E0FF96
:104FB000491058BFC1F140415B1058BFC3F1404395
:104FC0008B42EFF3008070472DE9C04130B4DFF829
:104FD000A0C23CEA111418BF3CEA131400F0EC80A4
:104FE00081EA03051CEA111444EAD57418BF1CEACF
:104FF000131500F0C780A4EB05044FF0004545EA07
:10500000C12145EAC32341EA505143EA525304F116
:105010007F74994204F500344FEAC0204FEAC2225F
:1050200008BF904200F09C804FEA13650FF24016D3
:10503000765D4FEA134506FB05F7C7F1807706FB5F
:1050400007F74FEAD737A7FB03687642C8F58038E1
:10505000A7FB06CE38BFA8F1010807FB08E64FF012
:10506000000EA6FB028CE6FB03CEDCF1000CCEF1B9
:10507000004E38BFAEF1010EA6FB0C584FF00007F2
:105080004FF00005E6FB0E87A1FB08C6A0FB07CE8C
:1050900016EB0E0645F10005E1FB076515F1E04E44
:1050A0007EBFA4F580345FEA46066D4116F18007A5
:1050B00045F100054FEA17274FEA066647EA0567FC
:1050C000A6F1DE46B6F1805F4FEA15251FD93846B6
:1050D00024F0010C05EBC471BCF1FE6F01EB0C1167
:1050E00002D8F0BCBDE8008124425CBF01F5801EFF
:1050F0009EEAC47F02D4F0BCBDE80081244238D4CB
:10510000F0BCA1F1C041BDE8004100F0FDB94FEA9B
:10511000D22242EA43524FEAD323A7FB02864FEA48
:10512000D02040EA415007FB03661EEA0E0F4FEA0B
:10513000D12105FB026658BFA6EB0056B6EB005620
:105140004FEA520E4EEAC37E18EB0E0E56EB530E8C
:10515000BDD518EB02085E417F1C55F10005B6E78E
:105160004FF480154FF000074FF000064FF0000895
:10517000ADE7F0BC4FF0000001F1C04101F000418B
:10518000BDE8008111EA0C1F0CEA131500D00CE0F9
:1051900013EA0C1F00F025804FF00000F0BC81EAFC
:1051A000030101F00041BDE80081F0BCBDE8004111
:1051B00081EA030100F0A8B9F0BCBDE8004170B578
:1051C00000F054F9097EFC3E00F007B881EA0301C3
:1051D0004FF0000001F00041704781EA030100F048
:1051E00093B9F0BCBDE800414FF000002149704781
:1051F000FFFDFBF9F7F5F4F2F0EEEDEBE9E8E6E49C
:10520000E3E1E0DEDDDBDAD8D7D5D4D3D1D0CFCD22
:10521000CCCBCAC8C7C6C5C4C2C1C0BFBEBDBCBB5B
:10522000BAB9B8B7B6B5B4B3B2B1B0AFAEADACAB56
:10523000AAA9A8A8A7A6A5A4A3A3A2A1A09F9F9E30
:105240009D9C9C9B9A9999989797969595949393E2
:10525000929191908F8F8E8E8D8C8C8B8B8A898979
:1052600088888787868585848483838282818180FC
:105270000000FF070000F87FB0FA80F310FA03F196
:105280000AD0C3F11D0303F580634FEA41504FEA92
:10529000035202EBD12170474FF00000704700002D
:1052A00051EA030C17D41CF5801F58BFBCF5801FB2
:1052B00000F10680994218BF704708BF90427047BE
:1052C00007D711F5801F58BF13F5801F19D49942D5
:1052D0007047894270471CF5801F08D5BCF5801FB8
:1052E000F7D58B4218BF704708BF824270474FF412
:1052F000001C1CEB410F38BF1CEB430F01D28B424B
:10530000704770B500F0B2F8922449004FF0005198
:105310004FF08053FFF74CBEDFF848C170B51CEA70
:10532000111E1EBF1CEA13159EEA0C0F95EA0C0F06
:1053300000F06F8081EA030423EA4C134EEAD47E26
:1053400021EA4C1141F4801143F48013AE44A1FBD7
:10535000024CA0FB0365AEF17F7E361955EB0C05C0
:10536000A1FB034C4CF10003A0FB021C16EB0C0646
:10537000654153F10003094218BF46F0010613F4DA
:10538000007F0BD14FEA03314FEA0530340341EA85
:10539000155140EA16506FF003020AE04FEAC321AC
:1053A0004FEAC520F40241EA555140EA56506FF0E9
:1053B000020202EB2E4201EB025585EACE710AD0C1
:1053C0005FEA440C18BF24F0004450F1000041F1A2
:1053D000000120EAD47040F2FE7C624500D270BD2C
:1053E000A84214BF4FF080444FF04044002E08BF45
:1053F0000024BEF1806FA8BFA1F1C041BDE870409C
:1054000080F282804FF0000001F1C04101F00041C4
:1054100070479EEA0C0F0CEA131518BF95EA0C0FA3
:1054200006D04FF0000081EA030E0EF0004170BD7F
:1054300000F01CF88900013E00F007B800F009B840
:105440004FEA430C5FEA5C5C08D081EA030100F09C
:105450005BB84FEA410C5FEA5C5CF6D14FF00000AC
:10546000014970470000FF070000F87F0EF1020EAF
:105470002EF0030E5EF8046B364205D4012A43EB8E
:10548000030515F5001F12D8012841EB010C1CF58E
:10549000001F0CD80ED14FEAD17C15F5001F0CEB84
:1054A0004C0C0CF1020C08BF4CEBD37C04E04FF029
:1054B000080C01E04FEAD37C0CEB4C0526FA05F60C
:1054C00006F00706B6F1040C06D20EEB860CBDE81A
:1054D00070404CF0010C6047DFE80CF0090B020251
:1054E0004FF000414FF00000A1F5002170BD1946BA
:1054F0001046012851EB010418BFD4F5001484BFF5
:10550000002001F0004170BD0808A0F500114FEA2D
:105510003101704753EA010C17D41CF5801F58BFA6
:10552000BCF5801F00F106808B4218BF704708BF92
:105530008242704707D713F5801F58BF11F5801FAF
:1055400019D48B4270479B4270471CF5801F08D5C9
:10555000BCF5801FF7D5994218BF704708BF90422D
:1055600070474FF4001C1CEB430F38BF1CEB410F7E
:1055700001D2994270470FB40CBC03BCFFF7C1BE07
:1055800010B591EA030F48BF83F000433FF570ACBC
:10559000841A71EB030C07D212198CF0004C43EB08
:1055A0000C03001B61EB0C01DFF8A4E14FEA11547E
:1055B000A4EB135C1EEA430F18BF9EEA445F00F0A1
:1055C000B08023EA6E03524221EA0451C3EB6E031A
:1055D00038BF5B1EDCF1200E25D322FA0CFE10EB47
:1055E0000E0043FA0CFE41EB0E01CCF1200E03FA43
:1055F0000EFE10EB0E0051F10001CCF1200E29D46B
:1056000012FA0EF201EB0451BDE8104058BF70478A
:10561000401C1CBFB2F1004F704700280CBF491C52
:1056200020F00100704712EB020E43EB030218BF9B
:105630004FF0010E4EEA4202ACF1200CDCF11E0EDE
:1056400054D943FA0CFE10EB0E0051F1FF31CCF1AE
:105650001E0ED5D50EF1010E12FA0EFE404141EBA1
:10566000010101EB445C5FEA5C5C10D910EBDE7079
:1056700001EB045138BFBEF1004FBDE8104018BF28
:10568000704700280CBF491C20F00100704730D241
:105690004FEAD42C11F5001124F400641BD0B1FAA8
:1056A00081F20B3AA41AA41ED2F12003914030FAE1
:1056B00003F31943904001EBCC71002C01EB045132
:1056C000BDE81040A8BF704701F1C0414FF0000095
:1056D00001F000417047B0FA80F310FA03F100D1F5
:1056E00010BDE41A173C4805C90AE4E701EB045170
:1056F00010BD491001EB0451BDE810404FEA3000E5
:1057000002E04FF0000170474A0008BF0042F8D0A5
:10571000B2F5001F28BF704701F000414FF00000B4
:1057200070479EEA445F07D011EA5E0FBDE8104063
:1057300004BF002100207047BDE8104070B5FFF79E
:1057400095FE00BF40DFF63E83F0004110467047F3
:105750000000E0FF4FF04070E1EE100A7047FBF7E9
:105760000EB8000000000000000000000000000073
:105770000000000000000000000000000000000029
:105780000000000000000000000000000000000019
:105790000000000080018001800180018001800103
:1057A0008001800180018001800180018001000072
:1057B00000008001800100000000000000000000E7
:1057C000000000000000CC00CC00CC00CC00CC00DD
:1057D000CC000000000000000000000000000000FD
:1057E00000000000000000000000000000000000B9
:1057F0000000000000000000000000000000600C3D
:10580000600C600C30063006FE1FFE1F30063807A5
:105810001803FE1FFE1F180318038C018C018C0156
:10582000000000008000E003F80F9C0E8C1C8C1818
:105830008C009800F801E007800E801C8C188C18F2
:105840009C18B80CF00FE0038000800000000000FE
:1058500000000000000000000E181B0C110C1106C7
:105860001106110311039B018E01C038C06C604406
:105870006044304430441844186C0C380000000078
:1058800000000000E001F003380718061806300396
:10589000F001F000F8009C310E33061E061C061CB9
:1058A000063FFC73F0210000000000000000000033
:1058B0000000000000000C000C000C000C000C00AC
:1058C0000C000000000000000000000000000000CC
:1058D00000000000000000000000000000000000C8
:1058E00000000000000200038001C000C000600052
:1058F00060003000300030003000300030003000F8
:10590000300060006000C000C000800100030002A1
:105910000000000020006000C00080018001000342
:10592000000300060006000600060006000600064A
:1059300000060003000380018001C0006000200019
:105940000000000000000000000000000000C00097
:10595000C000D806F807E001300338070000000057
:105960000000000000000000000000000000000037
:1059700000000000000000000000000000008001A6
:105980008001800180018001FC3FFC3F800180019B
:105990008001800180010000000000000000000084
:1059A00000000000000000000000000000000000F7
:1059B00000000000000000000000000000000000E7
:1059C0000000000080018001000100018000000053
:1059D00000000000000000000000000000000000C7
:1059E00000000000000000000000E007E0070000E9
:1059F00000000000000000000000000000000000A7
:105A00000000000000000000000000000000000096
:105A10000000000000000000000000000000000086
:105A200000000000C000C0000000000000000000F6
:105A300000000000000C000C000600060006000339
:105A4000000300038003800180018001C000C000CA
:105A5000C0006000600000000000000000000000C6
:105A600000000000E003F007380E180C0C180C18AA
:105A70000C180C180C180C180C180C180C18180C06
:105A8000380EF007E00300000000000000000000F6
:105A90000000000000018001C001F00198018801B0
:105AA00080018001800180018001800180018001EE
:105AB0008001800180010000000000000000000063
:105AC00000000000E003F80F180C0C180C18001868
:105AD0000018000C000600038001C00060003000C8
