:020000040800F2
:100000003807002091020008C33100084129000888
:10001000C13100082D140008D5350008000000008B
:10002000000000000000000000000000593500083A
:100030002F14000800000000C53100085B350008DF
:10004000AB020008AB020008AB020008AB020008DC
:10005000AB020008AB020008AB020008AB020008CC
:10006000AB020008AB020008AB020008AB020008BC
:10007000AB020008AB020008AB020008AB020008AC
:10008000AB02000800000000AB020008AB02000851
:10009000AB020008AB020008AB020008AB0200088C
:1000A000AB020008AB020008AB020008AB0200087C
:1000B000AB020008AB020008AB020008AB0200086C
:1000C000AB020008AB020008AB020008AB0200085C
:1000D000AB020008AB020008AB020008AB0200084C
:1000E000AB020008AB020008AB020008AB0200083C
:1000F000AB020008AB020008AB02000800000000E1
:1001000000000000AB02000800000000AB02000885
:10011000AB02000800000000AB020008AB020008C0
:10012000AB020008AB020008AB020008AB020008FB
:10013000AB0200080000000000000000AB02000855
:10014000AB020008AB020008000000000000000045
:10015000000000000000000000000000000000009F
:10016000000000000000000000000000AB020008DA
:10017000AB020008000000000000000000000000CA
:1001800000000000AB0200080000000000000000BA
:10019000000000000000000000000000000000005F
:1001A0000000000000000000AB020008AB020008E5
:1001B000AB020008AB020008AB0200080000000020
:1001C00000000000AB02000800000000000000007A
:1001D000AB020008AB02000800F002F800F049F89A
:1001E0000AA090E8000C82448344AAF10107DA4592
:1001F00001D100F03EF8AFF2090EBAE80F0013F09B
:10020000010F18BFFB1A43F001031847984B000079
:10021000B84B0000103A24BF78C878C1FAD852070A
:1002200024BF30C830C144BF04680C607047000070
:100230000023002400250026103A28BF78C1FBD8EF
:10024000520728BF30C148BF0B607047662903F0D2
:100250006C84002070471FB503F05DFC00F052FB7A
:1002600004000020002103F00FFAE0601FBD10B56C
:1002700010BD00F047FC1146FFF7EDFF03F0DAF97F
:1002800000F065FC03B4FFF7F2FF03BC00F0A8FC2C
:100290000948804709480047FEE7FEE7FEE7FEE71A
:1002A000FEE7FEE7FEE7FEE7FEE7FEE70448054956
:1002B000054A064B70470000C5350008D901000803
:1002C00038010020380700203803002038030020C0
:1002D0000FB41CB5074B06AA7B44694600900598ED
:1002E00000F0F7FA0020694600F006FB1CBC5DF840
:1002F00014FB00001D06000070B504468569006807
:10030000C10601D5302600E02026C00707D070BD09
:10031000D4E9012130469047206A401C20626D1EBE
:10032000F6D570BD70B5044685690078C00707D161
:1003300070BDD4E9012120209047206A401C206232
:100340006D1EF6D570BD2DE9F0474FF0000A8946C5
:100350000446C0F820A02046E1688847002876D0EF
:10036000252806D0D4E901219047206A401C20624C
:10037000F1E7E168204600258847C4F81CA006463E
:100380000027C4F818A02A2E09D0304603F04BF9F4
:1003900038B304EB8708303EC8F8186019E059F804
:1003A000041B204604EB87029161E1688847012F16
:1003B000064618D1E069002820DA25F020051DE066
:1003C000D8F8180000EB800006EB40003038C8F881
:1003D00018002046E1688847064603F024F9002803
:1003E000EED1012F0AD02E2E08D12046E168884791
:1003F0007F1C0646022F45F02005C4DBA0690028BB
:1004000003DA404245F00105A061E80701D025F07C
:100410001005B6B1A6F14100192802D8203645F4DE
:1004200000654A463146204625604D46FFF70EFFDF
:1004300058B1012806D0ED1D25F0070000F108098C
:1004400089E704E005F1040985E730468AE7206A78
:10045000BDE8F0874FF0000200B51346944696467B
:10046000203922BFA0E80C50A0E80C50B1F12001C7
:10047000BFF4F7AF090728BFA0E80C5048BF0CC075
:100480005DF804EB890028BF40F8042B08BF7047D3
:1004900048BF20F8022B11F0804F18BF00F8012B45
:1004A000704770477047704770472DE9FF4F0C4603
:1004B0001E464FF0FF378BB0D2E90001DDF86080B7
:1004C0000A908A46C1F30A5505B93D4600210846FF
:1004D0004FF00000BAF1000F00F4400005DA00EB25
:1004E00080004FF4400101EA50004FEA9059B9F101
:1004F000010F00DDB9460A9850EA4A000ED044F6D2
:100500001050A5F2FF3545432F14B8F1000F1ED04F
:100510007542291E1EDDC9F100021CE0B8F1010F71
:100520004FF0000001D0302103E0F24305E02154F8
:10053000401CB042FBDB30460022002121540B99C5
:10054000C1F80880C1E900200FB0BDE8F08FBD1BE5
:100550006D1CDEE74A4600DA694206A800F05CFA44
:1005600006AB93E8070003AB83E8070050460A99FF
:1005700000F03DFB8DE80700A0F500501F3800900B
:100580000398002D0ADD42F21F014A460844002369
:1005900003A90390684600F0A6FD09E0A0F500500D
:1005A0004A461F38002303A90390684600F0B0FDB7
:1005B0008DE807000004000C03D04FF0FF30410825
:1005C00000E01046B8F1000F03D00022009215465B
:1005D0001EE0751E05D400F099F9303262556D1E8B
:1005E000F9D5B3460122084302D000227F1C04E063
:1005F0002078302801D100227F1E002A099784D05C
:100600001DE0112D07DA00F081F9303262556D1CC2
:1006100050EA0102F5D1084302D00098C8B10EE0BB
:100620000021681E05E0235C625C63542254401E76
:10063000491C8142F7DBAB46A81B401E09900020F5
:1006400004F80B000B98099AC0F80880C0E9002B49
:100650007AE711264FF0000857E72DE9F04F88465A
:100660000446D21D22F0070191B0D1E90001CDE985
:100670000A0102F0B0FF02460B98C00F01D02D20F6
:1006800007E02068810701D52B2002E0202101EA44
:10069000C000032A099001D0072A05DB0346414622
:1006A000204600F079F90BE12078800601D5E06959
:1006B00000E00620B8F1650F814606D0B8F1660F5C
:1006C00018D0B8F1670F70D131E00020B9F1110FE7
:1006D000009001DB112301E009F101030AAA01A93D
:1006E0000CA8FFF7E2FEDDE90C70002609F1010518
:1006F000834647E001204B4600904FF000470AAA8E
:1007000001A90CA8FFF7D1FEDDE90DB00C995D46FB
:10071000002610B909F101000D18B9EB050003D44A
:10072000C0F1FF3609F10105A5EB09002BE0B9F195
:10073000010F01DA4FF001090020B9F1110F00900B
:10074000484601DD112300E003460AAA01A90CA8CE
:10075000FFF7ABFEDDE90C704D460026834620789E
:1007600000070AD4AB4500DA5D4601A8012D04DD7F
:10077000411911F8011C302907D04F4502DA17F151
:10078000040F04DA012082460FE06D1EEEE7002F11
:1007900002DCED1B3E4403E0781CA84200DD7D1C1A
:1007A000B81B00F1010A4FF000472078000703D47E
:1007B000AA4501DB4FF0FF3A0021B7F1004F0DF1E0
:1007C00043088DF8431024D002202B23002F01DA98
:1007D0007F422D230A21021EA0F1010000DC5FB13F
:1007E00097FBF1FC97FBF1F201FB1C7C17460CF127
:1007F000300C08F801CDEEE7A8F101000370218864
:10080000090501D5452100E06521A0F1010800F8A6
:10081000011C09980FA9A1EB0807FF1D00B10120D9
:10082000411901EBEA70A1693844081A401EA06121
:100830002078C00602D42046FFF75EFD099828B153
:10084000D4E901219047206A401C20622078C0062C
:1008500022D52046FFF750FD1EE0002E04DBB345F5
:1008600002DD01A8805D00E03020D4E9012190473D
:10087000206A401C2062761CAAF101005FEA000A8F
:100880000AD100F03FF8C0680168405CD4E901215A
:100890009047206A401C2062281EA5F10105DCDC7F
:1008A00007E0D4E9012118F8010B9047206A401CA9
:1008B0002062381EA7F10107F3DC2046FFF732FD66
:1008C000032011B041E6000001694A1C026108786A
:1008D000704700B58FB0CDE9013100210591054980
:1008E0007944CDE9031011466846FFF72CFD0FB09F
:1008F00000BD0000E5FFFFFF0A6802F8010B0A6077
:100900007047000000487047F400002030B5B0F197
:100910000A024FEA900E71F100034EEA817EB0EBBD
:100920000E0061EB91014FEA101E4EEA017E10EBC2
:100930000E0041EB11114FEA102E4EEA016E10EB42
:100940000E0041EB11214FEA104E4EEA014E10EB22
:100950000E0041EB1141401841F100014FEAD00077
:1009600040EA41704FEAD10110EB80054FEA810463
:1009700044EA907444EB01046D1944EB0404521BE7
:10098000A3414FF0000348BF0A3200D530BD401CE0
:1009900041F1000130BD00002DE9F0411F46044641
:1009A00003260168072A01F4006004DB08B116A5DC
:1009B00005E016A503E008B115A500E015A521F096
:1009C00010002060A069C01EA0610FB1401EA06190
:1009D0002046FFF791FC4FB1D4E9012138469047FA
:1009E000206A401C2062C01C206206E0206AFAE7F0
:1009F000D4E9012115F8010B9047761EF8D2204664
:100A0000FFF790FCBDE8F0814E414E006E616E0034
:100A1000494E4600696E66002DE9F047814616464C
:100A20008AB0354878440DC88DE80D0032487844C6
:100A3000801C03AC0DC884E80D0041F69B300844CF
:100A4000372190FBF1F290FBF1F5A5F1800501FB58
:100A500012041B3C02D56442012000E00020DFF8B4
:100A600098A080460027FA44AAF1BE0A0EE0E007EB
:100A70000AD03246684607EB470101230AEB8101A1
:100A800000F046FB8DE8070064107F1C002CEED1BF
:100A9000194F7F44AE3F19E0E80715D007EB04106B
:100AA0000DF1180A90E80E008AE80E00C068F042C6
:100AB00001D1981908903246012306A903A800F035
:100AC00027FB03AB83E807006D10641C002DE3D106
:100AD0004FF0010332466946B8F1000F03A802D077
:100AE00000F001FB01E000F013FBC9E90001C9F8C7
:100AF00008200AB0BDE8F087644300000048704752
:100B0000D40000207546FFF7F9FFAE4605006946A0
:100B1000534620F00700854618B020B5FFF7C6FB06
:100B2000BDE820404FF000064FF000074FF00008EE
:100B30004FF0000B21F00701AC46ACE8C009ACE86F
:100B4000C009ACE8C009ACE8C0098D46704710B5D3
:100B50000446AFF300802046BDE81040FFF792BB8B
:100B60004FF0013C50F8042B51F8043B9A4221D13C
:100B7000A2EB0C03934313EACC1317D150F8042BC8
:100B800051F8043B9A4215D1A2EB0C03934313EAAC
:100B9000CC130BD150F8042B51F8043B9A4209D1E5
:100BA000A2EB0C03934313EACC13DBD04FF000000D
:100BB000704700BFD01A01BAB1FA81F101F01801F3
:100BC00022FA01F0CB40C1F12001DBB2C0B2C01A61
:100BD0002CFA01F3D11A914311EAC311E6D17047FF
:100BE00001491820ABBEFEE72600020070475FEA0D
:100BF000400C08BF91F0000F4FEA8C234FEAC1224E
:100C000043EA51514FEA1C5018BF00F5F0404FEA3B
:100C1000300018BF41F000415FEA6C5C00F02980B1
:100C2000BCF1FF3F08BF40F080407047130C06BF87
:100C300012044FF0100C4FF0000C130E04BF120200
:100C40000CF1080C130F04BF12010CF1040C930FEC
:100C500004BF92000CF1020CD30F04BF52000CF140
:100C6000010C11464FF00002A0F11F00A0EB0C0098
:100C7000704711F0004F08BF704731F000413FF45A
:100C8000D5AF0B0C06BF09044FF0100C4FF0000C51
:100C90000B0E04BF09020CF1080C0B0F04BF090175
:100CA0000CF1040C8B0F04BF89000CF1020CCB0F6C
:100CB00004BF49000CF1010CCCF12003A0EB0C00A7
:100CC00022FA03F302FA0CF241EA030100F10100F7
:100CD000704720F07F4C80EA030023F07F47ACEBA5
:100CE000070303F57C5300F0004003F1FF032DE9F7
:100CF00080494FEA154B09B44FEA144325EA0B4EDD
:100D000024EA03480FF2042606EB132749083E782D
:100D10005FEA320203FB0667C7F5000707FB06F62A
:100D20004FEA54374FEAD64606F1020607FB066C37
:100D3000CCF1005C4FEA1C472CEA074C07FB06F499
:100D40000CFB06F504EB15464FEA961634BF00205F
:100D50004FF000404FEAD13706FB07FC4FEA1C4C2E
:100D60000CFB0BF7D21B03FB0CF761EB07010CFB31
:100D70000EF7B0EB074072EB17420CFB08F734BFDD
:100D8000A2EB0742B2EB074261EB17414FEA0C447A
:100D90004FEA910706FB07FC4FEA1C4C0CFB0BF7D4
:100DA000B0EBC74072EB573203FB0CF734BFA2EB3A
:100DB000C742B2EBC74261EB57310CFB0EF7B0EB09
:100DC000C70072EB57720CFB08F734BFA2EBC702E7
:100DD000B2EBC70261EB5771039F4FEA816141EAB1
:100DE000921104EBCC044FEAD1374FEA826206FB42
:100DF00007FC42EA90124FEA80604FEA1C4C0CFB61
:100E00000BF7D21B03FB0CF761EB07010CFB0EF792
:100E1000B0EB074072EB17420CFB08F734BFA2EBB4
:100E20000742B2EB074261EB17414FEA8C554FEA9C
:100E3000910704EB9C2406FB07FC4FEA1C4C0CFBBF
:100E40000BF7B0EBC74072EB573203FB0CF734BF24
:100E5000A2EBC742B2EBC74261EB57310CFB0EF776
:100E6000B0EBC70072EB57720CFB08F734BFA2EB74
:100E7000C702B2EBC70261EB577115EB4C254FEA85
:100E8000816141EA92114FEA82624FEAD13742EA28
:100E9000901206FB07FC44F100044FEA80604FEA21
:100EA0001C4C0CFB0BF7D21B03FB0CF761EB07018F
:100EB0000CFB0EF7B0EB074072EB17420CFB08F788
:100EC00034BFA2EB0742B2EB074261EB174115EBCF
:100ED0001C154FEA813141EA92414FEA823242EADF
:100EE00090424FEA80304FEA0C7644F1000448EA21
:100EF00003434EEA0B484FF0000EB2EB080C71EBC7
:100F0000030724BF624639464EEB0E0E4FF0000B2E
:100F10000018524149414BEB0B0BB2EB080C71EB43
:100F200003077BF1000B24BF624639464EEB0E0EE1
:100F30004FF0000B0018524149414BEB0B0BB2EB49
:100F4000080C71EB03077BF1000B24BF62463946A6
:100F50004EEB0E0E51EA020718BF46F0010616EBE3
:100F60000E7655F1000254F1000103D5BDE8890168
:100F7000BDE80088BDE88901BDE80048B6195241C6
:100F800041EB0101A3F10103704780807F7E7D7CEE
:100F90007B7A7978777676757473727171706F6E0B
:100FA0006E6D6C6C6B6A6A696868676666656464B6
:100FB000636362616160605F5F5E5E5D5D5C5C5B40
:100FC0005B5A5A59595858575756565555555454AF
:100FD000535352525251515050504F4F4F4E4E4D0D
:100FE0004D4D4C4C4C4B4B4B4A4A4A494949484859
:100FF0004847474747464646454545444444444399
:1010000043434342424242414141002B9C4630D43B
:1010100077002BD01CB54FEA370703B44FF0100010
:101020004FF01001BAF1000F06D0BCF1000FDCBF89
:1010300040F0080040F008014FF000000FBCBDE890
:1010400010400BF1010BBBF1010F08BF5FEA17075E
:1010500022BF12F1010211F101014FF0004143F1F1
:10106000000300F0004043EA00007047F9D357083E
:10107000D0E746EA064613F1400F4FEA16461FDD59
:1010800013F1200FDFBF16430A46002120335B42D5
:10109000BED0C3F1200746EA064602FA07F74FEA38
:1010A000164646EA0706C3F1200722FA03F201FAC0
:1010B00007F721FA03F14FF0000342EA0702A7E71E
:1010C00046EA020646EA06464FEA164646EA0106A0
:1010D000BCBF46EA0646360C4FF000034FF0000254
:1010E0004FF0000194E72DE9804C9A46934670B486
:1010F00091E8380007C831EA400C48BF34EA430C95
:1011000003D5FFF7E6FDFFF780FFF0BCBDE8008CDC
:101110002DE9804C9A46934670B491E8380007C890
:1011200010F0804F08BF13F0804F03D100F005F896
:10113000FFF76BFFF0BCBDE8008C20F07F4780EA32
:10114000030023F07F4C07EB0C03A3F57C5300F066
:101150000040A3F1FE0392F0000F00F0B38095F081
:10116000000F00F077802DE901494FEA11404FEA66
:10117000144621EA004800FB06FC24EA064708FB67
:1011800006F607FB08F800FB07F718EB06484CEBE0
:10119000164C4FEA124B18EB07484FEA15464CEB3A
:1011A000174022EA0B4E0BFB06FC25EA06470EFB16
:1011B00006F607FB0EFE0BFB07F71EEB064E4CEB8D
:1011C000164C4FF000061EEB074E4CEB174B18EB7E
:1011D0000B0840F1000018EB0E0B58EB000840F133
:1011E00000008F1A4FF000013CBFC943661B14BFBB
:1011F000B5EB040C00213CBFC943F61B4FEA174472
:101200004EEA8E0E27EA04454FEA1C4704FB0762AC
:101210002CEA074C05FB07F70CFB05F604FB0CFC5E
:1012200016EB074642EB174216EB0C4642EB1C420C
:101230001BEB060658EB0202414146EA9E0601D529
:10124000BDE80189B619524141EB0101A3F1010347
:10125000BDE801894FEA14454FEA114724EA0546E3
:1012600021EA074C05FB07F406FB07F70CFB06F128
:1012700005FB0CFC11EB074144EB17444FEA124706
:1012800011EB0C4144EB1C4422EA074C05FB07F22E
:1012900006FB07F70CFB06F605FB0CFC16EB0746F6
:1012A00042EB174216EB0C4642EB1C456A1854F110
:1012B000000148BF7047B619524141EB0101A3F14B
:1012C0000103704795F0000F37D04FEA11424FEA03
:1012D000144721EA024624EA074C02FB07F106FB09
:1012E00007F70CFB06F402FB0CFC14EB074441EB84
:1012F00017414FEA154714EB0C4441EB1C4125EA1A
:10130000074C02FB07F506FB07F70CFB06F602FB92
:101310000CFC16EB074645EB174516EB0C4645EB68
:101320001C42121951F1000148BF7047B6195241D1
:1013300041EB0101A3F1010370474FEA14454FEA65
:10134000114724EA054621EA074C05FB07F106FB95
:1013500007F70CFB06F24FF0000605FB0CFC12EB46
:10136000074241EB174112EB0C4251EB1C4148BFC5
:101370007047921841EB0101A3F10103704700008F
:10138000F8B50446002000902068816811F0010F34
:1013900041D18168214A11422ED18168D54329402B
:1013A000491C81601E48806800F0E07000020DD585
:1013B0001C481D490068B0FBF1F0401C00EB4000E8
:1013C000800000E0401E00900028FBD100F048FDA6
:1013D00006461BE0816811F0010F03D181682940A6
:1013E000491C816000F03CFD801B02280ED920685A
:1013F0000068C043C00709D0E06D40F01000E06510
:10140000206E40F0010020660120F8BD20680168D0
:10141000C943C907DED10020F8BD00003F000080AD
:101420000003005050000020400D0300FEE770470D
:10143000002240F6B83306E00021491C89B29942E7
:10144000FBD3521C92B28242F6D3704772B6FEE7CB
:1014500010B5044800F054FB024800F017FA80B2BF
:1014600010BD0000680000202DE9F84F0027044659
:10147000009790F85800DFF8E0930D46B846012831
:1014800011D0012684F85860206801F0BDFC60B1DD
:10149000E06D40F02000E0655FF0010784F85880BF
:1014A0003846BDE8F88F0220FBE7D5E900210C2380
:1014B000206803EA91131844036B01F01F014FF0F9
:1014C0001F0C0CFA01FCC2F3846223EA0C038A406D
:1014D00013430363206801F097FC8246206801F003
:1014E0008FFC5AEA00003CD1AA6829682068B2F152
:1014F000004F37D001F08CFC2068416921F0004199
:10150000416120686969C268C2F3C102520091401A
:101510002A69042A31D000EB82002B68026EDFF8C2
:101520003CC303F0F84302EA0C020B431A4342F0B7
:101530000041016620682A69A96900EB8200026EF9
:1015400022F080720A430266297F226828690129F5
:1015500010D0002102EB8000026E22F000720A43DC
:1015600002667DE0002201F053FC2068416941F0F1
:101570000041C5E74FF00071ECE7002101F03AFCB3
:10158000400320684FF0000172D001F033FC90FA64
:10159000A0F0B0FA80F1286842036ED090FAA0F073
:1015A000B0FA80F0814204D100221146206801F097
:1015B0003EFC0121206801F01DFC400320684FF033
:1015C00001015DD001F016FC90FAA0F0B0FA80F1B4
:1015D0002868420359D090FAA0F0B0FA80F0814216
:1015E00004D100220121206801F021FC02212068A1
:1015F00001F000FC400320684FF0020148D001F0E8
:10160000F9FB90FAA0F0B0FA80F12868420344D0C8
:1016100090FAA0F0B0FA80F0814204D100220221B9
:10162000206801F004FC0321206801F0E3FB400383
:1016300020684FF0030133D001F0DCFB90FAA0F0FA
:10164000B0FA80F1286842032FD090FAA0F0B0FAE7
:1016500080F0814204D100220321206801F0E7FBE1
:101660002068816811F0010F22D0ACE000E004E0B6
:1016700001F0C0FBC0F384618DE7C0F3846091E7A3
:1016800001F0B8FBC0F38461A2E7C0F38460A6E771
:1016900001F0B0FBC0F38461B7E7C0F38460BBE73F
:1016A00001F0A8FBC0F38461CCE7C0F38460D0E70D
:1016B0002A7B296850F8B03FC1F3120C23EA0C03CF
:1016C00002F0180C664A22FA0CF20A401343036037
:1016D000E968494577D1286841031CD090FAA0F108
:1016E000B1FA81F1491C01F01F0109294FEA40318B
:1016F00032D8002912D000BF90FAA0F1B1FA81F1DE
:1017000001F1010101F01F0106FA01F609D100BF44
:10171000C0F3846109E0C0F38461E3E7C0F384614E
:10172000EEE790FAA0F1B1FA81F101F1010101F0C7
:101730001F0146EA816102D1C0F3846003E090FAA0
:10174000A0F0B0FA80F000F1010000F01F0000EB03
:10175000400041EA005132E000290ED090FAA0F199
:10176000B1FA81F101F1010101F01F0106FA01F660
:1017700006D100BFC0F3846106E0C0F38461F1E7E5
:1017800090FAA0F1B1FA81F101F1010101F01F011C
:1017900046EA816102D1C0F3846003E090FAA0F0D0
:1017A000B0FA80F000F1010000F01F002D4A00EBBC
:1017B000400002EB005041EA000141F00071AA68CC
:1017C000206801F025FB28482A6802423FF466AEF3
:1017D00026488168264B01F0E0719A4202D0254BE1
:1017E0009A421CD10B021AD42268B2F1A04F7FF4A6
:1017F00055AE826841F4000122F0E0720A43826033
:101800001D481E490068B0FBF1F0401C00EB400091
:10181000800000E0401E00900028FBD13EE6184DFD
:10182000184BAA4207D1CD0105D422689A42F5D0BF
:1018300041F0807109E0144DAA42EFD14A02EDD483
:1018400022689A42EAD041F48001826822F0E07274
:101850000A43826022E6000000007F4000F0FF03A0
:10186000FFFF0700000020FE00000880000300507A
:10187000000021C31000C09050000020400D030064
:10188000000052C700010050000084CB0068006CCB
:1018900070470000F8B54FF0000504002E46009593
:1018A00002D0E06D10B107E00120F8BD204600F045
:1018B000EBF8266684F8586020688168C1F34071AF
:1018C00019B18168684A1140816020688168C1F35C
:1018D000007189B98168654A114041F08051816089
:1018E000634864490068B0FBF1F04000801C00E0F0
:1018F000401E00900028FBD120688168C1F3007170
:1019000041B9E16D41F01001E165216E41F0010145
:101910002166012501F078FAE16DC90600D430B1E5
:10192000E06D40F01000E06501252846F8BDE06D4F
:1019300020F4807040F00200E0652068806810F0BC
:10194000010F11D14FF0A04080684B4900F0010019
:10195000896801F00101084306D14848616882683E
:1019600022F47C120A438260E168E06B627F0843E4
:10197000A16841EA4231084394F8241040EA01404A
:10198000012904D1218D3E4A02EB41410843E16A1D
:1019900029B101F47871226B014342EA0100226807
:1019A000D168384B19400143D16020680169626BEE
:1019B00021F0406111430161206801F021FA70BB00
:1019C000207F94F83810800340EA41022168C868FB
:1019D00044F2020398431043C8602069002820683D
:1019E00001690AD041F480310161206850F8C01FBC
:1019F00022696FF30D01114307E021F48031016189
:101A0000206850F8C01F6FF30D01016094F840008A
:101A100001280CD02068016921F001010161606991
:101A200001282068016B21F00F0111D013E0D4E9E7
:101A300011010843D4E913121143084321680A69CC
:101A400040F2FC739A43104340F001000861E6E75E
:101A5000226A521E11430163E06D20F0020040F043
:101A60000100E06561E70000C0FFFF5FC0FFFF7F8E
:101A700050000020400D0300000100500003005002
:101A80000000FEFF0740F0FF10B598B00446142197
:101A900011A8FEF7DFFC44216846FEF7DBFC154980
:101AA0002068884223D1C401400500940F90684605
:101AB00000F0C6FA08B1FFF7C9FC0F48C16C41F449
:101AC0000051C164C16C01F400511691C16C41F028
:101AD0000201C164C06C11A900F00200169003203D
:101AE000CDE9114000201390044800F095F818B09B
:101AF00010BD00000001005000100240000400482A
:101B00002DE9F04104463848806800F01F05206840
:101B100001F07AF918B102210846BDE8F08194F885
:101B2000580001280CD0012084F858002046FFF707
:101B300027FC01004FF0000304D084F85830EBE795
:101B40000220EAE7E06D40F60162904340F48070C5
:101B5000E065264A20684FF0A046904201D1374602
:101B600000E00746874200D01DB9E76D27F48017D3
:101B7000E765E76DFF0404D5276E27F006072766A3
:101B800000E023661C27076084F8583020689042E4
:101B900001D1334600E00346834215D0A5B1052D9F
:101BA00012D0092D10D0E36D43F48013E365904209
:101BB00000D13046C0688001AED5E06D20F4005001
:101BC00040F48050E065A7E7C268920105D5E26D58
:101BD00022F4005242F48052E2658268044B1A40BB
:101BE000121D826098E700000003005000010050C1
:101BF000C0FFFF7F70B5044600F032F90546601C57
:101C000002D004484068044400F02AF9401BA04276
:101C1000FAD370BD440000202DE9F04FDFF80C929C
:101C2000002301260325A9F1040B85B00F2709F134
:101C3000040AABF1040EF1E006FA03FC12EA0C020E
:101C40007ED00C7904F00304012C01D0022C20D1A9
:101C5000846800945C0005FA04F80494009C24EA6B
:101C600008040094D1F80C80049C08FA04F8009C45
:101C700048EA0408C0F80880446824EA0C0491F893
:101C800004C0CCF3001C0CFA03FC4CEA040CC0F8B2
:101C900004C00C79E443A40702D18C68012C0ED057
:101CA000C4684FEA430805FA08FC24EA0C04D1F89A
:101CB00008C00CFA08FC4CEA040CC0F80CC00C7903
:101CC00004F00304022C16D1DC0800EB840CCDF8E0
:101CD00008C0DCF820C05C074FEAD46807FA08F4B3
:101CE0002CEA040C0C6904FA08F444EA0C04DDF84C
:101CF00008C0CCF8204004684FEA430805FA08FC05
:101D000024EA0C0491F804C00CF0030C0CFA08FC53
:101D10004CEA040CC0F800C04C6814F4403F7CD07E
:101D2000434CD4F860C04CF0010CC4F860C0246E81
:101D300023F0030C04F0010400943E4C644400E0E2
:101D40006BE00294A4684FEA837C4FEA1C7807FAA0
:101D500008FC24EA0C04B0F1904F06D0DFF8D8C09C
:101D6000604505D14FF0010C20E04FF0000C1DE064
:101D7000DFF8C8C0604502D14FF0020C16E0DFF872
:101D8000C0C0604502D14FF0030C0FE0DFF8B4C0D3
:101D9000604502D14FF0040C08E0DFF8ACC06045AC
:101DA00002D14FF0050C01E04FF0060C0CFA08FCD4
:101DB0004CEA040C029CC4F808C0D9F80040CC4698
:101DC000D1F8048094435FEAC82800D51443CCF8C6
:101DD0000040DAF80040D446D1F8048094435FEA2A
:101DE000882800D51443CCF80040DBF80040DC46DE
:101DF000D1F8048094435FEA883800D51443CCF8C6
:101E00000040DEF80040F446D1F8048094435FEAD5
:101E1000C83800D51443CCF800405B1C0C6822463F
:101E2000DC407FF409AF05B0BDE8F08F0804014045
:101E30000010024000000140000400480008004873
:101E4000000C0048001000480014004800690840D9
:101E500000D0012070470AB18161704781627047EC
:101E600001488068704700004400002002488168F3
:101E700042681144816070474400002010B500247E
:101E8000032000F065F8002000F008F808B10124F4
:101E900001E000F025F8204610BD000070B50E4EA0
:101EA00005460024706898B14FF47A71B1FBF0F0E8
:101EB0000A490968B1FBF0F000F02EFD40B9102D81
:101EC00006D200222946501E00F022F8356000E0BC
:101ED0000124204670BD0000440000205000002076
:101EE0000A4882B0016E41F001010166016E01F005
:101EF00001010091816D41F080518165806D00F09C
:101F00008050009002B000F093B800000010024032
:101F1000F0B40E4B1B680C46C3F30223C3F1070554
:101F2000042D00D90425191D072901D2002300E042
:101F3000DB1E012606FA05F1491E214099409E400C
:101F4000761E16403143F0BC01F05DBB0CED00E0A5
:101F5000064900F0070208684FF6FF03184040EA00
:101F60000220034A10430860704700000CED00E0B7
:101F70000000FA052B492C4B0A6832214A432B49B1
:101F800040B1B0F5007F086829D020F4C06040F46B
:101F900080602CE00868C0F34120022804D051F88A
:101FA000800F20F4807022E0D1F8800020F480704F
:101FB000C1F88000086820F4C06040F40070086038
:101FC000B2FBF3F0401C00E0401E4A69520501D507
:101FD0000028F9D1486940050AD503207047C0F3AD
:101FE0004120022806D051F8800F40F4807008602C
:101FF00000207047D1F8800040F48070C1F8800064
:10200000086820F4C06040F400700860B2FBF3F090
:10201000401C00E0401E4A695205DBD50028F9D17A
:10202000D8E700005000002040420F000070004040
:102030000248816841F4804181607047007000402F
:102040002DE9F8430446006800269D4D00035ED547
:10205000A86D0027C00008D4A86D40F08050A86586
:10206000A86D012700F080500090DFF85892D9F851
:10207000001041F48071C9F80010FFF7F1FE8046AE
:1020800006E000BFFFF7ECFEA0EB080002282BD80B
:10209000D9F80000C005F5D5D5F8900010F44070CF
:1020A00014D0216C814211D0D5F89000D5F8901051
:1020B00020F4407041F48031C5F89010D5F89010AC
:1020C00021F48031C5F89010C5F89000C00711D0F8
:1020D000FFF7C6FE804641F2883907E0FFF7C0FEF1
:1020E000A0EB0801494501D903260BE0D5F8900083
:1020F0008007F3D5D5F89000216C20F44070084398
:10210000C5F890001FB1A86D20F08050A865207818
:10211000C00707D0D5F88800616820F003000843A5
:10212000C5F888002078800707D5D5F88800A16811
:1021300020F00C000843C5F888002078400707D538
:10214000D5F88800E16820F030000843C5F8880021
:102150002078000707D5D5F88800216920F0C00055
:102160000843C5F888002078800607D5D5F8880090
:10217000616920F440600843C5F888002078400673
:1021800007D5D5F88800A16920F440500843C5F868
:1021900088002078000607D5D5F88800E16920F48A
:1021A00040400843C5F888002088C00507D5D5F809
:1021B0008800216A20F440300843C5F88800208850
:1021C000800507D5D5F88800616A20F440200843CF
:1021D000C5F88800208840050FD5D5F88800A16A89
:1021E00020F440100843C5F88800A06AB0F5801FAD
:1021F00003D1E86840F48010E860208800050FD51E
:10220000D5F88800E16A20F440000843C5F888004A
:10221000E06AB0F5800F03D1E86840F48010E86010
:102220002088C0040FD5D5F88800216B20F04070BD
:102230000843C5F88800206BB0F1807F03D1E868BF
:1022400040F48010E86020884FF0006180040ED5D3
:10225000D5F88800626B20F040601043C5F8880014
:10226000606B884203D1E86840F48010E860208801
:1022700040040ED5D5F88800A26B20F040601043D2
:10228000C5F88800A06B884203D1E86840F480104C
:10229000E860208800040FD5D5F88800E16B20F0B5
:1022A00040500843C5F88800E06BB0F1805F03D16F
:1022B000E86840F48030E8603046BDE8F88300000C
:1022C00000100240007000402DE9F0470E46050066
:1022D0004FF0000725D0DFF8AC81D8F8000000F0FF
:1022E0000F00B0420CD2D8F8001021F00F0131439A
:1022F000C8F80010D8F8000000F00F00B04210D16C
:102300002968614CC80741F2883A5AD06868DFF8FA
:102310007C91032808D0022820682DD04005002891
:102320002CDB0120BDE8F08720688001F9D5E0684A
:1023300000F00302E068C0F30310401C032A19D028
:10234000534A00BFB2FBF0F0E268C2F306225043EA
:10235000E268C2F34162521C5200B0FBF2F0484501
:1023600017D9A06810F0F00F0CD0880711D5A86815
:1023700040B10EE0474AE5E78003D0E700F092F86D
:10238000484506D9A06820F0F00040F08000A06029
:102390008027A068696820F003000843A060FFF769
:1023A0005FFD814606E000BFFFF75AFDA0EB090183
:1023B00051453AD8A068696800F00C00B0EB810F75
:1023C000F2D12868810714D5400703D5A06840F4EE
:1023D000E060A0602878000705D5A06820F4605070
:1023E00040F4E060A060A068A96820F0F000084315
:1023F00004E0802F03D1A06820F0F000A060D8F89E
:102400000010404601F00F01B14216D9016821F0D9
:102410000F0131430160FFF723FD074607E000BFCE
:10242000FFF71EFDC11B514501D903207AE7D8F8FB
:10243000000000F00F00B042F2D12878400705D527
:10244000A068E96820F4E0600843A06028780007ED
:1024500006D5A068296920F4605040EAC100A06058
:1024600000F020F8A1680C4AC1F30311515C01F09F
:102470001F01C8400949086009480068BDE8F047E5
:10248000FFF70CBD002002400010024000B4C4045D
:102490000024F40000366E01FE4C000850000020BD
:1024A00044000020184910B58868C0F3810217481D
:1024B000012A0BD08A68164BC2F38102022A06D089
:1024C0008A68C2F38102032A03D0002010BD184697
:1024D00010BDCA6802F00304CA68C2F30312521C9A
:1024E000032C02D0B0FBF2F001E0B3FBF2F0CA68BB
:1024F000C968C2F306225043C1F34161491C490037
:10250000B0FBF1F010BD0000001002400024F40008
:1025100000366E012DE9F84304007AD02078F84D9A
:10252000C00747D0A868E96800F00C0001F003017B
:102530000C2802D0082817D001E0032914D06068C5
:10254000B0F5803F17D0B0F5A02F286817D020F441
:1025500080302860286820F4802028606068E0B11E
:10256000FFF77EFC064614E02868800322D56068E9
:102570000028D2D01EE0286840F48030EDE740F417
:1025800080202860F7E700BFFFF76AFC801B642803
:1025900070D828688003F7D50CE0FFF761FC064689
:1025A00005E000BFFFF75CFC801B6428F0D82868BA
:1025B0008003F7D4207880074CD5A868E96800F03C
:1025C0000C0001F003010C2802D004280DD001E01A
:1025D00002290AD0E068002828682BD040F48070D7
:1025E0002860FFF73DFC064619E02868400502D543
:1025F000E068002891D06868217C20F0FE4040EA25
:1026000001606860BF480068FFF748FC002800D1FF
:1026100020E072E1FFF724FC801B0228B8D828686C
:102620004005F7D56868217C20F0FE4040EA016053
:1026300068600FE020F480702860FFF711FC064608
:1026400005E000BFFFF70CFC801B0228A0D828681B
:102650004005F7D42078000729D560690028D5F80F
:10266000940013D040F00100C5F89400FFF7F8FB88
:10267000064606E090E000BFFFF7F2FB801B022851
:1026800086D8D5F894008007F6D510E020F0010038
:10269000C5F89400FFF7E4FB064604E0FFF7E0FB13
:1026A000801B022878D8D5F894008007F6D42078CB
:1026B000400761D5A86D0026C00008D4A86D40F081
:1026C0008050A865A86D012600F0805000908E48CB
:1026D0000168C90511D40168804641F48071016028
:1026E000FFF7BEFB074604E0FFF7BAFBC01B02285A
:1026F00052D8D8F80000C005F6D5A068012815D03A
:102700000528D5F8900016D020F00100C5F89000FB
:10271000D5F8900020F00400C5F89000A06841F2C0
:102720008838B8B1FFF79CFB07460EE0D5F890005B
:1027300040F00100F0E740F00400C5F89000F5E734
:10274000FFF78EFBC11B414526D8D5F890008007C6
:10275000F6D50CE0FFF784FB074604E0FFF780FBAB
:10276000C11B414518D8D5F890008007F6D41EB19A
:10277000A86D20F08050A8652078800629D5A06932
:102780000028D5F8980013D040F00100C5F8980053
:10279000FFF766FB064606E075E000BFFFF760FB4B
:1027A000801B02286FD8D5F898008007F6D510E076
:1027B00020F00100C5F89800FFF752FB064604E040
:1027C000FFF74EFB801B02285DD8D5F898008007E4
:1027D000F6D4E069F0B3A968C1F3810103295DD0A3
:1027E0000228286820F08070286003D0FFF738FBAB
:1027F00004464BE0FFF734FB064604E0FFF730FBEE
:10280000801B02283FD828688001F7D4F4E908012A
:102810006FF00F0202EB01110843218A52044908AC
:1028200002EB4151A26841EA02210843217D4FF0A9
:102830007E42490802EB41610843217B40EAC160C6
:10284000E968324A11400843E860286840F0807027
:10285000286000E05EE0E86840F08070E860FFF724
:10286000FFFA044605E000BFFFF7FAFA001B022852
:1028700009D828688001F7D54CE000BFFFF7F0FACF
:10288000001B022802D90320BDE8F88328688001D4
:10289000F4D4E8681E490840E8603BE00128F3D022
:1028A000E868226A00F00301914226D1616A00F0D3
:1028B000F0020901103991421FD1A26A00F4FE41D1
:1028C000B1EB022F19D194F82C2000F07841B1EB34
:1028D000C26F12D1218E00F4C00249084905A1F54A
:1028E0000011914209D194F8341000F0C0604908F9
:1028F0004906A1F1007181420CD00120C4E700001B
:102900000010024044000020007000400C809F0135
:10291000FCFFEEFE0020B7E710B5401EB0F1807F4F
:1029200001D3012010BD4FF0E02460610F2160173A
:1029300000F069FE0020A06107202061002010BD8A
:10294000FEE700002DE9F04128480168284C626943
:10295000891A322947D90068606100F04BF820706D
:10296000E278002520EA0201424082436170A270B1
:102970000126E0704FF6FF77012918D1384600F0A4
:102980008BF86079B6EB101F01D1657101E0102062
:102990006071607A217A00F10A02914202D3E071FB
:1029A000A17103E0E0796072A079207225736078EC
:1029B00002280AD1384600F06FF8207A401CC0B2D5
:1029C0002072212800D925722673607803280AD145
:1029D000384600F061F8607A401CC0B2607221286D
:1029E00000D965722673BDE8F08100004C0000201C
:1029F0000000002070B5104D01212846FFF726FA8F
:102A000080B102212846FFF721FA68B10421284647
:102A1000FFF71CFA50B101214FF09040FFF716FA72
:102A200030B106E0012404E0022402E0032400E0C7
:102A30000424204670BD00000004004800B585B0A5
:102A400014216846FDF706FD4FF6FF700090002048
:102A50000321CDE90201019069460248FFF7DCF845
:102A600005B000BD0008004800B585B014216846D7
:102A7000FDF7F0FC4FF6FF7000900120019003205D
:102A800003900020029069460248FFF7C5F805B0A0
:102A900000BD00000008004870B50024064621462D
:102AA000204600F003F900F041F94FF49635304626
:102AB00000F010F9641CAC42F9D370BD30B587B09A
:102AC00014216846FDF7C6FC1E48C16C41F00401A4
:102AD000C164C16C01F004010591C16C41F00101B8
:102AE000C164C16C01F001010591C16C41F00201AA
:102AF000C164C06C012500F0020005904FF44870DD
:102B0000CDE9000500240394694602940E48FFF7BE
:102B100083F8280203940090CDE901544FF09044CB
:102B200069462046FFF778F8FFF79EFFA06940F45A
:102B30008070A06104481830016841F40871016098
:102B400007B030BD0010024000040048203AD2B265
:102B5000034B02EB420203EB021200F019B8000033
:102B60002E3B0008F0B50E460746002540F23F1404
:102B700007E021463846FFF7E9FF103C6D1CA4B280
:102B8000761C3278002A01D0142DF2D3F0BD00005B
:102B90002DE9F04791468A460026044600F086F863
:102BA000DFF84080012700BF00F0C0F85FF00005AB
:102BB00039F8160007FA05F10842404601D140886D
:102BC00000E0008800F086F86D1C102DF0D3641C26
:102BD000E4B25146204600F069F8761C182EE3D383
:102BE000BDE8F0873C00002010B5FFF767FF00202C
:102BF00000F014F8084CA080A088A0F502413039FC
:102C000006D000F0A8FB002000F008F8A08010BD5E
:102C100000F018FBF7E700003C00002070B51D49EC
:102C20000A6842F400720A600A6842F480720A601C
:102C3000184C103C226842F020022260164A1060B4
:102C4000086840F02000086000BF00BF00BF206897
:102C500040F020002060206840F480702060FFF782
:102C6000EDFE4FF09041886A40F48070886200BFAA
:102C700000BF00BF0848001F006885B2886940F4A3
:102C800080708861FFF7F0FE206840F400702060DB
:102C9000284670BD280400481408004801B5BDF856
:102CA00000000149488008BD3C00002010B50C46DA
:102CB0000146202000F068F82146BDE810402120A0
:102CC00000F062B801B5BDF800000149088008BDF8
:102CD0003C000020134A116841F400711160114951
:102CE00010390B6843F480730B600B6843F02003CA
:102CF0000B600D4B1860106840F02000106000BFA2
:102D000000BF00BF086840F020000860086840F479
:102D10008070086000BF00BF00BF086840F400700A
:102D200008607047280400481408004814490868DF
:102D300040F400700860086840F480700860104833
:102D40001038026842F0200202600E4B22221A6004
:102D50000A6842F020020A6000BF00BF00BF01689D
:102D600041F020010160016841F48071016000BF01
:102D700000BF00BF016841F40071016070470000AE
:102D80002804004814080048184B10B51A6842F48B
:102D900000721A601A6842F480721A60134A103A7C
:102DA000146844F020041460114C2060186840F04E
:102DB0002000186000BF00BF00BF106840F0200076
:102DC0001060106840F4807010602160186840F056
:102DD0002000186000BF00BF00BF106840F0200056
:102DE0001060106840F48070106010BD2804004826
:102DF0001408004800EB8100006E00F0F8407047B6
:102E00008068C0F3C00070478068C0F380007047DE
:102E1000042303EAD15310B518444369C1F30451A4
:102E200007248C40A3438A401343436110BD00EB49
:102E30008100016E21F000411143016670470000DE
:102E400070B5774D2DED048B2868764CA169401A3A
:102E5000642876D92868A061FEF7FAFA00F067FCCA
:102E60009FED711B53EC112B00F0B0FC9FED701B1C
:102E700053EC112B00F0AAFC00F01CFC2063E17A5B
:102E80004FF0010691F00101E1729FED6B8B59D07B
:102E9000A0632868A062E07900F049FC53EC182B8D
:102EA00000F094FC41EC190B606B00F0C3FD53EC97
:102EB000192B00F04FFC17D2E07900F038FC53ECEE
:102EC000182B00F083FC41EC190BA06B00F0B2FD55
:102ED00053EC192B00F078FD06D2606AA16A884293
:102EE00002D228682062A672A07900F020FC53EC80
:102EF000182B00F06BFC41EC190B606B00F09AFD95
:102F000053EC192B00F026FC20D2A07900F00FFC26
:102F100053EC182B00F05AFC41EC190BA06B00F09D
:102F200089FD53EC192B00F04FFD0FD2A07A88B128
:102F3000606AA16A88420BD22868E0610020A07212
:102F400008E069E0606328686062A4E7A07A08B1DD
:102F5000286800E0E069216A401AE062607990B375
:102F6000267337A13948FDF7B3F938491820FFF720
:102F7000F9FD207A00F0DBFB53EC182B00F026FC67
:102F800041EC100B32A153EC102B3048FDF7A0F9A7
:102F90002E494820FFF7E6FD607A00F0C8FB53ECAD
:102FA000182B00F013FC41EC100B2DA153EC102B4F
:102FB0002648FDF78DF9BDEC048B6020BDE870401C
:102FC0002249FFF7CFBD2AA12048FDF781F91F490B
:102FD0001820FFF7C7FD206B00F02CFD41EC100B13
:102FE00026A153EC102B1948FDF772F91749482018
:102FF000FFF7B8FD94ED0B0A9FED231AF8EE400A97
:1030000080EE810A10EE100A00F014FD41EC100B66
:103010001EA153EC102BCBE7BDEC048B70BD000060
:103020004C000020000000206666666666660A4066
:10303000000000000000303F9A9999999999B93F92
:1030400020202020202050617261000054000020C8
:1030500020566D61783A25312E3166560000000009
:1030600020566D696E3A25312E31665600000000FB
:1030700020202020202044617461000020563A2541
:10308000312E32665600000000007A4420543A2562
:103090002E3166730000000070B5124D0446012207
:1030A0004FF47F412846FEF7D6FE0F4E0122042141
:1030B0003046FEF7D0FE002204213046FEF7CBFE5C
:1030C000210200222846FEF7C6FE012204213046D6
:1030D000FEF7C1FE3046BDE8704000220421FEF735
:1030E000BABE000000080048000C0048F0B587B0E8
:1030F00014216846FDF7AEF92D48C16C41F004017A
:10310000C164C16C01F004010591C16C41F0200162
:10311000C164C16C01F020010591C16C41F0010155
:10312000C164C16C01F001010591C16C41F0020163
:10313000C164C16C01F002010591C16C41F008014C
:10314000C164C06C1B4E00F008004FF47F44059032
:10315000012221463046FEF77EFE174F0022042151
:103160003846FEF778FE0125CDE90045002402949B
:10317000694630460394FEF74FFDCDE90054694699
:103180004FF090400294FEF747FD0720CDE9000480
:1031900069460A480294FEF73FFD04200090CDE9FD
:1031A0000154694638460394FEF736FD07B0F0BD7A
:1031B0000010024000080048000C004800040048CD
:1031C000FEE7FEE77047000030B589B02021684671
:1031D000FDF740F919481849002401608902C0E947
:1031E0000114C46004250461C0E9054504774477EF
:1031F0000121016280F82440C462046380F83840F1
:10320000C46380F84040FEF745FB08B1FEF71EF9A5
:103210000B48009006200190072002907F20059423
:10322000CDE9030569460548FEF71EF9002801D0DF
:10323000FEF70CF909B030BD000100506800002015
:103240000080F03E30B501210020FFF79DFD4FF4D6
:103250007A70FEF7EDF800210120FFF795FD41F2AD
:1032600090711020FFF790FD4FF41C516020FFF784
:103270008BFD01216120FFF787FD02214620FFF72A
:1032800083FD48F210011320FFF77EFD48F2FE0196
:103290001220FFF779FD4FF4A0610220FFF774FDC3
:1032A00041F230010320FFF76FFD40F20334214665
:1032B0003020FFF769FD21463120FFF765FD2146EB
:1032C0003220FFF761FDE51E29463320FFF75CFD44
:1032D00003213420FFF758FD21463520FFF754FD28
:1032E00014213620FFF750FD21463720FFF74CFD13
:1032F00021463820FFF748FD21463920FFF744FDDD
:1033000029463A20FFF740FD03213B20FFF73CFD13
:1033100021463C20FFF738FD4FF4A0513D20FFF738
:1033200033FD4FF400719220FFF72EFD21469320CC
:10333000FFF72AFD40F60D019020FFF725FD41F231
:1033400018010320FFF720FDBDE8304040F2731163
:103350000720FFF719BD10B543F20801E320FFF77E
:1033600013FD1221E720FFF70FFD41F23121EF207D
:10337000FFF70AFD00210120FFF706FD4FF4E06191
:103380000220FFF701FD41F230010320FFF7FCFCB2
:1033900000210420FFF7F8FC40F207210820FFF786
:1033A000F3FC00210920FFF7EFFC00210A20FFF7C2
:1033B000EBFC00210C20FFF7E7FC00210D20FFF7BC
:1033C000E3FC00210F20FFF7DFFC00211020FFF7B6
:1033D000DBFC07211120FFF7D7FC00211220FFF7AB
:1033E000D3FC00211320FFF7CFFCC820FEF702FC1E
:1033F00041F290611020FFF7C7FC40F22721112015
:10340000FFF7C2FC3220FEF7F5FB1D211220FFF76B
:10341000BBFC3220FEF7EEFB4FF400611320FFF7F8
:10342000B3FC14212920FFF7AFFC0B212B20FFF761
:10343000ABFC3220FEF7DEFB00212020FFF7A4FCCE
:1034400000212120FFF7A0FC07213020FFF79CFC82
:1034500040F207713120FFF797FC06213220FFF779
:1034600093FC40F204713520FFF78EFC41F60471A5
:103470003620FFF789FC04213720FFF785FC002167
:103480003820FFF781FC40F206713920FFF77CFC01
:1034900040F201713C20FFF777FC0F213D20FFF740
:1034A00073FC00215020FFF76FFCEF215120FFF744
:1034B0006BFC00215220FFF767FC40F23F115320C4
:1034C000FFF762FC4FF41C516020FFF75DFC012107
:1034D0006120FFF759FC00216A20FFF755FC00210D
:1034E0008020FFF751FC00218120FFF74DFC0021D7
:1034F0008220FFF749FC00218320FFF745FC0021D3
:103500008420FFF741FC00218520FFF73DFC1021BE
:103510009020FFF739FC00219220FFF735FC0321B2
:103520009320FFF731FC4FF488719520FFF72CFCB6
:1035300000219720FFF728FC00219820FFF724FCAA
:1035400041F218010320FFF71FFCBDE8104040F2D4
:1035500073110720FFF718BC7047FEF787BC10B542
:1035600094B038216846FCF775FF14210EA8FCF7CB
:1035700071FF4FF40070FEF7FDFC01200090000485
:10358000019002200324CDE907041421CDE90A109B
:103590000C900D9009946846FEF7BCFF08B1FDF74A
:1035A00055FF0F20CDE90E040020109011901290CD
:1035B00002210EA8FEF788FE002801D0FDF746FF85
:1035C00014B010BD0248016841F4700101607047F9
:1035D00088ED00E0FEE703B401984100009850EA4E
:1035E000C12018BF04204A0D18BF40F0010040F26E
:1035F000FF72B2EB515F08BF40F00200012808BF24
:10360000052002B070470907090E002804DB00F10D
:10361000E02080F80014704700F00F0000F1E02077
:1036200080F8141D704730380A2801D201207047F5
:1036300000207047FEF722FCFFF791FFFFF756FDD1
:10364000FFF7D2FA4FF6FF742046FFF725FA002065
:10365000FFF738FB2046FFF721FBFFF7B5FD084CCD
:10366000084D20682969401AC82804D920682861B3
:103670002879FFF711FDFFF765F9FFF7E1FBF0E7A8
:103680004C0000200000002010B500290AD0087866
:10369000002807D005487844FDF762FA002801D0D9
:1036A000002010BD0248784410BD00002E17000015
:1036B0002617000021F00042A2F16052B2F5801FEF
:1036C00001F0004328BFD2F17F6C0BD95FEA001CE8
:1036D00043EAC20242EB507018BF704728BF20F087
:1036E00001007047B2F5801FBCBF184670474FEA13
:1036F000410C1CF5001F02D2084600F011BA70B54B
:1037000000F00EF900000089FFF7F6BF4FF000400F
:10371000A0F580007047491058BFC1F140415B10CF
:1037200058BFC3F140438B42EFF300807047B0FABB
:1037300080F310FA03F10AD0C3F11D0303F580638F
:103740004FEA41504FEA035202EBD12170474FF04C
:103750000000704751EA030C17D41CF5801F58BFB6
:10376000BCF5801F00F10680994218BF704708BF62
:103770009042704707D711F5801F58BF13F5801F7F
:1037800019D499427047894270471CF5801F08D5AB
:10379000BCF5801FF7D58B4218BF704708BF824227
:1037A00070474FF4001C1CEB410F38BF1CEB430F5C
:1037B00001D28B42704770B500F0B2F892244900F4
:1037C0004FF000514FF08053FFF7A5BFDFF848C11D
:1037D00070B51CEA111E1EBF1CEA13159EEA0C0FE1
:1037E00095EA0C0F00F06F8081EA030423EA4C1382
:1037F0004EEAD47E21EA4C1141F4801143F4801347
:10380000AE44A1FB024CA0FB0365AEF17F7E3619EE
:1038100055EB0C05A1FB034C4CF10003A0FB021C73
:1038200016EB0C06654153F10003094218BF46F040
:10383000010613F4007F0BD14FEA03314FEA053044
:10384000340341EA155140EA16506FF003020AE0D2
:103850004FEAC3214FEAC520F40241EA555140EA3C
:1038600056506FF0020202EB2E4201EB025585EA40
:10387000CE710AD05FEA440C18BF24F0004450F126
:10388000000041F1000120EAD47040F2FE7C624564
:1038900000D270BDA84214BF4FF080444FF04044A6
:1038A000002E08BF0024BEF1806FA8BFA1F1C04167
:1038B000BDE8704080F282804FF0000001F1C0410D
:1038C00001F0004170479EEA0C0F0CEA131518BF77
:1038D00095EA0C0F06D04FF0000081EA030E0EF0BF
:1038E000004170BD00F01CF88900013E00F007B8EF
:1038F00000F009B84FEA430C5FEA5C5C08D081EA4B
:10390000030100F05BB84FEA410C5FEA5C5CF6D162
:103910004FF00000014970470000FF070000F87FEA
:103920000EF1020E2EF0030E5EF8046B364205D443
:10393000012A43EB030515F5001F12D8012841EBBE
:10394000010C1CF5001F0CD80ED14FEAD17C15F5E7
:10395000001F0CEB4C0C0CF1020C08BF4CEBD37CA1
:1039600004E04FF0080C01E04FEAD37C0CEB4C056F
:1039700026FA05F606F00706B6F1040C06D20EEBA1
:10398000860CBDE870404CF0010C6047DFE80CF09D
:10399000090B02024FF000414FF00000A1F5002199
:1039A00070BD19461046012851EB010418BFD4F52B
:1039B000001484BF002001F0004170BD0808A0F58C
:1039C00000114FEA3101704753EA010C17D41CF57E
:1039D000801F58BFBCF5801F00F106808B4218BFC6
:1039E000704708BF8242704707D713F5801F58BF42
:1039F00011F5801F19D48B4270479B4270471CF50C
:103A0000801F08D5BCF5801FF7D5994218BF7047B5
:103A100008BF904270474FF4001C1CEB430F38BFA7
:103A20001CEB410F01D2994270470FB40CBC03BC90
:103A3000FFF7C1BE43004FEAD30C4FEA3C0C4340B2
:103A40001FBF40070CF1605113F0FE4F70471CF090
:103A5000006F03D100200CF0004170470CF00043D0
:103A600043EA507010B540EACC0000F00EF800BFF9
:103A7000000000924FEA0001FFF7A0BF4FF00041A5
:103A80004FF00000A1F5002170470EF1020E2EF05C
:103A9000030E5EF8044B244204D44FEA4102B2F113
:103AA0007F4F11D84FEA4003B3F17F4F0CD80ED1AE
:103AB0004FEAD07CB2F17F4F0CEB4C0C0CF1020CB6
:103AC00008BF4CEBD17C04E04FF0080C01E04FEA5A
:103AD000D17C0CEB4C0324FA03F404F00704B4F19A
:103AE000040C06D20EEB840CBDE810404CF0010C27
:103AF0006047DFE80CF0070802024FF00040A0F535
:103B0000800010BD0846420018BFD2F1807288BF05
:103B100000F0004010BD4FF04070E1EE100A704719
:103B2000FF2141EAD050C0057047FCF796BD000068
:103B30000000000000000000000000000000000085
:103B40000000000000000000000000000000000075
:103B50000000000000000000000000000000000065
:103B6000800180018001800180018001800180014D
:103B7000800180018001800180010000000080013F
:103B800080010000000000000000000000000000B4
:103B90000000CC00CC00CC00CC00CC00CC0000005D
:103BA0000000000000000000000000000000000015
:103BB0000000000000000000000000000000000005
:103BC00000000000000000000000600C600C600CB1
:103BD00030063006FE1FFE1F300638071803FE1F92
:103BE000FE1F180318038C018C018C0100000000DB
:103BF0008000E003F80F9C0E8C1C8C188C00980041
:103C0000F801E007800E801C8C188C189C18B80CEA
:103C1000F00FE003800080000000000000000000C2
:103C2000000000000E181B0C110C110611061103E8
:103C300011039B018E01C038C06C60446044304465
:103C400030441844186C0C380000000000000000DC
:103C5000E001F0033807180618063003F001F00001
:103C6000F8009C310E33061E061C061C063FFC7332
:103C7000F021000000000000000000000000000033
:103C800000000C000C000C000C000C000C000000EC
:103C90000000000000000000000000000000000024
:103CA0000000000000000000000000000000000014
:103CB000000200038001C000C0006000600030000E
:103CC0003000300030003000300030003000600044
:103CD0006000C000C000800100030002000000007E
:103CE00020006000C0008001800100030003000686
:103CF0000006000600060006000600060006000397
:103D0000000380018001C00060002000000000006E
:103D100000000000000000000000C000C000D80645
:103D2000F807E00130033807000000000000000041
:103D30000000000000000000000000000000000083
:103D400000000000000000000000800180018001F0
:103D500080018001FC3FFC3F8001800180018001E7
:103D600080010000000000000000000000000000D2
:103D70000000000000000000000000000000000043
:103D80000000000000000000000000000000000033
:103D9000800180010001000180000000000000009F
:103DA0000000000000000000000000000000000013
:103DB000000000000000E007E00700000000000035
:103DC00000000000000000000000000000000000F3
:103DD00000000000000000000000000000000000E3
:103DE00000000000000000000000000000000000D3
:103DF000C000C00000000000000000000000000043
:103E0000000C000C0006000600060003000300037F
:103E10008003800180018001C000C000C0006000FC
:103E20006000000000000000000000000000000032
:103E3000E003F007380E180C0C180C180C180C18AE
:103E40000C180C180C180C180C18180C380EF0075D
:103E5000E00300000000000000000000000000007F
:103E600000018001C001F0019801880180018001FA
:103E7000800180018001800180018001800180013A
:103E800080010000000000000000000000000000B1
:103E9000E003F80F180C0C180C1800180018000C90
:103EA000000600038001C000600030001800FC1F05
:103EB000FC1F0000000000000000000000000000E7
:103EC000E001F807180E0C0C0C0C000C0006C003E7
:103ED000C007000C001800180C180C18180CF80774
:103EE000E0030000000000000000000000000000EF
:103EF000000C000E000F000F800DC00C600C600C59
:103F0000300C180C0C0CFC3FFC3F000C000C000C9F
:103F1000000C000000000000000000000000000095
:103F2000F80FF80F180018000C00EC03FC071C0E2B
:103F3000001C0018001800180C181C0C180EF807AC
:103F4000E00300000000000000000000000000008E
:103F5000C007F00F381C181818000C00CC03EC0F29
:103F60003C0E1C1C0C180C180C18181C380EF007F2
:103F7000E00300000000000000000000000000005E
:103F8000FC1FFC1F000C00060006000380038001DC
:103F9000C001C000E0006000600070003000300030
:103FA00030000000000000000000000000000000E1
:103FB000E003F007380E180C180C180C3806F00740
:103FC000F007180C0C180C180C180C18380CF80FFB
:103FD000E0030000000000000000000000000000FE
:103FE000E003F007380E1C0C0C180C180C181C1CE5
:103FF000381EF81BE0190018000C000C1C0EF80706
:10400000F0010000000000000000000000000000BF
:10401000000000000000000000008001800100009E
:10402000000000000000000000000000000080010F
:1040300080010000000000000000000000000000FF
:10404000000000000000000000008001800100006E
:1040500000000000000000000000000000008001DF
:10406000800100010001800000000000000000004D
:104070000000000000000000000000000000001030
:10408000001C800FE003F8001800F800E003800F28
:10409000001C0010000000000000000000000000F4
:1040A0000000000000000000000000000000F81FF9
:1040B000000000000000F81F0000000000000000E9
:1040C00000000000000000000000000000000000F0
:1040D00000000000000000000000000000000800D8
:1040E0003800F001C007001F0018001FC007F001D2
:1040F0003800080000000000000000000000000080
:10410000E003F80F180C0C180C180018000C00062F
:1041100000038001C000C000C00000000000C0001B
:10412000C0000000000000000000000000000000CF
:104130000000E00718180420C229224A114409444B
:104140000944094409221113E20C02400420181802
:10415000E007000000000000000000000000000078
:1041600080038003C006C006C006600C600C3018D7
:1041700030183018F83FF83F1C700C600C6006C017
:1041800006C0000000000000000000000000000069
:10419000FC03FC0F0C0C0C180C180C180C0CFC0776
:1041A000FC0F0C180C300C300C300C300C18FC1FB1
:1041B000FC070000000000000000000000000000FC
:1041C000C007F01F38381C300C700660060006006F
:1041D000060006000600060006600C701C30F01F8A
:1041E000E0070000000000000000000000000000E8
:1041F000FE03FE0F060E06180618063006300630BF
:10420000063006300630063006180618060EFE0F79
:10421000FE0300000000000000000000000000009D
:10422000FC3FFC3F0C000C000C000C000C00FC1FC1
:10423000FC1F0C000C000C000C000C000C00FC3FE0
:10424000FC3F000000000000000000000000000033
:10425000F83FF83F18001800180018001800F81F61
:10426000F81F18001800180018001800180018008F
:104270001800000000000000000000000000000026
:10428000E00FF83F3C780E6006E007C00300030033
:1042900003FE03FE03C007C006C00EC03CF0F83F9B
:1042A000E00F00000000000000000000000000001F
:1042B0000C300C300C300C300C300C300C30FC3F1F
:1042C000FC3F0C300C300C300C300C300C300C300F
:1042D0000C300000000000000000000000000000A2
:1042E00080018001800180018001800180018001C6
:1042F00080018001800180018001800180018001B6
:10430000800100000000000000000000000000002C
:10431000000600060006000600060006000600066D
:104320000006000600060006180618063807F00307
:10433000E00100000000000000000000000000009C
:1043400006300618060C060606038601C60066003F
:104350007600DE008E0106030606060C06180630FF
:1043600006600000000000000000000000000000E7
:10437000180018001800180018001800180018007D
:104380001800180018001800180018001800F81F6E
:10439000F81F000000000000000000000000000006
:1043A0000EE01EF01EF01EF036D836D836D836D8BD
:1043B00066CC66CC66CCC6C6C6C6C6C6C6C686C3EE
:1043C00086C30000000000000000000000000000A4
:1043D0000C301C303C303C306C306C30CC30CC304D
:1043E0008C310C330C330C360C360C3C0C3C0C383A
:1043F0000C30000000000000000000000000000081
:10440000E007F81F1C380E70066003C003C003C02D
:1044100003C003C003C003C006600E701C38F81F41
:10442000E0070000000000000000000000000000A5
:10443000FC0FFC1F0C380C300C300C300C300C18FE
:10444000FC1FFC070C000C000C000C000C000C0006
:104450000C00000000000000000000000000000050
:10446000E007F81F1C380E70066003E003C003C0AD
:1044700003C003C003C007E006630E3F1C3CF83FC7
:10448000E0F700C000000000000000000000000095
:10449000FE0FFE1F06380630063006300638FE1FB7
:1044A000FE0706030606060C061806180630063038
:1044B0000660000000000000000000000000000096
:1044C000E003F80F1C0C0C180C180C001C00F8036F
:1044D000E00F001E0038063006300E301C1CF80FAE
:1044E000E0070000000000000000000000000000E5
:1044F000FE7FFE7F800180018001800180018001BC
:1045000080018001800180018001800180018001A3
:10451000800100000000000000000000000000001A
:104520000C300C300C300C300C300C300C300C30AB
:104530000C300C300C300C300C300C301818F81FCC
:10454000E007000000000000000000000000000084
:1045500003600630063006300C180C180C18180CC6
:10456000180C380E30063006700760036003C00177
:10457000C00100000000000000000000000000007A
:104580000360C361C361C3616633663366336633F8
:10459000663366336C1B6C1B6C1B2C1A3C1E380E6E
:1045A000380E0000000000000000000000000000C5
:1045B0000FE00C7018303018700C600EC0078003CC
:1045C0008003C003E006700C301C18180C300E601D
:1045D00007E00000000000000000000000000000F4
:1045E00003C006600C301C383818300C6006E00739
:1045F000C003800180018001800180018001800171
:104600008001000000000000000000000000000029
:10461000FC7FFC7F006000300018000C00060003E7
:104620008001C0006000300018000C000600FE7F12
:10463000FE7F0000000000000000000000000000FD
:10464000E003E00360006000600060006000600064
:10465000600060006000600060006000600060005A
:104660006000600060006000E003E0030000000004
:1046700030003000600060006000C000C000C0007A
:10468000C0018001800180010003000300030006D7
:104690000006000000000000000000000000000014
:1046A000E003E00300030003000300030003000332
:1046B00000030003000300030003000300030003E2
:1046C0000003000300030003E003E0030000000018
:1046D0000000C001C00160036003600330063006C3
:1046E000180C180C00000000000000000000000082
:1046F00000000000000000000000000000000000BA
:1047000000000000000000000000000000000000A9
:104710000000000000000000000000000000000099
:10472000FFFFFFFF0000000000000000000000008D
:104730000C000C000C000C000C000C000000000031
:104740000000000000000000000000000000000069
:104750000000000000000000000000000000000059
:1047600000000000000000000000F003F8071C0C2F
:104770000C0C000FF00FF80C0C0C0C0C1C0FF80FAD
:10478000F018000000000000000000000000000021
:1047900018001800180018001800D803F80F380C7B
:1047A000181818181818181818181818380CF80F9E
:1047B000D80300000000000000000000000000001E
:1047C00000000000000000000000C003F007300EF1
:1047D000180C1800180018001800180C300EF007FC
:1047E000C003000000000000000000000000000006
:1047F00000180018001800180018C01BF01F301C0B
:10480000181818181818181818181818301CF01F2D
:10481000C01B0000000000000000000000000000BD
:1048200000000000000000000000C003F00F300C8A
:104830001818F81FF81F180018003818301CF00F4F
:10484000C0070000000000000000000000000000A1
:10485000800FC00FC000C000C000F007F007C0000C
:10486000C000C000C000C000C000C000C000C00048
:10487000C000000000000000000000000000000078
:1048800000000000000000000000E00DF80F180E0E
:104890000C0C0C0C0C0C0C0C0C0C0C0C180EF80F5B
:1048A000E00D000C0C0C1C06F807F00100000000E5
:1048B00018001800180018001800D807F80F381C46
:1048C0001818181818181818181818181818181868
:1048D00018180000000000000000000000000000A8
:1048E000C000C000000000000000C000C000C00008
:1048F000C000C000C000C000C000C000C000C000B8
:10490000C0000000000000000000000000000000E7
:10491000C000C000000000000000C000C000C000D7
:10492000C000C000C000C000C000C000C000C00087
:10493000C000C000C000C000F80078000000000007
:104940000C000C000C000C000C000C0C0C060C03F2
:104950008C01CC006C00FC009C018C030C030C0649
:104960000C0C00000000000000000000000000002F
:10497000C000C000C000C000C000C000C000C00037
:10498000C000C000C000C000C000C000C000C00027
:10499000C000000000000000000000000000000057
:1049A000000000000000000000007C3CFF7EC7E328
:1049B00083C183C183C183C183C183C183C183C1D7
:1049C00083C10000000000000000000000000000A3
:1049D000000000000000000000009807F80F381CDD
:1049E0001818181818181818181818181818181847
:1049F0001818000000000000000000000000000087
:104A000000000000000000000000C003F00F300CA8
:104A1000181818181818181818181818300CF00F3B
:104A2000C0030000000000000000000000000000C3
:104A300000000000000000000000D803F80F380C50
:104A4000181818181818181818181818380CF80FFB
:104A5000D803180018001800180018000000000003
:104A600000000000000000000000C01BF01F301C10
:104A7000181818181818181818181818301CF01FBB
:104A8000C01B0018001800180018001800000000D3
:104A900000000000000000000000B007F0037000FC
:104AA0003000300030003000300030003000300086
:104AB00030000000000000000000000000000000C6
:104AC00000000000000000000000E003F003380ECA
:104AD000180C3800F003C007000C180C380EF00753
:104AE000E0030000000000000000000000000000E3
:104AF00000008000C000C000C000F007F007C00048
:104B0000C000C000C000C000C000C000C000C0079E
:104B1000800700000000000000000000000000000E
:104B200000000000000000000000181818181818F5
:104B3000181818181818181818181818381CF01FF2
:104B4000E01900000000000000000000000000006C
:104B5000000000000000000000000C18180C180CE9
:104B6000180C300630063006600360036003C00195
:104B7000C001000000000000000000000000000074
:104B800000000000000000000000C141C141C361FD
:104B90006363636363633636363636361C1C1C1C0F
:104BA0001C1C0000000000000000000000000000CD
:104BB000000000000000000000001C38381C300C11
:104BC000600660036003600360036006300C381CFD
:104BD0001C38000000000000000000000000000081
:104BE00000000000000000000000183030183018ED
:104BF0007018600C600CE00CC006C00680038003D7
:104C0000800380018001C001F000700000000000FE
:104C100000000000000000000000FC1FFC1F000C52
:104C2000000600038001C000600030001800FC1F77
:104C3000FC1F000000000000000000000000000059
:104C400000038001C000C000C000C000C000C00060
:104C500060006000300060004000C000C000C00084
:104C6000C000C000C0008001000300000000000080
:104C7000800180018001800180018001800180012C
:104C8000800180018001800180018001800180011C
:104C9000800180018001800180018001000000000E
:104CA0006000C000C001800180018001800180019E
:104CB0000003000300060003000180018001800161
:104CC000800180018001C000600000000000000041
:104CD0000000000000000000000000000000F010D4
:104CE000F81F080F00000000000000000000000096
:104CF00000000000000000000000000000000000B4
:104D0000000000000000010203040607080900007B
:104D100002400000000000A000000000054000006C
:104D2000000000C8000000000C4000000000409C93
:104D300000000000194000000020BCBE0000000080
:104D400034400000BFC91B8E00000004B5400000C5
:104D5000504BCFD06607E2CF010000006C4100004D
:104D60003E8251AADFEEA73401000000D9420000C4
:104D7000DCB5A0E23A301F97FFFFFFFFB44500000B
:104D8000FD25A0C8E9A3C14FFFFFFFFFFF3F0000C3
:104D90000000008000000000FF3F000000000080D5
:104DA00000000000E04D000800000020540000005A
:104DB00014020008344E000854000020E4060000ED
:104DC000300200081C00000043000000F8FFFFFF55
:104DD0000C0000000E0000000F0000002E0000007C
:104DE0000000000000001E0A1E0A00000000000073
:104DF00000000000000000000000000000000000B3
:104E000000000000000000000000000000000000A2
:104E10000000000000000000000000000000FFFF94
:104E20000000000010000000010000000000000071
:044E30000024F40066
:04000005080001D915
:00000001FF
