:020000040800F2
:10000000780700208102000803240008AD1D0008C5
:10001000012400089F060008712E0008000000005F
:100020000000000000000000000000001B29000884
:100030003507000800000000412500081D290008C0
:100040009B0200089B0200089B0200089B0200081C
:100050009B0200089B0200089B0200089B0200080C
:100060009B0200089B0200089B0200089B020008FC
:100070009B0200089B0200089B0200089B020008EC
:100080009B020008000000009B0200089B02000881
:100090009B0200089B0200089B0200089B020008CC
:1000A0009B0200089B0200089B0200089B020008BC
:1000B0009B0200089B0200089B0200089B020008AC
:1000C0009B0200089B0200089B0200089B0200089C
:1000D0009B0200089B0200089B0200089B0200088C
:1000E0009B0200089B0200089B0200089B0200087C
:1000F0009B0200089B0200089B0200080000000011
:10010000000000009B020008000000009B020008A5
:100110009B020008000000009B0200089B020008F0
:100120009B0200089B0200089B0200089B0200083B
:100130009B02000800000000000000009B02000875
:100140009B0200089B020008000000000000000065
:10015000000000000000000000000000000000009F
:100160000000000000000000000000009B020008EA
:100170009B020008000000000000000000000000DA
:10018000000000009B0200080000000000000000CA
:10019000000000000000000000000000000000005F
:1001A00000000000000000009B0200089B02000805
:1001B0009B0200089B0200089B0200080000000050
:1001C000000000009B02000800000000000000008A
:1001D0009B0200089B02000800F002F800F041F8C2
:1001E0000AA090E8000C82448344AAF10107DA4592
:1001F00001D100F036F8AFF2090EBAE80F0013F0A3
:10020000010F18BFFB1A43F001031847103F00000D
:10021000303F0000103A24BF78C878C1FAD852079E
:1002200024BF30C830C144BF04680C607047000070
:100230000023002400250026103A28BF78C1FBD8EF
:10024000520728BF30C148BF0B607047642900F0D7
:100250007380002070471FB502F062FE1FBD10B50D
:1002600010BD00F0E2F91146FFF7F5FF02F018FEAD
:1002700000F000FA03B4FFF7F2FF03BC00F008FA45
:100280000948804709480047FEE7FEE7FEE7FEE72A
:10029000FEE7FEE7FEE7FEE7FEE7FEE70448054966
:1002A000054A064B7047000089290008D90100085B
:1002B00078010020780700207803002078030020D0
:1002C0000FB41CB5074B06AA7B44694600900598FD
:1002D00000F093F90020694600F0A2F91CBC5DF81B
:1002E00014FB00005503000070B5044685690068E2
:1002F000C10601D5302600E02026C00707D070BD1A
:10030000D4E9012130469047206A401C20626D1ECE
:10031000F6D570BD70B5044685690078C00707D171
:1003200070BDD4E9012120209047206A401C206242
:100330006D1EF6D570BD00002DE9F0410646002483
:1003400010687529314616A510D0AFF3008000283B
:1003500002DA404213A507E031688A0701D512A5E9
:1003600002E0490704D511A5012401E0AFF30080A4
:1003700000210A2206F1240709E0B0FBF2FCB0FBE1
:10038000F2F302FB1C00303078541846491C002858
:10039000F3D123462A463046BDE8F04100F0CEB8FE
:1003A000000000002D0000002B00000020000000D5
:1003B0002DE9F05F894604464FF0000ADFF824B1CA
:1003C000FB44C0F820A02046E168884700287DD083
:1003D000252806D0D4E901219047206A401C2062DC
:1003E000F1E700255F462046E16888472028064659
:1003F00007DB312E05D2B81910F8200C08B10543DF
:10040000F1E7A80701D525F00405C4F81CA00027D2
:10041000C4F818A02A2E09D0304602F03AFD38B3AD
:1004200004EB8708303EC8F8186019E059F8041B3F
:10043000204604EB87029161E1688847012F064658
:1004400018D1E069002820DA25F020051DE0D8F851
:10045000180000EB800006EB40003038C8F81800A8
:100460002046E1688847064602F013FD0028EED1D9
:10047000012F0AD02E2E08D12046E16888477F1C24
:100480000646022F45F02005C4DBA069002803DAE8
:10049000404245F00105A061E80701D025F01005B4
:1004A000A6B1A6F14100192802D8203645F400650E
:1004B0004A463146204625604D46FFF7C7FE60B1EB
:1004C000012807D0ED1D25F0070000E007E000F14E
:1004D000080978E705F1040975E730467AE7206AEC
:1004E000BDE8F09F463D00004FF0000200B5134606
:1004F00094469646203922BFA0E80C50A0E80C5044
:10050000B1F12001BFF4F7AF090728BFA0E80C50F4
:1005100048BF0CC05DF804EB890028BF40F8042BED
:1005200008BF704748BF20F8022B11F0804F18BF5A
:1005300000F8012B70477047704770472DE9F0476E
:100540000D4699469246044600F124080168880643
:1005500004D5E06921F01001216000E00120A842EB
:1005600001DD471B00E00027A1697A1902EB0900B1
:10057000081AA0612078C00602D42046FFF7B4FE16
:10058000002608E0D4E901211AF806009047206A05
:10059000401C761C20624E45F4DB2078C0060AD54C
:1005A0002046FFF7A1FE06E0D4E901213020904764
:1005B000206A401C2062381EA7F10107F4DC07E026
:1005C000D4E9012118F805009047206A401C2062F8
:1005D000281EA5F10105F3DC2046FFF79BFE2078DD
:1005E000000602D50220BDE8F0870120FBE70000ED
:1005F00001694A1C02610878704700B58FB0CDE9E7
:1006000001310021059105497944CDE903101146D6
:100610006846FFF7CDFE0FB000BD0000E5FFFFFF0D
:100620000A6802F8010B0A607047754600F02CF862
:10063000AE4605006946534620F00700854618B0CF
:1006400020B5FFF72BFEBDE820404FF000064FF02D
:1006500000074FF000084FF0000B21F00701AC46F7
:10066000ACE8C009ACE8C009ACE8C009ACE8C00916
:100670008D46704710B50446AFF300802046BDE8B4
:100680001040FFF7F7BD0000004870471801002038
:1006900001491820ABBEFEE7260002007047FEE7C6
:1006A00010B586B014216846FFF71EFF20480024CD
:1006B0001E490594C0E900147D21816041F27071EA
:1006C000C0E903144FF080414461C0E9064104626F
:1006D00000F020FF08B100F03CF817208DF8000072
:1006E0003B208DF8010037208DF80200019403941F
:1006F000002269460E48049400F0D6FF08B100F0CD
:1007000028F801208DF814008DF815008DF81600DA
:100710008DF81740002205A9054800F075FF002854
:1007200001D000F016F806B010BD0000002800400F
:10073000300000207047002240F6B83306E0002168
:10074000491C89B29942FBD3521C92B28242F6D321
:10075000704772B6FEE7000070B5044600F032F94B
:100760000546601C02D004484068044400F02AF9A1
:10077000401BA042FAD370BD200000202DE9F04FAD
:10078000DFF80C92002301260325A9F1040B85B0A4
:100790000F2709F1040AABF1040EF1E006FA03FC9D
:1007A00012EA0C027ED00C7904F00304012C01D073
:1007B000022C20D1846800945C0005FA04F80494AB
:1007C000009C24EA08040094D1F80C80049C08FAE8
:1007D00004F8009C48EA0408C0F80880446824EA49
:1007E0000C0491F804C0CCF3001C0CFA03FC4CEA96
:1007F000040CC0F804C00C79E443A40702D18C684F
:10080000012C0ED0C4684FEA430805FA08FC24EA1C
:100810000C04D1F808C00CFA08FC4CEA040CC0F82F
:100820000CC00C7904F00304022C16D1DC0800EB98
:10083000840CCDF808C0DCF820C05C074FEAD4680F
:1008400007FA08F42CEA040C0C6904FA08F444EAE8
:100850000C04DDF808C0CCF8204004684FEA4308D7
:1008600005FA08FC24EA0C0491F804C00CF0030C0F
:100870000CFA08FC4CEA040CC0F800C04C6814F4F4
:10088000403F7CD0434CD4F860C04CF0010CC4F81D
:1008900060C0246E23F0030C04F0010400943E4C6D
:1008A000644400E06BE00294A4684FEA837C4FEA62
:1008B0001C7807FA08FC24EA0C04B0F1904F06D02B
:1008C000DFF8D8C0604505D14FF0010C20E04FF0B3
:1008D000000C1DE0DFF8C8C0604502D14FF0020CEB
:1008E00016E0DFF8C0C0604502D14FF0030C0FE006
:1008F000DFF8B4C0604502D14FF0040C08E0DFF827
:10090000ACC0604502D14FF0050C01E04FF0060C81
:100910000CFA08FC4CEA040C029CC4F808C0D9F894
:100920000040CC46D1F8048094435FEAC82800D543
:100930001443CCF80040DAF80040D446D1F80480E3
:1009400094435FEA882800D51443CCF80040DBF8D4
:100950000040DC46D1F8048094435FEA883800D533
:100960001443CCF80040DEF80040F446D1F804808F
:1009700094435FEAC83800D51443CCF800405B1CB0
:100980000C682246DC407FF409AF05B0BDE8F08F6B
:10099000080401400010024000000140000400482B
:1009A00000080048000C00480010004800140048EF
:1009B0000069084000D0012070470AB1816170478A
:1009C0008162704701488068704700002000002065
:1009D000024881684268114481607047200000200D
:1009E00010B50024032000F065F8002000F008F89E
:1009F00008B1012401E000F025F8204610BD0000F8
:100A000070B50E4E05460024706898B14FF47A71A7
:100A1000B1FBF0F00A490968B1FBF0F000F0C6FE46
:100A200040B9102D06D200222946501E00F022F8AF
:100A3000356000E00124204670BD00002000002049
:100A40002C0000200A4882B0016E41F001010166CD
:100A5000016E01F001010091816D41F080518165CD
:100A6000806D00F08050009002B000F093B800005C
:100A700000100240F0B40E4B1B680C46C3F3022377
:100A8000C3F10705042D00D90425191D072901D23A
:100A9000002300E0DB1E012606FA05F1491E214075
:100AA00099409E40761E16403143F0BC02F0E1B9F9
:100AB0000CED00E0064900F0070208684FF6FF035E
:100AC000184040EA0220034A1043086070470000C3
:100AD0000CED00E00000FA052B492C4B0A6832218E
:100AE0004A432B4940B1B0F5007F086829D020F473
:100AF000C06040F480602CE00868C0F34120022808
:100B000004D051F8800F20F4807022E0D1F88000EA
:100B100020F48070C1F88000086820F4C06040F4C0
:100B200000700860B2FBF3F0401C00E0401E4A6910
:100B3000520501D50028F9D1486940050AD503209E
:100B40007047C0F34120022806D051F8800F40F4CE
:100B50008070086000207047D1F8800040F48070F9
:100B6000C1F88000086820F4C06040F4007008609C
:100B7000B2FBF3F0401C00E0401E4A695205DBD591
:100B80000028F9D1D8E700002C00002040420F00D7
:100B9000007000400248816841F4804181607047E4
:100BA000007000402DE9F8430446006800269D4D82
:100BB00000035ED5A86D0027C00008D4A86D40F0E2
:100BC0008050A865A86D012700F080500090DFF8E4
:100BD0005892D9F8001041F48071C9F80010FFF75D
:100BE000F1FE804606E000BFFFF7ECFEA0EB080038
:100BF00002282BD8D9F80000C005F5D5D5F890000B
:100C000010F4407014D0216C814211D0D5F89000BE
:100C1000D5F8901020F4407041F48031C5F8901060
:100C2000D5F8901021F48031C5F89010C5F89000E7
:100C3000C00711D0FFF7C6FE804641F2883907E0B1
:100C4000FFF7C0FEA0EB0801494501D903260BE0E0
:100C5000D5F890008007F3D5D5F89000216C20F4EA
:100C600040700843C5F890001FB1A86D20F0805077
:100C7000A8652078C00707D0D5F88800616820F003
:100C800003000843C5F888002078800707D5D5F809
:100C90008800A16820F00C000843C5F8880020787F
:100CA000400707D5D5F88800E16820F030000843F8
:100CB000C5F888002078000707D5D5F88800216995
:100CC00020F0C0000843C5F888002078800607D5CA
:100CD000D5F88800616920F440600843C5F88800B1
:100CE0002078400607D5D5F88800A16920F4405047
:100CF0000843C5F888002078000607D5D5F8880095
:100D0000E16920F440400843C5F888002088C00508
:100D100007D5D5F88800216A20F440300843C5F88B
:100D200088002088800507D5D5F88800616A20F4FE
:100D300040200843C5F88800208840050FD5D5F825
:100D40008800A16A20F440100843C5F88800A06A12
:100D5000B0F5801F03D1E86840F48010E860208877
:100D600000050FD5D5F88800E16A20F4400008435B
:100D7000C5F88800E06AB0F5800F03D1E86840F458
:100D80008010E8602088C0040FD5D5F88800216B5A
:100D900020F040700843C5F88800206BB0F1807FD8
:100DA00003D1E86840F48010E86020884FF00061CB
:100DB00080040ED5D5F88800626B20F040601043A7
:100DC000C5F88800606B884203D1E86840F4801061
:100DD000E860208840040ED5D5F88800A26B20F08A
:100DE00040601043C5F88800A06B884203D1E868D2
:100DF00040F48010E860208800040FD5D5F8880002
:100E0000E16B20F040500843C5F88800E06BB0F17A
:100E1000805F03D1E86840F48030E8603046BDE888
:100E2000F883000000100240007000402DE9F047F8
:100E30000E4605004FF0000725D0DFF8AC81D8F84A
:100E4000000000F00F00B0420CD2D8F8001021F0E2
:100E50000F013143C8F80010D8F8000000F00F006F
:100E6000B04210D12968614CC80741F2883A5AD083
:100E70006868DFF87C91032808D0022820682DD00C
:100E8000400500282CDB0120BDE8F08720688001A8
:100E9000F9D5E06800F00302E068C0F30310401CDD
:100EA000032A19D0534A00BFB2FBF0F0E268C2F344
:100EB00006225043E268C2F34162521C5200B0FB6A
:100EC000F2F0484517D9A06810F0F00F0CD0880751
:100ED00011D5A86840B10EE0474AE5E78003D0E7A6
:100EE00000F092F8484506D9A06820F0F00040F0E4
:100EF0008000A0608027A068696820F00300084394
:100F0000A060FFF75FFD814606E000BFFFF75AFDD6
:100F1000A0EB090151453AD8A068696800F00C00BF
:100F2000B0EB810FF2D12868810714D5400703D5B3
:100F3000A06840F4E060A0602878000705D5A068AC
:100F400020F4605040F4E060A060A068A96820F040
:100F5000F000084304E0802F03D1A06820F0F000E7
:100F6000A060D8F80010404601F00F01B14216D938
:100F7000016821F00F0131430160FFF723FD0746AF
:100F800007E000BFFFF71EFDC11B514501D903203B
:100F90007AE7D8F8000000F00F00B042F2D12878CC
:100FA000400705D5A068E96820F4E0600843A06028
:100FB0002878000706D5A068296920F4605040EA27
:100FC000C100A06000F020F8A1680C4AC1F3031131
:100FD000515C01F01F01C8400949086009480068D8
:100FE000BDE8F047FFF70CBD0020024000100240B2
:100FF00000B4C4040024F40000366E01FA40000876
:101000002C00002020000020184910B58868C0F38B
:1010100081021748012A0BD08A68164BC2F381025D
:10102000022A06D08A68C2F38102032A03D0002074
:1010300010BD184610BDCA6802F00304CA68C2F3A6
:101040000312521C032C02D0B0FBF2F001E0B3FB00
:10105000F2F0CA68C968C2F306225043C1F3416185
:10106000491C4900B0FBF1F010BD00000010024027
:101070000024F40000366E012DE9F84304007AD014
:101080002078F84DC00747D0A868E96800F00C0048
:1010900001F003010C2802D0082817D001E0032931
:1010A00014D06068B0F5803F17D0B0F5A02F286845
:1010B00017D020F480302860286820F48020286031
:1010C0006068E0B1FFF77EFC064614E02868800304
:1010D00022D560680028D2D01EE0286840F4803015
:1010E000EDE740F480202860F7E700BFFFF76AFCD7
:1010F000801B642870D828688003F7D50CE0FFF7C0
:1011000061FC064605E000BFFFF75CFC801B64281D
:10111000F0D828688003F7D4207880074CD5A868D9
:10112000E96800F00C0001F003010C2802D004284B
:101130000DD001E002290AD0E068002828682BD0F1
:1011400040F480702860FFF73DFC064619E02868EF
:10115000400502D5E068002891D06868217C20F025
:10116000FE4040EA01606860BF480068FFF748FC45
:10117000002800D120E072E1FFF724FC801B022848
:10118000B8D828684005F7D56868217C20F0FE4073
:1011900040EA016068600FE020F480702860FFF78B
:1011A00011FC064605E000BFFFF70CFC801B02287F
:1011B000A0D828684005F7D42078000729D56069B1
:1011C0000028D5F8940013D040F00100C5F8940031
:1011D000FFF7F8FB064606E090E000BFFFF7F2FBE2
:1011E000801B022886D8D5F894008007F6D510E039
:1011F00020F00100C5F89400FFF7E4FB064604E088
:10120000FFF7E0FB801B022878D8D5F89400800710
:10121000F6D42078400761D5A86D0026C00008D418
:10122000A86D40F08050A865A86D012600F08050A0
:1012300000908E480168C90511D40168804641F4C8
:1012400080710160FFF7BEFB074604E0FFF7BAFBC1
:10125000C01B022852D8D8F80000C005F6D5A068F7
:10126000012815D00528D5F8900016D020F00100EF
:10127000C5F89000D5F8900020F00400C5F8900063
:10128000A06841F28838B8B1FFF79CFB07460EE032
:10129000D5F8900040F00100F0E740F00400C5F8F8
:1012A0009000F5E7FFF78EFBC11B414526D8D5F826
:1012B00090008007F6D50CE0FFF784FB074604E0BA
:1012C000FFF780FBC11B414518D8D5F89000800777
:1012D000F6D41EB1A86D20F08050A8652078800655
:1012E00029D5A0690028D5F8980013D040F0010056
:1012F000C5F89800FFF766FB064606E075E000BFFC
:10130000FFF760FB801B02286FD8D5F89800800794
:10131000F6D510E020F00100C5F89800FFF752FB69
:10132000064604E0FFF74EFB801B02285DD8D5F887
:1013300098008007F6D4E069F0B3A968C1F3810191
:1013400003295DD00228286820F08070286003D02F
:10135000FFF738FB04464BE0FFF734FB064604E09A
:10136000FFF730FB801B02283FD828688001F7D4A4
:10137000F4E908016FF00F0202EB01110843218A22
:101380005204490802EB4151A26841EA0221084394
:10139000217D4FF07E42490802EB41610843217BE9
:1013A00040EAC160E968324A11400843E8602868B1
:1013B00040F08070286000E05EE0E86840F08070F7
:1013C000E860FFF7FFFA044605E000BFFFF7FAFA0E
:1013D000001B022809D828688001F7D54CE000BF1F
:1013E000FFF7F0FA001B022802D90320BDE8F883BA
:1013F00028688001F4D4E8681E490840E8603BE0B2
:101400000128F3D0E868226A00F00301914226D156
:10141000616A00F0F0020901103991421FD1A26AFD
:1014200000F4FE41B1EB022F19D194F82C2000F00A
:101430007841B1EBC26F12D1218E00F4C00249088D
:101440004905A1F50011914209D194F8341000F03A
:10145000C06049084906A1F1007181420CD0012009
:10146000C4E700000010024020000020007000408F
:101470000C809F01FCFFEEFE0020B7E710B500686E
:101480000B4641680D480140080CD870C1F3042494
:101490005C7001F03F049C70C1F34231197052B985
:1014A00001F0D9F9D870587801F0D5F958709878CA
:1014B00001F0D1F99870002010BD00003FFFFF003F
:1014C00010B50B4601688968596001680969C1F364
:1014D0000E019960006801680D480140C1F30540A4
:1014E0001870C1F306245C7001F07F049C70890DB4
:1014F000D97052B901F0AFF91870587801F0ABF912
:101500005870987801F0A7F99870002010BD00007D
:101510007F7F7F0070B504004FF0010040D094F849
:10152000250028B9002084F82400204600F040F867
:10153000022084F825002068C168C943C90630D557
:10154000CA214162216853204862204601F098F97F
:1015500010BB20688169154A114081612168886942
:101560006268A369104322691A4310438861218984
:10157000E06840EA014021680861204601F0A5F9D1
:1015800050B9D4E90721114322686369956925F0B0
:1015900060452B43194391612268FF21516208B1D4
:1015A00070BD0020012184F8251070BDBFFF8FFBA6
:1015B00010B592B0044644216846FEF795FF1049E5
:1015C000206888421AD14FF4002000904FF44070F8
:1015D00010906846FFF7E6FA08B1FFF7BAF8094835
:1015E00050F8901F41F4004140F83819016841F467
:1015F00080610160006800F48060119012B010BD3D
:10160000002800400010024070B5044690F8240005
:101610000B4601281BD0012684F82460022084F8A0
:101620002500B2B19878D97840EA01455878197800
:10163000000240EA413005432168CA20486221681F
:1016400053204862204601F01BF9D0B120E002206F
:1016500070BD5878C10603D500F0EF000A3058700D
:10166000D87801F001F90504587801F0FDF845EA51
:101670000025987801F0F8F80543187845EA4035D8
:10168000DAE70848054020684560204601F01DF96A
:101690002268FF21516208B984F82560002184F88E
:1016A000241070BD3FFFFF002DE9F041044690F883
:1016B000240090460D46012811D0012784F824709B
:1016C000022084F825002168CA204862216853203E
:1016D0004862204601F0D4F8002618B129E0022023
:1016E000BDE8F0812068B8F1000F80694FEA4060E2
:1016F00024D0002800DBEE70A8782978EA7840EA48
:1017000001406978090241EA8251084318490840BA
:10171000216808602068816921F480218161D5E910
:101720000301084321688A6910438861204601F05B
:10173000CCF82268FF215162A0B115E0002800DB3F
:10174000EE70287801F090F80304687801F08CF8C6
:1017500043EA0023A87801F087F80343E87843EAD6
:101760008050D3E784F8257084F82460B8E700003F
:101770007F7F7F0070B504460B482168C860FFF783
:1017800021F905464FF47A7607E000BFFFF71AF912
:10179000401BB04201D9032070BD2068C06880069C
:1017A000F4D5002070BD00005F00010010B5401EA0
:1017B000B0F1807F01D3012010BD4FF0E0246061C3
:1017C0000F21601701F055FB0020A0610720206168
:1017D000002010BD30B590F83C20012A42D00122F3
:1017E00080F83C20CA688B6822F440721A434B6828
:1017F00022F480621A430B6822F400621A430B69D8
:1018000022F480521A434B6922F400521A430B6BA4
:1018100022F480421A430B8B22F4702242EA0342E4
:10182000CB6922F080521A430F4D03680024AB426B
:1018300002D00E4DAB4210D10D8D22F4700242EA5F
:1018400005520D6A22F080722A434D6A22F000721E
:101850002A43C96A22F000520A435A6480F83C4085
:10186000002030BD022030BD002C0140003401407A
:10187000F0B590F83C20012A3AD0012580F83C5080
:10188000022280F83D2003685A689C68194E1A4F5E
:10189000B34201D0BB4204D122F4700C4A6842EA40
:1018A0000C02DFF858C002EA0C02D1F800C04CEA82
:1018B000020CC3F804C00268B2420DD0B2F1804FEE
:1018C0000AD00F4B9A4207D00E4B9A4204D0BA422C
:1018D00002D00D4B9A4204D1896824F08003194349
:1018E000916080F83D50002180F83C100846F0BD22
:1018F0000220F0BD002C0140003401408FFFFFFDAD
:1019000000040040000800400040014010B5040001
:1019100003D094F83D0010B107E0012010BD002075
:1019200084F83C00204600F023F8022084F83D00B3
:10193000211D206801F030F8012084F8480084F867
:101940003E0084F83F0084F8400084F8410084F8A9
:10195000420084F8430084F8440084F8450084F889
:10196000460084F8470084F83D00002010BD0000C8
:1019700008B50C4A01680C48914207D1816D41F0CD
:1019800002018165806D00F0020009E0074A914282
:1019900007D1016E41F480210166006E00F48020C1
:1019A000009008BD000400400010024000480140C3
:1019B00070B5044690F83C000025012814D001269B
:1019C00084F83C60022084F83D0022689068364B21
:1019D000184020F47F409060086870282ED010DCFA
:1019E00010F00F0F03D021E04FF0020070BD4FEA5E
:1019F0002012072A1AD2DFE802F0525252524A3815
:101A000040002A4BC21A984249D009DCB0F5805FE9
:101A10000DD0B0F5005F1CD0B0F1101F06D13EE034
:101A2000102A3CD0202A3AD0502A38D0012584F8F8
:101A30003D60002084F83C00284670BDCB68D1E9A9
:101A40000121206801F011F82068816841F07701D8
:101A500009E0CB68D1E90121206801F006F820688F
:101A6000816841F480418160E1E7CA684968206883
:101A700001F0B0F95021206806E0CA684968206882
:101A800001F0D6F96021206800F0FAFFCFE7CA68BC
:101A90004968206801F09EF940212068F4E7226837
:101AA00001461046F0E7000088FFCEFF200010003E
:101AB00030B587B0044614216846FEF715FD24684A
:101AC000164D0023164A02214FF09040AC420DD132
:101AD000D46C44F00104D464D26CCDE9023102F03C
:101AE000010205924022CDE9002110E00D4DAC42EB
:101AF00011D1D46C44F00104D464D26CCDE902312C
:101B000002F0010205928022CDE900210121049119
:101B10006946FEF733FE07B030BD00000004004008
:101B2000001002400048014070B5044690F83C00A7
:101B300000260D4601280BD0012084F83C000C2A19
:101B40004AD007DC82B1042A20D0082A06D131E02D
:101B5000022070BD102A53D0142A63D00126002021
:101B600084F83C00304670BD206800F093FF206888
:101B7000816941F0080181612068816921F00401D7
:101B80008161206881692A69114311E0206800F0B1
:101B9000D3FF2068816941F4006181612068816917
:101BA00021F480618161206881692A6941EA02210A
:101BB0008161D4E7206801F009F82068C16941F02B
:101BC0000801C1612068C16921F00401C161206878
:101BD000C1692A69114311E0206801F041F82068C9
:101BE000C16941F40061C1612068C16921F480616B
:101BF000C1612068C1692A6941EA0221C161AEE779
:101C0000206801F077F82068016D41F00801016556
:101C10002068016D21F0040101652068016D2A69C9
:101C2000114311E0206801F09DF82068016D41F436
:101C3000006101652068016D21F480610165206803
:101C4000016D2A6941EA0221016588E710B50400A7
:101C500003D094F83D0010B107E0012010BD002032
:101C600084F83C00204600F022F8022084F83D0071
:101C7000211D206800F090FE012084F8480084F8BF
:101C80003E0084F83F0084F8400084F8410084F866
:101C9000420084F8430084F8440084F8450084F846
:101CA000460084F8470084F83D00002010BD7047CE
:101CB00030B50446022269B1042912D0082917D090
:101CC0000C291CD0102921D094F84300012824D0DD
:101CD000012030BD94F83E000128F9D184F83E205F
:101CE0001DE094F83F000128F2D184F83F2016E06F
:101CF00094F840000128EBD184F840200FE094F8DC
:101D000041000128E4D184F8412008E094F8420021
:101D10000128DDD184F8422001E084F8432001222B
:101D2000206800F095FE194B20681949194A98421D
:101D300009D0884207D0904205D0174DA84202D062
:101D4000164DA84203D1456C45F400454564206812
:101D500098420CD0B0F1804F09D0114B984206D078
:101D6000104B984203D0884201D0904207D181683D
:101D70000D4A1140062906D0B1F5803F03D0016815
:101D800041F001010160002030BD0000002C014045
:101D9000003401400040014000440140004801403F
:101DA000000400400008004007000100FEE70000BA
:101DB000F0B587B014216846FEF796FB3248C16C37
:101DC00041F00401C164C16C01F004010591C16CD2
:101DD00041F02001C164C16C01F020010591C16C8A
:101DE00041F00101C164C16C01F001010591C16CB8
:101DF00041F00201C164C16C01F002010591C16CA6
:101E000041F00801C164C06C204E00F008004FF49E
:101E10007F440590012221463046FEF7CEFD1C4F3F
:101E2000002204213846FEF7C8FD0125CDE9004512
:101E300000240294694630460394FEF79FFCCDE9E6
:101E400000544FF09046694630460294FEF796FCE7
:101E50000720CDE9000469460E480294FEF78EFC87
:101E600004200090CDE90154694638460394FEF7FA
:101E700085FC30200090CDE901546946304603943A
:101E8000FEF77CFC07B0F0BD0010024000080048DF
:101E9000000C0048000400480E4810B501680E4CC4
:101EA000A268891A322912D90068A06000F016F8D9
:101EB000A070617920EA0102414081432271617181
:101EC000E070012804D0022801D10F20A07110BDBC
:101ED000F020FBE7280000200800002070B5104D1E
:101EE000002401212846FEF763FD80B10221284627
:101EF000FEF75EFD68B104212846FEF759FD50B19A
:101F000001214FF09040FEF753FD30B106E001246F
:101F100004E0022402E0032400E00424204670BD13
:101F20000004004800B585B014216846FEF7DCFACD
:101F30004FF6FF70009000200321CDE902010190CF
:101F400069460248FEF71AFC05B000BD00080048CB
:101F500000B585B014216846FEF7C6FA4FF6FF704B
:101F60000090012001900320039000200290694618
:101F70000248FEF703FC05B000BD00000008004861
:101F800070B5002406462146204600F003F900F013
:101F900041F94FF49635304600F010F9641CAC421C
:101FA000F9D370BD30B587B014216846FEF79CFAAE
:101FB0001E48C16C41F00401C164C16C01F0040110
:101FC0000591C16C41F00101C164C16C01F00101D6
:101FD0000591C16C41F00201C164C06C012500F0A3
:101FE000020005904FF44870CDE9000500240394E9
:101FF000694602940E48FEF7C1FB28020394009044
:10200000CDE901544FF0904469462046FEF7B6FBF7
:10201000FFF79EFFA06940F48070A061044818306B
:10202000016841F40871016007B030BD0010024042
:1020300000040048203AD2B2034B02EB420203EB09
:10204000021200F019B800002A2F0008F0B50E4661
:102050000746002540F23F1407E021463846FFF7C7
:10206000E9FF103C6D1CA4B2761C3278002A01D026
:10207000142DF2D3F0BD00002DE9F04791468A46B9
:102080000026044600F086F8DFF84080012700BFF4
:1020900000F0C0F85FF0000539F8160007FA05F106
:1020A0000842404601D1408800E0008800F086F8F0
:1020B0006D1C102DF0D3641CE4B25146204600F094
:1020C00069F8761C182EE3D3BDE8F08700000020E5
:1020D00010B5FFF767FF002000F014F8084CA0804F
:1020E000A088A0F50241303906D000F0B3FA0020F4
:1020F00000F008F8A08010BD00F023FAF7E7000018
:102100000000002070B51D490A6842F400720A60A0
:102110000A6842F480720A60184C103C226842F04F
:1021200020022260164A1060086840F02000086013
:1021300000BF00BF00BF206840F020002060206882
:1021400040F480702060FFF7EDFE4FF09041886A08
:1021500040F48070886200BF00BF00BF0848001FC5
:10216000006885B2886940F480708861FFF7F0FEEE
:10217000206840F400702060284670BD28040048A4
:102180001408004801B5BDF800000149488008BDA9
:102190000000002010B50C460146202000F068F831
:1021A0002146BDE81040212000F062B801B5BDF81D
:1021B00000000149088008BD00000020134A116892
:1021C00041F400711160114910390B6843F48073B8
:1021D0000B600B6843F020030B600D4B1860106818
:1021E00040F02000106000BF00BF00BF086840F052
:1021F00020000860086840F48070086000BF00BFDD
:1022000000BF086840F40070086070472804004868
:10221000140800481449086840F400700860086811
:1022200040F48070086010481038026842F02002C4
:1022300002600E4B22221A600A6842F020020A60F5
:1022400000BF00BF00BF016841F0200101600168CC
:1022500041F48071016000BF00BF00BF016841F41C
:10226000007101607047000028040048140800480D
:10227000184B10B51A6842F400721A601A6842F4DA
:1022800080721A60134A103A146844F020041460F3
:10229000114C2060186840F02000186000BF00BF9B
:1022A00000BF106840F020001060106840F480709B
:1022B00010602160186840F02000186000BF00BF67
:1022C00000BF106840F020001060106840F480707B
:1022D000106010BD280400481408004838B5204894
:1022E0000168204C2269891AC82938D90068206100
:1022F0001DA12248FDF7E4FF20491820FFF7A6FEA4
:10230000E2791FA11D48FDF7DBFF1C494820FFF7BC
:102310009DFE637822781CA11848FDF7D1FF17496C
:10232000D820FFF793FE002204F114011A48FFF7AA
:10233000A5F81249002214311748FFF7C1F80F48D9
:102340001430817800914378027814A11438FDF795
:10235000B7FFBDE8384009497820FFF777BE38BDA0
:1023600028000020080000202043757272656E74FA
:1023700020506C6174666F726D000000F0000020E8
:1023800020202531640000005041343A2531642C6E
:102390005041353A25316400300000202530326448
:1023A0002D253032642D25303264000070B5124D79
:1023B000044601224FF47F412846FEF7FEFA0F4EF5
:1023C000012204213046FEF7F8FA002204213046AB
:1023D000FEF7F3FA210200222846FEF7EEFA012268
:1023E00004213046FEF7E9FA3046BDE8704000228D
:1023F0000421FEF7E2BA000000080048000C004883
:10240000FEE7FEE710B58EB0002407940894099407
:102410000A940B940C941C2168460D94FEF764F802
:102420001F481E4901604F21C0E9011440F2E73105
:10243000C0E903148461FFF769FA08B1FEF789F96E
:102440004FF48050079007A91548FFF7B1FA08B17B
:10245000FEF77FF91248FFF7F9FB08B1FEF779F9AB
:102460000B940BA90E480D94FFF702FA08B1FEF782
:1024700070F9602000904FF44870CDE9010400220B
:10248000694607480494FFF74FFB08B1FEF761F96E
:102490000348FFF70DFB0EB010BD00000004004024
:1024A0005800002010B594B01C210DA8FEF71CF8B0
:1024B00034216846FEF718F820481F4900240160BF
:1024C0004F21C0E9011440F2F311C0E90314446143
:1024D0008461FFF71BFA08B1FEF73BF91748FFF7D5
:1024E000B5FB08B1FEF735F960200D904FF49670FA
:1024F000CDE90E0410941194129400220DA90F48F6
:102500001394FFF711FB08B1FEF723F900944FF481
:102510000050CDE904400194029403940694694666
:1025200006480C94FFF756F908B1FEF712F9034874
:10253000FFF7BEFA14B010BD00480140A40000200F
:10254000704730B501210020FFF792FE4FF47A70FA
:10255000FEF7F1F800210120FFF78AFE41F29071A9
:102560001020FFF785FE4FF41C516020FFF780FE1E
:1025700001216120FFF77CFE02214620FFF778FE53
:1025800048F210011320FFF773FE48F2FE011220FB
:10259000FFF76EFE4FF4A0610220FFF769FE41F2E3
:1025A00030010320FFF764FE40F20334214630205F
:1025B000FFF75EFE21463120FFF75AFE214632200A
:1025C000FFF756FEE51E29463320FFF751FE032193
:1025D0003420FFF74DFE21463520FFF749FE142138
:1025E0003620FFF745FE21463720FFF741FE214602
:1025F0003820FFF73DFE21463920FFF739FE2946F6
:102600003A20FFF735FE03213B20FFF731FE21463C
:102610003C20FFF72DFE4FF4A0513D20FFF728FE90
:102620004FF400719220FFF723FE21469320FFF71D
:102630001FFE40F60D019020FFF71AFE41F218012F
:102640000320FFF715FEBDE8304040F2731107206C
:10265000FFF70EBE10B543F20801E320FFF708FEB6
:102660001221E720FFF704FE41F23121EF20FFF7AE
:10267000FFFD00210120FFF7FBFD4FF4E061022088
:10268000FFF7F6FD41F230010320FFF7F1FD0021D5
:102690000420FFF7EDFD40F207210820FFF7E8FDD9
:1026A00000210920FFF7E4FD00210A20FFF7E0FDEB
:1026B00000210C20FFF7DCFD00210D20FFF7D8FDE5
:1026C00000210F20FFF7D4FD00211020FFF7D0FDDF
:1026D00007211120FFF7CCFD00211220FFF7C8FDD4
:1026E00000211320FFF7C4FDC820FEF735F841F2A2
:1026F00090611020FFF7BCFD40F227211120FFF769
:10270000B7FD3220FEF728F81D211220FFF7B0FD9B
:102710003220FEF721F84FF400611320FFF7A8FDE7
:1027200014212920FFF7A4FD0B212B20FFF7A0FD8A
:102730003220FEF711F800212020FFF799FD00213B
:102740002120FFF795FD07213020FFF791FD40F292
:1027500007713120FFF78CFD06213220FFF788FD3D
:1027600040F204713520FFF783FD41F604713620F5
:10277000FFF77EFD04213720FFF77AFD0021382086
:10278000FFF776FD40F206713920FFF771FD40F248
:1027900001713C20FFF76CFD0F213D20FFF768FD24
:1027A00000215020FFF764FDEF215120FFF760FD6D
:1027B00000215220FFF75CFD40F23F115320FFF74C
:1027C00057FD4FF41C516020FFF752FD012161209D
:1027D000FFF74EFD00216A20FFF74AFD002180200F
:1027E000FFF746FD00218120FFF742FD00218220F6
:1027F000FFF73EFD00218320FFF73AFD00218420F2
:10280000FFF736FD00218520FFF732FD10219020D3
:10281000FFF72EFD00219220FFF72AFD03219320D0
:10282000FFF726FD4FF488719520FFF721FD002169
:102830009720FFF71DFD00219820FFF719FD41F2B9
:1028400018010320FFF714FDBDE8104040F273119A
:102850000720FFF70DBD010901EB810100F00F001A
:1028600000EB4100C0B270470022014602E00A3985
:10287000C9B2521C0A29FAD2100741EA1060704707
:102880002DE9F041044600680025C168490619D4C5
:10289000C16841F08001C160FEF794F806464FF42C
:1028A0007A78032708E000BFFEF78CF8801B4045CC
:1028B00002D9032584F825702068C068400601D439
:1028C000032DF1D12846BDE8F08170B504460068BB
:1028D0000025C16821F08001C160206881694FF046
:1028E0000306890607D42046FEF744FF98B184F812
:1028F000256003250FE0816921F0200181612046D8
:10290000FEF738FF10B184F825600325206881693F
:1029100041F020018161284670BD7047FEF758B82C
:1029200010B594B038216846FDF7DEFD14210EA8DD
:10293000FDF7DAFD4FF40070FEF7CEF801200090AD
:102940000004019002200324CDE907041421CDE9FD
:102950000A100C900D9009946846FEF78DFB08B1A3
:10296000FDF7F7FE0F20CDE90E0400201090119026
:10297000129002210EA8FEF759FA002801D0FDF7A7
:10298000E8FE14B010BD00000248016841F4700177
:102990000160704788ED00E02DE9F0430268254BA7
:1029A000254D264E264C4FF08049984207D0484589
:1029B00005D0A84203D0B04201D0A04203D122F0FA
:1029C00070074A683A431F4FDFF87CC0DFF87C800D
:1029D00098420DD048450BD0A84209D0B04207D04C
:1029E000A04205D0B84203D0604501D0404503D194
:1029F00022F44075CA682A434D6922F080022A43B6
:102A00008D68C5620D688562984207D0A04205D0E6
:102A1000B84203D0604501D0404501D10969016346
:102A2000016841F004010160012141610260BDE8DB
:102A3000F0830000002C014000040040000800402A
:102A40000034014000400140004401400048014082
:102A500010B501F01F030121046A99408C43046200
:102A6000016A9A401143016210BD10B5846842EAC0
:102A7000032224F47F440A432243826010BD0000F5
:102A80008268034B1A400A4342F007018160704795
:102A90008FFFCFFF2DE9F043056A026A22F00102A1
:102AA0000262436882691E4C25F0020522400C68D0
:102AB00022F0030214438A681B4E2A43194D1B4F10
:102AC000DFF86CC0DFF86C90A84207D0B04205D0A8
:102AD000B84203D0604501D048450AD1D0F82080E3
:102AE00028F00408C0F8208022F00808CA6842EAEA
:102AF0000802A84207D0B04205D0B84203D06045D2
:102B000001D0484505D14D6923F440731D438B69BD
:102B10002B4343608461496841630262BDE8F083EE
:102B20008FFFFEFF002C01400034014000400140B7
:102B30000044014000480140F0B5056A026A22F0F5
:102B400010020262426883691A4C1C4E23400C68D2
:102B500023F4407343EA042425F020038D6843EAFC
:102B60000513154DA84201D0B04208D1076A27F0DD
:102B700040070762CF6823F0800343EA0713A842A7
:102B80000AD0B04208D00E4DA84205D00D4DA84243
:102B900002D00D4DA84207D14D6922F4406242EAAD
:102BA00085028D6942EA85024260846149688163D9
:102BB0000362F0BDFF8FFFFE002C01400034014096
:102BC000004001400044014000480140F0B5056A62
:102BD000026A22F4807202624268C3691A4C1C4E77
:102BE00023400C6823F003031C4325F400738D6815
:102BF00043EA0523154DA84201D0B04208D1076A27
:102C000027F480670762CF6823F4006343EA072351
:102C1000A8420AD0B04208D00E4DA84205D00E4DB1
:102C2000A84202D00D4DA84207D14D6922F440526E
:102C300042EA05128D6942EA05124260C4614968A0
:102C4000C1630362F0BD00008FFFFEFF002C014056
:102C50000034014000400140004401400048014070
:102C6000F0B5056A026A22F4805202624268C369C2
:102C70001A4C1C4E23400C6823F4407343EA04248E
:102C800025F400538D6843EA0533154DA84201D061
:102C9000B04208D1076A27F480470762CF6823F45F
:102CA000004343EA0733A8420AD0B04208D00E4D91
:102CB000A84205D00D4DA84202D00D4DA84207D123
:102CC0004D6922F4404242EA85128D6942EA85123A
:102CD0004260C461496801640362F0BDFF8FFFFE7A
:102CE000002C0140003401400040014000440140FC
:102CF0000048014030B5056A026A22F4803202625F
:102D00004268036D114C23400C681C4325F40033CA
:102D10000D8943EA05430E4DA8420BD00D4DA84244
:102D200008D00D4DA84205D00C4DA84202D00C4D44
:102D3000A84204D14D6922F4803242EA0522426061
:102D4000046549688164036230BD00008FFFFEFFA7
:102D5000002C01400034014000400140004401408B
:102D60000048014030B5046A026A22F4801202620F
:102D70004268036D114D24F400142B400D6843EAA2
:102D800005230D8944EA05540D4DA8420BD00D4D85
:102D9000A84208D00C4DA84205D00C4DA84202D044
:102DA0000B4DA84204D14D6922F4802242EA8522CB
:102DB000426003654968C164046230BDFF8FFFFE55
:102DC000002C01400034014000400140004401401B
:102DD0000048014010B5036A046A24F0010404624B
:102DE0000E4CA0420BD00E4CA04208D00D4CA0427D
:102DF00005D00D4CA04202D00C4CA04203D1046A75
:102E000024F004040462846924F0F00444EA021407
:102E100023F00A020A438461026210BD002C0140C3
:102E2000003401400040014000440140004801409E
:102E300010B5036A046A24F0100404620A4CA0422C
:102E400002D00A4CA04203D1046A24F04004046278
:102E5000846923F0A00324F4704444EA023243EA74
:102E600001118261016210BD002C0140003401405B
:102E7000FEE70907090E002804DB00F1E02080F8D6
:102E80000014704700F00F0000F1E02080F8141DDE
:102E9000704730380A2801D201207047002070475F
:102EA000FDF79EFDFFF73CFDFDF7FAFBFEF780FF07
:102EB000FFF70EF94FF6FF742046FFF761F8002088
:102EC000FFF774F92046FFF75DF9FFF79BFA104909
:102ED0004FF4FA700968486300210D48FEF7E8FED8
:102EE000FFF7E0FA00210B48FEF7E2FE0A4C0B4D1B
:102EF000FEF7D2FF2068E968401AC82804D9206884
:102F0000E860A879FFF752FAFFF7E8F9F0E7000068
:102F100058000020A4000020280000200800002005
:102F20004FF04070E1EE100A704700000000000012
:102F30000000000000000000000000000000000091
:102F40000000000000000000000000000000000081
:102F5000000000000000000000000000800180016F
:102F60008001800180018001800180018001800159
:102F700080018001800100000000800180010000CC
:102F80000000000000000000000000000000CC0075
:102F9000CC00CC00CC00CC00CC0000000000000035
:102FA0000000000000000000000000000000000021
:102FB0000000000000000000000000000000000011
:102FC000000000000000600C600C600C3006300651
:102FD000FE1FFE1F300638071803FE1FFE1F1803D2
:102FE00018038C018C018C01000000008000E003BC
:102FF000F80F9C0E8C1C8C188C009800F801E007D0
:10300000800E801C8C188C189C18B80CF00FE003F4
:1030100080008000000000000000000000000000B0
:103020000E181B0C110C11061106110311039B0144
:103030008E01C038C06C6044604430443044184451
:10304000186C0C380000000000000000E001F003E4
:103050003807180618063003F001F000F8009C311C
:103060000E33061E061C061C063FFC73F0210000F2
:1030700000000000000000000000000000000C0044
:103080000C000C000C000C000C0000000000000004
:103090000000000000000000000000000000000030
:1030A000000000000000000000000000000200031B
:1030B0008001C000C00060006000300030003000BF
:1030C0003000300030003000300060006000C00090
:1030D000C00080010003000200000000200060002A
:1030E000C000800180010003000300060006000606
:1030F000000600060006000600060003000380012B
:103100008001C000600020000000000000000000FE
:10311000000000000000C000C000D806F807E00171
:10312000300338070000000000000000000000002D
:10313000000000000000000000000000000000008F
:1031400000000000000080018001800180018001FA
:10315000FC3FFC3F80018001800180018001000074
:10316000000000000000000000000000000000005F
:10317000000000000000000000000000000000004F
:10318000000000000000000000000000800180013D
:1031900000010001800000000000000000000000AD
:1031A000000000000000000000000000000000001F
:1031B0000000E007E0070000000000000000000041
:1031C00000000000000000000000000000000000FF
:1031D00000000000000000000000000000000000EF
:1031E000000000000000000000000000C000C0005F
:1031F000000000000000000000000000000C000CB7
:10320000000600060006000300030003800380019F
:1032100080018001C000C000C000600060000000AC
:10322000000000000000000000000000E003F007C4
:10323000380E180C0C180C180C180C180C180C184C
:103240000C180C180C18180C380EF007E0030000CE
:1032500000000000000000000000000000018001EC
:10326000C001F00198018801800180018001800186
:1032700080018001800180018001800180010000C7
:10328000000000000000000000000000E003F80F54
:10329000180C0C180C1800180018000C000600037D
:1032A0008001C000600030001800FC1FFC1F0000FF
:1032B000000000000000000000000000E001F8072E
:1032C000180E0C0C0C0C000C0006C003C007000C00
:1032D000001800180C180C18180CF807E003000070
:1032E000000000000000000000000000000C000EC4
:1032F000000F000F800DC00C600C600C300C180C1F
:103300000C0CFC3FFC3F000C000C000C000C0000FF
:10331000000000000000000000000000F80FF80F9F
:10332000180018000C00EC03FC071C0E001C001811
:10333000001800180C181C0C180EF807E003000009
:10334000000000000000000000000000C007F00FB7
:10335000381C181818000C00CC03EC0F3C0E1C1C79
:103360000C180C180C18181C380EF007E00300009D
:10337000000000000000000000000000FC1FFC1F17
:10338000000C00060006000380038001C001C0009D
:10339000E00060006000700030003000300000008D
:1033A000000000000000000000000000E003F00743
:1033B000380E180C180C180C3806F007F007180C0B
:1033C0000C180C180C180C18380CF80FE00300003F
:1033D000000000000000000000000000E003F00713
:1033E000380E1C0C0C180C180C181C1C381EF81B62
:1033F000E0190018000C000C1C0EF807F00100008A
:1034000000000000000000000000000000000000BC
:1034100000000000000080018001000000000000AA
:10342000000000000000000000008001800100009A
:10343000000000000000000000000000000000008C
:10344000000000000000800180010000000000007A
:103450000000000000000000000080018001000169
:1034600000018000000000000000000000000000DB
:10347000000000000000000000000010001C800F91
:10348000E003F8001800F800E003800F001C0010B3
:10349000000000000000000000000000000000002C
:1034A00000000000000000000000F81F0000000005
:1034B0000000F81F000000000000000000000000F5
:1034C00000000000000000000000000000000000FC
:1034D0000000000000000000000008003800F001BB
:1034E000C007001F0018001FC007F00138000800C7
:1034F000000000000000000000000000E003F80FE2
:10350000180C0C180C180018000C000600038001A1
:10351000C000C000C00000000000C000C0000000EB
:103520000000000000000000000000000000E007B4
:1035300018180420C229224A1144094409440944A4
:1035400009221113E20C024004201818E0070000C1
:103550000000000000000000000000008003800365
:10356000C006C006C006600C600C30183018301859
:10357000F83FF83F1C700C600C6006C006C00000ED
:10358000000000000000000000000000FC03FC0F31
:103590000C0C0C180C180C180C0CFC07FC0F0C185D
:1035A0000C300C300C300C300C18FC1FFC070000E9
:1035B000000000000000000000000000C007F01F35
:1035C00038381C300C700660060006000600060045
:1035D0000600060006600C701C30F01FE0070000BB
:1035E000000000000000000000000000FE03FE0FCD
:1035F000060E06180618063006300630063006306D
:103600000630063006180618060EFE0FFE030000F0
:10361000000000000000000000000000FC3FFC3F34
:103620000C000C000C000C000C00FC1FFC1F0C001C
:103630000C000C000C000C000C00FC3FFC3F0000D8
:10364000000000000000000000000000F83FF83F0C
:1036500018001800180018001800F81FF81F1800AC
:1036600018001800180018001800180018000000B2
:10367000000000000000000000000000E00FF83F24
:103680003C780E6006E007C00300030003FE03FE63
:1036900003C007C006C00EC03CF0F83FE00F0000BA
:1036A0000000000000000000000000000C300C30A2
:1036B0000C300C300C300C300C30FC3FFC3F0C302C
:1036C0000C300C300C300C300C300C300C30000056
:1036D00000000000000000000000000080018001E8
:1036E00080018001800180018001800180018001D2
:1036F0008001800180018001800180018001000043
:1037000000000000000000000000000000060006AD
:103710000006000600060006000600060006000679
:1037200000060006180618063807F003E00100003E
:103730000000000000000000000000000630061835
:10374000060C060606038601C60066007600DE004B
:103750008E0106030606060C0618063006600000F9
:103760000000000000000000000000001800180029
:103770001800180018001800180018001800180089
:1037800018001800180018001800F81FF81F000093
:103790000000000000000000000000000EE01EF02D
:1037A0001EF01EF036D836D836D836D866CC66CC61
:1037B00066CCC6C6C6C6C6C6C6C686C386C3000015
:1037C0000000000000000000000000000C301C3071
:1037D0003C303C306C306C30CC30CC308C310C33E5
:1037E0000C330C360C360C3C0C3C0C380C30000006
:1037F000000000000000000000000000E007F81FCB
:103800001C380E70066003C003C003C003C003C0B1
:1038100003C003C006600E701C38F81FE0070000EC
:10382000000000000000000000000000FC0FFC1F72
:103830000C380C300C300C300C300C18FC1FFC0712
:103840000C000C000C000C000C000C000C00000024
:10385000000000000000000000000000E007F81F6A
:103860001C380E70066003E003C003C003C003C031
:1038700003C007E006630E3F1C3CF83FE0F700C0C2
:10388000000000000000000000000000FE0FFE1F0E
:1038900006380630063006300638FE1FFE070603DF
:1038A0000606060C061806180630063006600000EC
:1038B000000000000000000000000000E003F80F1E
:1038C0001C0C0C180C180C001C00F803E00F001E58
:1038D0000038063006300E301C1CF80FE0070000E0
:1038E000000000000000000000000000FE7FFE7FDE
:1038F00080018001800180018001800180018001C0
:103900008001800180018001800180018001000030
:103910000000000000000000000000000C300C302F
:103920000C300C300C300C300C300C300C300C30B7
:103930000C300C300C300C301818F81FE007000069
:1039400000000000000000000000000003600630DE
:10395000063006300C180C180C18180C180C380E01
:1039600030063006700760036003C001C00100002C
:103970000000000000000000000000000360C361C0
:10398000C361C36166336633663366336633663359
:103990006C1B6C1B6C1B2C1A3C1E380E380E000066
:1039A0000000000000000000000000000FE00C70AC
:1039B00018303018700C600EC00780038003C003FD
:1039C000E006700C301C18180C300E6007E0000088
:1039D00000000000000000000000000003C00660BE
:1039E0000C301C383818300C6006E007C00380012A
:1039F0008001800180018001800180018001000040
:103A0000000000000000000000000000FC7FFC7FC0
:103A1000006000300018000C000600038001C000A8
:103A20006000300018000C000600FE7FFE7F0000E2
:103A3000000000000000000000000000E003E003C0
:103A40006000600060006000600060006000600076
:103A50006000600060006000600060006000600066
:103A600060006000E003E003000000003000300070
:103A7000600060006000C000C000C000C0018001A4
:103A8000800180010003000300030006000600001F
:103A9000000000000000000000000000E003E00360
:103AA00000030003000300030003000300030003FE
:103AB00000030003000300030003000300030003EE
:103AC00000030003E003E003000000000000C00169
:103AD000C00160036003600330063006180C180C48
:103AE00000000000000000000000000000000000D6
:103AF00000000000000000000000000000000000C6
:103B000000000000000000000000000000000000B5
:103B1000000000000000000000000000FFFFFFFFA9
:103B20000000000000000000000000000C000C007D
:103B30000C000C000C000C00000000000000000055
:103B40000000000000000000000000000000000075
:103B50000000000000000000000000000000000065
:103B6000000000000000F003F8071C0C0C0C000F14
:103B7000F00FF80C0C0C0C0C1C0FF80FF0180000D8
:103B80000000000000000000000000001800180005
:103B9000180018001800D803F80F380C1818181857
:103BA0001818181818181818380CF80FD80300002F
:103BB0000000000000000000000000000000000005
:103BC000000000000000C003F007300E180C1800C1
:103BD000180018001800180C300EF007C003000081
:103BE00000000000000000000000000000180018A5
:103BF000001800180018C01BF01F301C18181818E7
:103C00001818181818181818301CF01FC01B0000BE
:103C100000000000000000000000000000000000A4
:103C2000000000000000C003F00F300C1818F81F4F
:103C3000F81F180018003818301CF00FC0070000DB
:103C4000000000000000000000000000800FC00F16
:103C5000C000C000C000F007F007C000C000C000F6
:103C6000C000C000C000C000C000C000C000000014
:103C70000000000000000000000000000000000044
:103C8000000000000000E00DF80F180E0C0C0C0CEA
:103C90000C0C0C0C0C0C0C0C180EF80FE00D000C9E
:103CA0000C0C1C06F807F0010000000018001800BA
:103CB000180018001800D807F80F381C1818181822
:103CC00018181818181818181818181818180000A4
:103CD000000000000000000000000000C000C00064
:103CE000000000000000C000C000C000C000C00014
:103CF000C000C000C000C000C000C000C000000084
:103D0000000000000000000000000000C000C00033
:103D1000000000000000C000C000C000C000C000E3
:103D2000C000C000C000C000C000C000C000C00093
:103D3000C000C000F8007800000000000C000C007B
:103D40000C000C000C000C0C0C060C038C01CC00BD
:103D50006C00FC009C018C030C030C060C0C000096
:103D6000000000000000000000000000C000C000D3
:103D7000C000C000C000C000C000C000C000C00043
:103D8000C000C000C000C000C000C000C0000000F3
:103D90000000000000000000000000000000000023
:103DA0000000000000007C3CFF7EC7E383C183C1AC
:103DB00083C183C183C183C183C183C183C1000027
:103DC00000000000000000000000000000000000F3
:103DD0000000000000009807F80F381C1818181889
:103DE0001818181818181818181818181818000083
:103DF00000000000000000000000000000000000C3
:103E0000000000000000C003F00F300C1818181854
:103E10001818181818181818300CF00FC0030000E4
:103E20000000000000000000000000000000000092
:103E3000000000000000D803F80F380C18181818FC
:103E40001818181818181818380CF80FD803180074
:103E50001800180018001800000000000000000002
:103E6000000000000000C01BF01F301C18181818BC
:103E70001818181818181818301CF01FC01B001834
:103E800000180018001800180000000000000000D2
:103E9000000000000000B007F003700030003000A8
:103EA00030003000300030003000300030000000C2
:103EB0000000000000000000000000000000000002
:103EC000000000000000E003F003380E180C38007A
:103ED000F003C007000C180C380EF007E0030000D8
:103EE0000000000000000000000000000000800052
:103EF000C000C000C000F007F007C000C000C00054
:103F0000C000C000C000C000C000C00780070000A3
:103F100000000000000000000000000000000000A1
:103F200000000000000018181818181818181818A1
:103F30001818181818181818381CF01FE019000065
:103F40000000000000000000000000000000000071
:103F50000000000000000C18180C180C180C30069B
:103F600030063006600360036003C001C00100003A
:103F70000000000000000000000000000000000041
:103F8000000000000000C141C141C361636363637D
:103F900063633636363636361C1C1C1C1C1C00006F
:103FA0000000000000000000000000000000000011
:103FB0000000000000001C38381C300C6006600354
:103FC0006003600360036006300C381C1C3800007E
:103FD00000000000000000000000000000000000E1
:103FE0000000000000001830301830187018600C05
:103FF000600CE00CC006C0068003800380038001D3
:104000008001C001F000700000000000000000000E
:10401000000000000000FC1FFC1F000C0006000355
:104020008001C000600030001800FC1FFC1F000071
:1040300000000000000000000000000000038001FC
:10404000C000C000C000C000C000C0006000600030
:10405000300060004000C000C000C000C000C000D0
:10406000C00080010003000000000000800180010A
:104070008001800180018001800180018001800138
:104080008001800180018001800180018001800128
:104090008001800180018001000000006000C000FC
:1040A000C0018001800180018001800100030003C4
:1040B0000006000300018001800180018001800171
:1040C0008001C0006000000000000000000000004F
:1040D00000000000000000000000F010F81F080FB2
:1040E00000000000000000000000000000000000D0
:1040F00000000000000000000000000000000000C0
:10410000000001020304060708090400000800007B
:104110000000000000020001000010003C41000807
:104120000000002030000000140200086C4100086C
:104130003000002048070000300200080000FFFFA8
:10414000000000000000000000000001000000006E
:10415000000000000000000000000000100000004F
:0C41600001000000000000000024F4003A
:04000005080001D915
:00000001FF
