:020000040800F2
:10000000E007002099020008273F0008C1350008DA
:10001000253F000811150008094D000800000000E8
:10002000000000000000000000000000254400085F
:10003000131500080000000091400008ED4500087D
:10004000B3020008B3020008B3020008B3020008BC
:10005000B3020008B3020008B3020008B3020008AC
:10006000B3020008B3020008B3020008B30200089C
:10007000B3020008B3020008B3020008B30200088C
:10008000B302000800000000B3020008B302000839
:10009000B3020008B3020008B3020008B30200086C
:1000A000B3020008B3020008B3020008B30200085C
:1000B000B302000869460008B3020008B302000852
:1000C000B3020008B3020008B3020008B30200083C
:1000D000B3020008B3020008B3020008B30200082C
:1000E000B3020008B3020008B3020008B30200081C
:1000F000B3020008B3020008B302000800000000C9
:1001000000000000B302000800000000B302000875
:10011000B302000800000000B3020008B3020008A8
:10012000B3020008B3020008B3020008B3020008DB
:10013000B30200080000000000000000B302000845
:10014000B3020008B3020008000000000000000035
:10015000000000000000000000000000000000009F
:10016000000000000000000000000000B3020008D2
:10017000B3020008000000000000000000000000C2
:1001800000000000B30200080000000000000000B2
:10019000000000000000000000000000000000005F
:1001A0000000000000000000B3020008B3020008D5
:1001B000B3020008B3020008B30200080000000008
:1001C00000000000B3020008000000000000000072
:1001D000B3020008B302000800F002F800F04CF887
:1001E0000AA090E8000C82448344AAF10107DA4592
:1001F00001D100F041F8AFF2090EBAE80F0013F098
:10020000010F18BFFB1A43F00103184744690000AF
:1002100064690000103A24BF78C878C1FAD8520740
:1002200024BF30C830C144BF04680C607047000070
:100230000023002400250026103A28BF78C1FBD8EF
:10024000520728BF30C148BF0B607047662905F0D0
:100250004283642900F05480002070471FB505F0E8
:1002600030FB00F0C1FB04000020002104F0BEFDC3
:10027000E0601FBD10B510BD00F0B6FC1146FFF7E1
:10028000EDFF04F071FD00F0D4FC03B4FFF7F2FFC2
:1002900003BC00F017FD00000948804709480047EB
:1002A000FEE7FEE7FEE7FEE7FEE7FEE7FEE7FEE726
:1002B000FEE7FEE704480549054A064B7047000083
:1002C00059460008D9010008E0010020E00700209D
:1002D000E0030020E00300200FB41CB5074B06AA82
:1002E0007B4469460090059800F065FB0020694654
:1002F00000F074FB1CBC5DF814FB0000F906000064
:100300002DE9F0410646002410687529314616A5EE
:1003100010D0AFF30080002802DA404213A507E0B6
:1003200031688A0701D512A502E0490704D511A555
:10033000012401E0AFF3008000210A2206F1240726
:1003400009E0B0FBF2FCB0FBF2F302FB1C00303022
:1003500078541846491C0028F3D123462A463046D3
:10036000BDE8F04100F0B9B8000000002D00000029
:100370002B000000200000002DE9F0474FF0000A9C
:1003800089460446C0F820A02046E1688847002836
:1003900076D0252806D0D4E901219047206A401C58
:1003A0002062F1E7E168204600258847C4F81CA0D8
:1003B00006460027C4F818A02A2E09D0304604F0BB
:1003C000CCFC38B304EB8708303EC8F8186019E05D
:1003D00059F8041B204604EB87029161E1688847C5
:1003E000012F064618D1E069002820DA25F0200503
:1003F0001DE0D8F8180000EB800006EB4000303814
:10040000C8F818002046E1688847064604F0A5FCB5
:100410000028EED1012F0AD02E2E08D12046E16807
:1004200088477F1C0646022F45F02005C4DBA069E3
:10043000002803DA404245F00105A061E80701D039
:1004400025F01005B6B1A6F14100192802D82036D2
:1004500045F400654A463146204625604D46FFF783
:10046000F5FE58B1012806D0ED1D25F0070000F17A
:10047000080989E704E005F1040985E730468AE7C1
:10048000206ABDE8F0874FF0000200B5134694469D
:100490009646203922BFA0E80C50A0E80C50B1F1DC
:1004A0002001BFF4F7AF090728BFA0E80C5048BFF0
:1004B0000CC05DF804EB890028BF40F8042B08BF8E
:1004C000704748BF20F8022B11F0804F18BF00F88A
:1004D000012B70477047704770472DE9F0470D4674
:1004E00099469246044600F124080168880604D51E
:1004F000E06921F01001216000E00120A84201DD47
:10050000471B00E00027A1697A1902EB0900081ACD
:10051000A0612078C00602D42046AFF300800026F8
:1005200008E0D4E901211AF806009047206A401C2F
:10053000761C20624E45F4DB2078C0060AD52046A2
:10054000AFF3008006E0D4E9012130209047206A13
:10055000401C2062381EA7F10107F4DC07E0D4E953
:10056000012118F805009047206A401C2062281ECF
:10057000A5F10105F3DC2046AFF3008020780006EA
:1005800002D50220BDE8F0870120FBE770472DE986
:10059000FF4F0C461E464FF0FF378BB0D2E90001EB
:1005A000DDF860800A908A46C1F30A5505B93D46D8
:1005B000002108464FF00000BAF1000F00F440009F
:1005C00005DA00EB80004FF4400101EA50004FEAE9
:1005D0009059B9F1010F00DDB9460A9850EA4A0076
:1005E0000ED044F61050A5F2FF3545432F14B8F154
:1005F000000F1ED07542291E1EDDC9F100021CE04D
:10060000B8F1010F4FF0000001D0302103E0F243B8
:1006100005E02154401CB042FBDB304600220021A3
:1006200021540B99C1F80880C1E900200FB0BDE842
:10063000F08FBD1B6D1CDEE74A4600DA694206A852
:1006400000F05CFA06AB93E8070003AB83E8070011
:1006500050460A9900F03DFB8DE80700A0F50050D8
:100660001F3800900398002D0ADD42F21F014A4610
:100670000844002303A90390684600F0A6FD09E0A2
:10068000A0F500504A461F38002303A9039068468E
:1006900000F0B0FD8DE807000004000C03D04FF01F
:1006A000FF30410800E01046B8F1000F03D00022EF
:1006B000009215461EE0751E05D400F099F93032FF
:1006C00062556D1EF9D5B3460122084302D00022BF
:1006D0007F1C04E02078302801D100227F1E002AF0
:1006E000099784D01DE0112D07DA00F081F930322E
:1006F00062556D1C50EA0102F5D1084302D0009802
:10070000C8B10EE00021681E05E0235C625C635402
:100710002254401E491C8142F7DBAB46A81B401EF9
:100720000990002004F80B000B98099AC0F8088083
:10073000C0E9002B7AE711264FF0000857E72DE9B2
:10074000F04F88460446D21D22F0070191B0D1E94E
:100750000001CDE90A0104F0D8FA02460B98C00F57
:1007600001D02D2007E02068810701D52B2002E071
:10077000202101EAC000032A099001D0072A05DBE5
:1007800003464146204600F079F90BE120788006C7
:1007900001D5E06900E00620B8F1650F814606D07A
:1007A000B8F1660F18D0B8F1670F70D131E00020B2
:1007B000B9F1110F009001DB112301E009F10103F0
:1007C0000AAA01A90CA8FFF7E2FEDDE90C700026D9
:1007D00009F10105834647E001204B4600904FF0A8
:1007E00000470AAA01A90CA8FFF7D1FEDDE90DB068
:1007F0000C995D46002610B909F101000D18B9EBFE
:10080000050003D4C0F1FF3609F10105A5EB09008D
:100810002BE0B9F1010F01DA4FF001090020B9F125
:10082000110F0090484601DD112300E003460AAA9B
:1008300001A90CA8FFF7ABFEDDE90C704D460026C0
:100840008346207800070AD4AB4500DA5D4601A84C
:10085000012D04DD411911F8011C302907D04F4545
:1008600002DA17F1040F04DA012082460FE06D1E50
:10087000EEE7002F02DCED1B3E4403E0781CA842AB
:1008800000DD7D1CB81B00F1010A4FF00047207805
:10089000000703D4AA4501DB4FF0FF3A0021B7F16E
:1008A000004F0DF143088DF8431024D002202B2374
:1008B000002F01DA7F422D230A21021EA0F1010040
:1008C00000DC5FB197FBF1FC97FBF1F201FB1C7CB4
:1008D00017460CF1300C08F801CDEEE7A8F1010045
:1008E00003702188090501D5452100E06521A0F1AB
:1008F000010800F8011C09980FA9A1EB0807FF1DCA
:1009000000B10120411901EBEA70A1693844081ACD
:10091000401EA0612078C00602D42046AFF30080BC
:10092000099828B1D4E901219047206A401C20622F
:100930002078C00622D52046AFF300801EE0002EAE
:1009400004DBB34502DD01A8805D00E03020D4E97E
:1009500001219047206A401C2062761CAAF1010008
:100960005FEA000A0AD100F03FF8C0680168405C05
:10097000D4E901219047206A401C2062281EA5F17D
:100980000105DCDC07E0D4E9012118F8010B9047F0
:10099000206A401C2062381EA7F10107F3DC2046C4
:1009A000AFF30080032011B041E6000001694A1C4A
:1009B00002610878704700B58FB0CDE901310021A0
:1009C000059105497944CDE9031011466846FFF7C2
:1009D000D3FC0FB000BD0000E5FFFFFF0A6802F87E
:1009E000010B0A607047000000487047A00100201A
:1009F00030B5B0F10A024FEA900E71F100034EEAF1
:100A0000817EB0EB0E0061EB91014FEA101E4EEAC1
:100A1000017E10EB0E0041EB11114FEA102E4EEA51
:100A2000016E10EB0E0041EB11214FEA104E4EEA21
:100A3000014E10EB0E0041EB1141401841F1000155
:100A40004FEAD00040EA41704FEAD10110EB800537
:100A50004FEA810444EA907444EB01046D1944EBBD
:100A60000404521BA3414FF0000348BF0A3200D5D3
:100A700030BD401C41F1000130BD00002DE9F041C6
:100A80001F46044603260168072A01F4006004DBC0
:100A900008B116A505E016A503E008B115A500E00C
:100AA00015A521F010002060A069C01EA0610FB143
:100AB000401EA0612046AFF300804FB1D4E9012170
:100AC00038469047206A401C2062C01C206206E025
:100AD000206AFAE7D4E9012115F8010B9047761E48
:100AE000F8D22046AFF30080BDE8F0814E414E00C1
:100AF0006E616E00494E4600696E66002DE9F04752
:100B0000814616468AB0354878440DC88DE80D00F8
:100B100032487844801C03AC0DC884E80D0041F6CF
:100B20009B300844372190FBF1F290FBF1F5A5F1E1
:100B3000800501FB12041B3C02D56442012000E049
:100B40000020DFF898A080460027FA44AAF1BE0AE8
:100B50000EE0E0070AD03246684607EB4701012362
:100B60000AEB810100F046FB8DE8070064107F1C52
:100B7000002CEED1194F7F44AE3F19E0E80715D0A5
:100B800007EB04100DF1180A90E80E008AE80E0039
:100B9000C068F04201D1981908903246012306A995
:100BA00003A800F027FB03AB83E807006D10641C6B
:100BB000002DE3D14FF0010332466946B8F1000F32
:100BC00003A802D000F001FB01E000F013FBC9E92B
:100BD0000001C9F808200AB0BDE8F0872C600000C9
:100BE00000487047800100207546FFF7F9FFAE46C8
:100BF00005006946534620F00700854618B020B529
:100C0000FFF758FBBDE820404FF000064FF000070B
:100C10004FF000084FF0000B21F00701AC46ACE8A4
:100C2000C009ACE8C009ACE8C009ACE8C0098D4611
:100C3000704710B50446AFF300802046BDE8104071
:100C4000FFF723BB4FF0013C50F8042B51F8043B55
:100C50009A4221D1A2EB0C03934313EACC1317D190
:100C600050F8042B51F8043B9A4215D1A2EB0C0327
:100C7000934313EACC130BD150F8042B51F8043BE7
:100C80009A4209D1A2EB0C03934313EACC13DBD0B5
:100C90004FF00000704700BFD01A01BAB1FA81F1DD
:100CA00001F0180122FA01F0CB40C1F12001DBB2C2
:100CB000C0B2C01A2CFA01F3D11A914311EAC31140
:100CC000E6D1704701491820ABBEFEE726000200BE
:100CD00070475FEA400C08BF91F0000F4FEA8C2389
:100CE0004FEAC12243EA51514FEA1C5018BF00F5A8
:100CF000F0404FEA300018BF41F000415FEA6C5C01
:100D000000F02980BCF1FF3F08BF40F080407047F1
:100D1000130C06BF12044FF0100C4FF0000C130E12
:100D200004BF12020CF1080C130F04BF12010CF1E6
:100D3000040C930F04BF92000CF1020CD30F04BFFC
:100D400052000CF1010C11464FF00002A0F11F00FF
:100D5000A0EB0C00704711F0004F08BF704731F056
:100D600000413FF4D5AF0B0C06BF09044FF0100C47
:100D70004FF0000C0B0E04BF09020CF1080C0B0F16
:100D800004BF09010CF1040C8B0F04BF89000CF1A6
:100D9000020CCB0F04BF49000CF1010CCCF1200375
:100DA000A0EB0C0022FA03F302FA0CF241EA030171
:100DB00000F10100704720F07F4C80EA030023F02F
:100DC0007F47ACEB070303F57C5300F0004003F1D1
:100DD000FF032DE980494FEA154B09B44FEA14434C
:100DE00025EA0B4E24EA03480FF2042606EB1327EC
:100DF00049083E785FEA320203FB0667C7F5000741
:100E000007FB06F64FEA54374FEAD64606F10206CC
:100E100007FB066CCCF1005C4FEA1C472CEA074C40
:100E200007FB06F40CFB06F504EB15464FEA961695
:100E300034BF00204FF000404FEAD13706FB07FCDB
:100E40004FEA1C4C0CFB0BF7D21B03FB0CF761EBBE
:100E500007010CFB0EF7B0EB074072EB17420CFBDF
:100E600008F734BFA2EB0742B2EB074261EB174130
:100E70004FEA0C444FEA910706FB07FC4FEA1C4C73
:100E80000CFB0BF7B0EBC74072EB573203FB0CF7D0
:100E900034BFA2EBC742B2EBC74261EB57310CFB48
:100EA0000EF7B0EBC70072EB57720CFB08F734BFBC
:100EB000A2EBC702B2EBC70261EB5771039F4FEA87
:100EC000816141EA921104EBCC044FEAD1374FEA39
:100ED000826206FB07FC42EA90124FEA80604FEA0A
:100EE0001C4C0CFB0BF7D21B03FB0CF761EB07014F
:100EF0000CFB0EF7B0EB074072EB17420CFB08F748
:100F000034BFA2EB0742B2EB074261EB17414FEA55
:100F10008C554FEA910704EB9C2406FB07FC4FEA33
:100F20001C4C0CFB0BF7B0EBC74072EB573203FBCA
:100F30000CF734BFA2EBC742B2EBC74261EB5731AB
:100F40000CFB0EF7B0EBC70072EB57720CFB08F707
:100F500034BFA2EBC702B2EBC70261EB577115EBCE
:100F60004C254FEA816141EA92114FEA82624FEAD1
:100F7000D13742EA901206FB07FC44F100044FEA25
:100F800080604FEA1C4C0CFB0BF7D21B03FB0CF7E9
:100F900061EB07010CFB0EF7B0EB074072EB174259
:100FA0000CFB08F734BFA2EB0742B2EB074261EB40
:100FB000174115EB1C154FEA813141EA92414FEA86
:100FC000823242EA90424FEA80304FEA0C7644F196
:100FD000000448EA03434EEA0B484FF0000EB2EB20
:100FE000080C71EB030724BF624639464EEB0E0E28
:100FF0004FF0000B0018524149414BEB0B0BB2EB89
:10100000080C71EB03077BF1000B24BF62463946E5
:101010004EEB0E0E4FF0000B0018524149414BEBC6
:101020000B0BB2EB080C71EB03077BF1000B24BF39
:10103000624639464EEB0E0E51EA020718BF46F0E3
:10104000010616EB0E7655F1000254F1000103D5AE
:10105000BDE88901BDE80088BDE88901BDE8004818
:10106000B619524141EB0101A3F1010370478080A1
:101070007F7E7D7C7B7A79787776767574737271F2
:1010800071706F6E6E6D6C6C6B6A6A6968686766AA
:1010900066656464636362616160605F5F5E5E5D3C
:1010A0005D5C5C5B5B5A5A595958585757565655B0
:1010B00055555454535352525251515050504F4F12
:1010C0004F4E4E4D4D4D4C4C4C4B4B4B4A4A4A4962
:1010D00049494848484747474746464645454544A5
:1010E0004444444343434342424242414141002B32
:1010F0009C4630D477002BD01CB54FEA370703B499
:101100004FF010004FF01001BAF1000F06D0BCF103
:10111000000FDCBF40F0080040F008014FF0000075
:101120000FBCBDE810400BF1010BBBF1010F08BF74
:101130005FEA170722BF12F1010211F101014FF01E
:10114000004143F1000300F0004043EA0000704713
:10115000F9D35708D0E746EA064613F1400F4FEAA5
:1011600016461FDD13F1200FDFBF16430A4600218C
:1011700020335B42BED0C3F1200746EA064602FA9E
:1011800007F74FEA164646EA0706C3F1200722FA98
:1011900003F201FA07F721FA03F14FF0000342EAE4
:1011A0000702A7E746EA020646EA06464FEA16465F
:1011B00046EA0106BCBF46EA0646360C4FF000037D
:1011C0004FF000024FF0000194E72DE9804C9A4661
:1011D000934670B491E8380007C831EA400C48BF24
:1011E00034EA430C03D5FFF7E6FDFFF780FFF0BCC0
:1011F000BDE8008C2DE9804C9A46934670B491E886
:10120000380007C810F0804F08BF13F0804F03D19B
:1012100000F005F8FFF76BFFF0BCBDE8008C20F094
:101220007F4780EA030023F07F4C07EB0C03A3F514
:101230007C5300F00040A3F1FE0392F0000F00F099
:10124000B38095F0000F00F077802DE901494FEA57
:1012500011404FEA144621EA004800FB06FC24EA4C
:10126000064708FB06F607FB08F800FB07F718EB34
:1012700006484CEB164C4FEA124B18EB07484FEA66
:1012800015464CEB174022EA0B4E0BFB06FC25EAF9
:1012900006470EFB06F607FB0EFE0BFB07F71EEBE1
:1012A000064E4CEB164C4FF000061EEB074E4CEB77
:1012B000174B18EB0B0840F1000018EB0E0B58EB26
:1012C000000840F100008F1A4FF000013CBFC943F5
:1012D000661B14BFB5EB040C00213CBFC943F61BD1
:1012E0004FEA17444EEA8E0E27EA04454FEA1C47A0
:1012F00004FB07622CEA074C05FB07F70CFB05F61D
:1013000004FB0CFC16EB074642EB174216EB0C46AF
:1013100042EB1C421BEB060658EB0202414146EA37
:101320009E0601D5BDE80189B619524141EB010184
:10133000A3F10103BDE801894FEA14454FEA1147C3
:1013400024EA054621EA074C05FB07F406FB07F7EC
:101350000CFB06F105FB0CFC11EB074144EB1744B9
:101360004FEA124711EB0C4144EB1C4422EA074CB4
:1013700005FB07F206FB07F70CFB06F605FB0CFC6A
:1013800016EB074642EB174216EB0C4642EB1C45A8
:101390006A1854F1000148BF7047B619524141EB39
:1013A0000101A3F10103704795F0000F37D04FEA18
:1013B00011424FEA144721EA024624EA074C02FB95
:1013C00007F106FB07F70CFB06F402FB0CFC14EB21
:1013D000074441EB17414FEA154714EB0C4441EB2E
:1013E0001C4125EA074C02FB07F506FB07F70CFB3F
:1013F00006F602FB0CFC16EB074645EB174516EB11
:101400000C4645EB1C42121951F1000148BF7047D0
:10141000B619524141EB0101A3F1010370474FEAB4
:1014200014454FEA114724EA054621EA074C05FB1B
:1014300007F106FB07F70CFB06F24FF0000605FB71
:101440000CFC12EB074241EB174112EB0C4251EB43
:101450001C4148BF7047921841EB0101A3F1010301
:1014600070470000F8B504460020009020688168AD
:1014700011F0010F41D18168214A11422ED18168BA
:10148000D5432940491C81601E48806800F0E07007
:1014900000020DD51C481D490068B0FBF1F0401C4E
:1014A00000EB4000800000E0401E00900028FBD1CF
:1014B00000F0A2FD06461BE0816811F0010F03D188
:1014C00081682940491C816000F096FD801B02283C
:1014D0000ED920680068C043C00709D0E06D40F015
:1014E0001000E065206E40F0010020660120F8BD8C
:1014F00020680168C943C907DED10020F8BD00009B
:101500003F0000800003005064000020400D0300F5
:10151000FEE77047002240F6B83306E00021491C80
:1015200089B29942FBD3521C92B28242F6D37047E1
:1015300072B6FEE710B5274C2DED028B94ED0F0A25
:10154000D4ED0E0A30EE600A10EE100A04F048F9ED
:101550009FED210B41EC180B53EC102B03F0E6FE32
:1015600005D251EC180B03F057FC41EC180B9FED22
:101570001C0B51EC180B53EC102B03F0D7FE21D8A9
:10158000607C401CC0B260740A280ED30A206074CC
:10159000E07994ED0F0A58B1D4ED0C0AB4EEE00AEC
:1015A000F1EE10FA01DD84ED0C0ABDEC028B10BDEA
:1015B000D4ED0D0AB4EEE00AF1EE10FAF5DD84ED9B
:1015C0000D0AF2E794ED0F0A002084ED0E0A607414
:1015D000EBE7000000000020000000000000000019
:1015E000000000000000E03F10B5044800F054FB8C
:1015F000024800F017FA80B210BD0000140100206C
:101600002DE9F84F00270446009790F85800DFF8BE
:10161000E0930D46B846012811D0012684F85860A1
:10162000206802F07DFA60B1E06D40F02000E065D6
:101630005FF0010784F858803846BDE8F88F022033
:10164000FBE7D5E900210C23206803EA9113184435
:10165000036B01F01F014FF01F0C0CFA01FCC2F3E9
:10166000846223EA0C038A4013430363206802F078
:1016700057FA8246206802F04FFA5AEA00003CD13D
:10168000AA6829682068B2F1004F37D002F04CFAFE
:101690002068416921F00041416120686969C268A0
:1016A000C2F3C102520091402A69042A31D000EBF2
:1016B00082002B68026EDFF83CC303F0F84302EAB5
:1016C0000C020B431A4342F00041016620682A696C
:1016D000A96900EB8200026E22F080720A43026662
:1016E000297F22682869012910D0002102EB80009F
:1016F000026E22F000720A4302667DE0002202F0D0
:1017000013FA2068416941F00041C5E74FF00071CC
:10171000ECE7002102F0FAF9400320684FF00001E5
:1017200072D002F0F3F990FAA0F0B0FA80F12868D4
:1017300042036ED090FAA0F0B0FA80F0814204D15A
:1017400000221146206802F0FEF90121206802F013
:10175000DDF9400320684FF001015DD002F0D6F9B9
:1017600090FAA0F0B0FA80F12868420359D090FABC
:10177000A0F0B0FA80F0814204D10022012120685B
:1017800002F0E1F90221206802F0C0F9400320686C
:101790004FF0020148D002F0B9F990FAA0F0B0FA87
:1017A00080F12868420344D090FAA0F0B0FA80F0AB
:1017B000814204D100220221206802F0C4F90321F1
:1017C000206802F0A3F9400320684FF0030133D0F2
:1017D00002F09CF990FAA0F0B0FA80F12868420378
:1017E0002FD090FAA0F0B0FA80F0814204D100220C
:1017F0000321206802F0A7F92068816811F0010F29
:1018000022D0ACE000E004E002F080F9C0F3846193
:101810008DE7C0F3846091E702F078F9C0F384614A
:10182000A2E7C0F38460A6E702F070F9C0F3846118
:10183000B7E7C0F38460BBE702F068F9C0F38461E6
:10184000CCE7C0F38460D0E72A7B296850F8B03F2A
:10185000C1F3120C23EA0C0302F0180C664A22FAB8
:101860000CF20A4013430360E968494577D12868C0
:1018700041031CD090FAA0F1B1FA81F1491C01F0AA
:101880001F0109294FEA403132D8002912D000BF88
:1018900090FAA0F1B1FA81F101F1010101F01F010B
:1018A00006FA01F609D100BFC0F3846109E0C0F374
:1018B0008461E3E7C0F38461EEE790FAA0F1B1FA46
:1018C00081F101F1010101F01F0146EA816102D1BC
:1018D000C0F3846003E090FAA0F0B0FA80F000F169
:1018E000010000F01F0000EB400041EA005132E02F
:1018F00000290ED090FAA0F1B1FA81F101F10101B5
:1019000001F01F0106FA01F606D100BFC0F38461A1
:1019100006E0C0F38461F1E790FAA0F1B1FA81F139
:1019200001F1010101F01F0146EA816102D1C0F31A
:10193000846003E090FAA0F0B0FA80F000F10100BA
:1019400000F01F002D4A00EB400002EB005041EA7E
:10195000000141F00071AA68206802F0E5F828480B
:101960002A6802423FF466AE26488168264B01F0A1
:10197000E0719A4202D0254B9A421CD10B021AD434
:101980002268B2F1A04F7FF455AE826841F40001A5
:1019900022F0E0720A4382601D481E490068B0FBD5
:1019A000F1F0401C00EB4000800000E0401E009081
:1019B0000028FBD13EE6184D184BAA4207D1CD01B5
:1019C00005D422689A42F5D041F0807109E0144DA7
:1019D000AA42EFD14A02EDD422689A42EAD041F4F9
:1019E0008001826822F0E0720A43826022E60000F1
:1019F00000007F4000F0FF03FFFF0700000020FE13
:101A00000000088000030050000021C31000C090B7
:101A100064000020400D0300000052C70001005088
:101A2000000084CB0068006C70470000F8B54FF0F0
:101A3000000504002E46009502D0E06D10B107E0CD
:101A40000120F8BD204600F0EBF8266684F85860C7
:101A500020688168C1F3407119B18168684A1140FA
:101A6000816020688168C1F3007189B98168654A25
:101A7000114041F080518160634864490068B0FBC7
:101A8000F1F04000801C00E0401E00900028FBD1D7
:101A900020688168C1F3007141B9E16D41F0100126
:101AA000E165216E41F001012166012502F038F85F
:101AB000E16DC90600D430B1E06D40F01000E06582
:101AC00001252846F8BDE06D20F4807040F002004A
:101AD000E0652068806810F0010F11D14FF0A04040
:101AE00080684B4900F00100896801F0010108435A
:101AF00006D148486168826822F47C120A438260F9
:101B0000E168E06B627F0843A16841EA4231084323
:101B100094F8241040EA0140012904D1218D3E4A65
:101B200002EB41410843E16A29B101F47871226B6B
:101B3000014342EA01002268D168384B1940014351
:101B4000D16020680169626B21F04061114301613D
:101B5000206801F0E1FF70BB207F94F8381080030B
:101B600040EA41022168C86844F2020398431043E6
:101B7000C86020690028206801690AD041F48031DA
:101B80000161206850F8C01F22696FF30D011143F5
:101B900007E021F480310161206850F8C01F6FF325
:101BA0000D01016094F8400001280CD02068016903
:101BB00021F001010161606901282068016B21F0B9
:101BC0000F0111D013E0D4E911010843D4E9131235
:101BD0001143084321680A6940F2FC739A43104399
:101BE00040F001000861E6E7226A521E11430163DA
:101BF000E06D20F0020040F00100E06561E70000C8
:101C0000C0FFFF5FC0FFFF7F64000020400D0300A6
:101C100000010050000300500000FEFF0740F0FFED
:101C200010B598B00446142111A8FEF72CFC4421ED
:101C30006846FEF728FC15492068884223D1C40174
:101C4000400500940F90684600F0D4FA08B1FFF701
:101C50006FFC0F48C16C41F40051C164C16C01F4C8
:101C600000511691C16C41F00201C164C06C11A910
:101C700000F0020016900320CDE9114000201390DF
:101C8000044800F095F818B010BD000000010050A5
:101C900000100240000400482DE9F0410446384895
:101CA000806800F01F05206801F03AFF18B102219A
:101CB0000846BDE8F08194F8580001280CD00120B6
:101CC00084F858002046FFF7CDFB01004FF00003D9
:101CD00004D084F85830EBE70220EAE7E06D40F6E4
:101CE0000162904340F48070E065264A20684FF01E
:101CF000A046904201D1374600E00746874200D017
:101D00001DB9E76D27F48017E765E76DFF0404D57B
:101D1000276E27F00607276600E023661C2707606A
:101D200084F858302068904201D1334600E00346E1
:101D3000834215D0A5B1052D12D0092D10D0E36D29
:101D400043F48013E365904200D13046C0688001BF
:101D5000AED5E06D20F4005040F48050E065A7E778
:101D6000C268920105D5E26D22F4005242F480521D
:101D7000E2658268044B1A40121D826098E70000F9
:101D80000003005000010050C0FFFF7F70B5044603
:101D900000F032F90546601C02D004484068044453
:101DA00000F02AF9401BA042FAD370BD5800002071
:101DB0002DE9F04FDFF80C92002301260325A9F14D
:101DC000040B85B00F2709F1040AABF1040EF1E012
:101DD00006FA03FC12EA0C027ED00C7904F003042C
:101DE000012C01D0022C20D1846800945C0005FAFB
:101DF00004F80494009C24EA08040094D1F80C80B0
:101E0000049C08FA04F8009C48EA0408C0F808801A
:101E1000446824EA0C0491F804C0CCF3001C0CFACA
:101E200003FC4CEA040CC0F804C00C79E443A4079A
:101E300002D18C68012C0ED0C4684FEA430805FA21
:101E400008FC24EA0C04D1F808C00CFA08FC4CEA9F
:101E5000040CC0F80CC00C7904F00304022C16D159
:101E6000DC0800EB840CCDF808C0DCF820C05C076F
:101E70004FEAD46807FA08F42CEA040C0C6904FA57
:101E800008F444EA0C04DDF808C0CCF820400468EB
:101E90004FEA430805FA08FC24EA0C0491F804C050
:101EA0000CF0030C0CFA08FC4CEA040CC0F800C05F
:101EB0004C6814F4403F7CD0434CD4F860C04CF0E4
:101EC000010CC4F860C0246E23F0030C04F001047C
:101ED00000943E4C644400E06BE00294A4684FEA36
:101EE000837C4FEA1C7807FA08FC24EA0C04B0F162
:101EF000904F06D0DFF8D8C0604505D14FF0010CF7
:101F000020E04FF0000C1DE0DFF8C8C0604502D1B2
:101F10004FF0020C16E0DFF8C0C0604502D14FF070
:101F2000030C0FE0DFF8B4C0604502D14FF0040CA1
:101F300008E0DFF8ACC0604502D14FF0050C01E0CD
:101F40004FF0060C0CFA08FC4CEA040C029CC4F896
:101F500008C0D9F80040CC46D1F8048094435FEA29
:101F6000C82800D51443CCF80040DAF80040D44625
:101F7000D1F8048094435FEA882800D51443CCF854
:101F80000040DBF80040DC46D1F8048094435FEA6F
:101F9000883800D51443CCF80040DEF80040F44601
:101FA000D1F8048094435FEAC83800D51443CCF8D4
:101FB00000405B1C0C682246DC407FF409AF05B092
:101FC000BDE8F08F0804014000100240000001400D
:101FD0000004004800080048000C004800100048B9
:101FE000001400480069084000D0012070470AB181
:101FF00081617047816270470148806870470000C6
:10200000580000200248816842681144816070478E
:102010005800002010B50024032000F073F80020C1
:1020200000F008F808B1012401E000F025F820468E
:1020300010BD000070B50E4E05460024706898B1C2
:102040004FF47A71B1FBF0F00A490968B1FBF0F086
:1020500000F03CFD40B9102D06D200222946501E4A
:1020600000F030F8356000E00124204670BD00002B
:1020700058000020640000200A4882B0016E41F040
:1020800001010166016E01F001010091816D41F0D5
:1020900080518165806D00F08050009002B000F0AA
:1020A000A1B8000000100240002809DB00F01F0268
:1020B000012191404009800000F1E020C0F80011AA
:1020C00070470000F0B40E4B1B680C46C3F30223AC
:1020D000C3F10705042D00D90425191D072901D2D4
:1020E000002300E0DB1E012606FA05F1491E21400F
:1020F00099409E40761E16403143F0BC02F01DBE52
:102100000CED00E0064900F0070208684FF6FF03F7
:10211000184040EA0220034A10430860704700005C
:102120000CED00E00000FA052B492C4B0A68322127
:102130004A432B4940B1B0F5007F086829D020F40C
:10214000C06040F480602CE00868C0F341200228A1
:1021500004D051F8800F20F4807022E0D1F8800084
:1021600020F48070C1F88000086820F4C06040F45A
:1021700000700860B2FBF3F0401C00E0401E4A69AA
:10218000520501D50028F9D1486940050AD5032038
:102190007047C0F34120022806D051F8800F40F468
:1021A0008070086000207047D1F8800040F4807093
:1021B000C1F88000086820F4C06040F40070086036
:1021C000B2FBF3F0401C00E0401E4A695205DBD52B
:1021D0000028F9D1D8E700006400002040420F0039
:1021E000007000400248816841F48041816070477E
:1021F000007000402DE9F8430446006800269D4D1C
:1022000000035ED5A86D0027C00008D4A86D40F07B
:102210008050A865A86D012700F080500090DFF87D
:102220005892D9F8001041F48071C9F80010FFF7F6
:10223000E3FE804606E000BFFFF7DEFEA0EB0800ED
:1022400002282BD8D9F80000C005F5D5D5F89000A4
:1022500010F4407014D0216C814211D0D5F8900058
:10226000D5F8901020F4407041F48031C5F89010FA
:10227000D5F8901021F48031C5F89010C5F8900081
:10228000C00711D0FFF7B8FE804641F2883907E059
:10229000FFF7B2FEA0EB0801494501D903260BE088
:1022A000D5F890008007F3D5D5F89000216C20F484
:1022B00040700843C5F890001FB1A86D20F0805011
:1022C000A8652078C00707D0D5F88800616820F09D
:1022D00003000843C5F888002078800707D5D5F8A3
:1022E0008800A16820F00C000843C5F88800207819
:1022F000400707D5D5F88800E16820F03000084392
:10230000C5F888002078000707D5D5F8880021692E
:1023100020F0C0000843C5F888002078800607D563
:10232000D5F88800616920F440600843C5F888004A
:102330002078400607D5D5F88800A16920F44050E0
:102340000843C5F888002078000607D5D5F888002E
:10235000E16920F440400843C5F888002088C005A2
:1023600007D5D5F88800216A20F440300843C5F825
:1023700088002088800507D5D5F88800616A20F498
:1023800040200843C5F88800208840050FD5D5F8BF
:102390008800A16A20F440100843C5F88800A06AAC
:1023A000B0F5801F03D1E86840F48010E860208811
:1023B00000050FD5D5F88800E16A20F440000843F5
:1023C000C5F88800E06AB0F5800F03D1E86840F4F2
:1023D0008010E8602088C0040FD5D5F88800216BF4
:1023E00020F040700843C5F88800206BB0F1807F72
:1023F00003D1E86840F48010E86020884FF0006165
:1024000080040ED5D5F88800626B20F04060104340
:10241000C5F88800606B884203D1E86840F48010FA
:10242000E860208840040ED5D5F88800A26B20F023
:1024300040601043C5F88800A06B884203D1E8686B
:1024400040F48010E860208800040FD5D5F888009B
:10245000E16B20F040500843C5F88800E06BB0F114
:10246000805F03D1E86840F48030E8603046BDE822
:10247000F883000000100240007000402DE9F04792
:102480000E4605004FF0000725D0DFF8AC81D8F8E4
:10249000000000F00F00B0420CD2D8F8001021F07C
:1024A0000F013143C8F80010D8F8000000F00F0009
:1024B000B04210D12968614CC80741F2883A5AD01D
:1024C0006868DFF87C91032808D0022820682DD0A6
:1024D000400500282CDB0120BDE8F0872068800142
:1024E000F9D5E06800F00302E068C0F30310401C77
:1024F000032A19D0534A00BFB2FBF0F0E268C2F3DE
:1025000006225043E268C2F34162521C5200B0FB03
:10251000F2F0484517D9A06810F0F00F0CD08807EA
:1025200011D5A86840B10EE0474AE5E78003D0E73F
:1025300000F092F8484506D9A06820F0F00040F07D
:102540008000A0608027A068696820F0030008432D
:10255000A060FFF751FD814606E000BFFFF74CFD8C
:10256000A0EB090151453AD8A068696800F00C0059
:10257000B0EB810FF2D12868810714D5400703D54D
:10258000A06840F4E060A0602878000705D5A06846
:1025900020F4605040F4E060A060A068A96820F0DA
:1025A000F000084304E0802F03D1A06820F0F00081
:1025B000A060D8F80010404601F00F01B14216D9D2
:1025C000016821F00F0131430160FFF715FD074657
:1025D00007E000BFFFF710FDC11B514501D90320E3
:1025E0007AE7D8F8000000F00F00B042F2D1287866
:1025F000400705D5A068E96820F4E0600843A060C2
:102600002878000706D5A068296920F4605040EAC0
:10261000C100A06000F020F8A1680C4AC1F30311CA
:10262000515C01F01F01C840094908600948006871
:10263000BDE8F047FFF7FEBC00200240001002405A
:1026400000B4C4040024F40000366E01AA6A000835
:102650006400002058000020184910B58868C0F3B5
:1026600081021748012A0BD08A68164BC2F38102F7
:10267000022A06D08A68C2F38102032A03D000200E
:1026800010BD184610BDCA6802F00304CA68C2F340
:102690000312521C032C02D0B0FBF2F001E0B3FB9A
:1026A000F2F0CA68C968C2F306225043C1F341611F
:1026B000491C4900B0FBF1F010BD000000100240C1
:1026C0000024F40000366E012DE9F84304007AD0AE
:1026D0002078F84DC00747D0A868E96800F00C00E2
:1026E00001F003010C2802D0082817D001E00329CB
:1026F00014D06068B0F5803F17D0B0F5A02F2868DF
:1027000017D020F480302860286820F480202860CA
:102710006068E0B1FFF770FC064614E028688003AB
:1027200022D560680028D2D01EE0286840F48030AE
:10273000EDE740F480202860F7E700BFFFF75CFC7E
:10274000801B642870D828688003F7D50CE0FFF759
:1027500053FC064605E000BFFFF74EFC801B6428D3
:10276000F0D828688003F7D4207880074CD5A86873
:10277000E96800F00C0001F003010C2802D00428E5
:102780000DD001E002290AD0E068002828682BD08B
:1027900040F480702860FFF72FFC064619E0286897
:1027A000400502D5E068002891D06868217C20F0BF
:1027B000FE4040EA01606860BF480068FFF73AFCED
:1027C000002800D120E072E1FFF716FC801B0228F0
:1027D000B8D828684005F7D56868217C20F0FE400D
:1027E00040EA016068600FE020F480702860FFF725
:1027F00003FC064605E000BFFFF7FEFB801B022836
:10280000A0D828684005F7D42078000729D560694A
:102810000028D5F8940013D040F00100C5F89400CA
:10282000FFF7EAFB064606E090E000BFFFF7E4FB97
:10283000801B022886D8D5F894008007F6D510E0D2
:1028400020F00100C5F89400FFF7D6FB064604E02F
:10285000FFF7D2FB801B022878D8D5F894008007B8
:10286000F6D42078400761D5A86D0026C00008D4B2
:10287000A86D40F08050A865A86D012600F080503A
:1028800000908E480168C90511D40168804641F462
:1028900080710160FFF7B0FB074604E0FFF7ACFB77
:1028A000C01B022852D8D8F80000C005F6D5A06891
:1028B000012815D00528D5F8900016D020F0010089
:1028C000C5F89000D5F8900020F00400C5F89000FD
:1028D000A06841F28838B8B1FFF78EFB07460EE0DA
:1028E000D5F8900040F00100F0E740F00400C5F892
:1028F0009000F5E7FFF780FBC11B414526D8D5F8CE
:1029000090008007F6D50CE0FFF776FB074604E061
:10291000FFF772FBC11B414518D8D5F8900080071E
:10292000F6D41EB1A86D20F08050A86520788006EE
:1029300029D5A0690028D5F8980013D040F00100EF
:10294000C5F89800FFF758FB064606E075E000BFA3
:10295000FFF752FB801B02286FD8D5F8980080073C
:10296000F6D510E020F00100C5F89800FFF744FB11
:10297000064604E0FFF740FB801B02285DD8D5F82F
:1029800098008007F6D4E069F0B3A968C1F381012B
:1029900003295DD00228286820F08070286003D0C9
:1029A000FFF72AFB04464BE0FFF726FB064604E050
:1029B000FFF722FB801B02283FD828688001F7D44C
:1029C000F4E908016FF00F0202EB01110843218ABC
:1029D0005204490802EB4151A26841EA022108432E
:1029E000217D4FF07E42490802EB41610843217B83
:1029F00040EAC160E968324A11400843E86028684B
:102A000040F08070286000E05EE0E86840F0807090
:102A1000E860FFF7F1FA044605E000BFFFF7ECFAC3
:102A2000001B022809D828688001F7D54CE000BFB8
:102A3000FFF7E2FA001B022802D90320BDE8F88361
:102A400028688001F4D4E8681E490840E8603BE04B
:102A50000128F3D0E868226A00F00301914226D1F0
:102A6000616A00F0F0020901103991421FD1A26A97
:102A700000F4FE41B1EB022F19D194F82C2000F0A4
:102A80007841B1EBC26F12D1218E00F4C002490827
:102A90004905A1F50011914209D194F8341000F0D4
:102AA000C06049084906A1F1007181420CD00120A3
:102AB000C4E70000001002405800002000700040F1
:102AC0000C809F01FCFFEEFE0020B7E710B5401E12
:102AD000B0F1807F01D3012010BD4FF0E024606190
:102AE0000F21601702F029F90020A0610720206162
:102AF000002010BD7047704770477047704770479F
:102B0000F0B590F83C20012A3AD0012580F83C50DD
:102B1000022280F83D2003685A689C68194E1A4FBB
:102B2000B34201D0BB4204D122F4700C4A6842EA9D
:102B30000C02DFF858C002EA0C02D1F800C04CEADF
:102B4000020CC3F804C00268B2420DD0B2F1804F4B
:102B50000AD00F4B9A4207D00E4B9A4204D0BA4289
:102B600002D00D4B9A4204D1896824F080031943A6
:102B7000916080F83D50002180F83C100846F0BD7F
:102B80000220F0BD002C0140003401408FFFFFFD0A
:102B9000000400400008004000400140704710B5AC
:102BA000040003D094F83D0010B107E0012010BDEF
:102BB000002084F83C00204600F022F8022084F82F
:102BC0003D00211D206801F055FD012084F84800DA
:102BD00084F83E0084F83F0084F8400084F8410007
:102BE00084F8420084F8430084F8440084F84500E7
:102BF00084F8460084F8470084F83D00002010BDAA
:102C000010B586B0044614216846FDF73CFC2168E7
:102C10001B48B1F1804F29D01A4A914224D1816DCD
:102C200041F002018165816D01F002010591C16CE5
:102C300041F00101C164C06C002100F00100059069
:102C4000802000900220CDE90101CDE90310694602
:102C50004FF09040FFF7ACF8002202211D20FFF753
:102C600031FA1D20FFF720FA06B010BD816D41F04A
:102C700001018165806D00F001000590F4E700001E
:102C8000001002400004004070B5044690F83C007B
:102C90000025012814D0012684F83C60022084F825
:102CA0003D0022689068364B184020F47F409060C9
:102CB000086870282ED010DC10F00F0F03D021E030
:102CC0004FF0020070BD4FEA2012072A1AD2DFE847
:102CD00002F0525252524A3840002A4BC21A9842CD
:102CE00049D009DCB0F5805F0DD0B0F5005F1CD095
:102CF000B0F1101F06D13EE0102A3CD0202A3AD075
:102D0000502A38D0012584F83D60002084F83C002A
:102D1000284670BDCB68D1E90121206801F013FD80
:102D20002068816841F0770109E0CB68D1E9012191
:102D3000206801F008FD2068816841F480418160CD
:102D4000E1E7CA684968206801F01AFF502120684D
:102D500006E0CA684968206801F08CFF602120689D
:102D600001F0FCFCCFE7CA684968206801F008FF61
:102D700040212068F4E7226801461046F0E7000091
:102D800088FFCEFF2000100010B5134A0168914261
:102D900009D1017F114C022906D0012903D100215C
:102DA00000F0CDFBE08310BD042100F0C8FB401C07
:102DB00080B26082E18B00EE101AF8EE400A00EE5D
:102DC000100AB8EE401A80EE810A10EE100A02F0E6
:102DD00007FDC4E9100110BD000400400000002000
:102DE0002DE9F047054690F83C0000260C460128E6
:102DF00013D0012085F83C008AB1042A1FD04B492A
:102E0000DFF82C91082A2CD00C2A5AD00126002059
:102E100085F83C003046BDE8F0870220FBE7D4E9A6
:102E20000012E368286801F0D9FE2868816921F062
:102E30000C01816128688169A26811430FE0D4E91F
:102E40000012E368286801F035FF2868816921F4E1
:102E50004061816128688169A26841EA022181613B
:102E6000D5E72868D4E90073E268D0F820C0D0F82C
:102E7000208028F48078C0F82080884201D048451E
:102E800003D1016A21F480610162C16921F003016B
:102E9000194321F0F003110743EA11614FF4206256
:102EA0002CF4206302EA07221A43C16102622868F7
:102EB000C16921F00C01C1612868C169A268114390
:102EC00032E02868D4E90073E268D0F820C0D0F876
:102ED000208028F48058C0F82080884201D04845DE
:102EE00003D1016A21F480410162C16921F440717A
:102EF00041EA032121F470434FF6FF7101EA0231E8
:102F000019434FF420422CF4204302EA07321A43BB
:102F1000C16102622868C16921F44061C161286809
:102F2000C169A26841EA0221C16170E7002C014039
:102F30000034014010B5040003D094F83D0010B1F6
:102F400007E0012010BD002084F83C00204600F07E
:102F500022F8022084F83D00211D206801F08AFB40
:102F6000012084F8480084F83E0084F83F0084F88B
:102F7000400084F8410084F8420084F8430084F85B
:102F8000440084F8450084F8460084F8470084F83B
:102F90003D00002010BD704730B50446002571B1DA
:102FA000042911D0082914D00C2917D0102918D0C1
:102FB00094F8430094F84720012817D114E094F8BE
:102FC0003E0094F84420F7E794F83F0094F8452039
:102FD000F2E794F8400094F84620EDE794F84100B9
:102FE000E8E794F84200E5E7012A01D0012030BD6E
:102FF000022079B1042916D008291DD00C2949D006
:1030000010294AD084F8430084F847000C2947D09F
:1030100001253DE084F83E0084F844002068C26841
:1030200042F0020210E084F83F0084F84500206876
:10303000C26842F0040207E084F8400084F84600C9
:103040002068C26842F00802C2600122206801F0D4
:103050006DFB1649206888420ED0B0F1804F0BD02E
:103060001349884208D01349884205D01249884242
:1030700002D01249884207D18168114A11400629BD
:1030800006D0B1F5803F03D0016841F00101016035
:10309000284630BD84F84100B6E784F84200B3E723
:1030A0002068C26842F01002CEE70000002C014008
:1030B000000400400008004000340140004001408E
:1030C000070001002DE9F04104460068C668056963
:1030D0004FF00007A90713D5B10711D5F91E0161FB
:1030E00001202077206880698007204602D0FFF702
:1030F0004BFE04E000F0DEF8204600F0A0F9277750
:10310000680716D5700714D521686FF004000861B0
:10311000022020772068806910F4407F204602D08A
:10312000FFF732FE04E000F0C5F8204600F087F912
:103130002777280715D5300713D521686FF00800C9
:103140000861042020772068C0698007204602D0EB
:10315000FFF71AFE04E000F0ADF8204600F06FF92A
:103160002777E80616D5F00614D521686FF0100011
:103170000861082020772068C06910F4407F20464D
:1031800002D0FFF701FE04E000F094F8204600F0C2
:1031900056F92777E80708D0F00706D021686FF0C6
:1031A00001000861204600F0C9F9280601D4A804EE
:1031B00008D5300606D521686FF402500861204614
:1031C000FFF799FCE80508D5300606D521686FF4AD
:1031D000807008612046FFF78DFC680608D57006F0
:1031E00006D521686FF040000861204600F0E7F93D
:1031F000A80608D5B00606D521686FF02000086142
:103200002046FFF779FCE80208D5F00206D52168D0
:103210006FF4801008612046FFF770FCA80208D503
:10322000B00206D521686FF4001008612046FFF750
:1032300064FC680208D5700206D521686FF480002E
:1032400008612046FFF75BFC28020AD5300208D54A
:1032500021686FF4000008612046BDE8F041FFF7E7
:103260009DBCBDE8F081000010B586B00446142175
:103270006846FDF708F92068B0F1804F15D10C4879
:10328000C16C41F00101C164C06C694600F00100ED
:1032900005900220009001900020029003900120F0
:1032A00004904FF09040FEF783FD06B010BD000083
:1032B00000100240704770B5044690F83C000026AC
:1032C0000D4601280BD0012084F83C000C2A4AD07E
:1032D00007DC82B1042A20D0082A06D131E002207E
:1032E00070BD102A53D0142A63D00126002084F820
:1032F0003C00304670BD206801F03AFA20688169D0
:1033000041F0080181612068816921F00401816137
:10331000206881692A69114311E0206801F07AFA76
:103320002068816941F4006181612068816921F42C
:1033300080618161206881692A6941EA0221816195
:10334000D4E7206801F0B0FA2068C16941F00801B3
:10335000C1612068C16921F00401C1612068C169AF
:103360002A69114311E0206801F0E8FA2068C16978
:1033700041F40061C1612068C16921F48061C161CB
:103380002068C1692A6941EA0221C161AEE720686B
:1033900001F01EFB2068016D41F008010165206805
:1033A000016D21F0040101652068016D2A69114356
:1033B00011E0206801F044FB2068016D41F40061D8
:1033C00001652068016D21F4806101652068016D4F
:1033D0002A6941EA0221016588E710B5040003D09B
:1033E00094F83D0010B107E0012010BD002084F8E2
:1033F0003C00204600F022F8022084F83D00211D08
:10340000206801F037F9012084F8480084F83E0074
:1034100084F83F0084F8400084F8410084F84200BA
:1034200084F8430084F8440084F8450084F846009A
:1034300084F8470084F83D00002010BD70477047B5
:1034400030B50446022269B1042912D0082917D0E8
:103450000C291CD0102921D094F84300012824D035
:10346000012030BD94F83E000128F9D184F83E20B7
:103470001DE094F83F000128F2D184F83F2016E0C7
:1034800094F840000128EBD184F840200FE094F834
:1034900041000128E4D184F8412008E094F842007A
:1034A0000128DDD184F8422001E084F84320012284
:1034B000206801F03BF9194B20681949194A9842D4
:1034C00009D0884207D0904205D0174DA84202D0BB
:1034D000164DA84203D1456C45F40045456420686B
:1034E00098420CD0B0F1804F09D0114B984206D0D1
:1034F000104B984203D0884201D0904207D1816896
:103500000D4A1140062906D0B1F5803F03D001686D
:1035100041F001010160002030BD0000002C01409D
:103520000034014000400140004401400048014097
:1035300000040040000800400700010070470246F8
:10354000002041B1042909D008290AD00C2901D151
:103550001068006C70471068406B70471068806B93
:1035600070471068C06B704770B5044690F83C0017
:10357000012812D0012584F83C50022084F83D0037
:10358000204601F095FA01004FF0000007D084F8C2
:103590003D5084F83C00012070BD022070BD2168C0
:1035A000CA6822F04002CA602168CA6822F48042D8
:1035B000CA6084F83D5084F83C00002070BD70471C
:1035C000FEE700002DE9F0414E4F38684E4C616A2D
:1035D000401A322871D93868606200F097F820707C
:1035E000E278012520EA0201424082436170A27024
:1035F0000026E070012918D1002000F0D9F8A07948
:10360000010909D0B5EB101F0AD12020A071607B01
:10361000A072207B607208E01020A071E57204E0C7
:103620000221B1EB101F00D1A6716078022804D0EE
:10363000032819D0042831D047E0A07901090BD123
:10364000217A49B1E17981F00101E171E17B491C05
:10365000E1733968E1622672B5EB101F35D1E07A6B
:1036600080F00100E07230E0E07A0028A0790AD012
:10367000B5EB101F29D1207B401CC0B220730A2853
:1036800023D9257321E0B5EB101F1ED1607B401CB0
:10369000C0B260730A2818D9657316E0A079B5EB3B
:1036A000101F12D1E17A0A2041B1217B491E11F08D
:1036B000FF01217309D1207307E017E0617B491EE8
:1036C00011F0FF01617300D160732078042803D0EA
:1036D000A07804280CD013E0A08B401C80B2A083FB
:1036E000282803D1A079000900D1A573BDE8F08195
:1036F000A08B401E272803D2A079000900D1A67311
:10370000A683F3E7600000200000002070B5104D94
:1037100001212846FEF766FC80B102212846FEF70B
:1037200061FC68B104212846FEF75CFC50B1012120
:103730004FF09040FEF756FC30B106E0012404E063
:10374000022402E0032400E00424204670BD0000AF
:103750000004004800B585B014216846FCF793FECC
:103760004FF6FF70009000200321CDE90201019087
:1037700069460248FEF71CFB05B000BD0008004882
:1037800000B585B014216846FCF77DFE4FF6FF704A
:1037900000900120019003200390002002906946D0
:1037A0000248FEF705FB05B000BD00000008004818
:1037B00070B5002406462146204600F003F900F0CB
:1037C00041F94FF49635304600F010F9641CAC42D4
:1037D000F9D370BD30B587B014216846FCF753FEAD
:1037E0001E48C16C41F00401C164C16C01F00401C8
:1037F0000591C16C41F00101C164C16C01F001018E
:103800000591C16C41F00201C164C06C012500F05A
:10381000020005904FF44870CDE9000500240394A0
:10382000694602940E48FEF7C3FA280203940090FA
:10383000CDE901544FF0904469462046FEF7B8FAAE
:10384000FFF79EFFA06940F48070A0610448183023
:10385000016841F40871016007B030BD00100240FA
:1038600000040048203AD2B2034B02EB420203EBC1
:10387000021200F019B80000DA580008F0B50E4640
:103880000746002540F23F1407E021463846FFF77F
:10389000E9FF103C6D1CA4B2761C3278002A01D0DE
:1038A000142DF2D3F0BD00002DE9F04791468A4671
:1038B0000026044600F086F8DFF84080012700BFAC
:1038C00000F0C0F85FF0000539F8160007FA05F1BE
:1038D0000842404601D1408800E0008800F086F8A8
:1038E0006D1C102DF0D3641CE4B25146204600F04C
:1038F00069F8761C182EE3D3BDE8F087500000204D
:1039000010B5FFF767FF002000F014F8084CA08006
:10391000A088A0F50241303906D000F082FC0020DA
:1039200000F008F8A08010BD00F0F2FBF7E70000FF
:103930005000002070B51D490A6842F400720A6008
:103940000A6842F480720A60184C103C226842F007
:1039500020022260164A1060086840F020000860CB
:1039600000BF00BF00BF206840F02000206020683A
:1039700040F480702060FFF7EDFE4FF09041886AC0
:1039800040F48070886200BF00BF00BF0848001F7D
:10399000006885B2886940F480708861FFF7F0FEA6
:1039A000206840F400702060284670BD280400485C
:1039B0001408004801B5BDF800000149488008BD61
:1039C0005000002010B50C460146202000F068F899
:1039D0002146BDE81040212000F062B801B5BDF8D5
:1039E00000000149088008BD50000020134A1168FA
:1039F00041F400711160114910390B6843F4807370
:103A00000B600B6843F020030B600D4B18601068CF
:103A100040F02000106000BF00BF00BF086840F009
:103A200020000860086840F48070086000BF00BF94
:103A300000BF086840F40070086070472804004820
:103A4000140800481449086840F4007008600868C9
:103A500040F48070086010481038026842F020027C
:103A600002600E4B22221A600A6842F020020A60AD
:103A700000BF00BF00BF016841F020010160016884
:103A800041F48071016000BF00BF00BF016841F4D4
:103A900000710160704700002804004814080048C5
:103AA000184B10B51A6842F400721A601A6842F492
:103AB00080721A60134A103A146844F020041460AB
:103AC000114C2060186840F02000186000BF00BF53
:103AD00000BF106840F020001060106840F4807053
:103AE00010602160186840F02000186000BF00BF1F
:103AF00000BF106840F020001060106840F4807033
:103B0000106010BD280400481408004800EB810034
:103B1000006E00F0F84070478068C0F3C000704746
:103B20008068C0F380007047042303EAD15310B5C6
:103B300018444369C1F3045107248C40A3438A40CD
:103B40001343436110BD00EB8100016E21F0004181
:103B5000114301667047000070B55E482DED048B7F
:103B600001685D4CA26A891AC82978D90068A062E8
:103B7000A07B00284AD000F057FC608A5749B1FB6F
:103B8000F0F085B2A582A07A642110FB01F001F06B
:103B9000BAFB41EC180B607A01F0B5FB41EC190B54
:103BA000284601F0B0FB9FED4E1B53EC112B01F0AA
:103BB000F9FB53EC192B01F0F5FB53EC182B01F03A
:103BC0001DFA01F035F9E063FDF7B4FCA0790109B5
:103BD0001FD00121B1EB101F42D143A14648FCF791
:103BE0007BFB45491820FFF749FE227B43A1424851
:103BF000FCF772FB40494820FFF740FE627B42A180
:103C00003D48FCF769FB3C4960205AE000F054FC59
:103C1000B3E740A13848FCF75FFB37491820FFF7AE
:103C20002DFEE07908B13FA100E041A13248FCF748
:103C300053FB31494820FFF721FE62793FA12E480E
:103C4000FCF74AFB2C496020FFF718FEE06B01F0FF
:103C5000C7FD41EC100B3CA153EC102B2CE036E0DF
:103C60000221B1EB101F32D13AA12348FCF734FBFB
:103C700021491820FFF702FEE27B3AA11E48FCF71B
:103C80002BFB1D494820FFF7F9FD206B01F0A8FD33
:103C900041EC100B36A153EC102B1748FCF71CFB22
:103CA00015496020FFF7EAFD606B01F099FD41ECDA
:103CB000100B33A153EC102B0F48FCF70DFB0E49F2
:103CC0007820BDEC048BBDE87040FFF7D7BDBDEC9C
:103CD000048B70BD600000200000002040420F00F7
:103CE0001F85EB51B81E19402020202020202020C5
:103CF0005041524100000000680000202020202098
:103D000020523D256400000020202020204B3D252E
:103D10006400000020202020202020204441544125
:103D20000000000020202020204D3D480000000021
:103D300020202020204D3D4C00000000202020208D
:103D400020503D25642525002020202020563D259B
:103D50002E31660020202020202020205245434480
:103D60000000000020202020204E3D25640000009F
:103D700020202020204D483D252E316600000000E7
:103D800020202020204D4C3D252E316600000000D3
:103D900070B5124D044601224FF47F412846FEF7CC
:103DA00026F90F4E012204213046FEF720F90022A9
:103DB00004213046FEF71BF9210200222846FEF7B7
:103DC00016F9012204213046FEF711F93046BDE80C
:103DD000704000220421FEF70AB9000000080048E4
:103DE000000C0048F0B587B014216846FCF74BFB87
:103DF0002D48C16C41F00401C164C16C01F00401A3
:103E00000591C16C41F02001C164C16C01F0200139
:103E10000591C16C41F00101C164C16C01F0010167
:103E20000591C16C41F00201C164C16C01F0020155
:103E30000591C16C41F00801C164C06C1B4E00F0DB
:103E400008004FF47F440590012221463046FEF7DA
:103E5000CEF8174F002204213846FEF7C8F8012596
:103E6000CDE9004500240294694630460394FDF7ED
:103E70009FFFCDE9005469464FF090400294FDF752
:103E800097FF0720CDE9000469460A480294FDF730
:103E90008FFF04200090CDE9015469463846039411
:103EA000FDF786FF07B0F0BD001002400008004893
:103EB000000C004800040048184930B40A6818484B
:103EC000036AD21A642A26D909680162017C034672
:103ED00081F0010101749A79847B1B7A64B121EA33
:103EE000030112B131B106210BE009B1072108E04D
:103EF000052106E0042104E021EA030132B101B109
:103F00000221017130BCC8B2FFF742BF09B10321E1
:103F1000F7E70121F5E730BC7047000060000020A2
:103F200000000020FEE7FEE710B58EB000240794E5
:103F3000089409940A940B940C941C2168460D94DF
:103F4000FCF7A1FA1D484FF0804101604F21C0E904
:103F50000114F921C0E903148461FEF720FE08B1C1
:103F6000FDF7E6FA4FF48050079007A91348FEF7D3
:103F70008BFE08B1FDF7DCFA1048FFF72EFA08B106
:103F8000FDF7D6FA0B940BA90C480D94FEF7B8FD7B
:103F900008B1FDF7CDFA602000901920CDE90104A9
:103FA0000422694605480494FFF785F908B1FDF736
:103FB000BFFA0248FFF758F90EB010BD7C00002090
:103FC00010B590B0002409940A940B94142104A80D
:103FD0000C94FCF758FA2D480D940F940E9400940D
:103FE000019402942849039401604F21C0E901140F
:103FF0004FF6FF71C0E903148461FEF7D0FD08B1EC
:10400000FDF796FA4FF48050099009A91F48FEF772
:104010003BFE08B1FDF78CFA1C48FEF78BFF08B198
:10402000FDF786FA042004906020CDE9050404A978
:1040300016480894FFF798FA08B1FDF779FA0D943D
:104040000DA912480F94FEF75BFD08B1FDF770FA59
:1040500002200090CDE90104002269460B48039438
:10406000FEF7BEFE08B1FDF763FA0120CDE900407E
:10407000042269460548FEF7B3FE002801D0FDF78B
:1040800057FA10B010BD000000040040C800002026
:104090007047000030B589B020216846FCF7F3F97D
:1040A00019481849002401608902C0E90114C4605C
:1040B00004250461C0E905450477447701210162C4
:1040C00080F82440C462046380F83840C46380F8F8
:1040D0004040FDF7ABFC08B1FDF72AFA0B48009011
:1040E00006200190072002907F200594CDE903056A
:1040F00069460548FDF784FA002801D0FDF718FA53
:1041000009B030BD00010050140100200080F03ED5
:1041100030B501210020FFF7C3FC4FF47A70FDF7A2
:10412000F9F900210120FFF7BBFC41F2907110204A
:10413000FFF7B6FC4FF41C516020FFF7B1FC0121E2
:104140006120FFF7ADFC02214620FFF7A9FC48F2F1
:1041500010011320FFF7A4FC48F2FE011220FFF724
:104160009FFC4FF4A0610220FFF79AFC41F230015E
:104170000320FFF795FC40F2033421463020FFF77F
:104180008FFC21463120FFF78BFC21463220FFF7C0
:1041900087FCE51E29463320FFF782FC03213420EB
:1041A000FFF77EFC21463520FFF77AFC14213620EC
:1041B000FFF776FC21463720FFF772FC21463820B6
:1041C000FFF76EFC21463920FFF76AFC29463A20AA
:1041D000FFF766FC03213B20FFF762FC21463C20F1
:1041E000FFF75EFC4FF4A0513D20FFF759FC4FF460
:1041F00000719220FFF754FC21469320FFF750FCFA
:1042000040F60D019020FFF74BFC41F2180103200E
:10421000FFF746FCBDE8304040F273110720FFF77E
:104220003FBC10B543F20801E320FFF739FC12212F
:10423000E720FFF735FC41F23121EF20FFF730FC9A
:1042400000210120FFF72CFC4FF4E0610220FFF772
:1042500027FC41F230010320FFF722FC002104205B
:10426000FFF71EFC40F207210820FFF719FC002190
:104270000920FFF715FC00210A20FFF711FC00219F
:104280000C20FFF70DFC00210D20FFF709FC002199
:104290000F20FFF705FC00211020FFF701FC07218C
:1042A0001120FFF7FDFB00211220FFF7F9FB002191
:1042B0001320FFF7F5FBC820FDF768FD41F2906180
:1042C0001020FFF7EDFB40F227211120FFF7E8FB5C
:1042D0003220FDF75BFD1D211220FFF7E1FB3220AC
:1042E000FDF754FD4FF400611320FFF7D9FB1421B3
:1042F0002920FFF7D5FB0B212B20FFF7D1FB322024
:10430000FDF744FD00212020FFF7CAFB00212120FA
:10431000FFF7C6FB07213020FFF7C2FB40F2077111
:104320003120FFF7BDFB06213220FFF7B9FB40F239
:1043300004713520FFF7B4FB41F604713620FFF716
:10434000AFFB04213720FFF7ABFB00213820FFF73C
:10435000A7FB40F206713920FFF7A2FB40F2017182
:104360003C20FFF79DFB0F213D20FFF799FB00212B
:104370005020FFF795FBEF215120FFF791FB002123
:104380005220FFF78DFB40F23F115320FFF788FBCF
:104390004FF41C516020FFF783FB01216120FFF7E0
:1043A0007FFB00216A20FFF77BFB00218020FFF7C5
:1043B00077FB00218120FFF773FB00218220FFF7AC
:1043C0006FFB00218320FFF76BFB00218420FFF7A8
:1043D00067FB00218520FFF763FB10219020FFF78A
:1043E0005FFB00219220FFF75BFB03219320FFF787
:1043F00057FB4FF488719520FFF752FB002197205F
:10440000FFF74EFB00219820FFF74AFB41F218010D
:104410000320FFF745FBBDE8104040F27311072071
:10442000FFF73EBB704700002DE9F0411D4C214DC8
:1044300020462DED028B4FF000084179E3791A4AAE
:104440009FED1A8BC08A2F6813B3A03080B24FF44F
:10445000FA53E082984222D2E08AB2FBF0F086B2B0
:10446000268306FB01F000F04EFF53EC182B00F002
:1044700099FF00F01BFF80B26083FE62EE60296846
:1044800088632968C1F82480BDEC028BBDE8F08107
:10449000A03880B24FF47A63E0829842DCD8E3829D
:1044A000DAE700000000002040420F007B14AE4716
:1044B000E17A843F7C0000202DE9F0413A4C2DED5B
:1044C000028BFDF791F800F01EFF9FED381B53ECB7
:1044D000112B00F067FF9FED371B53EC112B00F001
:1044E00061FF41EC100B9FED351B84ED120B53EC7B
:1044F000112B00F01BFF01D80A201EE09FED310BAD
:1045000053EC102B94ED120B51EC100B01F048F80A
:1045100001D8552011E09FED2D0B53EC102B94ED9D
:10452000120B51EC100B00F03DFF9FED2A1B53ECDA
:10453000112B01F06BF800F0B9FE6071E1790026F3
:10454000002926489FED268B274DE18A23D0A031F4
:1045500089B24FF4FA52E182914223D2E18AB0FB50
:10456000F1F087B22783617907FB01F000F0CBFE01
:1045700053EC182B00F016FF00F098FE80B2608319
:104580002968CF62EF602968886328684662BDECBD
:10459000028BBDE8F081A03989B24FF47A62E182E2
:1045A0009142DBD8E282D9E70000002066666666A9
:1045B00066660A40000000000000303F0000000076
:1045C0000000F03F00000000000008400000000074
:1045D00000C042400000000000803B4040420F000D
:1045E0007B14AE47E17A843F7C000020FDF70ABDD2
:1045F00010B594B038216846FBF745FF14210EA88A
:10460000FBF741FF4FF40070FDF78EFD0120009095
:104610000004019002200324CDE907041421CDE910
:104620000A100C900D9009946846FEF74DF808B1F9
:10463000FCF77EFF0F20CDE90E04002010901190B2
:10464000129002210EA8FDF719FF002801D0FCF7F7
:104650006FFF14B010BD00000248016841F4700102
:104660000160704788ED00E00148FEF72BBD0000B7
:10467000C80000202DE9F0430268254B254D264E49
:10468000264C4FF08049984207D0484505D0A842B3
:1046900003D0B04201D0A04203D122F070074A6893
:1046A0003A431F4FDFF87CC0DFF87C8098420DD082
:1046B00048450BD0A84209D0B04207D0A04205D04F
:1046C000B84203D0604501D0404503D122F4407583
:1046D000CA682A434D6922F080022A438D68C56268
:1046E0000D688562984207D0A04205D0B84203D039
:1046F000604501D0404501D109690163016841F07D
:1047000004010160012141610260BDE8F083000005
:10471000002C01400004004000080040003401402B
:1047200000400140004401400048014010B501F044
:104730001F030121046A99408C430462016A9A4074
:104740001143016210BD10B5846842EA032224F4CB
:104750007F440A432243826010BD00008268034BFD
:104760001A400A4342F00701816070478FFFCFFF74
:104770002DE9F043056A026A22F0010202624368F1
:1047800082691E4C25F0020522400C6822F00302CB
:1047900014438A681B4E2A43194D1B4FDFF86CC027
:1047A000DFF86C90A84207D0B04205D0B84203D0E1
:1047B000604501D048450AD1D0F8208028F004088F
:1047C000C0F8208022F00808CA6842EA0802A8421D
:1047D00007D0B04205D0B84203D0604501D048456B
:1047E00005D14D6923F440731D438B692B4343600E
:1047F0008461496841630262BDE8F0838FFFFEFF78
:10480000002C0140003401400040014000440140C0
:1048100000480140F0B5056A026A22F01002026207
:10482000426883691A4C1C4E23400C6823F4407381
:1048300043EA042425F020038D6843EA0513154D4F
:10484000A84201D0B04208D1076A27F040070762AA
:10485000CF6823F0800343EA0713A8420AD0B0428E
:1048600008D00E4DA84205D00D4DA84202D00D4DE6
:10487000A84207D14D6922F4406242EA85028D695F
:1048800042EA850242608461496881630362F0BD47
:10489000FF8FFFFE002C014000340140004001402A
:1048A0000044014000480140F0B5056A026A22F464
:1048B000807202624268C3691A4C1C4E23400C6825
:1048C00023F003031C4325F400738D6843EA05239A
:1048D000154DA84201D0B04208D1076A27F480677D
:1048E0000762CF6823F4006343EA0723A8420AD093
:1048F000B04208D00E4DA84205D00E4DA84202D0BD
:104900000D4DA84207D14D6922F4405242EA0512EA
:104910008D6942EA05124260C4614968C16303625D
:10492000F0BD00008FFFFEFF002C0140003401406D
:10493000004001400044014000480140F0B5056AD4
:10494000026A22F4805202624268C3691A4C1C4E09
:1049500023400C6823F4407343EA042425F40053F5
:104960008D6843EA0533154DA84201D0B04208D105
:10497000076A27F480470762CF6823F4004343EABD
:104980000733A8420AD0B04208D00E4DA84205D045
:104990000D4DA84202D00D4DA84207D14D6922F419
:1049A000404242EA85128D6942EA85124260C46142
:1049B000496801640362F0BDFF8FFFFE002C0140D7
:1049C00000340140004001400044014000480140E3
:1049D00030B5056A026A22F4803202624268036DD1
:1049E000114C23400C681C4325F400330D8943EA25
:1049F00005430E4DA8420BD00D4DA84208D00D4DD9
:104A0000A84205D00C4DA84202D00C4DA84204D1BA
:104A10004D6922F4803242EA052242600465496809
:104A20008164036230BD00008FFFFEFF002C014057
:104A30000034014000400140004401400048014072
:104A400030B5046A026A22F4801202624268036D81
:104A5000114D24F400142B400D6843EA05230D8901
:104A600044EA05540D4DA8420BD00D4DA84208D084
:104A70000C4DA84205D00C4DA84202D00B4DA842C7
:104A800004D14D6922F4802242EA85224260036506
:104A90004968C164046230BDFF8FFFFE002C0140F5
:104AA0000034014000400140004401400048014002
:104AB00070B505680024AA682E4B1A404B68134352
:104AC0002D4A13400A681A43AA604A68602A4AD0ED
:104AD0000DDC302A1FD005DCEAB1102A1BD0202AB9
:104AE00018D118E0402A1FD0502A13D135E0234DA9
:104AF000531BAA420FD009DC702A0ED0B2F1101F4E
:104B000009D0203AB2F5801F04D104E0102B02D066
:104B1000402B00D00124204670BD0B69D1E9022151
:104B20000068FFF710FEF6E70A68052A13D0B2F115
:104B3000011F10D00268136A156A25F0010515627D
:104B400002689569096925F0F00545EA011191614E
:104B500000680362DFE7012070BD0A6989680068A8
:104B600000F00EF8D7E70A698968006800F082F85B
:104B7000D1E700008FFFCFFFF8FFFEFF30001000ED
:104B800010B5036A046A24F0010404620E4CA042CA
:104B90000BD00E4CA04208D00D4CA04205D00D4CBD
:104BA000A04202D00C4CA04203D1046A24F00404B9
:104BB0000462846924F0F00444EA021423F00A0237
:104BC0000A438461026210BD002C014000340140A0
:104BD000004001400044014000480140F0B5056A32
:104BE000046A24F0010404621B4E1C4FDFF870C0FD
:104BF000B04209D0B84207D0604505D0194CA04258
:104C000002D0194CA04203D1046A24F004040462C7
:104C10008469B0420CD0B0F1804F09D0134EB0423D
:104C200006D0134EB04203D0B84201D0604503D144
:104C300024F00304144301E044F001041A0724F0B3
:104C4000F00444EA126225F00A0301F00A01194354
:104C500082610162F0BD0000002C0140003401407F
:104C60000040014000440140004801400004004071
:104C70000008004010B5036A046A24F010040462BE
:104C80000A4CA04202D00A4CA04203D1046A24F08C
:104C900040040462846923F0A00324F4704444EACD
:104CA000023243EA01118261016210BD002C014011
:104CB0000034014030B5046A056A25F0100505622C
:104CC0000F4DA84202D00F4DA84203D1056A25F02E
:104CD00040050562856925F4407545EA022222F403
:104CE00070454FF6FF7202EA033224F0A0032A4314
:104CF000A02404EA011119438261016230BD000061
:104D0000002C014000340140FEE703B4019841004B
:104D1000009850EAC12018BF04204A0D18BF40F087
:104D2000010040F2FF72B2EB515F08BF40F0020099
:104D3000012808BF052002B070470907090E0028A6
:104D400004DB00F1E02080F80014704700F00F0051
:104D500000F1E02080F8141D704730380A2801D295
:104D60000120704700207047FDF754F9FFF740FC21
:104D7000FFF738F8FEF7C4FD0020FEF719FD4FF6E7
:104D8000FF70FEF72BFE0020FEF714FEFFF782F9FE
:104D9000FFF7CAF804211148FEF752FBFFF710F99C
:104DA0000F48FDF7FCFE04210D48FEF7F5F8002141
:104DB0000B48FEF7F1F80B4D41F288360A4C0127FB
:104DC000FFF77AF8FEF7FEFBFEF7C6FE2868E16AF9
:104DD000401AB042F4D92772F2E700007C000020AC
:104DE000C8000020600000200000002010B500294D
:104DF0000AD00878002807D005487844FBF722FF3E
:104E0000002801D0002010BD0248784410BD0000E9
:104E1000761D00006E1D000081F00041704780F09B
:104E20000040704721F00041704720F0004070477B
:104E300021F00042A2F16052B2F5801F01F0004360
:104E400028BFD2F17F6C0BD95FEA001C43EAC20293
:104E500042EB507018BF704728BF20F00100704728
:104E6000B2F5801FBCBF184670474FEA410C1CF5D5
:104E7000001F02D2084600F029BD70B500F03CFBCF
:104E800000000089FFF7F6BF4FF00040A0F580005A
:104E90007047000010B591EA030F48BF83F000434C
:104EA00000F1BC83841A71EB030C05D2121943EB99
:104EB0000C03001B61EB0C01DFF824E14FEA1154F5
:104EC000A4EB135C1EEA430F18BF9EEA445F73D045
:104ED00023EA0E03DCF1200E21EA045143F480138F
:104EE00032D322FA0CFE10EB0E0023FA0CFE41EB3B
:104EF0000E01CCF1200E03FA0EFE10EB0E0051F164
:104F00000001B1F5801FCCF1200E32D201EB04512B
:104F100012FA0EF2BDE8104058BF7047401C38BF6F
:104F20005FEA420218BF7047002814BF20F001005A
:104F300041F100014FEA410313F5001F38BF7047EC
:104F4000A1F1C04100F026BB012A43EB0302ACF102
:104F5000200CDCF11F0E32BF4FF0000E23FA0CF3D1
:104F600010EB030041EB0451B4EB115FD0D0A1EB87
:104F7000045101F5801149085FEA300001EB04514A
:104F80000ED350F1000038BF12FA0EFE08D1BDE872
:104F90001040C9E7401C38BF5FEA4202CAD1C3E7EC
:104FA000BDE810404FEA410313F5001F38BF7047BA
:104FB000A1F1C04100F0EEBA9EEA445F08D011EAC8
:104FC0005E0FBDE8104004BF01F0004100207047B3
:104FD000BDE8104070B500F08FFA00BF64FBBE3E24
:104FE0000000E0FF491058BFC1F140415B1058BFBD
:104FF000C3F140438B42EFF3008070472DE9C0417D
:1050000030B4DFF8A0C23CEA111418BF3CEA131414
:1050100000F0EC8081EA03051CEA111444EAD5741F
:1050200018BF1CEA131500F0C780A4EB05044FF06D
:10503000004545EAC12145EAC32341EA505143EA0C
:10504000525304F17F74994204F500344FEAC020B2
:105050004FEAC22208BF904200F09C804FEA1365DD
:105060000FF24016765D4FEA134506FB05F7C7F1D0
:10507000807706FB07F74FEAD737A7FB036876422E
:10508000C8F58038A7FB06CE38BFA8F1010807FB9A
:1050900008E64FF0000EA6FB028CE6FB03CEDCF127
:1050A000000CCEF1004E38BFAEF1010EA6FB0C583D
:1050B0004FF000074FF00005E6FB0E87A1FB08C686
:1050C000A0FB07CE16EB0E0645F10005E1FB0765D8
:1050D00015F1E04E7EBFA4F580345FEA46066D41CF
:1050E00016F1800745F100054FEA17274FEA0666DB
:1050F00047EA0567A6F1DE46B6F1805F4FEA15255F
:105100001FD9384624F0010C05EBC471BCF1FE6FC9
:1051100001EB0C1102D8F0BCBDE8008124425CBF59
:1051200001F5801E9EEAC47F02D4F0BCBDE8008178
:10513000244238D4F0BCA1F1C041BDE8004100F0E8
:1051400029BA4FEAD22242EA43524FEAD323A7FBBD
:1051500002864FEAD02040EA415007FB03661EEA70
:105160000E0F4FEAD12105FB026658BFA6EB005691
:10517000B6EB00564FEA520E4EEAC37E18EB0E0E07
:1051800056EB530EBDD518EB02085E417F1C55F15E
:105190000005B6E74FF480154FF000074FF000060A
:1051A0004FF00008ADE7F0BC4FF0000001F1C04146
:1051B00001F00041BDE8008111EA0C1F0CEA131553
:1051C00000D00CE013EA0C1F00F025804FF0000027
:1051D000F0BC81EA030101F00041BDE80081F0BCB0
:1051E000BDE8004181EA030100F0D4B9F0BCBDE89C
:1051F000004170B500F080F9097EFC3E00F007B870
:1052000081EA03014FF0000001F00041704781EA9C
:10521000030100F0BFB9F0BCBDE800414FF0000051
:1052200021497047FFFDFBF9F7F5F4F2F0EEEDEBE5
:10523000E9E8E6E4E3E1E0DEDDDBDAD8D7D5D4D394
:10524000D1D0CFCDCCCBCAC8C7C6C5C4C2C1C0BFE0
:10525000BEBDBCBBBAB9B8B7B6B5B4B3B2B1B0AFE6
:10526000AEADACABAAA9A8A8A7A6A5A4A3A3A2A1CA
:10527000A09F9F9E9D9C9C9B9A9999989797969585
:1052800095949393929191908F8F8E8E8D8C8C8B21
:105290008B8A8989888887878685858484838382A9
:1052A000828181800000FF070000F87F4FEA1153E0
:1052B000A3F58063D3F11E03A8BFD3F1200C08DB54
:1052C0004FF0004242EAC12252EA505232FA03F051
:1052D000704709420BD4102BC4BF0020704703F560
:1052E000787CBCF1FF3F05D04FF0FF3070474FF0A6
:1052F0000000704770B500F0FFF800BF49922480AD
:1053000000207047F0E7B0FA80F310FA03F10AD0FA
:10531000C3F11D0303F580634FEA41504FEA035286
:1053200002EBD12170474FF00000704751EA030CA7
:1053300017D41CF5801F58BFBCF5801F00F10680F4
:10534000994218BF704708BF9042704707D711F5C0
:10535000801F58BF13F5801F19D4994270478942A6
:1053600070471CF5801F08D5BCF5801FF7D58B4210
:1053700018BF704708BF824270474FF4001C1CEBF7
:10538000410F38BF1CEB430F01D28B42704770B501
:1053900000F0B2F8922449004FF000514FF08053D2
:1053A000FFF720BEDFF848C170B51CEA111E1EBF12
:1053B0001CEA13159EEA0C0F95EA0C0F00F06F80A3
:1053C00081EA030423EA4C134EEAD47E21EA4C110D
:1053D00041F4801143F48013AE44A1FB024CA0FBC6
:1053E0000365AEF17F7E361955EB0C05A1FB034C2E
:1053F0004CF10003A0FB021C16EB0C06654153F1B7
:105400000003094218BF46F0010613F4007F0BD1D8
:105410004FEA03314FEA0530340341EA155140EABF
:1054200016506FF003020AE04FEAC3214FEAC5208D
:10543000F40241EA555140EA56506FF0020202EB85
:105440002E4201EB025585EACE710AD05FEA440C88
:1054500018BF24F0004450F1000041F1000120EA9F
:10546000D47040F2FE7C624500D270BDA84214BFE9
:105470004FF080444FF04044002E08BF0024BEF19E
:10548000806FA8BFA1F1C041BDE8704080F282806A
:105490004FF0000001F1C04101F0004170479EEA69
:1054A0000C0F0CEA131518BF95EA0C0F06D04FF03D
:1054B000000081EA030E0EF0004170BD00F01CF800
:1054C0008900013E00F007B800F009B84FEA430C2C
:1054D0005FEA5C5C08D081EA030100F05BB84FEA48
:1054E000410C5FEA5C5CF6D14FF000000149704767
:1054F0000000FF070000F87F0EF1020E2EF0030EF1
:105500005EF8046B364205D4012A43EB030515F51A
:10551000001F12D8012841EB010C1CF5001F0CD80C
:105520000ED14FEAD17C15F5001F0CEB4C0C0CF1A1
:10553000020C08BF4CEBD37C04E04FF0080C01E0F8
:105540004FEAD37C0CEB4C0526FA05F606F007066D
:10555000B6F1040C06D20EEB860CBDE870404CF0A0
:10556000010C6047DFE80CF0090B02024FF000412C
:105570004FF00000A1F5002170BD1946104601282A
:1055800051EB010418BFD4F5001484BF002001F0D2
:10559000004170BD0808A0F500114FEA31017047C5
:1055A00053EA010C17D41CF5801F58BFBCF5801FAF
:1055B00000F106808B4218BF704708BF82427047D7
:1055C00007D713F5801F58BF11F5801F19D48B42E0
:1055D00070479B4270471CF5801F08D5BCF5801FA3
:1055E000F7D5994218BF704708BF904270474FF4F3
:1055F000001C1CEB430F38BF1CEB410F01D299423A
:1056000070470FB40CBC03BCFFF7C1BE10B591EAE4
:10561000030F48BF83F000433FF544AC841A71EB9D
:10562000030C07D212198CF0004C43EB0C03001B47
:1056300061EB0C01DFF8A4E14FEA1154A4EB135C19
:105640001EEA430F18BF9EEA445F00F0B08023EAD1
:105650006E03524221EA0451C3EB6E0338BF5B1E56
:10566000DCF1200E25D322FA0CFE10EB0E0043FADB
:105670000CFE41EB0E01CCF1200E03FA0EFE10EBF6
:105680000E0051F10001CCF1200E29D412FA0EF2D5
:1056900001EB0451BDE8104058BF7047401C1CBFCF
:1056A000B2F1004F704700280CBF491C20F00100E8
:1056B000704712EB020E43EB030218BF4FF0010ECE
:1056C0004EEA4202ACF1200CDCF11E0E54D943FA32
:1056D0000CFE10EB0E0051F1FF31CCF11E0ED5D5B2
:1056E0000EF1010E12FA0EFE404141EB010101EBF9
:1056F000445C5FEA5C5C10D910EBDE7001EB045196
:1057000038BFBEF1004FBDE8104018BF70470028F9
:105710000CBF491C20F00100704730D24FEAD42C56
:1057200011F5001124F400641BD0B1FA81F20B3A98
:10573000A41AA41ED2F12003914030FA03F31943B6
:10574000904001EBCC71002C01EB0451BDE81040FE
:10575000A8BF704701F1C0414FF0000001F00041C7
:105760007047B0FA80F310FA03F100D110BDE41ACB
:10577000173C4805C90AE4E701EB045110BD491084
:1057800001EB0451BDE810404FEA300002E04FF059
:10579000000170474A0008BF0042F8D0B2F5001F70
:1057A00028BF704701F000414FF0000070479EEAAB
:1057B000445F07D011EA5E0FBDE8104004BF00212E
:1057C00000207047BDE8104070B5FFF795FE00BFA0
:1057D00040DFF63E83F00041104670470000E0FFD6
:1057E00043004FEAD30C4FEA3C0C43401FBF400735
:1057F0000CF1605113F0FE4F70471CF0006F03D1A5
:1058000000200CF0004170470CF0004343EA507058
:1058100010B540EACC0000F00EF800BF0000009286
:105820004FEA0001FFF7B6BE4FF000414FF0000015
:10583000A1F5002170470EF1020E2EF0030E5EF866
:10584000044B244204D44FEA4102B2F17F4F11D8F5
:105850004FEA4003B3F17F4F0CD80ED14FEAD07C12
:10586000B2F17F4F0CEB4C0C0CF1020C08BF4CEB6F
:10587000D17C04E04FF0080C01E04FEAD17C0CEB46
:105880004C0324FA03F404F00704B4F1040C06D228
:105890000EEB840CBDE810404CF0010C6047DFE8D3
:1058A0000CF0070802024FF00040A0F5800010BD88
:1058B0000846420018BFD2F1807288BF00F0004055
:1058C00010BD4FF04070E1EE100A7047FF2141EA31
:1058D000D050C0057047FAF732BF0000000000004A
:1058E00000000000000000000000000000000000B8
:1058F00000000000000000000000000000000000A8
:105900000000000000000000000000008001800195
:10591000800180018001800180018001800180017F
:1059200080018001800100000000800180010000F2
:105930000000000000000000000000000000CC009B
:10594000CC00CC00CC00CC00CC000000000000005B
:105950000000000000000000000000000000000047
:105960000000000000000000000000000000000037
:10597000000000000000600C600C600C3006300677
:10598000FE1FFE1F300638071803FE1FFE1F1803F8
:1059900018038C018C018C01000000008000E003E2
:1059A000F80F9C0E8C1C8C188C009800F801E007F6
:1059B000800E801C8C188C189C18B80CF00FE0031B
:1059C00080008000000000000000000000000000D7
:1059D0000E181B0C110C11061106110311039B016B
:1059E0008E01C038C06C6044604430443044184478
:1059F000186C0C380000000000000000E001F0030B
:105A00003807180618063003F001F000F8009C3142
:105A10000E33061E061C061C063FFC73F021000018
:105A200000000000000000000000000000000C006A
:105A30000C000C000C000C000C000000000000002A
:105A40000000000000000000000000000000000056
:105A50000000000000000000000000000002000341
:105A60008001C000C00060006000300030003000E5
:105A70003000300030003000300060006000C000B6
:105A8000C000800100030002000000002000600050
:105A9000C00080018001000300030006000600062C
:105AA0000006000600060006000600030003800151
:105AB0008001C00060002000000000000000000025
:105AC000000000000000C000C000D806F807E00198
:105AD0003003380700000000000000000000000054
