:020000040800F2
:1000000050080020890200084F340008F129000838
:100010004D340008D10700082D4200080000000000
:10002000000000000000000000000000113B00087C
:100030003908000800000000E9360008133B0008FA
:10004000A3020008A3020008A3020008A3020008FC
:10005000A3020008A3020008A3020008A3020008EC
:10006000A3020008A3020008A3020008A3020008DC
:10007000A3020008A3020008A3020008A3020008CC
:10008000A302000800000000A3020008A302000869
:10009000A3020008A3020008A3020008A3020008AC
:1000A000A3020008A3020008A3020008A30200089C
:1000B0008D3B0008A3020008A3020008A302000869
:1000C000A3020008A3020008A3020008A30200087C
:1000D000A3020008A3020008A3020008A30200086C
:1000E000A3020008A3020008A3020008A30200085C
:1000F000A3020008A3020008A302000800000000F9
:1001000000000000A302000800000000A302000895
:10011000A302000800000000A3020008A3020008D8
:10012000A3020008A3020008A3020008A30200081B
:10013000A30200080000000000000000A302000865
:10014000A3020008A3020008000000000000000055
:10015000000000000000000000000000000000009F
:10016000000000000000000000000000A3020008E2
:10017000A3020008000000000000000000000000D2
:1001800000000000A30200080000000000000000C2
:10019000000000000000000000000000000000005F
:1001A0000000000000000000A3020008A3020008F5
:1001B000A3020008A3020008A30200080000000038
:1001C00000000000A3020008000000000000000082
:1001D000A3020008A302000800F002F800F044F8AF
:1001E0000AA090E8000C82448344AAF10107DA4592
:1001F00001D100F039F8AFF2090EBAE80F0013F0A0
:10020000010F18BFFB1A43F001031847F057000015
:1002100010580000103A24BF78C878C1FAD85207A5
:1002200024BF30C830C144BF04680C607047000070
:100230000023002400250026103A28BF78C1FBD8EF
:10024000520728BF30C148BF0B607047642900F0D7
:100250009F80632900F01F82002070471FB504F0C3
:10026000CFFA1FBD10B510BD00F021FA1146FFF7FF
:10027000F5FF03F0F3FF00F03FFA03B4FFF7F2FFDE
:1002800003BC00F047FA00000948804709480047CE
:10029000FEE7FEE7FEE7FEE7FEE7FEE7FEE7FEE736
:1002A000FEE7FEE704480549054A064B7047000093
:1002B0007D3B0008D90100085002002050080020B2
:1002C00050040020500400200FB41CB5074B06AAB0
:1002D0007B4469460090059800F0BBF90020694610
:1002E00000F0CAF91CBC5DF814FB0000A503000077
:1002F00070B5044685690068C10601D5302600E066
:100300002026C00707D070BDD4E9012130469047B0
:10031000206A401C20626D1EF6D570BD70B5044683
:1003200085690078C00707D170BDD4E9012120207C
:100330009047206A401C20626D1EF6D570BD70B5D6
:100340000C460546012A05D02878800600D5EA69C2
:10035000002302E0012305E05B1C934202D2E05C33
:100360000028F9D1A869E618C01AA861286A1844BB
:1003700028622846FFF7BCFF04E0D5E9012114F804
:10038000010B9047B442F8D32846FFF7C7FF70BD72
:100390002DE9F0410646002410687529314616A55E
:1003A00010D0AFF30080002802DA404213A507E026
:1003B00031688A0701D512A502E0490704D511A5C5
:1003C000012401E0AFF3008000210A2206F1240796
:1003D00009E0B0FBF2FCB0FBF2F302FB1C00303092
:1003E00078541846491C0028F3D123462A46304643
:1003F000BDE8F04100F0CEB8000000002D00000084
:100400002B000000200000002DE9F05F8946044623
:100410004FF0000ADFF824B1FB44C0F820A02046CA
:10042000E168884700287DD0252806D0D4E901213D
:100430009047206A401C2062F1E700255F46204675
:10044000E16888472028064607DB312E05D2B81917
:1004500010F8200C08B10543F1E7A80701D525F0F5
:100460000405C4F81CA00027C4F818A02A2E09D03F
:10047000304603F0ECFE38B304EB8708303EC8F892
:10048000186019E059F8041B204604EB87029161BB
:10049000E1688847012F064618D1E069002820DA74
:1004A00025F020051DE0D8F8180000EB800006EBD1
:1004B00040003038C8F818002046E16888470646F2
:1004C00003F0C5FE0028EED1012F0AD02E2E08D150
:1004D0002046E16888477F1C0646022F45F020052C
:1004E000C4DBA069002803DA404245F00105A061A1
:1004F000E80701D025F01005A6B1A6F141001928A2
:1005000002D8203645F400654A463146204625602B
:100510004D46FFF79BFE60B1012807D0ED1D25F089
:10052000070000E007E000F1080978E705F1040999
:1005300075E730467AE7206ABDE8F09FCE550000A7
:100540004FF0000200B5134694469646203922BF6C
:10055000A0E80C50A0E80C50B1F12001BFF4F7AFB7
:10056000090728BFA0E80C5048BF0CC05DF804EB99
:10057000890028BF40F8042B08BF704748BF20F807
:10058000022B11F0804F18BF00F8012B7047704705
:10059000704770472DE9F0470D469946924604464C
:1005A00000F124080168880604D5E06921F01001F3
:1005B000216000E00120A84201DD471B00E0002788
:1005C000A1697A1902EB0900081AA0612078C00617
:1005D00002D42046FFF78CFE002608E0D4E9012172
:1005E0001AF806009047206A401C761C20624E458F
:1005F000F4DB2078C0060AD52046FFF779FE06E036
:10060000D4E9012130209047206A401C2062381E26
:10061000A7F10107F4DC07E0D4E9012118F805008F
:100620009047206A401C2062281EA5F10105F3DCDA
:100630002046FFF773FE2078000602D50220BDE8B1
:10064000F0870120FBE7000001694A1C026108787D
:10065000704700B58FB0CDE9013100210591054902
:100660007944CDE9031011466846FFF7CDFE0FB07F
:1006700000BD0000E5FFFFFF0A6802F8010B0A60F9
:10068000704710B5436913B1AFF3008001E0FFF785
:1006900056FE012010BD127800F124010A700022DC
:1006A0004A700122EDE711684FF0FF32E9E7754625
:1006B00000F02CF8AE4605006946534620F00700CE
:1006C000854618B020B5FFF7EDFDBDE820404FF09E
:1006D00000064FF000074FF000084FF0000B21F02C
:1006E0000701AC46ACE8C009ACE8C009ACE8C009F9
:1006F000ACE8C0098D46704710B50446AFF30080E2
:100700002046BDE81040FFF7B8BD00000048704724
:10071000F001002001491820ABBEFEE726000200D0
:1007200070470000F8B504460020009020688168FA
:1007300011F0010F41D18168214A11422ED1816807
:10074000D5432940491C81601E48806800F0E07054
:1007500000020DD51C481D490068B0FBF1F0401C9B
:1007600000EB4000800000E0401E00900028FBD11C
:1007700000F02AFE06461BE0816811F0010F03D14C
:1007800081682940491C816000F01EFE801B022800
:100790000ED920680068C043C00709D0E06D40F062
:1007A0001000E065206E40F0010020660120F8BDD9
:1007B00020680168C943C907DED10020F8BD0000E8
:1007C0003F0000800003005068000020400D03003F
:1007D000FEE7000030B5164801681648026B4FF47A
:1007E0007A74891AA14206D3016B01F57A7101630B
:1007F000416B491C4163428A818A8A4201D9531A5A
:1008000000E08B1AC3829BB2A34201D9012400E00D
:100810000024C4700579E4B234EA050506D0828369
:10082000027A4272C1830384416B8163047130BDDB
:1008300064000020000000207047002240F6B8331A
:1008400006E00021491C89B29942FBD3521C92B2A6
:100850008242F6D3704772B6FEE7000010B5044836
:1008600000F002FC024800F08FFA80B210BD0000D8
:100870008000002010B5044800F0F6FB024800F0AC
:1008800083FA80B210BD0000EC0000202DE9F04793
:10089000044690F858009CB00E464FF0000901281D
:1008A00015D0012084F85800002517951895206868
:1008B0004FF0A04840450ED1284F0097384602F02F
:1008C000CBFB8246206802F0C7FB60B10EE002203D
:1008D0001CB0BDE8F087E06D40F02000E06584F8D2
:1008E00058500120F4E7BAF1000F09D0E06D40F054
:1008F0002000E0654FF0010984F858504846E7E7CA
:100900001748326840F61F71002A826822F460425C
:1009100016D094F8383042EA433273681A43826042
:10092000D8F80820BB6802F0010203F001031A4363
:10093000E2D1B36832681A4383688B431A430BE0F1
:100940008260D8F80820BB6802F0010203F00103BE
:100950001A43D1D182688A438260CDE700010050FA
:10096000000300502DE9F84F00270446009790F847
:100970005800DFF8E0930D46B846012811D0012653
:1009800084F85860206802F063FB60B1E06D40F0CD
:100990002000E0655FF0010784F858803846BDE824
:1009A000F88F0220FBE7D5E900210C23206803EA39
:1009B00091131844036B01F01F014FF01F0C0CFA48
:1009C00001FCC2F3846223EA0C038A4013430363ED
:1009D000206802F03DFB8246206802F035FB5AEAAF
:1009E00000003CD1AA6829682068B2F1004F37D0D6
:1009F00002F036FB2068416921F000414161206826
:100A00006969C268C2F3C102520091402A69042A8E
:100A100031D000EB82002B68026EDFF83CC303F09C
:100A2000F84302EA0C020B431A4342F0004101660C
:100A300020682A69A96900EB8200026E22F08072A8
:100A40000A430266297F22682869012910D0002103
:100A500002EB8000026E22F000720A4302667DE023
:100A6000002202F0FDFA2068416941F00041C5E72B
:100A70004FF00071ECE7002102F0E0FA400320683B
:100A80004FF0000172D002F0D9FA90FAA0F0B0FA5B
:100A900080F1286842036ED090FAA0F0B0FA80F09E
:100AA000814204D100221146206802F0E8FA0121B7
:100AB000206802F0C3FA400320684FF001015DD0C6
:100AC00002F0BCFA90FAA0F0B0FA80F12868420374
:100AD00059D090FAA0F0B0FA80F0814204D10022FF
:100AE0000121206802F0CBFA0221206802F0A6FA68
:100AF000400320684FF0020148D002F09FFA90FABC
:100B0000A0F0B0FA80F12868420344D090FAA0F037
:100B1000B0FA80F0814204D100220221206802F064
:100B2000AEFA0321206802F089FA400320684FF0F2
:100B3000030133D002F082FA90FAA0F0B0FA80F10B
:100B4000286842032FD090FAA0F0B0FA80F08142DA
:100B500004D100220321206802F091FA2068816804
:100B600011F0010F22D0ACE000E004E002F066FAE0
:100B7000C0F384618DE7C0F3846091E702F05EFA10
:100B8000C0F38461A2E7C0F38460A6E702F056FADE
:100B9000C0F38461B7E7C0F38460BBE702F04EFAAC
:100BA000C0F38461CCE7C0F38460D0E72A7B296876
:100BB00050F8B03FC1F3120C23EA0C0302F0180CFA
:100BC000664A22FA0CF20A4013430360E968494579
:100BD00077D1286841031CD090FAA0F1B1FA81F1D5
:100BE000491C01F01F0109294FEA403132D8002980
:100BF00012D000BF90FAA0F1B1FA81F101F1010128
:100C000001F01F0106FA01F609D100BFC0F38461AB
:100C100009E0C0F38461E3E7C0F38461EEE790FA92
:100C2000A0F1B1FA81F101F1010101F01F0146EAE1
:100C3000816102D1C0F3846003E090FAA0F0B0FAC1
:100C400080F000F1010000F01F0000EB400041EADD
:100C5000005132E000290ED090FAA0F1B1FA81F1F2
:100C600001F1010101F01F0106FA01F606D100BFF2
:100C7000C0F3846106E0C0F38461F1E790FAA0F16B
:100C8000B1FA81F101F1010101F01F0146EA816130
:100C900002D1C0F3846003E090FAA0F0B0FA80F0D3
:100CA00000F1010000F01F002D4A00EB400002EBB4
:100CB000005041EA000141F00071AA68206802F08A
:100CC000CFF928482A6802423FF466AE2648816878
:100CD000264B01F0E0719A4202D0254B9A421CD17A
:100CE0000B021AD42268B2F1A04F7FF455AE82688D
:100CF00041F4000122F0E0720A4382601D481E495F
:100D00000068B0FBF1F0401C00EB4000800000E008
:100D1000401E00900028FBD13EE6184D184BAA4219
:100D200007D1CD0105D422689A42F5D041F08071F7
:100D300009E0144DAA42EFD14A02EDD422689A424A
:100D4000EAD041F48001826822F0E0720A438260B6
:100D500022E6000000007F4000F0FF03FFFF0700D5
:100D6000000020FE0000088000030050000021C3A6
:100D70001000C09068000020400D0300000052C722
:100D800000010050000084CB0068006C7047000038
:100D9000F8B54FF0000504002E46009502D0E06D36
:100DA00010B107E00120F8BD204600F0EBF8266600
:100DB00084F8586020688168C1F3407119B1816876
:100DC000684A1140816020688168C1F3007189B967
:100DD0008168654A114041F08051816063486449EF
:100DE0000068B0FBF1F04000801C00E0401E009065
:100DF0000028FBD120688168C1F3007141B9E16D21
:100E000041F01001E165216E41F0010121660125EB
:100E100002F01EF9E16DC90600D430B1E06D40F07A
:100E20001000E06501252846F8BDE06D20F48070D3
:100E300040F00200E0652068806810F0010F11D1D9
:100E40004FF0A04080684B4900F00100896801F034
:100E50000101084306D148486168826822F47C1287
:100E60000A438260E168E06B627F0843A16841EA5F
:100E70004231084394F8241040EA0140012904D18A
:100E8000218D3E4A02EB41410843E16A29B101F458
:100E90007871226B014342EA01002268D168384B25
:100EA00019400143D16020680169626B21F0406103
:100EB00011430161206802F0C7F870BB207F94F8ED
:100EC0003810800340EA41022168C86844F20203F6
:100ED00098431043C86020690028206801690AD03F
:100EE00041F480310161206850F8C01F22696FF31E
:100EF0000D01114307E021F480310161206850F8B1
:100F0000C01F6FF30D01016094F8400001280CD060
:100F10002068016921F001010161606901282068F0
:100F2000016B21F00F0111D013E0D4E91101084346
:100F3000D4E913121143084321680A6940F2FC7393
:100F40009A43104340F001000861E6E7226A521E0E
:100F500011430163E06D20F0020040F00100E06504
:100F600061E70000C0FFFF5FC0FFFF7F6800002057
:100F7000400D030000010050000300500000FEFF80
:100F80000740F0FF2DE9F04397B00446142111A863
:100F9000FFF7D6FA44216846FFF7D2FA4FF0005027
:100FA00021682D4D0327DFF8B49086132C4C4FF0A9
:100FB0000008B1F1A04F10D02A4A914248D10096C2
:100FC0000F90684600F0FEFA08B1FFF744FC28686D
:100FD000401C2860012824D02BE000960F90684622
:100FE00000F0F0FA08B1FFF736FC2868401C2860D2
:100FF000012807D1E06C40F40050E064E06C00F49C
:1010000000501690E06C40F00200E064E06C11A922
:1010100000F0020016904FF4805081E881014846AC
:1010200014E0E06C40F40050E064E06C00F4005028
:101030001690E06C40F00200E064E06C11AA00F051
:101040000200169082E8C00111A9484600F098F805
:1010500017B0BDE8F08300005000002000040048F5
:1010600000100240000100502DE9F04104463848CC
:10107000806800F01F05206801F0EAFF18B1022126
:101080000846BDE8F08194F8580001280CD00120F2
:1010900084F858002046FFF745FB01004FF000039D
:1010A00004D084F85830EBE70220EAE7E06D40F620
:1010B0000162904340F48070E065264A20684FF05A
:1010C000A046904201D1374600E00746874200D053
:1010D0001DB9E76D27F48017E765E76DFF0404D5B8
:1010E000276E27F00607276600E023661C270760A7
:1010F00084F858302068904201D1334600E003461E
:10110000834215D0A5B1052D12D0092D10D0E36D65
:1011100043F48013E365904200D13046C0688001FB
:10112000AED5E06D20F4005040F48050E065A7E7B4
:10113000C268920105D5E26D22F4005242F4805259
:10114000E2658268044B1A40121D826098E7000035
:101150000003005000010050C0FFFF7F70B504463F
:1011600000F032F90546601C02D00448406804448F
:1011700000F02AF9401BA042FAD370BD5C000020A9
:101180002DE9F04FDFF80C92002301260325A9F189
:10119000040B85B00F2709F1040AABF1040EF1E04E
:1011A00006FA03FC12EA0C027ED00C7904F0030468
:1011B000012C01D0022C20D1846800945C0005FA37
:1011C00004F80494009C24EA08040094D1F80C80EC
:1011D000049C08FA04F8009C48EA0408C0F8088057
:1011E000446824EA0C0491F804C0CCF3001C0CFA07
:1011F00003FC4CEA040CC0F804C00C79E443A407D7
:1012000002D18C68012C0ED0C4684FEA430805FA5D
:1012100008FC24EA0C04D1F808C00CFA08FC4CEADB
:10122000040CC0F80CC00C7904F00304022C16D195
:10123000DC0800EB840CCDF808C0DCF820C05C07AB
:101240004FEAD46807FA08F42CEA040C0C6904FA93
:1012500008F444EA0C04DDF808C0CCF82040046827
:101260004FEA430805FA08FC24EA0C0491F804C08C
:101270000CF0030C0CFA08FC4CEA040CC0F800C09B
:101280004C6814F4403F7CD0434CD4F860C04CF020
:10129000010CC4F860C0246E23F0030C04F00104B8
:1012A00000943E4C644400E06BE00294A4684FEA72
:1012B000837C4FEA1C7807FA08FC24EA0C04B0F19E
:1012C000904F06D0DFF8D8C0604505D14FF0010C33
:1012D00020E04FF0000C1DE0DFF8C8C0604502D1EF
:1012E0004FF0020C16E0DFF8C0C0604502D14FF0AD
:1012F000030C0FE0DFF8B4C0604502D14FF0040CDE
:1013000008E0DFF8ACC0604502D14FF0050C01E009
:101310004FF0060C0CFA08FC4CEA040C029CC4F8D2
:1013200008C0D9F80040CC46D1F8048094435FEA65
:10133000C82800D51443CCF80040DAF80040D44661
:10134000D1F8048094435FEA882800D51443CCF890
:101350000040DBF80040DC46D1F8048094435FEAAB
:10136000883800D51443CCF80040DEF80040F4463D
:10137000D1F8048094435FEAC83800D51443CCF810
:1013800000405B1C0C682246DC407FF409AF05B0CE
:10139000BDE8F08F08040140001002400000014049
:1013A0000004004800080048000C004800100048F5
:1013B000001400480069084000D0012070470AB1BD
:1013C0008161704781627047014880687047000002
:1013D0005C000020024881684268114481607047C7
:1013E0005C00002010B50024032000F073F80020FA
:1013F00000F008F808B1012401E000F025F82046CB
:1014000010BD000070B50E4E05460024706898B1FE
:101410004FF47A71B1FBF0F00A490968B1FBF0F0C2
:1014200000F03CFD40B9102D06D200222946501E86
:1014300000F030F8356000E00124204670BD000067
:101440005C000020680000200A4882B0016E41F074
:1014500001010166016E01F001010091816D41F011
:1014600080518165806D00F08050009002B000F0E6
:10147000A1B8000000100240002809DB00F01F02A4
:10148000012191404009800000F1E020C0F80011E6
:1014900070470000F0B40E4B1B680C46C3F30223E8
:1014A000C3F10705042D00D90425191D072901D210
:1014B000002300E0DB1E012606FA05F1491E21404B
:1014C00099409E40761E16403143F0BC02F0AFBEFC
:1014D0000CED00E0064900F0070208684FF6FF0334
:1014E000184040EA0220034A104308607047000099
:1014F0000CED00E00000FA052B492C4B0A68322164
:101500004A432B4940B1B0F5007F086829D020F448
:10151000C06040F480602CE00868C0F341200228DD
:1015200004D051F8800F20F4807022E0D1F88000C0
:1015300020F48070C1F88000086820F4C06040F496
:1015400000700860B2FBF3F0401C00E0401E4A69E6
:10155000520501D50028F9D1486940050AD5032074
:101560007047C0F34120022806D051F8800F40F4A4
:101570008070086000207047D1F8800040F48070CF
:10158000C1F88000086820F4C06040F40070086072
:10159000B2FBF3F0401C00E0401E4A695205DBD567
:1015A0000028F9D1D8E700006800002040420F0071
:1015B000007000400248816841F4804181607047BA
:1015C000007000402DE9F8430446006800269D4D58
:1015D00000035ED5A86D0027C00008D4A86D40F0B8
:1015E0008050A865A86D012700F080500090DFF8BA
:1015F0005892D9F8001041F48071C9F80010FFF733
:10160000E3FE804606E000BFFFF7DEFEA0EB080029
:1016100002282BD8D9F80000C005F5D5D5F89000E0
:1016200010F4407014D0216C814211D0D5F8900094
:10163000D5F8901020F4407041F48031C5F8901036
:10164000D5F8901021F48031C5F89010C5F89000BD
:10165000C00711D0FFF7B8FE804641F2883907E095
:10166000FFF7B2FEA0EB0801494501D903260BE0C4
:10167000D5F890008007F3D5D5F89000216C20F4C0
:1016800040700843C5F890001FB1A86D20F080504D
:10169000A8652078C00707D0D5F88800616820F0D9
:1016A00003000843C5F888002078800707D5D5F8DF
:1016B0008800A16820F00C000843C5F88800207855
:1016C000400707D5D5F88800E16820F030000843CE
:1016D000C5F888002078000707D5D5F8880021696B
:1016E00020F0C0000843C5F888002078800607D5A0
:1016F000D5F88800616920F440600843C5F8880087
:101700002078400607D5D5F88800A16920F440501C
:101710000843C5F888002078000607D5D5F888006A
:10172000E16920F440400843C5F888002088C005DE
:1017300007D5D5F88800216A20F440300843C5F861
:1017400088002088800507D5D5F88800616A20F4D4
:1017500040200843C5F88800208840050FD5D5F8FB
:101760008800A16A20F440100843C5F88800A06AE8
:10177000B0F5801F03D1E86840F48010E86020884D
:1017800000050FD5D5F88800E16A20F44000084331
:10179000C5F88800E06AB0F5800F03D1E86840F42E
:1017A0008010E8602088C0040FD5D5F88800216B30
:1017B00020F040700843C5F88800206BB0F1807FAE
:1017C00003D1E86840F48010E86020884FF00061A1
:1017D00080040ED5D5F88800626B20F0406010437D
:1017E000C5F88800606B884203D1E86840F4801037
:1017F000E860208840040ED5D5F88800A26B20F060
:1018000040601043C5F88800A06B884203D1E868A7
:1018100040F48010E860208800040FD5D5F88800D7
:10182000E16B20F040500843C5F88800E06BB0F150
:10183000805F03D1E86840F48030E8603046BDE85E
:10184000F883000000100240007000402DE9F047CE
:101850000E4605004FF0000725D0DFF8AC81D8F820
:10186000000000F00F00B0420CD2D8F8001021F0B8
:101870000F013143C8F80010D8F8000000F00F0045
:10188000B04210D12968614CC80741F2883A5AD059
:101890006868DFF87C91032808D0022820682DD0E2
:1018A000400500282CDB0120BDE8F087206880017E
:1018B000F9D5E06800F00302E068C0F30310401CB3
:1018C000032A19D0534A00BFB2FBF0F0E268C2F31A
:1018D00006225043E268C2F34162521C5200B0FB40
:1018E000F2F0484517D9A06810F0F00F0CD0880727
:1018F00011D5A86840B10EE0474AE5E78003D0E77C
:1019000000F092F8484506D9A06820F0F00040F0B9
:101910008000A0608027A068696820F00300084369
:10192000A060FFF751FD814606E000BFFFF74CFDC8
:10193000A0EB090151453AD8A068696800F00C0095
:10194000B0EB810FF2D12868810714D5400703D589
:10195000A06840F4E060A0602878000705D5A06882
:1019600020F4605040F4E060A060A068A96820F016
:10197000F000084304E0802F03D1A06820F0F000BD
:10198000A060D8F80010404601F00F01B14216D90E
:10199000016821F00F0131430160FFF715FD074693
:1019A00007E000BFFFF710FDC11B514501D903201F
:1019B0007AE7D8F8000000F00F00B042F2D12878A2
:1019C000400705D5A068E96820F4E0600843A060FE
:1019D0002878000706D5A068296920F4605040EAFD
:1019E000C100A06000F020F8A1680C4AC1F3031107
:1019F000515C01F01F01C8400949086009480068AE
:101A0000BDE8F047FFF7FEBC002002400010024096
:101A100000B4C4040024F40000366E01DA59000852
:101A2000680000205C000020184910B58868C0F3E9
:101A300081021748012A0BD08A68164BC2F3810233
:101A4000022A06D08A68C2F38102032A03D000204A
:101A500010BD184610BDCA6802F00304CA68C2F37C
:101A60000312521C032C02D0B0FBF2F001E0B3FBD6
:101A7000F2F0CA68C968C2F306225043C1F341615B
:101A8000491C4900B0FBF1F010BD000000100240FD
:101A90000024F40000366E012DE9F84304007AD0EA
:101AA0002078F84DC00747D0A868E96800F00C001E
:101AB00001F003010C2802D0082817D001E0032907
:101AC00014D06068B0F5803F17D0B0F5A02F28681B
:101AD00017D020F480302860286820F48020286007
:101AE0006068E0B1FFF770FC064614E028688003E8
:101AF00022D560680028D2D01EE0286840F48030EB
:101B0000EDE740F480202860F7E700BFFFF75CFCBA
:101B1000801B642870D828688003F7D50CE0FFF795
:101B200053FC064605E000BFFFF74EFC801B64280F
:101B3000F0D828688003F7D4207880074CD5A868AF
:101B4000E96800F00C0001F003010C2802D0042821
:101B50000DD001E002290AD0E068002828682BD0C7
:101B600040F480702860FFF72FFC064619E02868D3
:101B7000400502D5E068002891D06868217C20F0FB
:101B8000FE4040EA01606860BF480068FFF73AFC29
:101B9000002800D120E072E1FFF716FC801B02282C
:101BA000B8D828684005F7D56868217C20F0FE4049
:101BB00040EA016068600FE020F480702860FFF761
:101BC00003FC064605E000BFFFF7FEFB801B022872
:101BD000A0D828684005F7D42078000729D5606987
:101BE0000028D5F8940013D040F00100C5F8940007
:101BF000FFF7EAFB064606E090E000BFFFF7E4FBD4
:101C0000801B022886D8D5F894008007F6D510E00E
:101C100020F00100C5F89400FFF7D6FB064604E06B
:101C2000FFF7D2FB801B022878D8D5F894008007F4
:101C3000F6D42078400761D5A86D0026C00008D4EE
:101C4000A86D40F08050A865A86D012600F0805076
:101C500000908E480168C90511D40168804641F49E
:101C600080710160FFF7B0FB074604E0FFF7ACFBB3
:101C7000C01B022852D8D8F80000C005F6D5A068CD
:101C8000012815D00528D5F8900016D020F00100C5
:101C9000C5F89000D5F8900020F00400C5F8900039
:101CA000A06841F28838B8B1FFF78EFB07460EE016
:101CB000D5F8900040F00100F0E740F00400C5F8CE
:101CC0009000F5E7FFF780FBC11B414526D8D5F80A
:101CD00090008007F6D50CE0FFF776FB074604E09E
:101CE000FFF772FBC11B414518D8D5F8900080075B
:101CF000F6D41EB1A86D20F08050A865207880062B
:101D000029D5A0690028D5F8980013D040F001002B
:101D1000C5F89800FFF758FB064606E075E000BFDF
:101D2000FFF752FB801B02286FD8D5F89800800778
:101D3000F6D510E020F00100C5F89800FFF744FB4D
:101D4000064604E0FFF740FB801B02285DD8D5F86B
:101D500098008007F6D4E069F0B3A968C1F3810167
:101D600003295DD00228286820F08070286003D005
:101D7000FFF72AFB04464BE0FFF726FB064604E08C
:101D8000FFF722FB801B02283FD828688001F7D488
:101D9000F4E908016FF00F0202EB01110843218AF8
:101DA0005204490802EB4151A26841EA022108436A
:101DB000217D4FF07E42490802EB41610843217BBF
:101DC00040EAC160E968324A11400843E860286887
:101DD00040F08070286000E05EE0E86840F08070CD
:101DE000E860FFF7F1FA044605E000BFFFF7ECFA00
:101DF000001B022809D828688001F7D54CE000BFF5
:101E0000FFF7E2FA001B022802D90320BDE8F8839D
:101E100028688001F4D4E8681E490840E8603BE087
:101E20000128F3D0E868226A00F00301914226D12C
:101E3000616A00F0F0020901103991421FD1A26AD3
:101E400000F4FE41B1EB022F19D194F82C2000F0E0
:101E50007841B1EBC26F12D1218E00F4C002490863
:101E60004905A1F50011914209D194F8341000F010
:101E7000C06049084906A1F1007181420CD00120DF
:101E8000C4E70000001002405C0000200070004029
:101E90000C809F01FCFFEEFE0020B7E710B5401E4E
:101EA000B0F1807F01D3012010BD4FF0E0246061CC
:101EB0000F21601702F0BBF90020A061072020610C
:101EC000002010BD704770477047704770477047DB
:101ED000F0B590F83C20012A3AD0012580F83C501A
:101EE000022280F83D2003685A689C68194E1A4FF8
:101EF000B34201D0BB4204D122F4700C4A6842EADA
:101F00000C02DFF858C002EA0C02D1F800C04CEA1B
:101F1000020CC3F804C00268B2420DD0B2F1804F87
:101F20000AD00F4B9A4207D00E4B9A4204D0BA42C5
:101F300002D00D4B9A4204D1896824F080031943E2
:101F4000916080F83D50002180F83C100846F0BDBB
:101F50000220F0BD002C0140003401408FFFFFFD46
:101F6000000400400008004000400140704710B5E8
:101F7000040003D094F83D0010B107E0012010BD2B
:101F8000002084F83C00204600F022F8022084F86B
:101F90003D00211D206801F0FFFD012084F848006C
:101FA00084F83E0084F83F0084F8400084F8410043
:101FB00084F8420084F8430084F8440084F8450023
:101FC00084F8460084F8470084F83D00002010BDE6
:101FD00010B586B0044614216846FEF7B1FA2168B0
:101FE0001C48B1F1804F0CD01B4A914207D1816D42
:101FF00041F002018165806D00F00200059006B09D
:1020000010BD816D41F001018165816D01F001011B
:102010000591C16C41F00101C164C06C694600F0DA
:10202000010005904FF40040009002200190002034
:1020300002900390012004904FF09040FFF7A0F829
:10204000002201211C20FFF725FA1C20FFF714FABB
:10205000D5E70000001002400004004090F83D1059
:10206000012901D001207047022180F83D1000684D
:102070000F4988420ED0B0F1804F0BD00D498842F5
:1020800008D00D49884205D00C49884202D00C493D
:10209000884207D181680B4A1140062906D0B1F564
:1020A000803F03D0016841F00101016000207047CA
:1020B000002C0140000400400008004000340140B2
:1020C000004001400700010070B5044690F83C0054
:1020D0000025012814D0012684F83C60022084F8F1
:1020E0003D0022689068364B184020F47F40906095
:1020F000086870282ED010DC10F00F0F03D021E0FC
:102100004FF0020070BD4FEA2012072A1AD2DFE812
:1021100002F0525252524A3840002A4BC21A984298
:1021200049D009DCB0F5805F0DD0B0F5005F1CD060
:10213000B0F1101F06D13EE0102A3CD0202A3AD040
:10214000502A38D0012584F83D60002084F83C00F6
:10215000284670BDCB68D1E90121206801F085FDDA
:102160002068816841F0770109E0CB68D1E901215D
:10217000206801F07AFD2068816841F48041816027
:10218000E1E7CA684968206801F08CFF50212068A7
:1021900006E0CA684968206801F0FEFF60212068F7
:1021A00001F06EFDCFE7CA684968206801F07AFF48
:1021B00040212068F4E7226801461046F0E700005D
:1021C00088FFCEFF2000100010B50168B1F1804FEC
:1021D00009D1017F0B4C012906D0022903D104212A
:1021E00000F0C5FB608310BD002100F0C0FB401C67
:1021F0000004000C2083F6D00349B1FBF0F0A0826C
:1022000010BD00000000002040420F002DE9F04703
:10221000054690F83C0000260C46012813D001200A
:1022200085F83C008AB1042A1FD04B49DFF82C9175
:10223000082A2CD00C2A5AD00126002085F83C0010
:102240003046BDE8F0870220FBE7D4E90012E368DE
:10225000286801F055FF2868816921F00C0181612F
:1022600028688169A26811430FE0D4E90012E3688D
:10227000286801F0B1FF2868816921F4406181611B
:1022800028688169A26841EA02218161D5E728684E
:10229000D4E90073E268D0F820C0D0F8208028F498
:1022A0008078C0F82080884201D0484503D1016A77
:1022B00021F480610162C16921F00301194321F019
:1022C000F003110743EA11614FF420622CF42063FC
:1022D00002EA07221A43C16102622868C16921F03B
:1022E0000C01C1612868C169A268114332E0286805
:1022F000D4E90073E268D0F820C0D0F8208028F438
:102300008058C0F82080884201D0484503D1016A36
:1023100021F480410162C16921F4407141EA032145
:1023200021F470434FF6FF7101EA023119434FF473
:1023300020422CF4204302EA07321A43C1610262B0
:102340002868C16921F44061C1612868C169A26837
:1023500041EA0221C16170E7002C014000340140D4
:1023600010B5040003D094F83D0010B107E001203F
:1023700010BD002084F83C00204600F022F8022026
:1023800084F83D00211D206801F006FC012084F83E
:10239000480084F83E0084F83F0084F8400084F848
:1023A000410084F8420084F8430084F8440084F833
:1023B000450084F8460084F8470084F83D0000207A
:1023C00010BD704730B50446002571B1042911D005
:1023D000082914D00C2917D0102918D094F84300DC
:1023E00094F84720012817D114E094F83E0094F89F
:1023F0004420F7E794F83F0094F84520F2E794F87A
:10240000400094F84620EDE794F84100E8E794F89E
:102410004200E5E7012A01D0012030BD022079B158
:10242000042916D008291DD00C2949D010294AD0DA
:1024300084F8430084F847000C2947D001253DE08B
:1024400084F83E0084F844002068C26842F002022A
:1024500010E084F83F0084F845002068C26842F02C
:10246000040207E084F8400084F846002068C2684F
:1024700042F00802C2600122206801F0E9FB16491F
:10248000206888420ED0B0F1804F0BD013498842AB
:1024900008D01349884205D01249884202D0124917
:1024A000884207D18168114A1140062906D0B1F54A
:1024B000803F03D0016841F001010160284630BD32
:1024C00084F84100B6E784F84200B3E72068C268A8
:1024D00042F01002CEE70000002C01400004004052
:1024E00000080040003401400040014007000100A6
:1024F0002DE9F04104460068C66805694FF0000701
:10250000A90713D5B10711D5F91E01610120207764
:10251000206880698007204602D0FFF755FE04E05E
:1025200000F0E0F8204600F0A2F92777680716D5FA
:10253000700714D521686FF004000861022020772D
:102540002068806910F4407F204602D0FFF73CFEEF
:1025500004E000F0C7F8204600F089F92777280743
:1025600015D5300713D521686FF0080008610420E5
:1025700020772068C0698007204602D0FFF724FE3C
:1025800004E000F0AFF8204600F071F92777E80684
:1025900016D5F00614D521686FF0100008610820E8
:1025A00020772068C06910F4407F204602D0FFF7F2
:1025B0000BFE04E000F096F8204600F058F927776B
:1025C000E80708D0F00706D021686FF00100086125
:1025D000204600F0CBF9280601D4A80408D530061F
:1025E00006D521686FF4025008612046FFF76BFCA6
:1025F000E80508D5300606D521686FF480700861BB
:102600002046FFF75FFC680608D5700606D52168EE
:102610006FF040000861204600F0E9F9A80608D5EF
:10262000B00606D521686FF0200008612046FFF74C
:102630004BFCE80208D5F00206D521686FF4801043
:1026400008612046FFF742FCA80208D5B00206D573
:1026500021686FF4001008612046FFF736FC68021D
:1026600008D5700206D521686FF480000861204605
:10267000FFF72DFC28020AD5300208D521686FF437
:10268000000008612046BDE8F041FFF76FBCBDE8DF
:10269000F081000010B586B0044614216846FDF7AD
:1026A0004FFF0E492068884215D10D48C16C41F09A
:1026B0000101C164C06C002100F001000590802080
:1026C00000900220CDE90101CDE9031069464FF0E9
:1026D0009040FEF755FD06B010BD0000000400401C
:1026E00000100240704770B5044690F83C00002688
:1026F0000D4601280BD0012084F83C000C2A4AD05A
:1027000007DC82B1042A20D0082A06D131E0022059
:1027100070BD102A53D0142A63D00126002084F8FB
:102720003C00304670BD206801F0B4FA2068816931
:1027300041F0080181612068816921F00401816113
:10274000206881692A69114311E0206801F0F4FAD8
:102750002068816941F4006181612068816921F408
:1027600080618161206881692A6941EA0221816171
:10277000D4E7206801F02AFB2068C16941F0080114
:10278000C1612068C16921F00401C1612068C1698B
:102790002A69114311E0206801F062FB2068C169D9
:1027A00041F40061C1612068C16921F48061C161A7
:1027B0002068C1692A6941EA0221C161AEE7206847
:1027C00001F098FB2068016D41F008010165206867
:1027D000016D21F0040101652068016D2A69114332
:1027E00011E0206801F0BEFB2068016D41F400613A
:1027F00001652068016D21F4806101652068016D2B
:102800002A6941EA0221016588E710B5040003D076
:1028100094F83D0010B107E0012010BD002084F8BD
:102820003C00204600F022F8022084F83D00211DE3
:10283000206801F0B1F9012084F8480084F83E00D6
:1028400084F83F0084F8400084F8410084F8420096
:1028500084F8430084F8440084F8450084F8460076
:1028600084F8470084F83D00002010BD7047704791
:1028700030B50446022269B1042912D0082917D0C4
:102880000C291CD0102921D094F84300012824D011
:10289000012030BD94F83E000128F9D184F83E2093
:1028A0001DE094F83F000128F2D184F83F2016E0A3
:1028B00094F840000128EBD184F840200FE094F810
:1028C00041000128E4D184F8412008E094F8420056
:1028D0000128DDD184F8422001E084F84320012260
:1028E000206801F0B5F9194B20681949194A984236
:1028F00009D0884207D0904205D0174DA84202D097
:10290000164DA84203D1456C45F400454564206846
:1029100098420CD0B0F1804F09D0114B984206D0AC
:10292000104B984203D0884201D0904207D1816871
:102930000D4A1140062906D0B1F5803F03D0016849
:1029400041F001010160002030BD0000002C014079
:102950000034014000400140004401400048014073
:1029600000040040000800400700010070470246D4
:10297000002041B1042909D008290AD00C2901D12D
:102980001068006C70471068406B70471068806B6F
:1029900070471068C06B704770B5044690F83C00F3
:1029A000012812D0012584F83C50022084F83D0013
:1029B000204601F00FFB01004FF0000007D084F823
:1029C0003D5084F83C00012070BD022070BD21689C
:1029D000CA6822F04002CA602168CA6822F48042B4
:1029E000CA6084F83D5084F83C00002070BD7047F8
:1029F000FEE70000F0B587B014216846FDF7A0FDA2
:102A00002D48C16C41F00401C164C16C01F00401A6
:102A10000591C16C41F02001C164C16C01F020013D
:102A20000591C16C41F00101C164C16C01F001016B
:102A30000591C16C41F00201C164C16C01F0020159
:102A40000591C16C41F00801C164C06C1B4E00F0DF
:102A500008004FF47F440590012221463046FEF7DE
:102A6000AEFC174F002204213846FEF7A8FC0125D2
:102A7000CDE9004500240294694630460394FEF7F0
:102A80007FFBCDE9005469464FF090400294FEF779
:102A900077FB0720CDE9000469460A480294FEF757
:102AA0006FFB04200090CDE9015469463846039439
:102AB000FEF766FB07B0F0BD0010024000080048BA
:102AC000000C00480004004870B55A4801685A4C90
:102AD000626A891A32292FD90068606200F0AEF864
:102AE000A072627B002520EA020142408243E1722B
:102AF00022736073012903D02078202812D00CE0C3
:102B0000002000F0EDF820781030C0B2207030289E
:102B100001D3257011E0202803D010F0FF0F0CD056
:102B200023E06570E07A02281FD16078401CC0B2B3
:102B30006070032800D9657070BDA07A022803D0A8
:102B4000207B022808D00FE0608C401C80B260849B
:102B500028280AD1656308E0608C401E272803D22C
:102B6000A07880F00100A0706584E07A64210328D9
:102B700017D00428E0D120782028DDD16078A8B3D0
:102B8000012846D002284DD00328D5D1208A4FF401
:102B9000FA61A0F57A7080B220828842CCD221827C
:102BA00070BD20782028FBD1607878B1012815D03D
:102BB00002281CD00328F3D1208A42F2107100F5BC
:102BC0007A7080B220828842E9D870BD6079401C5A
:102BD000C0B260710A28F8D90A2018E0A0790A303A
:102BE000C0B2A0716428F0D9A17170BD08E0E0897D
:102BF0004FF47A71643080B2E081884218D8F4E7EB
:102C00006079401E10F0FF006071EED1012060710C
:102C1000EBE7A0790A38C0B2A0711428E5D21420DD
:102C2000A071E2E7E089643880B2E0816428DCD2F8
:102C3000E181DAE7640000200000002070B5104D4B
:102C4000002401212846FEF7B5FB80B10221284669
:102C5000FEF7B0FB68B104212846FEF7ABFB50B18C
:102C600001214FF09040FEF7A5FB30B106E00124B2
:102C700004E0022402E0032400E00424204670BDA6
:102C80000004004800B585B014216846FDF758FCE3
:102C90004FF6FF70009000200321CDE90201019062
:102CA00069460248FEF76CFA05B000BD000800480E
:102CB00000B585B014216846FDF742FC4FF6FF7061
:102CC00000900120019003200390002002906946AB
:102CD0000248FEF755FA05B000BD000000080048A4
:102CE00070B5002406462146204600F003F900F0A6
:102CF00041F94FF49635304600F010F9641CAC42AF
:102D0000F9D370BD70B586B014216846FDF718FC84
:102D10001E48C16C41F00401C164C16C01F00401A2
:102D20000591C16C41F00101C164C16C01F0010168
:102D30000591C16C41F00201C164C06C032500F033
:102D4000020005904FF448700124002603958DE899
:102D5000510069460E48FEF713FA200203958DE8EC
:102D600051004FF0904469462046FEF709FAFFF7FC
:102D70009FFFA06940F48070A06105481830016889
:102D800041F40871016006B070BD000000100240FF
:102D900000040048203AD2B2034B02EB420203EB9C
:102DA000021200F019B800000A480008F0B50E46FB
:102DB0000746002540F23F1407E021463846FFF75A
:102DC000E9FF103C6D1CA4B2761C3278002A01D0B9
:102DD000142DF2D3F0BD00002DE9F04791468A464C
:102DE0000026044600F086F8DFF84080012700BF87
:102DF00000F0C0F85FF0000539F8160007FA05F199
:102E00000842404601D1408800E0008800F086F882
:102E10006D1C102DF0D3641CE4B25146204600F026
:102E200069F8761C182EE3D3BDE8F0875400002023
:102E300010B5FFF767FF002000F014F8084CA080E1
:102E4000A088A0F50241303906D000F060FD0020D6
:102E500000F008F8A08010BD00F0D0FCF7E70000FB
:102E60005400002070B51D490A6842F400720A60DF
:102E70000A6842F480720A60184C103C226842F0E2
:102E800020022260164A1060086840F020000860A6
:102E900000BF00BF00BF206840F020002060206815
:102EA00040F480702060FFF7EDFE4FF09041886A9B
:102EB00040F48070886200BF00BF00BF0848001F58
:102EC000006885B2886940F480708861FFF7F0FE81
:102ED000206840F400702060284670BD2804004837
:102EE0001408004801B5BDF800000149488008BD3C
:102EF0005400002010B50C460146202000F068F870
:102F00002146BDE81040212000F062B801B5BDF8AF
:102F100000000149088008BD54000020134A1168D0
:102F200041F400711160114910390B6843F480734A
:102F30000B600B6843F020030B600D4B18601068AA
:102F400040F02000106000BF00BF00BF086840F0E4
:102F500020000860086840F48070086000BF00BF6F
:102F600000BF086840F400700860704728040048FB
:102F7000140800481449086840F4007008600868A4
:102F800040F48070086010481038026842F0200257
:102F900002600E4B22221A600A6842F020020A6088
:102FA00000BF00BF00BF016841F02001016001685F
:102FB00041F48071016000BF00BF00BF016841F4AF
:102FC00000710160704700002804004814080048A0
:102FD000184B10B51A6842F400721A601A6842F46D
:102FE00080721A60134A103A146844F02004146086
:102FF000114C2060186840F02000186000BF00BF2E
:1030000000BF106840F020001060106840F480702D
:1030100010602160186840F02000186000BF00BFF9
:1030200000BF106840F020001060106840F480700D
:10303000106010BD280400481408004800EB81000F
:10304000006E00F0F84070478068C0F3C000704721
:103050008068C0F3800070478068C0F380007047CC
:10306000042303EAD15310B518444369C1F3045152
:1030700007248C40A3438A401343436110BD00EBF7
:103080008100016E21F0004111430166704700008C
:10309000F8B577480168774CE26A891A64297DD9C6
:1030A0000068E062606B4FF46162B0FBF2F1CFB296
:1030B000B0FBF2F102FB11033C21B3FBF1F3DEB2F2
:1030C000B0FBF1F301FB13052078002849D010284C
:1030D0007ED0202862D168A16C48FDF7F5F86B49D5
:1030E0001820FFF763FE6078002870D020226379F3
:1030F00067A16648FDF7E8F864494820FFF756FEE7
:10310000607801287ED02022A37966A15F48FDF770
:10311000DBF85E496020FFF749FE6078022872D034
:103120002022E38964A15948FDF7CEF85749782059
:10313000FFF73CFE6078032866D02022238A63A133
:103140005248FDF7C1F851499020FFF72FFE64A1C6
:103150004E48FDF7B9F8BDE8F8404C49A820FFF704
:1031600025BE65A14948FDF7AFF848491820FFF78B
:103170001DFE628A65A14548FDF7A6F8434948202F
:10318000FFF714FE227A66A14048FDF79DF83F49FB
:103190006020FFF70BFEA28A66A100E067E03B48D3
:1031A000FDF792F839497820FFF700FEA07810B1BA
:1031B00065A101E00CE069A13448FDF785F83349C9
:1031C0009020FFF7F3FD33463A46009542E046E093
:1031D000A06BB0FBF2F3DEB2B0FBF2F302FB130222
:1031E000B2FBF1F2D5B2B0FBF1F201FB120760A124
:1031F0002648FDF769F825491820FFF7D7FDA28B6F
:1032000042A102E02DE02EE02FE02048FDF75CF81F
:103210001E494820FFF7CAFD627A41A11B48FDF70D
:1032200053F81A496020FFF7C1FDE28B41A117480E
:10323000FDF74AF815497820FFF7B8FD228C51A117
:103240001248FDF741F811499020FFF7AFFD2B46DA
:103250003246009750A10D48FDF736F87BE73E2235
:1032600045E73E2250E73E225BE73E2266E7F8BD97
:10327000640000200000002020202020202020507A
:103280004152412020202020000000006C0000203E
:103290002025632044533D2564252520202020201F
:1032A000202000002025632044523D256425252050
:1032B00020202020202000002025632046533D258B
:1032C00064487A2020202020202000002025632030
:1032D00046523D2564487A202020202020200000EE
:1032E00020202020202020202020202020202020DE
:1032F000202020200000000020202020202020501E
:10330000574D202020202020200000002020204396
:10331000463D2564487A20202020202020000000FF
:1033200020202043443D25642525202020202020E6
:103330002020000020202044463D2564487A20209B
:10334000202020202000000020202053543D4C4FFE
:10335000434B20202020202000000000202020536C
:10336000543D554E4C4F434B202020200000000080
:1033700020202020202020524543442020202020AF
:103380000000000020202058463D2564487A202077
:1033900020202020200000002020202530326448FA
:1033A000253032644D253032645320202020000027
:1033B00070B5124D044601224FF47F412846FDF7B7
:1033C000FEFF0F4E012204213046FDF7F8FF0022D8
:1033D00004213046FDF7F3FF210200222846FDF7C5
:1033E000EEFF012204213046FDF7E9FF3046BDE83B
:1033F000704000220421FDF7E2BF000000080048F1
:10340000000C00480F490A680F48836AD21A642AE0
:1034100016D9096881620021C171017809B90121B9
:10342000C171817819B1C17941F00201C171C178CE
:1034300019B1C17941F00401C171C079FFF7B8BF7A
:10344000704700006400002000000020FEE7FEE757
:1034500010B590B0002409940A940B94142104A888
:103460000C94FDF76DF82C480D940F940E94009475
:10347000019402944FF08041039401604F21C0E910
:1034800001144FF6FF71C0E903148461FEF76FFD6C
:1034900008B1FDF7E0F94FF48050099009A91E48E2
:1034A000FEF712FE08B1FDF7D6F91B48FEF758FFEC
:1034B00008B1FDF7D0F9042004905020CDE90504AF
:1034C00004A915480894FFF767FA08B1FDF7C3F996
:1034D0000D940DA910480F94FEF7FAFC08B1FDF702
:1034E000BAF90120CDE900400294002269460A4859
:1034F0000394FEF78BFE08B1FDF7ADF902200090B2
:103500000190042269460448FEF780FE002801D09D
:10351000FDF7A1F910B010BD5801002010B58EB014
:1035200000240794089409940A940B940C941C2189
:1035300068460D94FDF704F81F481E4901604F21AD
:10354000C0E9011440F2E731C0E903148461FEF7D9
:103550000EFD08B1FDF77FF94FF48050079007A9E1
:103560001548FEF7B1FD08B1FDF775F91248FFF7F0
:103570004CF908B1FDF76FF90B940BA90E480D94A7
:10358000FEF7A6FC08B1FDF766F9602000904FF445
:10359000FA70CDE901040422694607480494FFF754
:1035A000A2F808B1FDF757F90348FFF773F80EB01A
:1035B00010BD000000040040A40100202DE9F041EE
:1035C000424D2DED048BA87800287BD1FDF752F9F0
:1035D00001F005F89FED3E8B53EC182B01F012F82B
:1035E0009FED3D9B53EC192B00F074FEC5E91001D3
:1035F000FDF734F900F0F3FF53EC182B01F002F85B
:1036000053EC192B00F066FE41EC190B85ED129B73
:10361000A8796E790A3890FBF6F0C4B2204600F023
:10362000DEFF41EC100B51EC180B53EC102B00F0AB
:1036300051FE41EC100B53EC102B95ED100B51EC9F
:10364000100B00F047FE00F09DFFC0B2A04200D971
:10365000204610FB06F00A30C7B22F72288AEE8986
:10366000A0F57A7090FBF6F084B2204600F0B7FF28
:1036700041EC100B51EC180B53EC102B00F02AFE10
:1036800041EC100B51EC190B53EC102B00F022FE07
:1036900000F078FF80B2A04200D92046704300F5C8
:1036A0007A7080B20E496882B1FBF0F000FB07F13E
:1036B0006422B1FBF2F20B49401E0B68D862C8606D
:1036C00008688263BDEC048BBDE8F0810000002037
:1036D0006666666666660A400000000000FEAF404F
:1036E00040420F00A40100207047000030B589B0AF
:1036F00020216846FCF724FF19481849002401607E
:103700008902C0E90114C46004250461C0E90545CB
:10371000047744770121016280F82440C462046385
:1037200080F83840C46380F84040FDF731FB08B1B1
:10373000FDF791F80B4800900620019007200290B9
:103740007F200594CDE9030569460548FDF70AF990
:10375000002801D0FDF77FF809B030BD000100500E
:10376000EC0000200080F03E30B58BB000240894BF
:103770000994202168460A94FCF7E2FE1D484FF0A8
:10378000A041042501604FF48021C0E90114C46008
:103790000461C0E90545047744770121016280F89E
:1037A0002440C462046380F83840C46380F8404019
:1037B000FDF7EEFA08B1FDF74EF808A90D48089498
:1037C000FDF764F808B1FDF746F80B4800900620B5
:1037D0000190072002907F200594CDE903056946FA
:1037E0000448FDF7BFF8002801D0FDF734F80BB00E
:1037F00030BD0000800000200008302E30B50121CF
:103800000020FFF7E5FB4FF47A70FDF716F8002172
:103810000120FFF7DDFB41F290711020FFF7D8FB8C
:103820004FF41C516020FFF7D3FB01216120FFF70B
:10383000CFFB02214620FFF7CBFB48F210011320FB
:10384000FFF7C6FB48F2FE011220FFF7C1FB4FF461
:10385000A0610220FFF7BCFB41F230010320FFF71B
:10386000B7FB40F2033421463020FFF7B1FB21467D
:103870003120FFF7ADFB21463220FFF7A9FBE51E03
:1038800029463320FFF7A4FB03213420FFF7A0FBD8
:1038900021463520FFF79CFB14213620FFF798FBCB
:1038A00021463720FFF794FB21463820FFF790FB95
:1038B00021463920FFF78CFB29463A20FFF788FB89
:1038C00003213B20FFF784FB21463C20FFF780FBD0
:1038D0004FF4A0513D20FFF77BFB4FF40071922085
:1038E000FFF776FB21469320FFF772FB40F60D01B0
:1038F0009020FFF76DFB41F218010320FFF768FBF2
:10390000BDE8304040F273110720FFF761BB10B5EE
:1039100043F20801E320FFF75BFB1221E720FFF7EA
:1039200057FB41F23121EF20FFF752FB002101202C
:10393000FFF74EFB4FF4E0610220FFF749FB41F235
:1039400030010320FFF744FB00210420FFF740FB78
:1039500040F207210820FFF73BFB00210920FFF779
:1039600037FB00210A20FFF733FB00210C20FFF773
:103970002FFB00210D20FFF72BFB00210F20FFF76D
:1039800027FB00211020FFF723FB07211120FFF761
:103990001FFB00211220FFF71BFB00211320FFF764
:1039A00017FBC820FDF7DAFB41F290611020FFF70A
:1039B0000FFB40F227211120FFF70AFB3220FDF711
:1039C000CDFB1D211220FFF703FB3220FDF7C6FBC4
:1039D0004FF400611320FFF7FBFA14212920FFF7B1
:1039E000F7FA0B212B20FFF7F3FA3220FDF7B6FB95
:1039F00000212020FFF7ECFA00212120FFF7E8FA50
:103A000007213020FFF7E4FA40F207713120FFF779
:103A1000DFFA06213220FFF7DBFA40F2047135208D
:103A2000FFF7D6FA41F604713620FFF7D1FA0421E8
:103A30003720FFF7CDFA00213820FFF7C9FA40F20E
:103A400006713920FFF7C4FA40F201713C20FFF7FC
:103A5000BFFA0F213D20FFF7BBFA00215020FFF7EE
:103A6000B7FAEF215120FFF7B3FA00215220FFF7F8
:103A7000AFFA40F23F115320FFF7AAFA4FF41C515E
:103A80006020FFF7A5FA01216120FFF7A1FA0021CC
:103A90006A20FFF79DFA00218020FFF799FA0021A4
:103AA0008120FFF795FA00218220FFF791FA00218B
:103AB0008320FFF78DFA00218420FFF789FA002187
:103AC0008520FFF785FA10219020FFF781FA002169
:103AD0009220FFF77DFA03219320FFF779FA4FF444
:103AE00088719520FFF774FA00219720FFF770FA8C
:103AF00000219820FFF76CFA41F218010320FFF72C
:103B000067FABDE8104040F273110720FFF760BA72
:103B10007047FDF75FBC10B594B038216846FCF7DC
:103B20000FFD14210EA8FCF70BFD4FF40070FDF7FC
:103B3000E3FC012000900004019002200324CDE961
:103B400007041421CDE90A100C900D9009946846E1
:103B5000FDF7A2FF08B1FCF77EFE0F20CDE90E04B1
:103B6000002010901190129002210EA8FDF76EFE19
:103B7000002801D0FCF76FFE14B010BD02480168A8
:103B800041F470010160704788ED00E00148FEF7E4
:103B9000AFBC0000580100202DE9F0430268254B1E
:103BA000254D264E264C4FF08049984207D0484577
:103BB00005D0A84203D0B04201D0A04203D122F0E8
:103BC00070074A683A431F4FDFF87CC0DFF87C80FB
:103BD00098420DD048450BD0A84209D0B04207D03A
:103BE000A04205D0B84203D0604501D0404503D182
:103BF00022F44075CA682A434D6922F080022A43A4
:103C00008D68C5620D688562984207D0A04205D0D4
:103C1000B84203D0604501D0404501D10969016334
:103C2000016841F004010160012141610260BDE8C9
:103C3000F0830000002C0140000400400008004018
:103C40000034014000400140004401400048014070
:103C500010B501F01F030121046A99408C430462EE
:103C6000016A9A401143016210BD10B5846842EAAE
:103C7000032224F47F440A432243826010BD0000E3
:103C80008268034B1A400A4342F007018160704783
:103C90008FFFCFFF2DE9F043056A026A22F001028F
:103CA0000262436882691E4C25F0020522400C68BE
:103CB00022F0030214438A681B4E2A43194D1B4FFE
:103CC000DFF86CC0DFF86C90A84207D0B04205D096
:103CD000B84203D0604501D048450AD1D0F82080D1
:103CE00028F00408C0F8208022F00808CA6842EAD8
:103CF0000802A84207D0B04205D0B84203D06045C0
:103D000001D0484505D14D6923F440731D438B69AB
:103D10002B4343608461496841630262BDE8F083DC
:103D20008FFFFEFF002C01400034014000400140A5
:103D30000044014000480140F0B5056A026A22F0E3
:103D400010020262426883691A4C1C4E23400C68C0
:103D500023F4407343EA042425F020038D6843EAEA
:103D60000513154DA84201D0B04208D1076A27F0CB
:103D700040070762CF6823F0800343EA0713A84295
:103D80000AD0B04208D00E4DA84205D00D4DA84231
:103D900002D00D4DA84207D14D6922F4406242EA9B
:103DA00085028D6942EA85024260846149688163C7
:103DB0000362F0BDFF8FFFFE002C01400034014084
:103DC000004001400044014000480140F0B5056A50
:103DD000026A22F4807202624268C3691A4C1C4E65
:103DE00023400C6823F003031C4325F400738D6803
:103DF00043EA0523154DA84201D0B04208D1076A15
:103E000027F480670762CF6823F4006343EA07233F
:103E1000A8420AD0B04208D00E4DA84205D00E4D9F
:103E2000A84202D00D4DA84207D14D6922F440525C
:103E300042EA05128D6942EA05124260C46149688E
:103E4000C1630362F0BD00008FFFFEFF002C014044
:103E5000003401400040014000440140004801405E
:103E6000F0B5056A026A22F4805202624268C369B0
:103E70001A4C1C4E23400C6823F4407343EA04247C
:103E800025F400538D6843EA0533154DA84201D04F
:103E9000B04208D1076A27F480470762CF6823F44D
:103EA000004343EA0733A8420AD0B04208D00E4D7F
:103EB000A84205D00D4DA84202D00D4DA84207D111
:103EC0004D6922F4404242EA85128D6942EA851228
:103ED0004260C461496801640362F0BDFF8FFFFE68
:103EE000002C0140003401400040014000440140EA
:103EF0000048014030B5056A026A22F4803202624D
:103F00004268036D114C23400C681C4325F40033B8
:103F10000D8943EA05430E4DA8420BD00D4DA84232
:103F200008D00D4DA84205D00C4DA84202D00C4D32
:103F3000A84204D14D6922F4803242EA052242604F
:103F4000046549688164036230BD00008FFFFEFF95
:103F5000002C014000340140004001400044014079
:103F60000048014030B5046A026A22F480120262FD
:103F70004268036D114D24F400142B400D6843EA90
:103F800005230D8944EA05540D4DA8420BD00D4D73
:103F9000A84208D00C4DA84205D00C4DA84202D032
:103FA0000B4DA84204D14D6922F4802242EA8522B9
:103FB000426003654968C164046230BDFF8FFFFE43
:103FC000002C014000340140004001400044014009
:103FD0000048014070B505680024AA682E4B1A40BD
:103FE0004B6813432D4A13400A681A43AA604A6873
:103FF000602A4AD00DDC302A1FD005DCEAB1102A35
:104000001BD0202A18D118E0402A1FD0502A13D1E3
:1040100035E0234D531BAA420FD009DC702A0ED085
:10402000B2F1101F09D0203AB2F5801F04D104E08C
:10403000102B02D0402B00D00124204670BD0B690C
:10404000D1E902210068FFF710FEF6E70A68052AA9
:1040500013D0B2F1011F10D00268136A156A25F05F
:104060000105156202689569096925F0F00545EAC0
:104070000111916100680362DFE7012070BD0A69E8
:104080008968006800F00EF8D7E70A698968006857
:1040900000F082F8D1E700008FFFCFFFF8FFFEFFAE
:1040A0003000100010B5036A046A24F001040462B1
:1040B0000E4CA0420BD00E4CA04208D00D4CA0429A
:1040C00005D00D4CA04202D00C4CA04203D1046A92
:1040D00024F004040462846924F0F00444EA021425
:1040E00023F00A020A438461026210BD002C0140E1
:1040F00000340140004001400044014000480140BC
:10410000F0B5056A046A24F0010404621B4E1C4FDA
:10411000DFF870C0B04209D0B84207D0604505D082
:10412000194CA04202D0194CA04203D1046A24F0D9
:10413000040404628469B0420CD0B0F1804F09D00D
:10414000134EB04206D0134EB04203D0B84201D055
:10415000604503D124F00304144301E044F001045A
:104160001A0724F0F00444EA126225F00A0301F071
:104170000A01194382610162F0BD0000002C014078
:10418000003401400040014000440140004801402B
:10419000000400400008004010B5036A046A24F0DF
:1041A000100404620A4CA04202D00A4CA04203D17F
:1041B000046A24F040040462846923F0A00324F418
:1041C000704444EA023243EA01118261016210BD87
:1041D000002C01400034014030B5046A056A25F026
:1041E000100505620F4DA84202D00F4DA84203D121
:1041F000056A25F040050562856925F4407545EAA4
:10420000022222F470454FF6FF7202EA033224F0D4
:10421000A0032A43A02404EA011119438261016228
:1042200030BD0000002C014000340140FEE70907CA
:10423000090E002804DB00F1E02080F8001470472C
:1042400000F00F0000F1E02080F8141D70473038B6
:104250000A2801D20120704700207047FDF7C2F8FC
:10426000FFF759FCFEF7C6FB0020FFF7A1F8FEF7A9
:10427000DFFD4FF6FF70FEF749FE0020FEF732FE2D
:104280000020FEF72DFDFFF76FFAFFF72FFAFFF77B
:10429000DFF80E48FDF7E2FE00210C48FEF792F829
:1042A00004210A48FEF78EF8FFF738F90421084880
:1042B000FEF7DEFAFEF708FCFCF78CFAFFF77EF952
:1042C000FEF7E6FEFFF79EF8F4E700005801002035
:1042D000A40100202DE9C04130B4DFF8A0C23CEABF
:1042E000111418BF3CEA131400F0EC8081EA0305B6
:1042F0001CEA111444EAD57418BF1CEA131500F027
:10430000C780A4EB05044FF0004545EAC12145EA0A
:10431000C32341EA505143EA525304F17F74994256
:1043200004F500344FEAC0204FEAC22208BF904291
:1043300000F09C804FEA13650FF24016765D4FEA5D
:10434000134506FB05F7C7F1807706FB07F74FEA31
:10435000D737A7FB03687642C8F58038A7FB06CE9F
:1043600038BFA8F1010807FB08E64FF0000EA6FBD6
:10437000028CE6FB03CEDCF1000CCEF1004E38BF20
:10438000AEF1010EA6FB0C584FF000074FF00005F0
:10439000E6FB0E87A1FB08C6A0FB07CE16EB0E06B8
:1043A00045F10005E1FB076515F1E04E7EBFA4F580
:1043B00080345FEA46066D4116F1800745F100053D
:1043C0004FEA17274FEA066647EA0567A6F1DE4679
:1043D000B6F1805F4FEA15251FD9384624F0010C4D
:1043E00005EBC471BCF1FE6F01EB0C1102D8F0BCFF
:1043F000BDE8008124425CBF01F5801E9EEAC47FB7
:1044000002D4F0BCBDE80081244238D4F0BCA1F154
:10441000C041BDE8004100F0EDB94FEAD22242EAC6
:1044200043524FEAD323A7FB02864FEAD02040EA4B
:10443000415007FB03661EEA0E0F4FEAD12105FB30
:10444000026658BFA6EB0056B6EB00564FEA520E76
:104450004EEAC37E18EB0E0E56EB530EBDD518EB8D
:1044600002085E417F1C55F10005B6E74FF4801548
:104470004FF000074FF000064FF00008ADE7F0BC2A
:104480004FF0000001F1C04101F00041BDE80081A2
:1044900011EA0C1F0CEA131500D00CE013EA0C1FF4
:1044A00000F025804FF00000F0BC81EA030101F02C
:1044B0000041BDE80081F0BCBDE8004181EA030194
:1044C00000F098B9F0BCBDE8004170B500F044F9C7
:1044D000097EFC3E00F007B881EA03014FF00000BE
:1044E00001F00041704781EA030100F083B9F0BC9C
:1044F000BDE800414FF0000021497047FFFDFBF986
:10450000F7F5F4F2F0EEEDEBE9E8E6E4E3E1E0DE06
:10451000DDDBDAD8D7D5D4D3D1D0CFCDCCCBCAC878
:10452000C7C6C5C4C2C1C0BFBEBDBCBBBAB9B8B79F
:10453000B6B5B4B3B2B1B0AFAEADACABAAA9A8A892
:10454000A7A6A5A4A3A3A2A1A09F9F9E9D9C9C9B60
:104550009A9999989797969595949393929191900B
:104560008F8F8E8E8D8C8C8B8B8A8989888887879C
:104570008685858484838382828181800000FF0711
:104580000000F87F4FEA1153A3F58063D3F11E03B7
:10459000A8BFD3F1200C08DB4FF0004242EAC12251
:1045A00052EA505232FA03F0704709420BD4102BF2
:1045B000C4BF0020704703F5787CBCF1FF3F05D0F5
:1045C0004FF0FF3070474FF00000704770B500F0BB
:1045D000C3F800BF4992248000207047F0E7B0FA8A
:1045E00080F310FA03F10AD0C3F11D0303F58063D1
:1045F0004FEA41504FEA035202EBD12170474FF08E
:1046000000007047DFF848C170B51CEA111E1EBFDC
:104610001CEA13159EEA0C0F95EA0C0F00F06F8050
:1046200081EA030423EA4C134EEAD47E21EA4C11BA
:1046300041F4801143F48013AE44A1FB024CA0FB73
:104640000365AEF17F7E361955EB0C05A1FB034CDB
:104650004CF10003A0FB021C16EB0C06654153F164
:104660000003094218BF46F0010613F4007F0BD186
:104670004FEA03314FEA0530340341EA155140EA6D
:1046800016506FF003020AE04FEAC3214FEAC5203B
:10469000F40241EA555140EA56506FF0020202EB33
:1046A0002E4201EB025585EACE710AD05FEA440C36
:1046B00018BF24F0004450F1000041F1000120EA4D
:1046C000D47040F2FE7C624500D270BDA84214BF97
:1046D0004FF080444FF04044002E08BF0024BEF14C
:1046E000806FA8BFA1F1C041BDE8704080F2828018
:1046F0004FF0000001F1C04101F0004170479EEA17
:104700000C0F0CEA131518BF95EA0C0F06D04FF0EA
:10471000000081EA030E0EF0004170BD00F01CF8AD
:104720008900013E00F007B800F009B84FEA430CD9
:104730005FEA5C5C08D081EA030100F05BB84FEAF5
:10474000410C5FEA5C5CF6D14FF000000149704714
:104750000000FF070000F87F0EF1020E2EF0030E9E
:104760005EF8046B364205D4012A43EB030515F5C8
:10477000001F12D8012841EB010C1CF5001F0CD8BA
:104780000ED14FEAD17C15F5001F0CEB4C0C0CF14F
:10479000020C08BF4CEBD37C04E04FF0080C01E0A6
:1047A0004FEAD37C0CEB4C0526FA05F606F007061B
:1047B000B6F1040C06D20EEB860CBDE870404CF04E
:1047C000010C6047DFE80CF0090B02024FF00041DA
:1047D0004FF00000A1F5002170BD194610460128D8
:1047E00051EB010418BFD4F5001484BF002001F080
:1047F000004170BD0808A0F500114FEA3101704773
:104800004FF04070E1EE100A704700000000000019
:104810000000000000000000000000000000000098
:104820000000000000000000000000000000000088
:104830000000000000000000000000008001800176
:104840008001800180018001800180018001800160
:1048500080018001800100000000800180010000D3
:104860000000000000000000000000000000CC007C
:10487000CC00CC00CC00CC00CC000000000000003C
:104880000000000000000000000000000000000028
:104890000000000000000000000000000000000018
:1048A000000000000000600C600C600C3006300658
:1048B000FE1FFE1F300638071803FE1FFE1F1803D9
:1048C00018038C018C018C01000000008000E003C3
:1048D000F80F9C0E8C1C8C188C009800F801E007D7
:1048E000800E801C8C188C189C18B80CF00FE003FC
:1048F00080008000000000000000000000000000B8
:104900000E181B0C110C11061106110311039B014B
:104910008E01C038C06C6044604430443044184458
:10492000186C0C380000000000000000E001F003EB
:104930003807180618063003F001F000F8009C3123
:104940000E33061E061C061C063FFC73F0210000F9
:1049500000000000000000000000000000000C004B
:104960000C000C000C000C000C000000000000000B
:104970000000000000000000000000000000000037
:104980000000000000000000000000000002000322
:104990008001C000C00060006000300030003000C6
:1049A0003000300030003000300060006000C00097
:1049B000C000800100030002000000002000600031
:1049C000C00080018001000300030006000600060D
:1049D0000006000600060006000600030003800132
:1049E0008001C00060002000000000000000000006
:1049F000000000000000C000C000D806F807E00179
:104A00003003380700000000000000000000000034
:104A10000000000000000000000000000000000096
:104A20000000000000008001800180018001800101
:104A3000FC3FFC3F8001800180018001800100007B
:104A40000000000000000000000000000000000066
:104A50000000000000000000000000000000000056
:104A60000000000000000000000000008001800144
:104A700000010001800000000000000000000000B4
:104A80000000000000000000000000000000000026
:104A90000000E007E0070000000000000000000048
:104AA0000000000000000000000000000000000006
:104AB00000000000000000000000000000000000F6
:104AC000000000000000000000000000C000C00066
:104AD000000000000000000000000000000C000CBE
:104AE00000060006000600030003000380038001A7
:104AF00080018001C000C000C000600060000000B4
:104B0000000000000000000000000000E003F007CB
:104B1000380E180C0C180C180C180C180C180C1853
:104B20000C180C180C18180C380EF007E0030000D5
:104B300000000000000000000000000000018001F3
:104B4000C001F0019801880180018001800180018D
:104B500080018001800180018001800180010000CE
:104B6000000000000000000000000000E003F80F5B
:104B7000180C0C180C1800180018000C0006000384
:104B80008001C000600030001800FC1FFC1F000006
:104B9000000000000000000000000000E001F80735
:104BA000180E0C0C0C0C000C0006C003C007000C07
:104BB000001800180C180C18180CF807E003000077
:104BC000000000000000000000000000000C000ECB
:104BD000000F000F800DC00C600C600C300C180C26
:104BE0000C0CFC3FFC3F000C000C000C000C000007
:104BF000000000000000000000000000F80FF80FA7
:104C0000180018000C00EC03FC071C0E001C001818
:104C1000001800180C181C0C180EF807E003000010
:104C2000000000000000000000000000C007F00FBE
:104C3000381C181818000C00CC03EC0F3C0E1C1C80
:104C40000C180C180C18181C380EF007E0030000A4
:104C5000000000000000000000000000FC1FFC1F1E
:104C6000000C00060006000380038001C001C000A4
:104C7000E000600060007000300030003000000094
:104C8000000000000000000000000000E003F0074A
:104C9000380E180C180C180C3806F007F007180C12
:104CA0000C180C180C180C18380CF80FE003000046
:104CB000000000000000000000000000E003F0071A
:104CC000380E1C0C0C180C180C181C1C381EF81B69
:104CD000E0190018000C000C1C0EF807F001000091
:104CE00000000000000000000000000000000000C4
:104CF00000000000000080018001000000000000B2
:104D000000000000000000000000800180010000A1
:104D10000000000000000000000000000000000093
:104D20000000000000008001800100000000000081
:104D30000000000000000000000080018001000170
:104D400000018000000000000000000000000000E2
:104D5000000000000000000000000010001C800F98
:104D6000E003F8001800F800E003800F001C0010BA
:104D70000000000000000000000000000000000033
:104D800000000000000000000000F81F000000000C
:104D90000000F81F000000000000000000000000FC
:104DA0000000000000000000000000000000000003
:104DB0000000000000000000000008003800F001C2
:104DC000C007001F0018001FC007F00138000800CE
:104DD000000000000000000000000000E003F80FE9
:104DE000180C0C180C180018000C000600038001A9
:104DF000C000C000C00000000000C000C0000000F3
:104E00000000000000000000000000000000E007BB
:104E100018180420C229224A1144094409440944AB
:104E200009221113E20C024004201818E0070000C8
:104E3000000000000000000000000000800380036C
:104E4000C006C006C006600C600C30183018301860
:104E5000F83FF83F1C700C600C6006C006C00000F4
:104E6000000000000000000000000000FC03FC0F38
:104E70000C0C0C180C180C180C0CFC07FC0F0C1864
:104E80000C300C300C300C300C18FC1FFC070000F0
:104E9000000000000000000000000000C007F01F3C
:104EA00038381C300C70066006000600060006004C
:104EB0000600060006600C701C30F01FE0070000C2
:104EC000000000000000000000000000FE03FE0FD4
:104ED000060E061806180630063006300630063074
:104EE0000630063006180618060EFE0FFE030000F8
:104EF000000000000000000000000000FC3FFC3F3C
:104F00000C000C000C000C000C00FC1FFC1F0C0023
:104F10000C000C000C000C000C00FC3FFC3F0000DF
:104F2000000000000000000000000000F83FF83F13
:104F300018001800180018001800F81FF81F1800B3
:104F400018001800180018001800180018000000B9
:104F5000000000000000000000000000E00FF83F2B
:104F60003C780E6006E007C00300030003FE03FE6A
:104F700003C007C006C00EC03CF0F83FE00F0000C1
:104F80000000000000000000000000000C300C30A9
:104F90000C300C300C300C300C30FC3FFC3F0C3033
:104FA0000C300C300C300C300C300C300C3000005D
:104FB00000000000000000000000000080018001EF
:104FC00080018001800180018001800180018001D9
:104FD000800180018001800180018001800100004A
:104FE00000000000000000000000000000060006B5
:104FF0000006000600060006000600060006000681
:1050000000060006180618063807F003E001000045
:10501000000000000000000000000000063006183C
:10502000060C060606038601C60066007600DE0052
:105030008E0106030606060C061806300660000000
:105040000000000000000000000000001800180030
:105050001800180018001800180018001800180090
:1050600018001800180018001800F81FF81F00009A
:105070000000000000000000000000000EE01EF034
:105080001EF01EF036D836D836D836D866CC66CC68
:1050900066CCC6C6C6C6C6C6C6C686C386C300001C
:1050A0000000000000000000000000000C301C3078
:1050B0003C303C306C306C30CC30CC308C310C33EC
:1050C0000C330C360C360C3C0C3C0C380C3000000D
:1050D000000000000000000000000000E007F81FD2
:1050E0001C380E70066003C003C003C003C003C0B9
:1050F00003C003C006600E701C38F81FE0070000F4
:10510000000000000000000000000000FC0FFC1F79
:105110000C380C300C300C300C300C18FC1FFC0719
:105120000C000C000C000C000C000C000C0000002B
:10513000000000000000000000000000E007F81F71
:105140001C380E70066003E003C003C003C003C038
:1051500003C007E006630E3F1C3CF83FE0F700C0C9
:10516000000000000000000000000000FE0FFE1F15
:1051700006380630063006300638FE1FFE070603E6
:105180000606060C061806180630063006600000F3
:10519000000000000000000000000000E003F80F25
:1051A0001C0C0C180C180C001C00F803E00F001E5F
:1051B0000038063006300E301C1CF80FE0070000E7
:1051C000000000000000000000000000FE7FFE7FE5
:1051D00080018001800180018001800180018001C7
:1051E0008001800180018001800180018001000038
:1051F0000000000000000000000000000C300C3037
:105200000C300C300C300C300C300C300C300C30BE
:105210000C300C300C300C301818F81FE007000070
:1052200000000000000000000000000003600630E5
:10523000063006300C180C180C18180C180C380E08
:1052400030063006700760036003C001C001000033
:105250000000000000000000000000000360C361C7
:10526000C361C36166336633663366336633663360
:105270006C1B6C1B6C1B2C1A3C1E380E380E00006D
:105280000000000000000000000000000FE00C70B3
:1052900018303018700C600EC00780038003C00304
:1052A000E006700C301C18180C300E6007E000008F
:1052B00000000000000000000000000003C00660C5
:1052C0000C301C383818300C6006E007C003800131
:1052D0008001800180018001800180018001000047
:1052E000000000000000000000000000FC7FFC7FC8
:1052F000006000300018000C000600038001C000B0
:105300006000300018000C000600FE7FFE7F0000E9
:10531000000000000000000000000000E003E003C7
:10532000600060006000600060006000600060007D
:10533000600060006000600060006000600060006D
:1053400060006000E003E003000000003000300077
:10535000600060006000C000C000C000C0018001AB
:105360008001800100030003000300060006000026
:10537000000000000000000000000000E003E00367
:105380000003000300030003000300030003000305
:1053900000030003000300030003000300030003F5
:1053A00000030003E003E003000000000000C00170
:1053B000C00160036003600330063006180C180C4F
:1053C00000000000000000000000000000000000DD
:1053D00000000000000000000000000000000000CD
:1053E00000000000000000000000000000000000BD
:1053F000000000000000000000000000FFFFFFFFB1
:105400000000000000000000000000000C000C0084
:105410000C000C000C000C0000000000000000005C
:10542000000000000000000000000000000000007C
:10543000000000000000000000000000000000006C
:10544000000000000000F003F8071C0C0C0C000F1B
:10545000F00FF80C0C0C0C0C1C0FF80FF0180000DF
:10546000000000000000000000000000180018000C
:10547000180018001800D803F80F380C181818185E
:105480001818181818181818380CF80FD803000036
:10549000000000000000000000000000000000000C
:1054A000000000000000C003F007300E180C1800C8
:1054B000180018001800180C300EF007C003000088
:1054C00000000000000000000000000000180018AC
:1054D000001800180018C01BF01F301C18181818EE
:1054E0001818181818181818301CF01FC01B0000C6
:1054F00000000000000000000000000000000000AC
:10550000000000000000C003F00F300C1818F81F56
:10551000F81F180018003818301CF00FC0070000E2
:10552000000000000000000000000000800FC00F1D
:10553000C000C000C000F007F007C000C000C000FD
:10554000C000C000C000C000C000C000C00000001B
:10555000000000000000000000000000000000004B
:10556000000000000000E00DF80F180E0C0C0C0CF1
:105570000C0C0C0C0C0C0C0C180EF80FE00D000CA5
:105580000C0C1C06F807F0010000000018001800C1
:10559000180018001800D807F80F381C1818181829
:1055A00018181818181818181818181818180000AB
:1055B000000000000000000000000000C000C0006B
:1055C000000000000000C000C000C000C000C0001B
:1055D000C000C000C000C000C000C000C00000008B
:1055E000000000000000000000000000C000C0003B
:1055F000000000000000C000C000C000C000C000EB
:10560000C000C000C000C000C000C000C000C0009A
:10561000C000C000F8007800000000000C000C0082
:105620000C000C000C000C0C0C060C038C01CC00C4
:105630006C00FC009C018C030C030C060C0C00009D
:10564000000000000000000000000000C000C000DA
:10565000C000C000C000C000C000C000C000C0004A
:10566000C000C000C000C000C000C000C0000000FA
:10567000000000000000000000000000000000002A
:105680000000000000007C3CFF7EC7E383C183C1B3
:1056900083C183C183C183C183C183C183C100002E
:1056A00000000000000000000000000000000000FA
:1056B0000000000000009807F80F381C1818181890
:1056C000181818181818181818181818181800008A
:1056D00000000000000000000000000000000000CA
:1056E000000000000000C003F00F300C181818185C
:1056F0001818181818181818300CF00FC0030000EC
:105700000000000000000000000000000000000099
:10571000000000000000D803F80F380C1818181803
:105720001818181818181818380CF80FD80318007B
:105730001800180018001800000000000000000009
:10574000000000000000C01BF01F301C18181818C3
:105750001818181818181818301CF01FC01B00183B
:1057600000180018001800180000000000000000D9
:10577000000000000000B007F003700030003000AF
:1057800030003000300030003000300030000000C9
:105790000000000000000000000000000000000009
:1057A000000000000000E003F003380E180C380081
:1057B000F003C007000C180C380EF007E0030000DF
:1057C0000000000000000000000000000000800059
:1057D000C000C000C000F007F007C000C000C0005B
:1057E000C000C000C000C000C000C00780070000AB
:1057F00000000000000000000000000000000000A9
:1058000000000000000018181818181818181818A8
:105810001818181818181818381CF01FE01900006C
:105820000000000000000000000000000000000078
:105830000000000000000C18180C180C180C3006A2
:1058400030063006600360036003C001C001000041
:105850000000000000000000000000000000000048
:10586000000000000000C141C141C3616363636384
:1058700063633636363636361C1C1C1C1C1C000076
:105880000000000000000000000000000000000018
:105890000000000000001C38381C300C600660035B
:1058A0006003600360036006300C381C1C38000085
:1058B00000000000000000000000000000000000E8
:1058C0000000000000001830301830187018600C0C
:1058D000600CE00CC006C0068003800380038001DA
:1058E0008001C001F0007000000000000000000016
:1058F000000000000000FC1FFC1F000C000600035D
:105900008001C000600030001800FC1FFC1F000078
:105910000000000000000000000000000003800103
:10592000C000C000C000C000C000C0006000600037
:10593000300060004000C000C000C000C000C000D7
:10594000C000800100030000000000008001800111
:10595000800180018001800180018001800180013F
:10596000800180018001800180018001800180012F
:105970008001800180018001000000006000C00003
:10598000C0018001800180018001800100030003CB
:105990000006000300018001800180018001800178
:1059A0008001C00060000000000000000000000056
:1059B00000000000000000000000F010F81F080FB9
:1059C00000000000000000000000000000000000D7
:1059D00000000000000000000000000000000000C7
:1059E0000000010203040607080904000008000083
:1059F0000000000000020001000010001C5A000816
:105A0000000000206C00000014020008885A000802
:105A10006C000020E40700003002000800000000D5
:105A2000000150000A00000000006400D007E803F5
:105A30000000000000000000000000000000000066
:105A40000000000000000000000000000000000056
:105A50000000000000000000000000000000000046
:105A60000000000000000000000000000000000036
:105A70000000FFFF00000000100000000100000017
:085A8000000000000024F40006
:04000005080001D915
:00000001FF
