:020000040800F2
:1000000000070020810200086B230008F516000895
:100010006923000861060008192D0008000000008F
:10002000000000000000000000000000C5270008DC
:1000300063060008000000000D240008C727000820
:100040009B0200089B0200089B0200089B0200081C
:100050009B0200089B0200089B0200089B0200080C
:100060009B0200089B0200089B0200089B020008FC
:100070009B0200089B0200089B0200089B020008EC
:100080009B020008000000009B0200089B02000881
:100090009B0200089B0200089B0200089B020008CC
:1000A0009B0200089B0200089B0200089B020008BC
:1000B0009B0200089B0200089B0200089B020008AC
:1000C0009B0200089B0200089B0200089B0200089C
:1000D0009B0200089B0200089B0200089B0200088C
:1000E0009B0200089B0200089B0200089B0200087C
:1000F0009B0200089B0200089B0200080000000011
:10010000000000009B020008000000009B020008A5
:100110009B020008000000009B0200089B020008F0
:100120009B0200089B0200089B0200089B0200083B
:100130009B02000800000000000000009B02000875
:100140009B0200089B020008000000000000000065
:10015000000000000000000000000000000000009F
:100160000000000000000000000000009B020008EA
:100170009B020008000000000000000000000000DA
:10018000000000009B0200080000000000000000CA
:10019000000000000000000000000000000000005F
:1001A00000000000000000009B0200089B02000805
:1001B0009B0200089B0200089B0200080000000050
:1001C000000000009B02000800000000000000008A
:1001D0009B0200089B02000800F002F800F041F8C2
:1001E0000AA090E8000C82448344AAF10107DA4592
:1001F00001D100F036F8AFF2090EBAE80F0013F0A3
:10020000010F18BFFB1A43F001031847983D000087
:10021000B83D0000103A24BF78C878C1FAD8520718
:1002200024BF30C830C144BF04680C607047000070
:100230000023002400250026103A28BF78C1FBD8EF
:10024000520728BF30C148BF0B607047642900F0D7
:100250007F80002070471FB502F0AEFD1FBD10B5B6
:1002600010BD00F052F91146FFF7F5FF02F06CFDEA
:1002700000F070F903B4FFF7F2FF03BC00F078F967
:100280000948804709480047FEE7FEE7FEE7FEE72A
:10029000FEE7FEE7FEE7FEE7FEE7FEE70448054966
:1002A000054A064B7047000031280008D9010008B4
:1002B00000010020000700200003002000030020B0
:1002C0000FB41CB5074B06AA7B44694600900598FD
:1002D00000F003F90020694600F012F91CBC5DF83B
:1002E00014FB0000350200002DE9F0410E460446E3
:1002F000002020622046E168884730B3252805D0D9
:10030000D4E901219047206A401CF2E7E1682046C9
:1003100000278847050018D0A5F14100192802D808
:1003200020354FF400673246294620462760FFF704
:100330008DFF40B1012804D0F61D26F007060836CF
:10034000D8E7361DD6E72846DAE7206ABDE8F0810F
:100350002DE9F0410646002410687529314616A59E
:1003600010D0AFF30080002802DA404213A507E066
:1003700031688A0701D512A502E0490704D511A505
:10038000012401E0AFF3008000210A2206F12407D6
:1003900009E0B0FBF2FCB0FBF2F302FB1C003030D2
:1003A00078541846491C0028F3D123462A46304683
:1003B000BDE8F04100F032B8000000002D00000060
:1003C0002B000000200000004FF0000200B5134693
:1003D00094469646203922BFA0E80C50A0E80C5065
:1003E000B1F12001BFF4F7AF090728BFA0E80C5016
:1003F00048BF0CC05DF804EB890028BF40F8042B0F
:1004000008BF704748BF20F8022B11F0804F18BF7B
:1004100000F8012B70477047704770472DE9F0478F
:100420000D4699469246044600F124080168880664
:1004300004D5E06921F01001216000E00120A8420C
:1004400001DD471B00E00027A1697A1902EB0900D2
:10045000081AA0612078C00602D42046AFF30080BD
:10046000002608E0D4E901211AF806009047206A26
:10047000401C761C20624E45F4DB2078C0060AD56D
:100480002046AFF3008006E0D4E9012130209047F8
:10049000206A401C2062381EA7F10107F4DC07E047
:1004A000D4E9012118F805009047206A401C206219
:1004B000281EA5F10105F3DC2046AFF3008020786B
:1004C000000602D50220BDE8F0870120FBE700000E
:1004D00001694A1C02610878704700B58FB0CDE908
:1004E00001310021059105497944CDE903101146F8
:1004F0006846FFF7F9FE0FB000BD0000E5FFFFFF03
:100500000A6802F8010B0A607047754600F02CF883
:10051000AE4605006946534620F00700854618B0F0
:1005200020B5FFF7BBFEBDE820404FF000064FF0BE
:1005300000074FF000084FF0000B21F00701AC4618
:10054000ACE8C009ACE8C009ACE8C009ACE8C00937
:100550008D46704710B50446AFF300802046BDE8D5
:100560001040FFF787BE0000004870479C00002045
:1005700001491820ABBEFEE726000200704770B5A7
:1005800015460C46064601F04BF9A02001F009F98A
:1005900001F07CF9304601F004F901F077F901F03F
:1005A0003FF9A12001F0FDF801F070F909E001F038
:1005B000B9F804F8010B15B101F0DBF801E001F026
:1005C00017F96D1EEDB2F2D201F045F9BDE87040A9
:1005D0004FF4FA7002F0B1BB70B515460C460646F2
:1005E00001F01EF9A02001F0DCF801F04FF93046CF
:1005F00002E000BF14F8010B01F0D3F801F046F956
:100600006D1EEDB2F6D201F026F9BDE870404FF450
:10061000FA7002F092BB00001048002142790830C5
:10062000012A0BD0022A11D0032A06D18278521C4B
:10063000D2B282703C2A00D1817070470278521C7D
:10064000D2B20270182AF8D1017070474278521C59
:10065000D2B242703C2AF8D14170704700000020AD
:10066000FEE77047002240F6B83306E00021491C3F
:1006700089B29942FBD3521C92B28242F6D37047A0
:1006800072B6FEE770B5044600F032F90546601C0C
:1006900002D004484068044400F02AF9401BA042FC
:1006A000FAD370BD2C0000202DE9F04FDFF80C923A
:1006B000002301260325A9F1040B85B00F2709F1BA
:1006C000040AABF1040EF1E006FA03FC12EA0C0294
:1006D0007ED00C7904F00304012C01D0022C20D12F
:1006E000846800945C0005FA04F80494009C24EAF1
:1006F00008040094D1F80C80049C08FA04F8009CCB
:1007000048EA0408C0F80880446824EA0C0491F818
:1007100004C0CCF3001C0CFA03FC4CEA040CC0F837
:1007200004C00C79E443A40702D18C68012C0ED0DC
:10073000C4684FEA430805FA08FC24EA0C04D1F81F
:1007400008C00CFA08FC4CEA040CC0F80CC00C7988
:1007500004F00304022C16D1DC0800EB840CCDF865
:1007600008C0DCF820C05C074FEAD46807FA08F438
:100770002CEA040C0C6904FA08F444EA0C04DDF8D1
:1007800008C0CCF8204004684FEA430805FA08FC8A
:1007900024EA0C0491F804C00CF0030C0CFA08FCD9
:1007A0004CEA040CC0F800C04C6814F4403F7CD004
:1007B000434CD4F860C04CF0010CC4F860C0246E07
:1007C00023F0030C04F0010400943E4C644400E068
:1007D0006BE00294A4684FEA837C4FEA1C7807FA26
:1007E00008FC24EA0C04B0F1904F06D0DFF8D8C022
:1007F000604505D14FF0010C20E04FF0000C1DE0EA
:10080000DFF8C8C0604502D14FF0020C16E0DFF8F7
:10081000C0C0604502D14FF0030C0FE0DFF8B4C058
:10082000604502D14FF0040C08E0DFF8ACC0604531
:1008300002D14FF0050C01E04FF0060C0CFA08FC59
:100840004CEA040C029CC4F808C0D9F80040CC461D
:10085000D1F8048094435FEAC82800D51443CCF84B
:100860000040DAF80040D446D1F8048094435FEAAF
:10087000882800D51443CCF80040DBF80040DC4663
:10088000D1F8048094435FEA883800D51443CCF84B
:100890000040DEF80040F446D1F8048094435FEA5B
:1008A000C83800D51443CCF800405B1C0C682246C5
:1008B000DC407FF409AF05B0BDE8F08F08040140CB
:1008C00000100240000001400004004800080048F9
:1008D000000C00480010004800140048006908405F
:1008E00000D0012070470AB1816170478162704772
:1008F00001488068704700002C0000200248816891
:1009000042681144816070472C00002010B500241B
:10091000032000F065F8002000F008F808B1012479
:1009200001E000F025F8204610BD000070B50E4E25
:1009300005460024706898B14FF47A71B1FBF0F06D
:100940000A490968B1FBF0F000F0EAFB40B9102D4C
:1009500006D200222946501E00F022F8356000E041
:100960000124204670BD00002C000020380000202B
:100970000A4882B0016E41F001010166016E01F08A
:1009800001010091816D41F080518165806D00F021
:100990008050009002B000F093B8000000100240B8
:1009A000F0B40E4B1B680C46C3F30223C3F10705DA
:1009B000042D00D90425191D072901D2002300E0C8
:1009C000DB1E012606FA05F1491E214099409E4092
:1009D000761E16403143F0BC02F09FB90CED00E0EA
:1009E000064900F0070208684FF6FF03184040EA86
:1009F0000220034A10430860704700000CED00E03D
:100A00000000FA052B492C4B0A6832214A432B4936
:100A100040B1B0F5007F086829D020F4C06040F4F0
:100A200080602CE00868C0F34120022804D051F80F
:100A3000800F20F4807022E0D1F8800020F48070D4
:100A4000C1F88000086820F4C06040F400700860BD
:100A5000B2FBF3F0401C00E0401E4A69520501D58C
:100A60000028F9D1486940050AD503207047C0F332
:100A70004120022806D051F8800F40F480700860B1
:100A800000207047D1F8800040F48070C1F88000E9
:100A9000086820F4C06040F400700860B2FBF3F016
:100AA000401C00E0401E4A695205DBD50028F9D100
:100AB000D8E700003800002040420F0000700040DE
:100AC0000248816841F480418160704700700040B5
:100AD0002DE9F0470E4605004FF0000725D0DFF85E
:100AE000AC81D8F8000000F00F00B0420CD2D8F86A
:100AF000001021F00F013143C8F80010D8F80000B1
:100B000000F00F00B04210D12968614CC80741F2D3
:100B1000883A5AD06868DFF87C91032808D0022808
:100B200020682DD0400500282CDB0120BDE8F0878F
:100B300020688001F9D5E06800F00302E068C0F3A6
:100B40000310401C032A19D0534A00BFB2FBF0F037
:100B5000E268C2F306225043E268C2F34162521CCB
:100B60005200B0FBF2F0484517D9A06810F0F00F22
:100B70000CD0880711D5A86840B10EE0474AE5E7D8
:100B80008003D0E700F092F8484506D9A06820F02D
:100B9000F00040F08000A0608027A068696820F025
:100BA00003000843A060FFF7A3FE814606E000BFF4
:100BB000FFF79EFEA0EB090151453AD8A06869688D
:100BC00000F00C00B0EB810FF2D12868810714D53A
:100BD000400703D5A06840F4E060A06028780007D3
:100BE00005D5A06820F4605040F4E060A060A068E3
:100BF000A96820F0F000084304E0802F03D1A0682A
:100C000020F0F000A060D8F80010404601F00F017D
:100C1000B14216D9016821F00F0131430160FFF79D
:100C200067FE074607E000BFFFF762FEC11B5145A4
:100C300001D903207AE7D8F8000000F00F00B04295
:100C4000F2D12878400705D5A068E96820F4E06073
:100C50000843A0602878000706D5A068296920F419
:100C6000605040EAC100A06000F020F8A1680C4A82
:100C7000C1F30311515C01F01F01C840094908602C
:100C800009480068BDE8F047FFF750BE0020024069
:100C90000010024000B4C4040024F40000366E01C9
:100CA000923F0008380000202C000020184910B5A1
:100CB0008868C0F381021748012A0BD08A68164B56
:100CC000C2F38102022A06D08A68C2F38102032A93
:100CD00003D0002010BD184610BDCA6802F00304FE
:100CE000CA68C2F30312521C032C02D0B0FBF2F00C
:100CF00001E0B3FBF2F0CA68C968C2F306225043B0
:100D0000C1F34161491C4900B0FBF1F010BD000086
:100D1000001002400024F40000366E012DE9F84373
:100D200004007AD02078F84DC00747D0A868E96859
:100D300000F00C0001F003010C2802D0082817D0A5
:100D400001E0032914D06068B0F5803F17D0B0F5FA
:100D5000A02F286817D020F480302860286820F45D
:100D6000802028606068E0B1FFF7C2FD064614E00D
:100D70002868800322D560680028D2D01EE0286849
:100D800040F48030EDE740F480202860F7E700BFB2
:100D9000FFF7AEFD801B642870D828688003F7D564
:100DA0000CE0FFF7A5FD064605E000BFFFF7A0FD3C
:100DB000801B6428F0D828688003F7D42078800747
:100DC0004CD5A868E96800F00C0001F003010C287C
:100DD00002D004280DD001E002290AD0E0680028E2
:100DE00028682BD040F480702860FFF781FD06460C
:100DF00019E02868400502D5E068002891D06868AD
:100E0000217C20F0FE4040EA01606860BF48006835
:100E1000FFF78CFD002800D120E072E1FFF768FDAC
:100E2000801B0228B8D828684005F7D56868217C5F
:100E300020F0FE4040EA016068600FE020F480701E
:100E40002860FFF755FD064605E000BFFFF750FD9F
:100E5000801B0228A0D828684005F7D42078000716
:100E600029D560690028D5F8940013D040F001001E
:100E7000C5F89400FFF73CFD064606E090E000BF91
:100E8000FFF736FD801B022886D8D5F8940080072E
:100E9000F6D510E020F00100C5F89400FFF728FD1A
:100EA000064604E0FFF724FD801B022878D8D5F819
:100EB00094008007F6D42078400761D5A86D0026FD
:100EC000C00008D4A86D40F08050A865A86D012628
:100ED00000F0805000908E480168C90511D4016867
:100EE000804641F480710160FFF702FD074604E08F
:100EF000FFF7FEFCC01B022852D8D8F80000C0053E
:100F0000F6D5A068012815D00528D5F8900016D090
:100F100020F00100C5F89000D5F8900020F0040002
:100F2000C5F89000A06841F28838B8B1FFF7E0FC3E
:100F300007460EE0D5F8900040F00100F0E740F0E1
:100F40000400C5F89000F5E7FFF7D2FCC11B41454E
:100F500026D8D5F890008007F6D50CE0FFF7C8FC3E
:100F6000074604E0FFF7C4FCC11B414518D8D5F87B
:100F700090008007F6D41EB1A86D20F08050A865BF
:100F80002078800629D5A0690028D5F8980013D0CC
:100F900040F00100C5F89800FFF7AAFC064606E0FD
:100FA00075E000BFFFF7A4FC801B02286FD8D5F8BE
:100FB00098008007F6D510E020F00100C5F89800F1
:100FC000FFF796FC064604E0FFF792FC801B022820
:100FD0005DD8D5F898008007F6D4E069F0B3A96829
:100FE000C1F3810103295DD00228286820F08070B8
:100FF000286003D0FFF77CFC04464BE0FFF778FC49
:10100000064604E0FFF774FC801B02283FD82868DE
:101010008001F7D4F4E908016FF00F0202EB01112F
:101020000843218A5204490802EB4151A26841EA6F
:1010300002210843217D4FF07E42490802EB4161C5
:101040000843217B40EAC160E968324A1140084305
:10105000E860286840F08070286000E05EE0E868A2
:1010600040F08070E860FFF743FC044605E000BFF5
:10107000FFF73EFC001B022809D828688001F7D53D
:101080004CE000BFFFF734FC001B022802D903200C
:10109000BDE8F88328688001F4D4E8681E49084058
:1010A000E8603BE00128F3D0E868226A00F0030121
:1010B000914226D1616A00F0F00209011039914293
:1010C0001FD1A26A00F4FE41B1EB022F19D194F8AE
:1010D0002C2000F07841B1EBC26F12D1218E00F4C8
:1010E000C00249084905A1F50011914209D194F8BF
:1010F000341000F0C06049084906A1F10071814236
:101100000CD00120C4E70000001002402C00002099
:10111000007000400C809F01FCFFEEFE0020B7E74E
:1011200010B5401EB0F1807F01D3012010BD4FF0FB
:10113000E02460610F21601701F0EFFD0020A06145
:1011400007202061002010BDF0B590F83C20012A56
:101150003AD0012580F83C50022280F83D200368F7
:101160005A689C68194E1A4FB34201D0BB4204D151
:1011700022F4700C4A6842EA0C02DFF858C002EA16
:101180000C02D1F800C04CEA020CC3F804C002689B
:10119000B2420DD0B2F1804F0AD00F4B9A4207D025
:1011A0000E4B9A4204D0BA4202D00D4B9A4204D15F
:1011B000896824F080031943916080F83D50002134
:1011C00080F83C100846F0BD0220F0BD002C014024
:1011D000003401408FFFFFFD000400400008004084
:1011E0000040014010B5040003D094F83D0010B158
:1011F00007E0012010BD002084F83C00204600F0EC
:1012000023F8022084F83D00211D206801F018FB1E
:10121000012084F8480084F83E0084F83F0084F8F8
:10122000400084F8410084F8420084F8430084F8C8
:10123000440084F8450084F8460084F8470084F8A8
:101240003D00002010BD000008B500680649884236
:1012500008D10648816D41F002018165806D00F082
:101260000200009008BD0000000400400010024091
:1012700070B5044690F83C000025012814D00126E2
:1012800084F83C60022084F83D0022689068364B68
:10129000184020F47F409060086870282ED010DC41
:1012A00010F00F0F03D021E04FF0020070BD4FEAA5
:1012B0002012072A1AD2DFE802F0525252524A385C
:1012C00040002A4BC21A984249D009DCB0F5805F31
:1012D0000DD0B0F5005F1CD0B0F1101F06D13EE07C
:1012E000102A3CD0202A3AD0502A38D0012584F840
:1012F0003D60002084F83C00284670BDCB68D1E9F1
:101300000121206801F005FB2068816841F0770128
:1013100009E0CB68D1E90121206801F0FAFA2068E0
:10132000816841F480418160E1E7CA6849682068CA
:1013300001F0A4FC5021206806E0CA6849682068D2
:1013400001F0CAFC6021206801F0EEFACFE7CA681C
:101350004968206801F092FC40212068F4E7226887
:1013600001461046F0E7000088FFCEFF2000100085
:1013700010B586B0044614216846FFF725F80E49DB
:101380002068884215D10D48C16C41F00101C1644B
:10139000C06C002100F00100059040200090022068
:1013A000CDE901010390049069464FF09040FFF7AA
:1013B0007BF906B010BD00000004004000100240A0
:1013C00070B5044690F83C0000260D4601280BD06D
:1013D000012084F83C000C2A4AD007DC82B1042AA0
:1013E00020D0082A06D131E0022070BD102A53D047
:1013F000142A63D00126002084F83C00304670BDDA
:10140000206801F09BFA2068816941F00801816140
:101410002068816921F004018161206881692A695D
:10142000114311E0206801F0DBFA2068816941F482
:10143000006181612068816921F480618161206897
:1014400081692A6941EA02218161D4E7206801F0BB
:1014500011FB2068C16941F00801C1612068C169C0
:1014600021F00401C1612068C1692A69114311E0BA
:10147000206801F049FB2068C16941F40061C16145
:101480002068C16921F48061C1612068C1692A694D
:1014900041EA0221C161AEE7206801F07FFB2068CC
:1014A000016D41F0080101652068016D21F0040122
:1014B00001652068016D2A69114311E0206801F07F
:1014C000A5FB2068016D41F4006101652068016D94
:1014D00021F4806101652068016D2A6941EA0221D9
:1014E000016588E710B5040003D094F83D0010B101
:1014F00007E0012010BD002084F83C00204600F0E9
:1015000022F8022084F83D00211D206801F098F99E
:10151000012084F8480084F83E0084F83F0084F8F5
:10152000400084F8410084F8420084F8430084F8C5
:10153000440084F8450084F8460084F8470084F8A5
:101540003D00002010BD704730B50446022269B14D
:10155000042912D0082917D00C291CD0102921D019
:1015600094F84300012824D0012030BD94F83E00B7
:101570000128F9D184F83E201DE094F83F000128AD
:10158000F2D184F83F2016E094F840000128EBD116
:1015900084F840200FE094F841000128E4D184F859
:1015A000412008E094F842000128DDD184F842206F
:1015B00001E084F843200122206801F09DF9194BD5
:1015C00020681949194A984209D0884207D09042A8
:1015D00005D0174DA84202D0164DA84203D1456C44
:1015E00045F400454564206898420CD0B0F1804F26
:1015F00009D0114B984206D0104B984203D0884234
:1016000001D0904207D181680D4A1140062906D0C9
:10161000B1F5803F03D0016841F001010160002075
:1016200030BD0000002C014000340140004001406A
:101630000044014000480140000400400008004010
:101640000700010030B504460D460068002201F095
:1016500053F92349214B20688A1198420BD0214B22
:10166000984208D0204B984205D0204B984202D097
:101670001F4B984209D1036A0B4206D1036A1342F9
:1016800003D1436C23F4004343642068036A0B4294
:1016900006D1016A114203D1016821F00101016004
:1016A00001205DB1042D0CD0082D0DD00C2D0ED0D5
:1016B000102D0FD084F84300002030BD84F83E0088
:1016C000FAE784F83F00F7E784F84000F4E784F88D
:1016D0004100F1E784F84200EEE70000002C0140F1
:1016E000111111000034014000400140004401404C
:1016F00000480140FEE7000000B585B014216846AF
:10170000FEF762FEC02000900120019002900220AE
:10171000039069460248FEF7C7FF05B000BD000010
:101720000004004870B50824002501F013F813E008
:101730006806050E002000F0F5FF142001F0FDFA08
:10174000142001F0FAFA012000F0ECFF142001F05F
:10175000F4FA00F0F3FF0543641EE4B2E8D200207F
:1017600000F0E0FF142001F0E8FA01F015F8284637
:1017700070BD10B5002001F003F8142001F0DDFA6F
:10178000142001F0DAFA012000F0CCFF142001F05F
:10179000D4FA002000F0C6FFBDE81040142001F08C
:1017A000CCBA70B50446082516E000F0BBFF142043
:1017B00001F0C3FA04F0800000F0E2FF142001F011
:1017C000BCFA6006040E142001F0B7FA012000F004
:1017D000A9FF142001F0B1FA6D1EEDB24FF0000028
:1017E000E3D200F09FFFBDE87040142001F0A5BADD
:1017F00010B5012000F0C4FF142001F09EFA14205F
:1018000001F09BFA012000F08DFF142001F095FA01
:10181000002000F087FFBDE81040142001F08DBAD1
:1018200010B5012000F0ACFF142001F086FA012071
:1018300000F078FF142001F080FA002000F0A0FFF3
:10184000142001F07AFA002000F06CFFBDE810408F
:10185000142001F072BA10B5002000F063FF1420CC
:1018600001F06BFA002000F08BFF142001F065FA04
:10187000012000F057FF142001F05FFA012000F072
:101880007FFFBDE81040142001F057BA10B50524C1
:1018900000F060FF142001F050FA012000F042FF38
:1018A000142001F04AFA05E0641EA4B2142001F0ED
:1018B00044FA64B100F042FF0028F5D100F032FF95
:1018C00000F06AFF142001F038FA002010BD00F08B
:1018D00063FFFFF7C0FF012010BD00002DE9F041BC
:1018E000444D2868444CE168401A322839D92868A8
:1018F000E06000F085F82070E17830EA010280EACB
:101900000101627021EA0001A170E07001D02A6833
:1019100062612A6863690026D21AB2F5487F46D808
:10192000012705291DD2DFE801F01C03155B1E000D
:10193000A079401CC0B2A071052800D1A671A07981
:10194000BDE8F0412C4900EB40000322C0B2083151
:10195000FEF715BE6079401CC0B26071042800D348
:101960006771BDE8F0816079042818D004206071A7
:1019700000212248FFF7E8FD1F484FF4616208305C
:10198000017811FB02F142788078C2EB021201EB80
:101990008201084420622868A061E771E1E7052020
:1019A000607100211548FFF74DFEE671D9E7052863
:1019B000D7D2DFE800F0030304151900D1E76079FE
:1019C000012803D0022801D00328CAD1A0790A49EE
:1019D00000EB4000C0B203220831FEF7FDFD06E037
:1019E000BDE8F041FEF718BE60790428B9D16671F0
:1019F000B7E7000034000020000000205000002065
:101A000070B5104D002401212846FEF767FF80B114
:101A100002212846FEF762FF68B104212846FEF73E
:101A20005DFF50B101214FF09040FEF757FF30B1FC
:101A300006E0012404E0022402E0032400E0042480
:101A4000204670BD0004004800B585B014216846EA
:101A5000FEF7BAFC4FF6FF70009000200321CDE99D
:101A60000201019069460248FEF71EFE05B000BD66
:101A70000008004800B585B014216846FEF7A4FCB4
:101A80004FF6FF700090012001900320039000208A
:101A9000029069460248FEF707FE05B000BD00004F
:101AA0000008004870B5002406462146204600F094
:101AB00003F900F041F94FF49635304600F010F983
:101AC000641CAC42F9D370BD30B587B014216846B0
:101AD000FEF77AFC1E48C16C41F00401C164C16C80
:101AE00001F004010591C16C41F00101C164C16CB8
:101AF00001F001010591C16C41F00201C164C06CAB
:101B0000012500F0020005904FF44870CDE9000572
:101B100000240394694602940E48FEF7C5FD28028E
:101B200003940090CDE901544FF09044694620465B
:101B3000FEF7BAFDFFF79EFFA06940F48070A06138
:101B400004481830016841F40871016007B030BDE5
:101B50000010024000040048203AD2B2034B02EBCE
:101B6000420203EB021200F019B80000C22D000877
:101B7000F0B50E460746002540F23F1407E0214627
:101B80003846FFF7E9FF103C6D1CA4B2761C327892
:101B9000002A01D0142DF2D3F0BD00002DE9F0474A
:101BA00091468A460026044600F086F8DFF8408019
:101BB000012700BF00F0C0F85FF0000539F81600FB
:101BC00007FA05F10842404601D1408800E000884C
:101BD00000F086F86D1C102DF0D3641CE4B2514661
:101BE000204600F069F8761C182EE3D3BDE8F08794
:101BF0002400002010B5FFF767FF002000F014F864
:101C0000084CA080A088A0F50241303906D000F031
:101C100087FC002000F008F8A08010BD00F0F7FB62
:101C2000F7E700002400002070B51D490A6842F45F
:101C300000720A600A6842F480720A60184C103C14
:101C4000226842F020022260164A1060086840F0C4
:101C50002000086000BF00BF00BF206840F02000E7
:101C60002060206840F480702060FFF7EDFE4FF0A8
:101C70009041886A40F48070886200BF00BF00BF56
:101C80000848001F006885B2886940F48070886148
:101C9000FFF7F0FE206840F400702060284670BD19
:101CA000280400481408004801B5BDF800000149A7
:101CB000488008BD2400002010B50C4601462020B5
:101CC00000F068F82146BDE81040212000F062B81D
:101CD00001B5BDF800000149088008BD24000020BE
:101CE000134A116841F400711160114910390B68F1
:101CF00043F480730B600B6843F020030B600D4BC3
:101D00001860106840F02000106000BF00BF00BFE6
:101D1000086840F020000860086840F4807008609F
:101D200000BF00BF00BF086840F400700860704743
:101D300028040048140800481449086840F400705A
:101D40000860086840F48070086010481038026825
:101D500042F0200202600E4B22221A600A6842F012
:101D600020020A6000BF00BF00BF016841F02001EF
:101D70000160016841F48071016000BF00BF00BFD5
:101D8000016841F4007101607047000028040048B8
:101D900014080048184B10B51A6842F400721A6013
:101DA0001A6842F480721A60134A103A146844F0B8
:101DB00020041460114C2060186840F02000186066
:101DC00000BF00BF00BF106840F020001060106826
:101DD00040F4807010602160186840F020001860A6
:101DE00000BF00BF00BF106840F020001060106806
:101DF00040F48070106010BD2804004814080048AA
:101E00002DE9F041F64F3868F64E3169401AC8287E
:101E10007DD938683061F4A1F748FEF751FAF649E8
:101E20001820FFF7A5FEB3797279F4A1F248FEF706
:101E300047FAF1494820FFF79BFE70790A2406F122
:101E400008054FF6E078062861D2DFE800F0034885
:101E50007CC7FDFC2878E021B0FBF4F03030C2B242
:101E60007820FFF779FE2878B0FBF4F104FB11022B
:101E7000D02178203032FFF76FFE3A22C02178203F
:101E8000FFF76AFE6878B021B0FBF4F03030C2B2E0
:101E90007820FFF761FE6878B0FBF4F104FB1102D3
:101EA000A02178203032FFF757FE3A229021782087
:101EB000FFF752FEA8788021B0FBF4F03030C2B2B8
:101EC0007820FFF749FEA878B0FBF4F104FB11027B
:101ED000702178203032FFF73FFECCA131E140463F
:101EE000FFF7F6FE2878E021B0FBF4F03030C2B204
:101EF0007820FFF731FE2878B0FBF4F104FB1102E3
:101F0000D02178203032FFF727FE002000E095E155
:101F1000FFF7DEFE3A22C0217820FFF71DFE687829
:101F2000B021B0FBF4F03030C2B27820FFF714FEDD
:101F30006878B0FBF4F104FB1102A0217820303264
:101F4000FFF70AFE30E02878E021B0FBF4F03030F3
:101F5000C2B27820FFF700FE2878B0FBF4F104FB52
:101F60001102D02178203032FFF7F6FD3A22C0214D
:101F70007820FFF7F1FD4046FFF7AAFE6878B02110
:101F8000B0FBF4F03030C2B27820FFF7E5FD68789E
:101F9000B0FBF4F104FB1102A02178203032FFF7EE
:101FA000DBFD0020FFF794FE3A2290217820FFF716
:101FB000D3FDA8788021B0FBF4F03030C2B2782095
:101FC000FFF7CAFDA878B0FBF4F104FB1102702101
:101FD00078203032FFF7C0FD8FA1B2E02878E021F1
:101FE000B0FBF4F03030C2B27820FFF7B5FD2878AE
:101FF000B0FBF4F104FB1102D02178203032FFF75E
:10200000ABFD3A22C0217820FFF7A6FD6878B02109
:10201000B0FBF4F03030C2B27820FFF79DFD687855
:10202000B0FBF4F104FB1102A02178203032FFF75D
:1020300093FD3A2290217820FFF78EFD4046FFF76E
:1020400047FEA87801E085E015E0B0FBF4F0303001
:10205000C2B280217820FFF77FFDA878B0FBF4F1B1
:1020600004FB1102702178203032FFF775FD00204B
:10207000FFF72EFEB0E73868B169401AB0F57A7FF5
:102080005ED33868B061F07910B1306A401E3062BA
:10209000316A4FF46160B1FBF0F0C0B228706FF0AC
:1020A000E00210FB02F201EB02123C21B2FBF1F163
:1020B000B0FBF4F06970A1EB011102EB810130304B
:1020C000A970C2B2E0217820FFF746FD2878B0FB66
:1020D000F4F104FB1102D02178203032FFF73CFDEF
:1020E0003A22C0217820FFF737FD6878B021B0FB95
:1020F000F4F03030C2B27820FFF72EFD6878B0FBE4
:10210000F4F104FB1102A02178203032FFF724FD06
:102110003A2290217820FFF71FFDA8788021B0FB9C
:10212000F4F03030C2B27820FFF716FDA878B0FB8B
:10213000F4F104FB1102702178203032FFF70CFD1E
:1021400038A12D48FEF7BCF8BDE8F0412A49A82087
:10215000FFF70EBD2878E021B0FBF4F03030C2B2BA
:102160007820FFF7F9FC2878B0FBF4F104FB1102AA
:10217000D02178203032FFF7EFFC3A22C0217820BE
:10218000FFF7EAFC6878B021B0FBF4F03030C2B25F
:102190007820FFF7E1FC6878B0FBF4F104FB110252
:1021A000A02178203032FFF7D7FC3A229021782006
:1021B000FFF7D2FCA8788021B0FBF4F03030C2B237
:1021C0007820FFF7C9FCA878B0FBF4F104FB1102FA
:1021D000702178203032FFF7BFFC15A1B1E7000075
:1021E000340000200000002048656C6C6F20426CB9
:1021F00075652043757000003C0000202564205365
:10220000746F726167653A25640000002020202009
:102210005374616E646279002020202053657474C9
:10222000696E67002020202052756E6E31323300B7
:102230002020202050617573696E6700BDE8F08131
:1022400070B5124D044601224FF47F412846FEF737
:102250004AFB0F4E012204213046FEF744FB0022C8
:1022600004213046FEF73FFB210200222846FEF7FC
:102270003AFB012204213046FEF735FB3046BDE82B
:10228000704000220421FEF72EBB00000008004829
:10229000000C0048F0B587B014216846FEF794F8AA
:1022A0002D48C16C41F00401C164C16C01F004010E
:1022B0000591C16C41F02001C164C16C01F02001A5
:1022C0000591C16C41F00101C164C16C01F00101D3
:1022D0000591C16C41F00201C164C16C01F00201C1
:1022E0000591C16C41F00801C164C06C1B4E00F047
:1022F00008004FF47F440590012221463046FEF746
:10230000F2FA174F002204213846FEF7ECFA0125B5
:10231000CDE9004500240294694630460394FEF757
:10232000C3F9CDE9005469464FF090400294FEF79E
:10233000BBF90720CDE9000469460A480294FEF77C
:10234000B3F904200090CDE901546946384603945E
:10235000FEF7AAF907B0F0BD0010024000080048DF
:10236000000C004800040048FEE7FEE710B58EB000
:1023700000240794089409940A940B940C941C214B
:1023800068460D94FEF720F81F481E4901604F2152
:10239000C0E9011440F2E731C0E903148461FEF79B
:1023A00021FF08B1FEF76CF94FF48050079007A9A0
:1023B0001548FEF75DFF08B1FEF762F91248FFF716
:1023C00091F808B1FEF75CF90B940BA90E480D9437
:1023D000FEF7BAFE08B1FEF753F9602000904FF403
:1023E0004870CDE901040022694607480494FEF7CD
:1023F000E7FF08B1FEF744F90348FEF7B9FF0EB056
:1024000010BD00000004004050000020704730B5AF
:1024100001210020FFF7BEFC4FF47A70FEF722F98D
:1024200000210120FFF7B6FC41F290711020FFF768
:10243000B1FC4FF41C516020FFF7ACFC012161207E
:10244000FFF7A8FC02214620FFF7A4FC48F2100188
:102450001320FFF79FFC48F2FE011220FFF79AFCC1
:102460004FF4A0610220FFF795FC41F230010320F8
:10247000FFF790FC40F2033421463020FFF78AFC3E
:1024800021463120FFF786FC21463220FFF782FCEF
:10249000E51E29463320FFF77DFC03213420FFF79A
:1024A00079FC21463520FFF775FC14213620FFF713
:1024B00071FC21463720FFF76DFC21463820FFF7DD
:1024C00069FC21463920FFF765FC29463A20FFF7D1
:1024D00061FC03213B20FFF75DFC21463C20FFF718
:1024E00059FC4FF4A0513D20FFF754FC4FF400710C
:1024F0009220FFF74FFC21469320FFF74BFC40F65C
:102500000D019020FFF746FC41F218010320FFF770
:1025100041FCBDE8304040F273110720FFF73ABCA0
:1025200010B543F20801E320FFF734FC1221E72045
:10253000FFF730FC41F23121EF20FFF72BFC0021A7
:102540000120FFF727FC4FF4E0610220FFF722FC97
:1025500041F230010320FFF71DFC00210420FFF7AA
:1025600019FC40F207210820FFF714FC0021092084
:10257000FFF710FC00210A20FFF70CFC00210C20C3
:10258000FFF708FC00210D20FFF704FC00210F20BD
:10259000FFF700FC00211020FFF7FCFB07211120B2
:1025A000FFF7F8FB00211220FFF7F4FB00211320B6
:1025B000FFF7F0FBC820FEF765F841F290611020AC
:1025C000FFF7E8FB40F227211120FFF7E3FB322061
:1025D000FEF758F81D211220FFF7DCFB3220FEF732
:1025E00051F84FF400611320FFF7D4FB1421292088
:1025F000FFF7D0FB0B212B20FFF7CCFB3220FEF79F
:1026000041F800212020FFF7C5FB00212120FFF722
:10261000C1FB07213020FFF7BDFB40F207713120DD
:10262000FFF7B8FB06213220FFF7B4FB40F204713C
:102630003520FFF7AFFB41F604713620FFF7AAFB08
:1026400004213720FFF7A6FB00213820FFF7A2FB6B
:1026500040F206713920FFF79DFB40F201713C20EA
:10266000FFF798FB0F213D20FFF794FB002150203E
:10267000FFF790FBEF215120FFF78CFB0021522048
:10268000FFF788FB40F23F115320FFF783FB4FF425
:102690001C516020FFF77EFB01216120FFF77AFBD0
:1026A00000216A20FFF776FB00218020FFF772FBF4
:1026B00000218120FFF76EFB00218220FFF76AFBDB
:1026C00000218320FFF766FB00218420FFF762FBD7
:1026D00000218520FFF75EFB10219020FFF75AFBB9
:1026E00000219220FFF756FB03219320FFF752FBB6
:1026F0004FF488719520FFF74DFB00219720FFF7DD
:1027000049FB00219820FFF745FB41F21801032007
:10271000FFF740FBBDE8104040F273110720FFF7C0
:1027200039BB000008B1044801E0034810300168DB
:1027300041F04001016070471804004810B5802145
:102740000348FEF7CBF8012800D0002010BD0000A0
:102750000004004800B585B014216846FDF734FE3A
:102760008020009000200190012002900220039020
:1027700069460248FDF798FF05B000BD0004004817
:1027800008B1044801E003481030016841F08001BD
:10279000016070471804004800B585B014216846F0
:1027A000FDF712FE80200090112001900020029081
:1027B0000220039069460248FDF776FF05B000BD90
:1027C000000400487047FEF799B810B594B038215E
:1027D0006846FDF7F9FD14210EA8FDF7F5FD4FF44D
:1027E0000070FEF70FF90120009000040190022014
:1027F0000324CDE907041421CDE90A100C900D90B3
:1028000009946846FEF78AFA08B1FDF739FF0F20F0
:10281000CDE90E04002010901190129002210EA814
:10282000FEF756F9002801D0FDF72AFF14B010BDBD
:102830000248016841F470010160704788ED00E0D2
:102840002DE9F0430268254B254D264E264C4FF0CE
:102850008049984207D0484505D0A84203D0B042ED
:1028600001D0A04203D122F070074A683A431F4FBB
:10287000DFF87CC0DFF87C8098420DD048450BD053
:10288000A84209D0B04207D0A04205D0B84203D038
:10289000604501D0404503D122F44075CA682A43FF
:1028A0004D6922F080022A438D68C5620D688562F9
:1028B000984207D0A04205D0B84203D0604501D06D
:1028C000404501D109690163016841F004010160DB
:1028D000012141610260BDE8F0830000002C01404D
:1028E0000004004000080040003401400040014066
:1028F000004401400048014010B501F01F030121D0
:10290000046A99408C430462016A9A40114301624F
:1029100010BD10B5846842EA032224F47F440A43C0
:102920002243826010BD00008268034B1A400A43B4
:1029300042F00701816070478FFFCFFF2DE9F04320
:10294000056A026A22F001020262436882691E4C33
:1029500025F0020522400C6822F0030214438A6825
:102960001B4E2A43194D1B4FDFF86CC0DFF86C90EB
:10297000A84207D0B04205D0B84203D0604501D08C
:1029800048450AD1D0F8208028F00408C0F82080FB
:1029900022F00808CA6842EA0802A84207D0B042FA
:1029A00005D0B84203D0604501D0484505D14D69F6
:1029B00023F440731D438B692B4343608461496852
:1029C00041630262BDE8F0838FFFFEFF002C0140EF
:1029D00000340140004001400044014000480140F3
:1029E000F0B5056A026A22F0100202624268836949
:1029F0001A4C1C4E23400C6823F4407343EA042411
:102A000025F020038D6843EA0513154DA84201D037
:102A1000B04208D1076A27F040070762CF6823F069
:102A2000800343EA0713A8420AD0B04208D00E4DF3
:102A3000A84205D00D4DA84202D00D4DA84207D1A5
:102A40004D6922F4406242EA85028D6942EA8502BC
:102A500042608461496881630362F0BDFF8FFFFEBD
:102A6000002C01400034014000400140004401407E
:102A700000480140F0B5056A026A22F480720262E1
:102A80004268C3691A4C1C4E23400C6823F00303B0
:102A90001C4325F400738D6843EA0523154DA842B5
:102AA00001D0B04208D1076A27F480670762CF6877
:102AB00023F4006343EA0723A8420AD0B04208D0B7
:102AC0000E4DA84205D00E4DA84202D00D4DA84291
:102AD00007D14D6922F4405242EA05128D6942EA5B
:102AE00005124260C4614968C1630362F0BD000021
:102AF0008FFFFEFF002C01400034014000400140E8
:102B00000044014000480140F0B5056A026A22F421
:102B1000805202624268C3691A4C1C4E23400C6802
:102B200023F4407343EA042425F400538D6843EAF8
:102B30000533154DA84201D0B04208D1076A27F4E9
:102B400080470762CF6823F4004343EA0733A84273
:102B50000AD0B04208D00E4DA84205D00D4DA84273
:102B600002D00D4DA84207D14D6922F4404242EAFD
:102B700085128D6942EA85124260C4614968016428
:102B80000362F0BDFF8FFFFE002C014000340140C6
:102B900000400140004401400048014030B5056A52
:102BA000026A22F4803202624268036D114C2340B3
:102BB0000C681C4325F400330D8943EA05430E4D90
:102BC000A8420BD00D4DA84208D00D4DA84205D00B
:102BD0000C4DA84202D00C4DA84204D14D6922F4FC
:102BE000803242EA052242600465496881640362DA
:102BF00030BD00008FFFFEFF002C0140003401407B
:102C000000400140004401400048014030B5046AE2
:102C1000026A22F4801202624268036D114D24F4AC
:102C200000142B400D6843EA05230D8944EA05543E
:102C30000D4DA8420BD00D4DA84208D00C4DA84216
:102C400005D00C4DA84202D00B4DA84204D14D69CD
:102C500022F4802242EA8522426003654968C16409
:102C6000046230BDFF8FFFFE002C014000340140A4
:102C700000400140004401400048014010B5036A93
:102C8000046A24F0010404620E4CA0420BD00E4CE6
:102C9000A04208D00D4CA04205D00D4CA04202D05D
:102CA0000C4CA04203D1046A24F004040462846939
:102CB00024F0F00444EA021423F00A020A43846177
:102CC000026210BD002C0140003401400040014070
:102CD000004401400048014010B5036A046A24F032
:102CE000100404620A4CA04202D00A4CA04203D154
:102CF000046A24F040040462846923F0A00324F4ED
:102D0000704444EA023243EA01118261016210BD5B
:102D1000002C014000340140FEE70907090E00289D
:102D200004DB00F1E02080F80014704700F00F0091
:102D300000F1E02080F8141D7047002100E0491CDC
:102D40008142FCD370470000FDF7E0FDFFF73DFD39
:102D5000FFF7A0FAFEF74EFF4FF6FF742046FEF78E
:102D6000A1FE0020FEF7B4FF2046FEF79DFFFEF710
:102D7000C3FCFFF7FBFA0E4D0E4C4FF4FA7700261A
:102D80002868E169401AB84208D32868E061607990
:102D9000042808D026712079FFF752FAFEF79EFD2D
:102DA000FFF72EF8ECE7207980F001002071F2E7C0
:102DB00034000020000000204FF04070E1EE100AC7
:102DC000704700000000000000000000000000004C
:102DD00000000000000000000000000000000000F3
:102DE00000000000000000000000000000000000E3
:102DF00000000000800180018001800180018001CD
:102E0000800180018001800180018001800100003B
:102E100000008001800100000000000000000000B0
:102E2000000000000000CC00CC00CC00CC00CC00A6
:102E3000CC000000000000000000000000000000C6
:102E40000000000000000000000000000000000082
:102E50000000000000000000000000000000600C06
:102E6000600C600C30063006FE1FFE1F300638076F
:102E70001803FE1FFE1F180318038C018C018C0120
:102E8000000000008000E003F80F9C0E8C1C8C18E2
:102E90008C009800F801E007800E801C8C188C18BC
:102EA0009C18B80CF00FE0038000800000000000C8
:102EB00000000000000000000E181B0C110C110691
:102EC0001106110311039B018E01C038C06C6044D0
:102ED0006044304430441844186C0C380000000042
:102EE00000000000E001F003380718061806300360
:102EF000F001F000F8009C310E33061E061C061C83
:102F0000063FFC73F02100000000000000000000FC
:102F10000000000000000C000C000C000C000C0075
:102F20000C00000000000000000000000000000095
:102F30000000000000000000000000000000000091
:102F400000000000000200038001C000C00060001B
:102F500060003000300030003000300030003000C1
:102F6000300060006000C000C0008001000300026B
:102F70000000000020006000C0008001800100030C
:102F80000003000600060006000600060006000614
:102F900000060003000380018001C00060002000E3
:102FA0000000000000000000000000000000C00061
:102FB000C000D806F807E001300338070000000021
:102FC0000000000000000000000000000000000001
:102FD0000000000000000000000000000000800170
:102FE0008001800180018001FC3FFC3F8001800165
:102FF000800180018001000000000000000000004E
:1030000000000000000000000000000000000000C0
:1030100000000000000000000000000000000000B0
:10302000000000008001800100010001800000001C
:103030000000000000000000000000000000000090
:1030400000000000000000000000E007E0070000B2
:103050000000000000000000000000000000000070
:103060000000000000000000000000000000000060
:103070000000000000000000000000000000000050
:1030800000000000C000C0000000000000000000C0
:1030900000000000000C000C000600060006000303
:1030A000000300038003800180018001C000C00094
:1030B000C000600060000000000000000000000090
:1030C00000000000E003F007380E180C0C180C1874
:1030D0000C180C180C180C180C180C180C18180CD0
:1030E000380EF007E00300000000000000000000C0
:1030F0000000000000018001C001F001980188017A
:1031000080018001800180018001800180018001B7
:10311000800180018001000000000000000000002C
:1031200000000000E003F80F180C0C180C18001831
:103130000018000C000600038001C0006000300091
:103140001800FC1FFC1F0000000000000000000031
:1031500000000000E001F807180E0C0C0C0C000C2D
:103160000006C003C007000C001800180C180C184B
:10317000180CF807E0030000000000000000000049
:1031800000000000000C000E000F000F800DC00CAE
:10319000600C600C300C180C0C0CFC3FFC3F000C5D
:1031A000000C000C000C00000000000000000000FB
:1031B00000000000F80FF80F180018000C00EC03D6
:1031C000FC071C0E001C0018001800180C181C0C22
:1031D000180EF807E00300000000000000000000E7
:1031E00000000000C007F00F381C181818000C0071
:1031F000CC03EC0F3C0E1C1C0C180C180C18181CE3
:10320000380EF007E003000000000000000000009E
:1032100000000000FC1FFC1F000C0006000600035D
:1032200080038001C001C000E00060006000700009
:1032300030003000300000000000000000000000FE
:1032400000000000E003F007380E180C180C180CF2
:103250003806F007F007180C0C180C180C180C188E
:10326000380CF80FE0030000000000000000000030
:1032700000000000E003F007380E1C0C0C180C18BE
:103280000C181C1C381EF81BE0190018000C000C50
:103290001C0EF807F0010000000000000000000014
:1032A000000000000000000000000000000080019D
:1032B000800100000000000000000000000000008D
:1032C00000008001800100000000000000000000FC
:1032D000000000000000000000000000000080016D
:1032E000800100000000000000000000000000005D
:1032F000000080018001000100018000000000004A
:1033000000000000000000000000000000000000BD
:1033100000000010001C800FE003F8001800F80007
:10332000E003800F001C00100000000000000000FF
:10333000000000000000000000000000000000008D
:103340000000F81F000000000000F81F000000004F
:10335000000000000000000000000000000000006D
:10336000000000000000000000000000000000005D
:10337000000008003800F001C007001F0018001FFF
:10338000C007F00138000800000000000000000045
:1033900000000000E003F80F180C0C180C180018BF
:1033A000000C000600038001C000C000C000000047
:1033B0000000C000C000000000000000000000008D
:1033C000000000000000E00718180420C229224A6B
:1033D000114409440944094409221113E20C024032
:1033E00004201818E00700000000000000000000A2
:1033F0000000000080038003C006C006C006600C09
:10340000600C301830183018F83FF83F1C700C6012
:103410000C6006C006C000000000000000000000B4
:1034200000000000FC03FC0F0C0C0C180C180C180E
:103430000C0CFC07FC0F0C180C300C300C300C3052
:103440000C18FC1FFC07000000000000000000003A
:1034500000000000C007F01F38381C300C700660F8
:1034600006000600060006000600060006600C7056
:103470001C30F01FE007000000000000000000000A
:1034800000000000FE03FE0F060E061806180630A8
:1034900006300630063006300630063006180618AC
:1034A000060EFE0FFE0300000000000000000000FA
:1034B00000000000FC3FFC3F0C000C000C000C0066
:1034C0000C00FC1FFC1F0C000C000C000C000C007E
:1034D0000C00FC3FFC3F000000000000000000006A
:1034E00000000000F83FF83F18001800180018000E
:1034F0001800F81FF81F180018001800180018000E
:103500001800180018000000000000000000000073
:1035100000000000E00FF83F3C780E6006E007C0B6
:103520000300030003FE03FE03C007C006C00EC075
:103530003CF0F83FE00F0000000000000000000039
:10354000000000000C300C300C300C300C300C3013
:103550000C30FC3FFC3F0C300C300C300C300C308D
:103560000C300C300C3000000000000000000000A7
:103570000000000080018001800180018001800145
:103580008001800180018001800180018001800133
:1035900080018001800100000000000000000000A8
:1035A00000000000000600060006000600060006F7
:1035B00000060006000600060006000618061806AB
:1035C0003807F003E00100000000000000000000E8
:1035D0000000000006300618060C060606038601E9
:1035E000C60066007600DE008E0106030606060CA5
:1035F0000618063006600000000000000000000011
:10360000000000001800180018001800180018002A
:1036100018001800180018001800180018001800EA
:103620001800F81FF81F0000000000000000000054
:10363000000000000EE01EF01EF01EF036D836D856
:1036400036D836D866CC66CC66CCC6C6C6C6C6C624
:10365000C6C686C386C3000000000000000000004C
:10366000000000000C301C303C303C306C306C30C2
:10367000CC30CC308C310C330C330C360C360C3C4B
:103680000C3C0C380C300000000000000000000072
:1036900000000000E007F81F1C380E70066003C031
:1036A00003C003C003C003C003C003C006600E70A4
:1036B0001C38F81FE00700000000000000000000B8
:1036C00000000000FC0FFC1F0C380C300C300C30DC
:1036D0000C300C18FC1FFC070C000C000C000C003C
:1036E0000C000C000C0000000000000000000000B6
:1036F00000000000E007F81F1C380E70066003E0B1
:1037000003C003C003C003C003C007E006630E3F4D
:103710001C3CF83FE0F700C0000000000000000083
:1037200000000000FE0FFE1F06380630063006308F
:103730000638FE1FFE0706030606060C06180618C6
:1037400006300630066000000000000000000000A7
:1037500000000000E003F80F1C0C0C180C180C0003
:103760001C00F803E00F001E0038063006300E3053
:103770001C1CF80FE0070000000000000000000023
:1037800000000000FE7FFE7F80018001800180013B
:103790008001800180018001800180018001800121
:1037A0008001800180010000000000000000000096
:1037B000000000000C300C300C300C300C300C30A1
:1037C0000C300C300C300C300C300C300C300C3019
:1037D0001818F81FE00700000000000000000000BB
:1037E0000000000003600630063006300C180C188C
:1037F0000C18180C180C380E3006300670076003D1
:103800006003C001C00100000000000000000000D3
:10381000000000000360C361C361C36166336633A7
:1038200066336633663366336C1B6C1B6C1B2C1A59
:103830003C1E380E380E00000000000000000000A2
:10384000000000000FE00C7018303018700C600E93
:10385000C00780038003C003E006700C301C1818FA
:103860000C300E6007E000000000000000000000C7
:103870000000000003C006600C301C383818300C03
:103880006006E007C00380018001800180018001A3
:1038900080018001800100000000000000000000A5
:1038A00000000000FC7FFC7F006000300018000C6E
:1038B000000600038001C0006000300018000C000A
:1038C0000600FE7FFE7F00000000000000000000F8
:1038D00000000000E003E0036000600060006000A2
:1038E00060006000600060006000600060006000D8
:1038F000600060006000600060006000E003E003C2
:103900000000000030003000600060006000C00077
:10391000C000C000C00180018001800100030003DD
:103920000003000600060000000000000000000088
:1039300000000000E003E0030003000300030003B5
:10394000000300030003000300030003000300035F
:10395000000300030003000300030003E003E0038F
:10396000000000000000C001C001600360036003AC
:1039700030063006180C180C000000000000000093
:103980000000000000000000000000000000000037
:103990000000000000000000000000000000000027
:1039A0000000000000000000000000000000000017
:1039B00000000000FFFFFFFF00000000000000000B
:1039C000000000000C000C000C000C000C000C00AF
:1039D00000000000000000000000000000000000E7
:1039E00000000000000000000000000000000000D7
:1039F0000000000000000000000000000000F003D4
:103A0000F8071C0C0C0C000FF00FF80C0C0C0C0C35
:103A10001C0FF80FF018000000000000000000006C
:103A20000000000018001800180018001800D80343
:103A3000F80F380C1818181818181818181818181B
:103A4000380CF80FD8030000000000000000000050
:103A50000000000000000000000000000000C003A3
:103A6000F007300E180C1800180018001800180C79
:103A7000300EF007C003000000000000000000004E
:103A80000000000000180018001800180018C01BE3
:103A9000F01F301C181818181818181818181818AB
:103AA000301CF01FC01B00000000000000000000E0
:103AB0000000000000000000000000000000C00343
:103AC000F00F300C1818F81FF81F180018003818DD
:103AD000301CF00FC00700000000000000000000D4
:103AE00000000000800FC00FC000C000C000F00741
:103AF000F007C000C000C000C000C000C000C0008F
:103B0000C000C000C0000000000000000000000075
:103B10000000000000000000000000000000E00DB8
:103B2000F80F180E0C0C0C0C0C0C0C0C0C0C0C0CD8
:103B3000180EF80FE00D000C0C0C1C06F807F00135
:103B40000000000018001800180018001800D8071E
:103B5000F80F381C181818181818181818181818EA
:103B600018181818181800000000000000000000C5
:103B700000000000C000C000000000000000C00005
:103B8000C000C000C000C000C000C000C000C00035
:103B9000C000C000C00000000000000000000000E5
:103BA00000000000C000C000000000000000C000D5
:103BB000C000C000C000C000C000C000C000C00005
:103BC000C000C000C000C000C000C000F800780005
:103BD000000000000C000C000C000C000C000C0C91
:103BE0000C060C038C01CC006C00FC009C018C03C7
:103BF0000C030C060C0C000000000000000000008C
:103C000000000000C000C000C000C000C000C00034
:103C1000C000C000C000C000C000C000C000C000A4
:103C2000C000C000C0000000000000000000000054
:103C300000000000000000000000000000007C3CCC
:103C4000FF7EC7E383C183C183C183C183C183C1B5
:103C500083C183C183C10000000000000000000098
:103C600000000000000000000000000000009807B5
:103C7000F80F381C181818181818181818181818C9
:103C800018181818181800000000000000000000A4
:103C90000000000000000000000000000000C00361
:103CA000F00F300C181818181818181818181818B9
:103CB000300CF00FC0030000000000000000000006
:103CC0000000000000000000000000000000D80319
:103CD000F80F380C18181818181818181818181879
:103CE000380CF80FD8031800180018001800180036
:103CF0000000000000000000000000000000C01BE9
:103D0000F01F301C18181818181818181818181838
:103D1000301CF01FC01B00180018001800180018F5
:103D20000000000000000000000000000000B007DC
:103D3000F003700030003000300030003000300000
:103D400030003000300000000000000000000000E3
:103D50000000000000000000000000000000E00380
:103D6000F003380E180C3800F003C007000C180CD4
:103D7000380EF007E0030000000000000000000023
:103D80000000000000008000C000C000C000F0077C
:103D9000F007C000C000C000C000C000C000C000EC
:103DA000C000C00780070000000000000000000005
:103DB00000000000000000000000000000001818D3
:103DC0001818181818181818181818181818181873
:103DD000381CF01FE0190000000000000000000087
:103DE00000000000000000000000000000000C18AF
:103DF000180C180C180C30063006300660036003EF
:103E00006003C001C00100000000000000000000CD
:103E10000000000000000000000000000000C141A0
:103E2000C141C361636363636363363636363636D6
:103E30001C1C1C1C1C1C00000000000000000000DA
:103E400000000000000000000000000000001C381E
:103E5000381C300C6006600360036003600360067A
:103E6000300C381C1C38000000000000000000006E
:103E700000000000000000000000000000001830FA
:103E8000301830187018600C600CE00CC006C006CA
:103E900080038003800380018001C001F000700076
:103EA0000000000000000000000000000000FC1FF7
:103EB000FC1F000C000600038001C0006000300001
:103EC0001800FC1FFC1F00000000000000000000A4
:103ED0000000000000038001C000C000C000C0005E
:103EE000C000C00060006000300060004000C00002
:103EF000C000C000C000C000C0008001000300007E
:103F000000000000800180018001800180018001AB
:103F10008001800180018001800180018001800199
:103F20008001800180018001800180018001800189
:103F3000000000006000C000C0018001800180011D
:103F400080018001000300030006000300018001DE
:103F500080018001800180018001C00060000000BC
:103F60000000000000000000000000000000000051
:103F70000000F010F81F080F000000000000000013
:103F80000000000000000000000000000000000031
:103F9000000000000000000000000102030406070A
:103FA00008090000C43F0008000000203C00000099
:103FB00014020008004000083C000020C406000075
:103FC000300200080000000000000000010437007B
:103FD00000000000000000000000000000000000E1
:103FE00000000000000000000000FFFF00000000D3
:103FF0001000000001000000000000000024F40098
:04000005080001D915
:00000001FF
