:020000040800F2
:10000000800700208102000877280008ED21000801
:10001000752800089F060008E5320008000000006F
:100020000000000000000000000000008F2D00080C
:100030003507000800000000B5290008912D0008D0
:100040009B0200089B0200089B0200089B0200081C
:100050009B0200089B0200089B0200089B0200080C
:100060009B0200089B0200089B0200089B020008FC
:100070009B0200089B0200089B0200089B020008EC
:100080009B020008000000009B0200089B02000881
:100090009B0200089B0200089B0200089B020008CC
:1000A0009B0200089B0200089B0200089B020008BC
:1000B0009B0200089B0200089B0200089B020008AC
:1000C0009B0200089B0200089B0200089B0200089C
:1000D0009B0200089B0200089B0200089B0200088C
:1000E0009B0200089B0200089B0200089B0200087C
:1000F0009B0200089B0200089B0200080000000011
:10010000000000009B020008000000009B020008A5
:100110009B020008000000009B0200089B020008F0
:100120009B0200089B0200089B0200089B0200083B
:100130009B02000800000000000000009B02000875
:100140009B0200089B020008000000000000000065
:10015000000000000000000000000000000000009F
:100160000000000000000000000000009B020008EA
:100170009B020008000000000000000000000000DA
:10018000000000009B0200080000000000000000CA
:10019000000000000000000000000000000000005F
:1001A00000000000000000009B0200089B02000805
:1001B0009B0200089B0200089B0200080000000050
:1001C000000000009B02000800000000000000008A
:1001D0009B0200089B02000800F002F800F041F8C2
:1001E0000AA090E8000C82448344AAF10107DA4592
:1001F00001D100F036F8AFF2090EBAE80F0013F0A3
:10020000010F18BFFB1A43F0010318476C430000AD
:100210008C430000103A24BF78C878C1FAD852073E
:1002200024BF30C830C144BF04680C607047000070
:100230000023002400250026103A28BF78C1FBD8EF
:10024000520728BF30C148BF0B607047642900F0D7
:100250007380002070471FB503F090F81FBD10B5E4
:1002600010BD00F0E2F91146FFF7F5FF03F052F878
:1002700000F000FA03B4FFF7F2FF03BC00F008FA45
:100280000948804709480047FEE7FEE7FEE7FEE72A
:10029000FEE7FEE7FEE7FEE7FEE7FEE70448054966
:1002A000054A064B70470000FD2D0008D9010008E3
:1002B00080010020800700208003002080030020B0
:1002C0000FB41CB5074B06AA7B44694600900598FD
:1002D00000F093F90020694600F0A2F91CBC5DF81B
:1002E00014FB00005503000070B5044685690068E2
:1002F000C10601D5302600E02026C00707D070BD1A
:10030000D4E9012130469047206A401C20626D1ECE
:10031000F6D570BD70B5044685690078C00707D171
:1003200070BDD4E9012120209047206A401C206242
:100330006D1EF6D570BD00002DE9F0410646002483
:1003400010687529314616A510D0AFF3008000283B
:1003500002DA404213A507E031688A0701D512A5E9
:1003600002E0490704D511A5012401E0AFF30080A4
:1003700000210A2206F1240709E0B0FBF2FCB0FBE1
:10038000F2F302FB1C00303078541846491C002858
:10039000F3D123462A463046BDE8F04100F0CEB8FE
:1003A000000000002D0000002B00000020000000D5
:1003B0002DE9F05F894604464FF0000ADFF824B1CA
:1003C000FB44C0F820A02046E168884700287DD083
:1003D000252806D0D4E901219047206A401C2062DC
:1003E000F1E700255F462046E16888472028064659
:1003F00007DB312E05D2B81910F8200C08B10543DF
:10040000F1E7A80701D525F00405C4F81CA00027D2
:10041000C4F818A02A2E09D0304602F074FF38B371
:1004200004EB8708303EC8F8186019E059F8041B3F
:10043000204604EB87029161E1688847012F064658
:1004400018D1E069002820DA25F020051DE0D8F851
:10045000180000EB800006EB40003038C8F81800A8
:100460002046E1688847064602F04DFF0028EED19D
:10047000012F0AD02E2E08D12046E16888477F1C24
:100480000646022F45F02005C4DBA069002803DAE8
:10049000404245F00105A061E80701D025F01005B4
:1004A000A6B1A6F14100192802D8203645F400650E
:1004B0004A463146204625604D46FFF7C7FE60B1EB
:1004C000012807D0ED1D25F0070000E007E000F14E
:1004D000080978E705F1040975E730467AE7206AEC
:1004E000BDE8F09FA24100004FF0000200B51346A6
:1004F00094469646203922BFA0E80C50A0E80C5044
:10050000B1F12001BFF4F7AF090728BFA0E80C50F4
:1005100048BF0CC05DF804EB890028BF40F8042BED
:1005200008BF704748BF20F8022B11F0804F18BF5A
:1005300000F8012B70477047704770472DE9F0476E
:100540000D4699469246044600F124080168880643
:1005500004D5E06921F01001216000E00120A842EB
:1005600001DD471B00E00027A1697A1902EB0900B1
:10057000081AA0612078C00602D42046FFF7B4FE16
:10058000002608E0D4E901211AF806009047206A05
:10059000401C761C20624E45F4DB2078C0060AD54C
:1005A0002046FFF7A1FE06E0D4E901213020904764
:1005B000206A401C2062381EA7F10107F4DC07E026
:1005C000D4E9012118F805009047206A401C2062F8
:1005D000281EA5F10105F3DC2046FFF79BFE2078DD
:1005E000000602D50220BDE8F0870120FBE70000ED
:1005F00001694A1C02610878704700B58FB0CDE9E7
:1006000001310021059105497944CDE903101146D6
:100610006846FFF7CDFE0FB000BD0000E5FFFFFF0D
:100620000A6802F8010B0A607047754600F02CF862
:10063000AE4605006946534620F00700854618B0CF
:1006400020B5FFF72BFEBDE820404FF000064FF02D
:1006500000074FF000084FF0000B21F00701AC46F7
:10066000ACE8C009ACE8C009ACE8C009ACE8C00916
:100670008D46704710B50446AFF300802046BDE8B4
:100680001040FFF7F7BD0000004870472001002030
:1006900001491820ABBEFEE7260002007047FEE7C6
:1006A00010B586B014216846FFF71EFF20480024CD
:1006B0001E490594C0E900147D21816041F27071EA
:1006C000C0E903144FF080414461C0E9064104626F
:1006D00001F0E8F808B100F005FA17208DF80000E5
:1006E0003B208DF8010037208DF80200019403941F
:1006F000002269460E48049401F09EF908B100F00A
:10070000F1F901208DF814008DF815008DF8160010
:100710008DF81740002205A9054801F03DF9002891
:1007200001D000F0DFF906B010BD00000028004045
:10073000380000207047002240F6B83306E0002160
:10074000491C89B29942FBD3521C92B28242F6D321
:10075000704700002DE9F05FB54CE07A00283DD0ED
:10076000214694F808C0CA790027DFF8C892511EC4
:100770000125B14E4FF0040B4FF0020A4FF47A639B
:10078000BCF1090F2AD2DFE80CF0050C2B367DC234
:10079000FCFBFA003068A169401AB0F57A7F1DD3DE
:1007A0002572002220214FF0904000F0CEFA6770B1
:1007B00002F0B2F8D9F80000FA21416300219D4807
:1007C00001F03EFC9DA1A148FFF77AFD9F49D8208A
:1007D00001F086FE3068A06184F808A0BDE8F09FB3
:1007E0003068A169401A9842F8D30021914801F07D
:1007F000A5FC03202072E079E17A401E05FA00F0A2
:10080000DFF84C8288421DDA4FF001024FF01001F0
:100810004FF0904000F099FA257002F02DF8D8F8CA
:1008200000004FF4487141630021404601F008FC8C
:1008300088A18648FFF744FD8449D82001F050FE86
:100840006572A6E0FDDD4FF000024FF010014FF0A1
:10085000904000F07AFA277002F00EF8D8F8000005
:100860004FF4167141630021794801F0E9FB7EA144
:100870007648FFF725FD7549D82001F031FE84F850
:1008800009A086E03068A36941F27076C51A684B0A
:10089000B54298795B7A00F00F0016D3A07105205D
:1008A000012B02D0022B03D004E0521CE27100E0C5
:1008B000E1712072E27971A16448FFF701FD63499B
:1008C000482001F00DFE6FA1A9E05949012B897A5A
:1008D00002D0022B0BD015E0A071082901D1802194
:1008E000A172A17A0843A0714808A0720AE04900E9
:1008F000A07111F0FF01A17201D11021A172C9B242
:100900000843A071BDE8F05FC82000F0EDB805FA1B
:1009100001F202423DD000214D4801F00FFC4FF49E
:100920009677384600F0E0F859A14848FFF7C8FC30
:100930004649482001F0D4FD384600F0D5F8E27968
:100940004EA14248FFF7BCFC4049482001F0C8FDD9
:10095000012220214FF0904000F0F7F9657001F07E
:10096000DBFFD9F8000047630021324801F068FB43
:1009700049A13648FFF7A4FC3449D82002E03CE006
:100980002DE00BE001F0ACFD3068A0610620207284
:1009900024E73068A06184F808B01FE73068A169D7
:1009A000401A9842F4D30021224801F0C7FBE079B5
:1009B000E17A401E05FA00F08143E172A07900F06F
:1009C000F0000840A07101F02BFF0720207236A133
:1009D0001E48FFF775FC1D49D82001F081FDE07A23
:1009E000D8B13068A06134A11848FFF769FC1749F5
:1009F000D82001F075FD082020723068A169401AE6
:100A0000B0F5FA6FC4D330A11048FFF759FC0F4975
:100A1000D82001F065FD2572E0E627722DA10B4874
:100A2000FFF74EFCBDE8F05F0849D82001F058BD43
:100A300008000020AC00002030000020446F6F72DE
:100A400020436C6F73696E6720202000F80000203F
:100A500060000020456C7665205570696E67202027
:100A60002020202000000000456C766520446F7730
:100A70006E696E67202020202000000020202020AA
:100A800025316400456C76652052756E6E696E671F
:100A90002020202020200000446F6F72204F7065BE
:100AA0006E696E6720202000446F6F72204F706562
:100AB0006E6E6564202000005761697474696E670A
:100AC0002032732020200000202020202020202001
:100AD0002020200020202020202020202020202036
:100AE0002000000072B6FEE770B5044600F032F94F
:100AF0000546601C02D004484068044400F02AF90E
:100B0000401BA042FAD370BD280000202DE9F04F11
:100B1000DFF80C92002301260325A9F1040B85B010
:100B20000F2709F1040AABF1040EF1E006FA03FC09
:100B300012EA0C027ED00C7904F00304012C01D0DF
:100B4000022C20D1846800945C0005FA04F8049417
:100B5000009C24EA08040094D1F80C80049C08FA54
:100B600004F8009C48EA0408C0F80880446824EAB5
:100B70000C0491F804C0CCF3001C0CFA03FC4CEA02
:100B8000040CC0F804C00C79E443A40702D18C68BB
:100B9000012C0ED0C4684FEA430805FA08FC24EA89
:100BA0000C04D1F808C00CFA08FC4CEA040CC0F89C
:100BB0000CC00C7904F00304022C16D1DC0800EB05
:100BC000840CCDF808C0DCF820C05C074FEAD4687C
:100BD00007FA08F42CEA040C0C6904FA08F444EA55
:100BE0000C04DDF808C0CCF8204004684FEA430844
:100BF00005FA08FC24EA0C0491F804C00CF0030C7C
:100C00000CFA08FC4CEA040CC0F800C04C6814F460
:100C1000403F7CD0434CD4F860C04CF0010CC4F889
:100C200060C0246E23F0030C04F0010400943E4CD9
:100C3000644400E06BE00294A4684FEA837C4FEACE
:100C40001C7807FA08FC24EA0C04B0F1904F06D097
:100C5000DFF8D8C0604505D14FF0010C20E04FF01F
:100C6000000C1DE0DFF8C8C0604502D14FF0020C57
:100C700016E0DFF8C0C0604502D14FF0030C0FE072
:100C8000DFF8B4C0604502D14FF0040C08E0DFF893
:100C9000ACC0604502D14FF0050C01E04FF0060CEE
:100CA0000CFA08FC4CEA040C029CC4F808C0D9F801
:100CB0000040CC46D1F8048094435FEAC82800D5B0
:100CC0001443CCF80040DAF80040D446D1F8048050
:100CD00094435FEA882800D51443CCF80040DBF841
:100CE0000040DC46D1F8048094435FEA883800D5A0
:100CF0001443CCF80040DEF80040F446D1F80480FC
:100D000094435FEAC83800D51443CCF800405B1C1C
:100D10000C682246DC407FF409AF05B0BDE8F08FD7
:100D20000804014000100240000001400004004897
:100D300000080048000C004800100048001400485B
:100D40000069084000D0012070470AB181617047F6
:100D500081627047014880687047000028000020C9
:100D60000248816842681144816070472800002071
:100D700010B50024032000F065F8002000F008F80A
:100D800008B1012401E000F025F8204610BD000064
:100D900070B50E4E05460024706898B14FF47A7114
:100DA000B1FBF0F00A490968B1FBF0F000F0C6FEB3
:100DB00040B9102D06D200222946501E00F022F81C
:100DC000356000E00124204670BD000028000020AE
:100DD000340000200A4882B0016E41F00101016632
:100DE000016E01F001010091816D41F0805181653A
:100DF000806D00F08050009002B000F093B80000C9
:100E000000100240F0B40E4B1B680C46C3F30223E3
:100E1000C3F10705042D00D90425191D072901D2A6
:100E2000002300E0DB1E012606FA05F1491E2140E1
:100E300099409E40761E16403143F0BC02F053BAF2
:100E40000CED00E0064900F0070208684FF6FF03CA
:100E5000184040EA0220034A10430860704700002F
:100E60000CED00E00000FA052B492C4B0A683221FA
:100E70004A432B4940B1B0F5007F086829D020F4DF
:100E8000C06040F480602CE00868C0F34120022874
:100E900004D051F8800F20F4807022E0D1F8800057
:100EA00020F48070C1F88000086820F4C06040F42D
:100EB00000700860B2FBF3F0401C00E0401E4A697D
:100EC000520501D50028F9D1486940050AD503200B
:100ED0007047C0F34120022806D051F8800F40F43B
:100EE0008070086000207047D1F8800040F4807066
:100EF000C1F88000086820F4C06040F40070086009
:100F0000B2FBF3F0401C00E0401E4A695205DBD5FD
:100F10000028F9D1D8E700003400002040420F003B
:100F2000007000400248816841F480418160704750
:100F3000007000402DE9F8430446006800269D4DEE
:100F400000035ED5A86D0027C00008D4A86D40F04E
:100F50008050A865A86D012700F080500090DFF850
:100F60005892D9F8001041F48071C9F80010FFF7C9
:100F7000F1FE804606E000BFFFF7ECFEA0EB0800A4
:100F800002282BD8D9F80000C005F5D5D5F8900077
:100F900010F4407014D0216C814211D0D5F890002B
:100FA000D5F8901020F4407041F48031C5F89010CD
:100FB000D5F8901021F48031C5F89010C5F8900054
:100FC000C00711D0FFF7C6FE804641F2883907E01E
:100FD000FFF7C0FEA0EB0801494501D903260BE04D
:100FE000D5F890008007F3D5D5F89000216C20F457
:100FF00040700843C5F890001FB1A86D20F08050E4
:10100000A8652078C00707D0D5F88800616820F06F
:1010100003000843C5F888002078800707D5D5F875
:101020008800A16820F00C000843C5F888002078EB
:10103000400707D5D5F88800E16820F03000084364
:10104000C5F888002078000707D5D5F88800216901
:1010500020F0C0000843C5F888002078800607D536
:10106000D5F88800616920F440600843C5F888001D
:101070002078400607D5D5F88800A16920F44050B3
:101080000843C5F888002078000607D5D5F8880001
:10109000E16920F440400843C5F888002088C00575
:1010A00007D5D5F88800216A20F440300843C5F8F8
:1010B00088002088800507D5D5F88800616A20F46B
:1010C00040200843C5F88800208840050FD5D5F892
:1010D0008800A16A20F440100843C5F88800A06A7F
:1010E000B0F5801F03D1E86840F48010E8602088E4
:1010F00000050FD5D5F88800E16A20F440000843C8
:10110000C5F88800E06AB0F5800F03D1E86840F4C4
:101110008010E8602088C0040FD5D5F88800216BC6
:1011200020F040700843C5F88800206BB0F1807F44
:1011300003D1E86840F48010E86020884FF0006137
:1011400080040ED5D5F88800626B20F04060104313
:10115000C5F88800606B884203D1E86840F48010CD
:10116000E860208840040ED5D5F88800A26B20F0F6
:1011700040601043C5F88800A06B884203D1E8683E
:1011800040F48010E860208800040FD5D5F888006E
:10119000E16B20F040500843C5F88800E06BB0F1E7
:1011A000805F03D1E86840F48030E8603046BDE8F5
:1011B000F883000000100240007000402DE9F04765
:1011C0000E4605004FF0000725D0DFF8AC81D8F8B7
:1011D000000000F00F00B0420CD2D8F8001021F04F
:1011E0000F013143C8F80010D8F8000000F00F00DC
:1011F000B04210D12968614CC80741F2883A5AD0F0
:101200006868DFF87C91032808D0022820682DD078
:10121000400500282CDB0120BDE8F0872068800114
:10122000F9D5E06800F00302E068C0F30310401C49
:10123000032A19D0534A00BFB2FBF0F0E268C2F3B0
:1012400006225043E268C2F34162521C5200B0FBD6
:10125000F2F0484517D9A06810F0F00F0CD08807BD
:1012600011D5A86840B10EE0474AE5E78003D0E712
:1012700000F092F8484506D9A06820F0F00040F050
:101280008000A0608027A068696820F00300084300
:10129000A060FFF75FFD814606E000BFFFF75AFD43
:1012A000A0EB090151453AD8A068696800F00C002C
:1012B000B0EB810FF2D12868810714D5400703D520
:1012C000A06840F4E060A0602878000705D5A06819
:1012D00020F4605040F4E060A060A068A96820F0AD
:1012E000F000084304E0802F03D1A06820F0F00054
:1012F000A060D8F80010404601F00F01B14216D9A5
:10130000016821F00F0131430160FFF723FD07461B
:1013100007E000BFFFF71EFDC11B514501D90320A7
:101320007AE7D8F8000000F00F00B042F2D1287838
:10133000400705D5A068E96820F4E0600843A06094
:101340002878000706D5A068296920F4605040EA93
:10135000C100A06000F020F8A1680C4AC1F303119D
:10136000515C01F01F01C840094908600948006844
:10137000BDE8F047FFF70CBD00200240001002401E
:1013800000B4C4040024F40000366E015645000881
:101390003400002028000020184910B58868C0F3E8
:1013A00081021748012A0BD08A68164BC2F38102CA
:1013B000022A06D08A68C2F38102032A03D00020E1
:1013C00010BD184610BDCA6802F00304CA68C2F313
:1013D0000312521C032C02D0B0FBF2F001E0B3FB6D
:1013E000F2F0CA68C968C2F306225043C1F34161F2
:1013F000491C4900B0FBF1F010BD00000010024094
:101400000024F40000366E012DE9F84304007AD080
:101410002078F84DC00747D0A868E96800F00C00B4
:1014200001F003010C2802D0082817D001E003299D
:1014300014D06068B0F5803F17D0B0F5A02F2868B1
:1014400017D020F480302860286820F4802028609D
:101450006068E0B1FFF77EFC064614E02868800370
:1014600022D560680028D2D01EE0286840F4803081
:10147000EDE740F480202860F7E700BFFFF76AFC43
:10148000801B642870D828688003F7D50CE0FFF72C
:1014900061FC064605E000BFFFF75CFC801B64288A
:1014A000F0D828688003F7D4207880074CD5A86846
:1014B000E96800F00C0001F003010C2802D00428B8
:1014C0000DD001E002290AD0E068002828682BD05E
:1014D00040F480702860FFF73DFC064619E028685C
:1014E000400502D5E068002891D06868217C20F092
:1014F000FE4040EA01606860BF480068FFF748FCB2
:10150000002800D120E072E1FFF724FC801B0228B4
:10151000B8D828684005F7D56868217C20F0FE40DF
:1015200040EA016068600FE020F480702860FFF7F7
:1015300011FC064605E000BFFFF70CFC801B0228EB
:10154000A0D828684005F7D42078000729D560691D
:101550000028D5F8940013D040F00100C5F894009D
:10156000FFF7F8FB064606E090E000BFFFF7F2FB4E
:10157000801B022886D8D5F894008007F6D510E0A5
:1015800020F00100C5F89400FFF7E4FB064604E0F4
:10159000FFF7E0FB801B022878D8D5F8940080077D
:1015A000F6D42078400761D5A86D0026C00008D485
:1015B000A86D40F08050A865A86D012600F080500D
:1015C00000908E480168C90511D40168804641F435
:1015D00080710160FFF7BEFB074604E0FFF7BAFB2E
:1015E000C01B022852D8D8F80000C005F6D5A06864
:1015F000012815D00528D5F8900016D020F001005C
:10160000C5F89000D5F8900020F00400C5F89000CF
:10161000A06841F28838B8B1FFF79CFB07460EE09E
:10162000D5F8900040F00100F0E740F00400C5F864
:101630009000F5E7FFF78EFBC11B414526D8D5F892
:1016400090008007F6D50CE0FFF784FB074604E026
:10165000FFF780FBC11B414518D8D5F890008007E3
:10166000F6D41EB1A86D20F08050A86520788006C1
:1016700029D5A0690028D5F8980013D040F00100C2
:10168000C5F89800FFF766FB064606E075E000BF68
:10169000FFF760FB801B02286FD8D5F89800800701
:1016A000F6D510E020F00100C5F89800FFF752FBD6
:1016B000064604E0FFF74EFB801B02285DD8D5F8F4
:1016C00098008007F6D4E069F0B3A968C1F38101FE
:1016D00003295DD00228286820F08070286003D09C
:1016E000FFF738FB04464BE0FFF734FB064604E007
:1016F000FFF730FB801B02283FD828688001F7D411
:10170000F4E908016FF00F0202EB01110843218A8E
:101710005204490802EB4151A26841EA0221084300
:10172000217D4FF07E42490802EB41610843217B55
:1017300040EAC160E968324A11400843E86028681D
:1017400040F08070286000E05EE0E86840F0807063
:10175000E860FFF7FFFA044605E000BFFFF7FAFA7A
:10176000001B022809D828688001F7D54CE000BF8B
:10177000FFF7F0FA001B022802D90320BDE8F88326
:1017800028688001F4D4E8681E490840E8603BE01E
:101790000128F3D0E868226A00F00301914226D1C3
:1017A000616A00F0F0020901103991421FD1A26A6A
:1017B00000F4FE41B1EB022F19D194F82C2000F077
:1017C0007841B1EBC26F12D1218E00F4C0024908FA
:1017D0004905A1F50011914209D194F8341000F0A7
:1017E000C06049084906A1F1007181420CD0012076
:1017F000C4E70000001002402800002000700040F4
:101800000C809F01FCFFEEFE0020B7E710B50068DA
:101810000B4641680D480140080CD870C1F3042400
:101820005C7001F03F049C70C1F34231197052B9F1
:1018300001F04BFAD870587801F047FA5870987850
:1018400001F043FA9870002010BD00003FFFFF0038
:1018500010B50B4601688968596001680969C1F3D0
:101860000E019960006801680D480140C1F3054010
:101870001870C1F306245C7001F07F049C70890D20
:10188000D97052B901F021FA1870587801F01DFA98
:101890005870987801F019FA9870002010BD000077
:1018A0007F7F7F0070B504004FF0010040D094F8B6
:1018B000250028B9002084F82400204600F040F8D4
:1018C000022084F825002068C168C943C90630D5C4
:1018D000CA214162216853204862204601F00AFA79
:1018E00010BB20688169154A1140816121688869AF
:1018F0006268A369104322691A43104388612189F1
:10190000E06840EA014021680861204601F017FACA
:1019100050B9D4E90721114322686369956925F01C
:1019200060452B43194391612268FF21516208B140
:1019300070BD0020012184F8251070BDBFFF8FFB12
:1019400010B592B0044644216846FEF7CDFD10491B
:10195000206888421AD14FF4002000904FF4407064
:1019600010906846FFF7E6FA08B1FFF7BBF80948A0
:1019700050F8901F41F4004140F83819016841F4D3
:1019800080610160006800F48060119012B010BDA9
:10199000002800400010024070B5044690F8240072
:1019A0000B4601281BD0012684F82460022084F80D
:1019B0002500B2B19878D97840EA0145587819786D
:1019C000000240EA413005432168CA20486221688C
:1019D00053204862204601F08DF9D0B120E002206A
:1019E00070BD5878C10603D500F0EF000A3058707A
:1019F000D87801F073F90504587801F06FF945EAD9
:101A00000025987801F06AF90543187845EA4035D1
:101A1000DAE70848054020684560204601F08FF964
:101A20002268FF21516208B984F82560002184F8FA
:101A3000241070BD3FFFFF002DE9F041044690F8EF
:101A4000240090460D46012811D0012784F8247007
:101A5000022084F825002168CA20486221685320AA
:101A60004862204601F046F9002618B129E002201C
:101A7000BDE8F0812068B8F1000F80694FEA40604E
:101A800024D0002800DBEE70A8782978EA7840EAB4
:101A900001406978090241EA825108431849084027
:101AA000216808602068816921F480218161D5E97D
:101AB0000301084321688A6910438861204601F0C8
:101AC0003EF92268FF215162A0B115E0002800DB39
:101AD000EE70287801F002F90304687801F0FEF84E
:101AE00043EA0023A87801F0F9F80343E87843EAD1
:101AF0008050D3E784F8257084F82460B8E70000AC
:101B00007F7F7F0070B504460B482168C860FFF7EF
:101B100021F905464FF47A7607E000BFFFF71AF97E
:101B2000401BB04201D9032070BD2068C068800608
:101B3000F4D5002070BD00005F00010010B5401E0C
:101B4000B0F1807F01D3012010BD4FF0E02460612F
:101B50000F21601701F0C7FB0020A0610720206162
:101B6000002010BD30B590F83C20012A42D001225F
:101B700080F83C20CA688B6822F440721A434B6894
:101B800022F480621A430B6822F400621A430B6944
:101B900022F480521A434B6922F400521A430B6B11
:101BA00022F480421A430B8B22F4702242EA034251
:101BB000CB6922F080521A430F4D03680024AB42D8
:101BC00002D00E4DAB4210D10D8D22F4700242EACC
:101BD00005520D6A22F080722A434D6A22F000728B
:101BE0002A43C96A22F000520A435A6480F83C40F2
:101BF000002030BD022030BD002C014000340140E7
:101C0000F0B590F83C20012A3AD0012580F83C50EC
:101C1000022280F83D2003685A689C68194E1A4FCA
:101C2000B34201D0BB4204D122F4700C4A6842EAAC
:101C30000C02DFF858C002EA0C02D1F800C04CEAEE
:101C4000020CC3F804C00268B2420DD0B2F1804F5A
:101C50000AD00F4B9A4207D00E4B9A4204D0BA4298
:101C600002D00D4B9A4204D1896824F080031943B5
:101C7000916080F83D50002180F83C100846F0BD8E
:101C80000220F0BD002C0140003401408FFFFFFD19
:101C900000040040000800400040014010B504006E
:101CA00003D094F83D0010B107E0012010BD0020E2
:101CB00084F83C00204600F023F8022084F83D0020
:101CC000211D206801F0A2F8012084F8480084F862
:101CD0003E0084F83F0084F8400084F8410084F816
:101CE000420084F8430084F8440084F8450084F8F6
:101CF000460084F8470084F83D00002010BD000035
:101D000008B50C4A01680C48914207D1816D41F039
:101D100002018165806D00F0020009E0074A9142EE
:101D200007D1016E41F480210166006E00F480202D
:101D3000009008BD0004004000100240004801402F
:101D400070B5044690F83C000025012814D0012607
:101D500084F83C60022084F83D0022689068364B8D
:101D6000184020F47F409060086870282ED010DC66
:101D700010F00F0F03D021E04FF0020070BD4FEACA
:101D80002012072A1AD2DFE802F0525252524A3881
:101D900040002A4BC21A984249D009DCB0F5805F56
:101DA0000DD0B0F5005F1CD0B0F1101F06D13EE0A1
:101DB000102A3CD0202A3AD0502A38D0012584F865
:101DC0003D60002084F83C00284670BDCB68D1E916
:101DD0000121206801F083F82068816841F07701D3
:101DE00009E0CB68D1E90121206801F078F820688A
:101DF000816841F480418160E1E7CA6849682068F0
:101E000001F022FA5021206806E0CA68496820687B
:101E100001F048FA6021206801F06CF8CFE7CA6849
:101E20004968206801F010FA40212068F4E7226830
:101E300001461046F0E7000088FFCEFF20001000AA
:101E400030B587B0044614216846FEF74DFB246880
:101E5000164D0023164A02214FF09040AC420DD19E
:101E6000D46C44F00104D464D26CCDE9023102F0A8
:101E7000010205924022CDE9002110E00D4DAC4257
:101E800011D1D46C44F00104D464D26CCDE9023198
:101E900002F0010205928022CDE900210121049186
:101EA0006946FEF733FE07B030BD00000004004075
:101EB000001002400048014070B5044690F83C0014
:101EC00000260D4601280BD0012084F83C000C2A86
:101ED0004AD007DC82B1042A20D0082A06D131E09A
:101EE000022070BD102A53D0142A63D0012600208E
:101EF00084F83C00304670BD206801F005F8206889
:101F0000816941F0080181612068816921F0040143
:101F10008161206881692A69114311E0206801F01C
:101F200045F82068816941F4006181612068816918
:101F300021F480618161206881692A6941EA022176
:101F40008161D4E7206801F07BF82068C16941F025
:101F50000801C1612068C16921F00401C1612068E4
:101F6000C1692A69114311E0206801F0B3F82068C3
:101F7000C16941F40061C1612068C16921F48061D7
:101F8000C1612068C1692A6941EA0221C161AEE7E5
:101F9000206801F0E9F82068016D41F00801016551
:101FA0002068016D21F0040101652068016D2A6936
:101FB000114311E0206801F00FF92068016D41F430
:101FC000006101652068016D21F480610165206870
:101FD000016D2A6941EA0221016588E710B5040014
:101FE00003D094F83D0010B107E0012010BD00209F
:101FF00084F83C00204600F022F8022084F83D00DE
:10200000211D206800F002FF012084F8480084F8B8
:102010003E0084F83F0084F8400084F8410084F8D2
:10202000420084F8430084F8440084F8450084F8B2
:10203000460084F8470084F83D00002010BD70473A
:1020400030B50446022269B1042912D0082917D0FC
:102050000C291CD0102921D094F84300012824D049
:10206000012030BD94F83E000128F9D184F83E20CB
:102070001DE094F83F000128F2D184F83F2016E0DB
:1020800094F840000128EBD184F840200FE094F848
:1020900041000128E4D184F8412008E094F842008E
:1020A0000128DDD184F8422001E084F84320012298
:1020B000206800F007FF194B20681949194A984217
:1020C00009D0884207D0904205D0174DA84202D0CF
:1020D000164DA84203D1456C45F40045456420687F
:1020E00098420CD0B0F1804F09D0114B984206D0E5
:1020F000104B984203D0884201D0904207D18168AA
:102100000D4A1140062906D0B1F5803F03D0016881
:1021100041F001010160002030BD0000002C0140B1
:1021200000340140004001400044014000480140AB
:1021300000040040000800400700010030B50446DC
:102140000D460068002200F0BDFE2349214B2068A7
:102150008A1198420BD0214B984208D0204B9842CC
:1021600005D0204B984202D01F4B984209D1036AF8
:102170000B4206D1036A134203D1436C23F400439C
:1021800043642068036A0B4206D1016A114203D1FD
:10219000016821F00101016001205DB1042D0CD026
:1021A000082D0DD00C2D0ED0102D0FD084F843002B
:1021B000002030BD84F83E00FAE784F83F00F7E7DE
:1021C00084F84000F4E784F84100F1E784F8420025
:1021D000EEE70000002C0140111111000034014015
:1021E000004001400044014000480140FEE700007B
:1021F000F0B587B014216846FEF776F93248C16C15
:1022000041F00401C164C16C01F004010591C16C8D
:1022100041F02001C164C16C01F020010591C16C45
:1022200041F00101C164C16C01F001010591C16C73
:1022300041F00201C164C16C01F002010591C16C61
:1022400041F00801C164C06C204E00F008004FF45A
:102250007F440590012221463046FEF776FD1C4F53
:10226000002204213846FEF770FD0125CDE9004526
:1022700000240294694630460394FEF747FCCDE9FA
:1022800000544FF09046694630460294FEF73EFCFB
:102290000720CDE9000469460E480294FEF736FC9B
:1022A00004200090CDE90154694638460394FEF7B6
:1022B0002DFC30200090CDE901546946304603944E
:1022C000FEF724FC07B0F0BD0010024000080048F3
:1022D000000C00480004004870B5234D2868234CCA
:1022E000E168401A32283DD92868E06000F040F8E3
:1022F000A070627920EA020142402171824362713A
:10230000E070227A52BB012806D002280BD00328A5
:1023100010D0042815D01BE0E079012818D0E07A0D
:1023200040F0010013E0E079022811D0E07A40F09B
:1023300002000CE0E07903280AD0E07A40F00400C3
:1023400005E0E079042803D0E07A40F00800E0726C
:10235000A079E27A00F0F0001043A071002901D0CA
:102360002868A06170BD0000300000200800002037
:1023700070B5104D002401212846FEF7E1FC80B124
:1023800002212846FEF7DCFC68B104212846FEF74E
:10239000D7FC50B101214FF09040FEF7D1FC30B195
:1023A00006E0012404E0022402E0032400E0042407
:1023B000204670BD0004004800B585B01421684671
:1023C000FEF792F84FF6FF70009000200321CDE950
:1023D0000201019069460248FEF798FB05B000BD76
:1023E0000008004800B585B014216846FEF77CF867
:1023F0004FF6FF7000900120019003200390002011
:10240000029069460248FEF781FB05B000BD00005E
:102410000008004870B5002406462146204600F01A
:1024200003F900F041F94FF49635304600F010F909
:10243000641CAC42F9D370BD30B587B01421684636
:10244000FEF752F81E48C16C41F00401C164C16C32
:1024500001F004010591C16C41F00101C164C16C3E
:1024600001F001010591C16C41F00201C164C06C31
:10247000012500F0020005904FF44870CDE90005F9
:1024800000240394694602940E48FEF73FFB28029D
:1024900003940090CDE901544FF0904469462046E2
:1024A000FEF734FBFFF79EFFA06940F48070A06147
:1024B00004481830016841F40871016007B030BD6C
:1024C0000010024000040048203AD2B2034B02EB55
:1024D000420203EB021200F019B800008633000834
:1024E000F0B50E460746002540F23F1407E02146AE
:1024F0003846FFF7E9FF103C6D1CA4B2761C327819
:10250000002A01D0142DF2D3F0BD00002DE9F047D0
:1025100091468A460026044600F086F8DFF840809F
:10252000012700BF00F0C0F85FF0000539F8160081
:1025300007FA05F10842404601D1408800E00088D2
:1025400000F086F86D1C102DF0D3641CE4B25146E7
:10255000204600F069F8761C182EE3D3BDE8F0871A
:102560000000002010B5FFF767FF002000F014F80E
:10257000084CA080A088A0F50241303906D000F0B8
:10258000A3FA002000F008F8A08010BD00F013FAB4
:10259000F7E700000000002070B51D490A6842F40A
:1025A00000720A600A6842F480720A60184C103C9B
:1025B000226842F020022260164A1060086840F04B
:1025C0002000086000BF00BF00BF206840F020006E
:1025D0002060206840F480702060FFF7EDFE4FF02F
:1025E0009041886A40F48070886200BF00BF00BFDD
:1025F0000848001F006885B2886940F480708861CF
:10260000FFF7F0FE206840F400702060284670BD9F
:10261000280400481408004801B5BDF8000001492D
:10262000488008BD0000002010B50C46014620205F
:1026300000F068F82146BDE81040212000F062B8A3
:1026400001B5BDF800000149088008BD0000002068
:10265000134A116841F400711160114910390B6877
:1026600043F480730B600B6843F020030B600D4B49
:102670001860106840F02000106000BF00BF00BF6D
:10268000086840F020000860086840F48070086026
:1026900000BF00BF00BF086840F4007008607047CA
:1026A00028040048140800481449086840F40070E1
:1026B0000860086840F480700860104810380268AC
:1026C00042F0200202600E4B22221A600A6842F099
:1026D00020020A6000BF00BF00BF016841F0200176
:1026E0000160016841F48071016000BF00BF00BF5C
:1026F000016841F40071016070470000280400483F
:1027000014080048184B10B51A6842F400721A6099
:102710001A6842F480721A60134A103A146844F03E
:1027200020041460114C2060186840F020001860EC
:1027300000BF00BF00BF106840F0200010601068AC
:1027400040F4807010602160186840F0200018602C
:1027500000BF00BF00BF106840F02000106010688C
:1027600040F48070106010BD280400481408004830
:1027700038B51B4801681B4C6269891AC8292ED9D3
:102780000068606118A11D48FDF79AFD1B491820DB
:10279000FFF7A6FEE2791AA11848FDF791FD174947
:1027A0004820FFF79DFE002204F11C011648FFF7A8
:1027B0002DF81249002214311348FFF749F80F4849
:1027C0001430817800914378027810A11438FDF715
:1027D00077FDBDE8384009497820FFF781BE38BD54
:1027E00030000020080000202043757272656E746E
:1027F00020506C6174666F726D000000F80000205C
:1028000020202020253164003800002020202020B6
:10281000253032642D253032642D2530326400009D
:1028200070B5124D044601224FF47F412846FEF751
:102830008CFA0F4E012204213046FEF786FA002260
:1028400004213046FEF781FA210200222846FEF7D5
:102850007CFA012204213046FEF777FA3046BDE8C3
:10286000704000220421FEF770BA00000008004802
:10287000000C0048FEE7FEE710B58EB00024079478
:10288000089409940A940B940C941C2168460D94A6
:10289000FDF72AFE1F481E4901604F21C0E90114BF
:1028A00040F2E731C0E903148461FFF7F7F908B19A
:1028B000FEF718F94FF48050079007A91548FFF765
:1028C0003FFA08B1FEF70EF91248FFF787FB08B18F
:1028D000FEF708F90B940BA90E480D94FFF790F939
:1028E00008B1FEF7FFF8602000904FF44870CDE982
:1028F00001040022694607480494FFF7DDFA08B195
:10290000FEF7F0F80348FFF79BFA0EB010BD000089
:10291000000400406000002010B594B01C210DA8F8
:10292000FDF7E2FD34216846FDF7DEFD20481F4932
:10293000002401604F21C0E9011440F2F311C0E905
:10294000031444618461FFF7A9F908B1FEF7CAF8DE
:102950001748FFF743FB08B1FEF7C4F860200D905D
:102960004FF49670CDE90E04109411941294002245
:102970000DA90F481394FFF79FFA08B1FEF7B2F8BC
:1029800000944FF40050CDE9044001940294039464
:102990000694694606480C94FFF7E4F808B1FEF780
:1029A000A1F80348FFF74CFA14B010BD00480140ED
:1029B000AC000020704730B501210020FFF7A2FED7
:1029C0004FF47A70FDF7B7FE00210120FFF79AFE61
:1029D00041F290711020FFF795FE4FF41C516020DA
:1029E000FFF790FE01216120FFF78CFE02214620B7
:1029F000FFF788FE48F210011320FFF783FE48F22C
:102A0000FE011220FFF77EFE4FF4A0610220FFF7C7
:102A100079FE41F230010320FFF774FE40F20334E7
:102A200021463020FFF76EFE21463120FFF76AFE77
:102A300021463220FFF766FEE51E29463320FFF7C8
:102A400061FE03213420FFF75DFE21463520FFF7AC
:102A500059FE14213620FFF755FE21463720FFF797
:102A600051FE21463820FFF74DFE21463920FFF761
:102A700049FE29463A20FFF745FE03213B20FFF798
:102A800041FE21463C20FFF73DFE4FF4A0513D2082
:102A9000FFF738FE4FF400719220FFF733FE214616
:102AA0009320FFF72FFE40F60D019020FFF72AFE3E
:102AB00041F218010320FFF725FEBDE8304040F247
:102AC00073110720FFF71EBE10B543F20801E32083
:102AD000FFF718FE1221E720FFF714FE41F2312123
:102AE000EF20FFF70FFE00210120FFF70BFE4FF450
:102AF000E0610220FFF706FE41F230010320FFF7FC
:102B000001FE00210420FFF7FDFD40F2072108200F
:102B1000FFF7F8FD00210920FFF7F4FD00210A204E
:102B2000FFF7F0FD00210C20FFF7ECFD00210D2048
:102B3000FFF7E8FD00210F20FFF7E4FD0021102042
:102B4000FFF7E0FD07211120FFF7DCFD0021122037
:102B5000FFF7D8FD00211320FFF7D4FDC820FDF7B3
:102B6000C3FF41F290611020FFF7CCFD40F2272116
:102B70001120FFF7C7FD3220FDF7B6FF1D211220FF
:102B8000FFF7C0FD3220FDF7AFFF4FF400611320C7
:102B9000FFF7B8FD14212920FFF7B4FD0B212B20EE
:102BA000FFF7B0FD3220FDF79FFF00212020FFF747
:102BB000A9FD00212120FFF7A5FD07213020FFF707
:102BC000A1FD40F207713120FFF79CFD0621322064
:102BD000FFF798FD40F204713520FFF793FD41F6B1
:102BE00004713620FFF78EFD04213720FFF78AFDA0
:102BF00000213820FFF786FD40F206713920FFF7EB
:102C000081FD40F201713C20FFF77CFD0F213D204A
:102C1000FFF778FD00215020FFF774FDEF215120D0
:102C2000FFF770FD00215220FFF76CFD40F23F11CD
:102C30005320FFF767FD4FF41C516020FFF762FD42
:102C400001216120FFF75EFD00216A20FFF75AFD98
:102C500000218020FFF756FD00218120FFF752FD63
:102C600000218220FFF74EFD00218320FFF74AFD5F
:102C700000218420FFF746FD00218520FFF742FD5B
:102C800010219020FFF73EFD00219220FFF73AFD32
:102C900003219320FFF736FD4FF488719520FFF74D
:102CA00031FD00219720FFF72DFD00219820FFF72F
:102CB00029FD41F218010320FFF724FDBDE8104073
:102CC00040F273110720FFF71DBD010901EB8101DF
:102CD00000F00F0000EB4100C0B270470022014637
:102CE00002E00A39C9B2521C0A29FAD2100741EA95
:102CF000106070472DE9F041044600680025C16866
:102D0000490619D4C16841F08001C160FEF722F87C
:102D100006464FF47A78032708E000BFFEF71AF85A
:102D2000801B404502D9032584F825702068C068BF
:102D3000400601D4032DF1D12846BDE8F08170B5DD
:102D4000044600680025C16821F08001C160206848
:102D500081694FF00306890607D42046FEF7D2FEAC
:102D600098B184F8256003250FE0816921F02001E6
:102D700081612046FEF7C6FE10B184F82560032568
:102D80002068816941F020018161284670BD70474B
:102D9000FDF7E6BF10B594B038216846FDF7A4FBF7
:102DA00014210EA8FDF7A0FB4FF40070FEF75CF8AD
:102DB000012000900004019002200324CDE90704C3
:102DC0001421CDE90A100C900D9009946846FEF785
:102DD0001BFB08B1FDF786FE0F20CDE90E04002095
:102DE00010901190129002210EA8FEF7E7F900282A
:102DF00001D0FDF777FE14B010BD00000248016855
:102E000041F470010160704788ED00E02DE9F04366
:102E10000268254B254D264E264C4FF0804998429E
:102E200007D0484505D0A84203D0B04201D0A04207
:102E300003D122F070074A683A431F4FDFF87CC085
:102E4000DFF87C8098420DD048450BD0A84209D0CD
:102E5000B04207D0A04205D0B84203D0604501D0AF
:102E6000404503D122F44075CA682A434D6922F0D7
:102E700080022A438D68C5620D688562984207D03A
:102E8000A04205D0B84203D0604501D0404501D1F1
:102E900009690163016841F0040101600121416198
:102EA0000260BDE8F0830000002C014000040040F7
:102EB000000800400034014000400140004401404F
:102EC0000048014010B501F01F030121046A994038
:102ED0008C430462016A9A401143016210BD10B52F
:102EE000846842EA032224F47F440A432243826036
:102EF00010BD00008268034B1A400A4342F00701EC
:102F0000816070478FFFCFFF2DE9F043056A026AA9
:102F100022F001020262436882691E4C25F002051C
:102F200022400C6822F0030214438A681B4E2A4395
:102F3000194D1B4FDFF86CC0DFF86C90A84207D02A
:102F4000B04205D0B84203D0604501D048450AD10F
:102F5000D0F8208028F00408C0F8208022F008086B
:102F6000CA6842EA0802A84207D0B04205D0B84277
:102F700003D0604501D0484505D14D6923F4407325
:102F80001D438B692B43436084614968416302623E
:102F9000BDE8F0838FFFFEFF002C014000340140AC
:102FA000004001400044014000480140F0B5056A7E
:102FB000026A22F010020262426883691A4C1C4EB7
:102FC00023400C6823F4407343EA042425F02003D3
:102FD0008D6843EA0513154DA84201D0B04208D1CF
:102FE000076A27F040070762CF6823F0800343EAAF
:102FF0000713A8420AD0B04208D00E4DA84205D00F
:103000000D4DA84202D00D4DA84207D14D6922F4C2
:10301000406242EA85028D6942EA8502426084612B
:10302000496881630362F0BDFF8FFFFE002C014001
:10303000003401400040014000440140004801408C
:10304000F0B5056A026A22F4807202624268C369BE
:103050001A4C1C4E23400C6823F003031C4325F438
:1030600000738D6843EA0523154DA84201D0B04294
:1030700008D1076A27F480670762CF6823F40063EA
:1030800043EA0723A8420AD0B04208D00E4DA84216
:1030900005D00E4DA84202D00D4DA84207D14D6972
:1030A00022F4405242EA05128D6942EA051242605A
:1030B000C4614968C1630362F0BD00008FFFFEFF79
:1030C000002C014000340140004001400044014018
:1030D00000480140F0B5056A026A22F4805202629B
:1030E0004268C3691A4C1C4E23400C6823F4407399
:1030F00043EA042425F400538D6843EA0533154D53
:10310000A84201D0B04208D1076A27F4804707627D
:10311000CF6823F4004343EA0733A8420AD0B04201
:1031200008D00E4DA84205D00D4DA84202D00D4D3D
:10313000A84207D14D6922F4404242EA85128D69C6
:1031400042EA85124260C461496801640362F0BDCD
:10315000FF8FFFFE002C0140003401400040014081
:10316000004401400048014030B5056A026A22F47B
:10317000803202624268036D114C23400C681C438C
:1031800025F400330D8943EA05430E4DA8420BD0C8
:103190000D4DA84208D00D4DA84205D00C4DA842B7
:1031A00002D00C4DA84204D14D6922F4803242EA8B
:1031B00005224260046549688164036230BD0000F5
:1031C0008FFFFEFF002C0140003401400040014011
:1031D000004401400048014030B5046A026A22F40C
:1031E000801202624268036D114D24F400142B40DA
:1031F0000D6843EA05230D8944EA05540D4DA842A4
:103200000BD00D4DA84208D00C4DA84205D00C4D56
:10321000A84202D00B4DA84204D14D6922F480226D
:1032200042EA8522426003654968C164046230BD98
:10323000FF8FFFFE002C01400034014000400140A0
:10324000004401400048014010B5036A046A24F0BC
:10325000010404620E4CA0420BD00E4CA04208D0D8
:103260000D4CA04205D00D4CA04202D00C4CA04207
:1032700003D1046A24F004040462846924F0F00495
:1032800044EA021423F00A020A438461026210BD78
:10329000002C014000340140004001400044014046
:1032A0000048014010B5036A046A24F01004046267
:1032B0000A4CA04202D00A4CA04203D1046A24F076
:1032C00040040462846923F0A00324F4704444EAB7
:1032D000023243EA01118261016210BD002C0140FB
:1032E00000340140FEE70907090E002804DB00F165
:1032F000E02080F80014704700F00F0000F1E0209B
:1033000080F8141D704730380A2801D20120704718
:1033100000207047FDF72CFDFFF73CFDFDF7C0F9DD
:10332000FEF766FF012220214FF09040FDF70DFDD2
:10333000FFF718F94FF6FF742046FFF76BF80020EF
:10334000FFF77EF92046FFF767F90A4C0A4D00BFE8
:10335000FEF7C2FF20682969401AC82804D92068EE
:103360002861A879FFF75CFAFFF702FAFDF7F2F996
:10337000EEE7000030000020080000204FF0407011
:10338000E1EE100A7047000000000000000000009D
:10339000000000000000000000000000000000002D
:1033A000000000000000000000000000000000001D
:1033B0000000000000000000800180018001800109
:1033C00080018001800180018001800180018001F5
:1033D000800100000000800180010000000000006A
:1033E00000000000000000000000CC00CC00CC0079
:1033F000CC00CC00CC000000000000000000000069
:1034000000000000000000000000000000000000BC
:1034100000000000000000000000000000000000AC
:103420000000600C600C600C30063006FE1FFE1FB2
:10343000300638071803FE1FFE1F180318038C01FF
:103440008C018C01000000008000E003F80F9C0E4E
:103450008C1C8C188C009800F801E007800E801CF2
:103460008C188C189C18B80CF00FE00380008000BA
:103470000000000000000000000000000E181B0CFF
:10348000110C11061106110311039B018E01C038A6
:10349000C06C60446044304430441844186C0C38AC
:1034A0000000000000000000E001F00338071806EB
:1034B00018063003F001F000F8009C310E33061EB0
:1034C000061C061C063FFC73F021000000000000F3
:1034D000000000000000000000000C000C000C00C8
:1034E0000C000C000C0000000000000000000000B8
:1034F00000000000000000000000000000000000CC
:103500000000000000000000000200038001C00075
:10351000C00060006000300030003000300030003B
:1035200030003000300060006000C000C00080014A
:10353000000300020000000020006000C0008001C5
:1035400080010003000300060006000600060006D6
:103550000006000600060003000380018001C00091
:1035600060002000000000000000000000000000DB
:103570000000C000C000D806F807E001300338079B
:10358000000000000000000000000000000000003B
:10359000000000000000000000000000000000002B
:1035A000000080018001800180018001FC3FFC3F20
:1035B0008001800180018001800100000000000086
:1035C00000000000000000000000000000000000FB
:1035D00000000000000000000000000000000000EB
:1035E00000000000000000008001800100010001D7
:1035F000800000000000000000000000000000004B
:103600000000000000000000000000000000E007D3
:10361000E0070000000000000000000000000000C3
:10362000000000000000000000000000000000009A
:10363000000000000000000000000000000000008A
:103640000000000000000000C000C00000000000FA
:103650000000000000000000000C000C0006000646
:103660000006000300030003800380018001800145
:10367000C000C000C000600060000000000000004A
:103680000000000000000000E003F007380E180CF6
:103690000C180C180C180C180C180C180C180C180A
:1036A0000C18180C380EF007E003000000000000B2
:1036B000000000000000000000018001C001F001D6
:1036C00098018801800180018001800180018001D2
:1036D0008001800180018001800100000000000065
:1036E0000000000000000000E003F80F180C0C18A8
:1036F0000C1800180018000C000600038001C00020
:10370000600030001800FC1FFC1F000000000000DB
:103710000000000000000000E001F807180E0C0C8B
:103720000C0C000C0006C003C007000C00180018A9
:103730000C180C18180CF807E0030000000000003B
:103740000000000000000000000C000E000F000F41
:10375000800DC00C600C600C300C180C0C0CFC3F85
:10376000FC3F000C000C000C000C000000000000EE
:103770000000000000000000F80FF80F180018000B
:103780000C00EC03FC071C0E001C001800180018AD
:103790000C181C0C180EF807E003000000000000D5
:1037A0000000000000000000C007F00F381C1818CF
:1037B00018000C00CC03EC0F3C0E1C1C0C180C1851
:1037C0000C18181C380EF007E00300000000000081
:1037D0000000000000000000FC1FFC1F000C0006A1
:1037E0000006000380038001C001C000E00060000B
:1037F0006000700030003000300000000000000069
:103800000000000000000000E003F007380E180C74
:10381000180C180C3806F007F007180C0C180C18C8
:103820000C180C18380CF80FE00300000000000022
:103830000000000000000000E003F007380E1C0C40
:103840000C180C180C181C1C381EF81BE01900185A
:10385000000C000C1C0EF807F00100000000000036
:103860000000000000000000000000000000000058
:103870000000800180010000000000000000000046
:103880000000000000008001800100000000000036
:103890000000000000000000000000000000000028
:1038A0000000800180010000000000000000000016
:1038B0000000000000008001800100010001800084
:1038C00000000000000000000000000000000000F8
:1038D0000000000000000010001C800FE003F80052
:1038E0001800F800E003800F001C0010000000002A
:1038F00000000000000000000000000000000000C8
:10390000000000000000F81F000000000000F81F89
:1039100000000000000000000000000000000000A7
:103920000000000000000000000000000000000097
:1039300000000000000008003800F001C007001F70
:103940000018001FC007F001380008000000000048
:103950000000000000000000E003F80F180C0C1835
:103960000C180018000C000600038001C000C00005
:10397000C00000000000C000C00000000000000007
:1039800000000000000000000000E00718180420FC
:10399000C229224A11440944094409440922111345
:1039A000E20C024004201818E007000000000000AC
:1039B000000000000000000080038003C006C00675
:1039C000C006600C600C301830183018F83FF83F13
:1039D0001C700C600C6006C006C0000000000000F7
:1039E0000000000000000000FC03FC0F0C0C0C1891
:1039F0000C180C180C0CFC07FC0F0C180C300C30BD
:103A00000C300C300C18FC1FFC07000000000000FC
:103A10000000000000000000C007F01F38381C3014
:103A20000C70066006000600060006000600060090
:103A300006600C701C30F01FE00700000000000062
:103A40000000000000000000FE03FE0F060E061836
:103A500006180630063006300630063006300630CE
:103A600006180618060EFE0FFE03000000000000F8
:103A70000000000000000000FC3FFC3F0C000C00B8
:103A80000C000C000C00FC1FFC1F0C000C000C00B8
:103A90000C000C000C00FC3FFC3F0000000000008C
:103AA0000000000000000000F83FF83F1800180078
:103AB000180018001800F81FF81F18001800180048
:103AC000180018001800180018000000000000007E
:103AD0000000000000000000E00FF83F3C780E609E
:103AE00006E007C00300030003FE03FE03C007C097
:103AF00006C00EC03CF0F83FE00F000000000000E0
:103B000000000000000000000C300C300C300C30C5
:103B10000C300C300C30FC3FFC3F0C300C300C30C7
:103B20000C300C300C300C300C3000000000000069
:103B30000000000000000000800180018001800181
:103B4000800180018001800180018001800180016D
:103B500080018001800180018001000000000000E0
:103B6000000000000000000000060006000600063D
:103B70000006000600060006000600060006000615
:103B8000180618063807F003E001000000000000E6
:103B9000000000000000000006300618060C0606B3
:103BA00006038601C60066007600DE008E0106036D
:103BB0000606060C0618063006600000000000002D
:103BC0000000000000000000180018001800180095
:103BD0001800180018001800180018001800180025
:103BE000180018001800F81FF81F0000000000005F
:103BF00000000000000000000EE01EF01EF01EF0AD
:103C000036D836D836D836D866CC66CC66CCC6C65A
:103C1000C6C6C6C6C6C686C386C30000000000006E
:103C200000000000000000000C301C303C303C3034
:103C30006C306C30CC30CC308C310C330C330C36D7
:103C40000C360C3C0C3C0C380C3000000000000022
:103C50000000000000000000E007F81F1C380E7094
:103C6000066003C003C003C003C003C003C003C099
:103C700006600E701C38F81FE0070000000000000E
:103C80000000000000000000FC0FFC1F0C380C308E
:103C90000C300C300C300C18FC1FFC070C000C0016
:103CA0000C000C000C000C000C00000000000000D8
:103CB0000000000000000000E007F81F1C380E7034
:103CC000066003E003C003C003C003C003C007E0F5
:103CD00006630E3F1C3CF83FE0F700C00000000008
:103CE0000000000000000000FE0FFE1F0638063036
:103CF000063006300638FE1FFE0706030606060CD1
:103D000006180618063006300660000000000000A5
:103D10000000000000000000E003F80F1C0C0C186D
:103D20000C180C001C00F803E00F001E00380630D1
:103D300006300E301C1CF80FE007000000000000E9
:103D40000000000000000000FE7FFE7F8001800177
:103D5000800180018001800180018001800180015B
:103D600080018001800180018001000000000000CE
:103D700000000000000000000C300C300C300C3053
:103D80000C300C300C300C300C300C300C300C3053
:103D90000C300C301818F81FE0070000000000007D
:103DA000000000000000000003600630063006300E
:103DB0000C180C180C18180C180C380E300630069D
:103DC000700760036003C001C00100000000000034
:103DD00000000000000000000360C361C361C36114
:103DE0006633663366336633663366336C1B6C1B2F
:103DF0006C1B2C1A3C1E380E380E00000000000010
:103E000000000000000000000FE00C7018303018B7
:103E1000700C600EC00780038003C003E006700CC6
:103E2000301C18180C300E6007E000000000000085
:103E3000000000000000000003C006600C301C38C9
:103E40003818300C6006E007C00380018001800153
:103E500080018001800180018001000000000000DD
:103E60000000000000000000FC7FFC7F00600030CC
:103E70000018000C000600038001C0006000300044
:103E800018000C000600FE7FFE7F0000000000000E
:103E90000000000000000000E003E003600060009C
:103EA0006000600060006000600060006000600012
:103EB0006000600060006000600060006000600002
:103EC000E003E0030000000030003000600060000C
:103ED0006000C000C000C000C001800180018001FE
:103EE00000030003000300060006000000000000BD
:103EF0000000000000000000E003E00300030003F6
:103F00000003000300030003000300030003000399
:103F10000003000300030003000300030003000389
:103F2000E003E003000000000000C001C0016003E6
:103F30006003600330063006180C180C0000000007
:103F40000000000000000000000000000000000071
:103F50000000000000000000000000000000000061
:103F60000000000000000000000000000000000051
:103F70000000000000000000FFFFFFFF0000000045
:103F800000000000000000000C000C000C000C0001
:103F90000C000C0000000000000000000000000009
:103FA0000000000000000000000000000000000011
:103FB0000000000000000000000000000000000001
:103FC0000000F003F8071C0C0C0C000FF00FF80CAD
:103FD0000C0C0C0C1C0FF80FF01800000000000077
:103FE0000000000000000000180018001800180071
:103FF0001800D803F80F380C1818181818181818C3
:1040000018181818380CF80FD8030000000000002A
:1040100000000000000000000000000000000000A0
:104020000000C003F007300E180C1800180018002C
:104030001800180C300EF007C0030000000000004C
:104040000000000000000000001800180018001810
:104050000018C01BF01F301C181818181818181852
:1040600018181818301CF01FC01B000000000000BA
:104070000000000000000000000000000000000040
:104080000000C003F00F300C1818F81FF81F1800BC
:1040900018003818301CF00FC007000000000000A6
:1040A0000000000000000000800FC00FC000C00032
:1040B000C000F007F007C000C000C000C000C00092
:1040C000C000C000C000C000C00000000000000030
:1040D00000000000000000000000000000000000E0
:1040E0000000E00DF80F180E0C0C0C0C0C0C0C0C56
:1040F0000C0C0C0C180EF80FE00D000C0C0C1C0630
:10410000F807F0010000000018001800180018005F
:104110001800D807F80F381C18181818181818188D
:10412000181818181818181818180000000000009F
:104130000000000000000000C000C00000000000FF
:104140000000C000C000C000C000C000C000C0002F
:10415000C000C000C000C000C0000000000000009F
:104160000000000000000000C000C00000000000CF
:104170000000C000C000C000C000C000C000C000FF
:10418000C000C000C000C000C000C000C000C0002F
:10419000F8007800000000000C000C000C000C007F
:1041A0000C000C0C0C060C038C01CC006C00FC0009
:1041B0009C018C030C030C060C0C0000000000009A
:1041C0000000000000000000C000C000C000C000EF
:1041D000C000C000C000C000C000C000C000C000DF
:1041E000C000C000C000C000C0000000000000000F
:1041F00000000000000000000000000000000000BF
:1042000000007C3CFF7EC7E383C183C183C183C1BF
:1042100083C183C183C183C183C10000000000004A
:10422000000000000000000000000000000000008E
:1042300000009807F80F381C1818181818181818C4
:10424000181818181818181818180000000000007E
:10425000000000000000000000000000000000005E
:104260000000C003F00F300C181818181818181890
:1042700018181818300CF00FC003000000000000E0
:10428000000000000000000000000000000000002E
:104290000000D803F80F380C181818181818181838
:1042A00018181818380CF80FD80318001800180040
:1042B00018001800000000000000000000000000CE
:1042C0000000C01BF01F301C1818181818181818F8
:1042D00018181818301CF01FC01B00180018001800
:1042E000001800180000000000000000000000009E
:1042F0000000B007F00370003000300030003000E4
:1043000030003000300030003000000000000000BD
:10431000000000000000000000000000000000009D
:104320000000E003F003380E180C3800F003C0075B
:10433000000C180C380EF007E0030000000000002D
:10434000000000000000000000008000C000C0006D
:10435000C000F007F007C000C000C000C000C000EF
:10436000C000C000C000C0078007000000000000BF
:10437000000000000000000000000000000000003D
:1043800000001818181818181818181818181818DD
:1043900018181818381CF01FE01900000000000061
:1043A000000000000000000000000000000000000D
:1043B00000000C18180C180C180C300630063006CB
:1043C000600360036003C001C00100000000000042
:1043D00000000000000000000000000000000000DD
:1043E0000000C141C141C3616363636363633636E7
:1043F000363636361C1C1C1C1C1C0000000000003D
:1044000000000000000000000000000000000000AC
:1044100000001C38381C300C600660036003600329
:1044200060036006300C381C1C38000000000000DF
:10443000000000000000000000000000000000007C
:1044400000001830301830187018600C600CE00C48
:10445000C006C00680038003800380018001C00184
:10446000F0007000000000000000000000000000EC
:104470000000FC1FFC1F000C000600038001C000B0
:10448000600030001800FC1FFC1F0000000000004E
:10449000000000000000000000038001C000C00018
:1044A000C000C000C000C0006000600030006000BC
:1044B0004000C000C000C000C000C000C0008001BB
:1044C00000030000000000008001800180018001E5
:1044D00080018001800180018001800180018001D4
:1044E00080018001800180018001800180018001C4
:1044F00080018001000000006000C000C001800158
:104500008001800180018001000300030006000398
:104510000001800180018001800180018001C000D4
:10452000600000000000000000000000000000002B
:10453000000000000000F010F81F080F000000004D
:10454000000000000000000000000000000000006B
:104550000000000000000000000000000000010258
:10456000030406070809040000080000000000001A
:104570000002000100001000984500080000002023
:104580003800000014020008D04500083800002060
:1045900048070000300200080000FFFF0000000094
:1045A000000000000000000100008000000000008A
:1045B00000000000000000000000000000000000FB
:1045C0001000000001000000000000000024F400C2
:04000005080001D915
:00000001FF
